{
  "_format": "hh-sol-artifact-1",
  "contractName": "StoreMarketplace",
  "sourceName": "contracts/StoreMarketplace.sol",
  "abi": [
    {
      "inputs": [
        {
          "internalType": "string",
          "name": "newBaseURI",
          "type": "string"
        },
        {
          "internalType": "string",
          "name": "_name",
          "type": "string"
        },
        {
          "internalType": "string",
          "name": "_symbol",
          "type": "string"
        }
      ],
      "stateMutability": "nonpayable",
      "type": "constructor"
    },
    {
      "anonymous": false,
      "inputs": [
        {
          "indexed": true,
          "internalType": "address",
          "name": "owner",
          "type": "address"
        },
        {
          "indexed": true,
          "internalType": "address",
          "name": "approved",
          "type": "address"
        },
        {
          "indexed": true,
          "internalType": "uint256",
          "name": "tokenId",
          "type": "uint256"
        }
      ],
      "name": "Approval",
      "type": "event"
    },
    {
      "anonymous": false,
      "inputs": [
        {
          "indexed": true,
          "internalType": "address",
          "name": "owner",
          "type": "address"
        },
        {
          "indexed": true,
          "internalType": "address",
          "name": "operator",
          "type": "address"
        },
        {
          "indexed": false,
          "internalType": "bool",
          "name": "approved",
          "type": "bool"
        }
      ],
      "name": "ApprovalForAll",
      "type": "event"
    },
    {
      "anonymous": false,
      "inputs": [
        {
          "indexed": true,
          "internalType": "address",
          "name": "previousOwner",
          "type": "address"
        },
        {
          "indexed": true,
          "internalType": "address",
          "name": "newOwner",
          "type": "address"
        }
      ],
      "name": "OwnershipTransferred",
      "type": "event"
    },
    {
      "anonymous": false,
      "inputs": [
        {
          "indexed": true,
          "internalType": "uint256",
          "name": "storeId",
          "type": "uint256"
        },
        {
          "indexed": true,
          "internalType": "string",
          "name": "subdomain",
          "type": "string"
        },
        {
          "indexed": false,
          "internalType": "string",
          "name": "colourHex",
          "type": "string"
        },
        {
          "indexed": false,
          "internalType": "string",
          "name": "plan",
          "type": "string"
        },
        {
          "indexed": false,
          "internalType": "address",
          "name": "owner",
          "type": "address"
        },
        {
          "indexed": false,
          "internalType": "string",
          "name": "logoURI",
          "type": "string"
        },
        {
          "indexed": false,
          "internalType": "bool",
          "name": "isInitialized",
          "type": "bool"
        }
      ],
      "name": "StoreCreated",
      "type": "event"
    },
    {
      "anonymous": false,
      "inputs": [
        {
          "indexed": true,
          "internalType": "address",
          "name": "from",
          "type": "address"
        },
        {
          "indexed": true,
          "internalType": "address",
          "name": "to",
          "type": "address"
        },
        {
          "indexed": true,
          "internalType": "uint256",
          "name": "tokenId",
          "type": "uint256"
        }
      ],
      "name": "Transfer",
      "type": "event"
    },
    {
      "inputs": [
        {
          "internalType": "address",
          "name": "to",
          "type": "address"
        },
        {
          "internalType": "uint256",
          "name": "tokenId",
          "type": "uint256"
        }
      ],
      "name": "approve",
      "outputs": [],
      "stateMutability": "nonpayable",
      "type": "function"
    },
    {
      "inputs": [
        {
          "internalType": "address",
          "name": "owner",
          "type": "address"
        }
      ],
      "name": "balanceOf",
      "outputs": [
        {
          "internalType": "uint256",
          "name": "",
          "type": "uint256"
        }
      ],
      "stateMutability": "view",
      "type": "function"
    },
    {
      "inputs": [],
      "name": "baseURI",
      "outputs": [
        {
          "internalType": "string",
          "name": "",
          "type": "string"
        }
      ],
      "stateMutability": "view",
      "type": "function"
    },
    {
      "inputs": [
        {
          "internalType": "string",
          "name": "subdomainIn",
          "type": "string"
        },
        {
          "internalType": "string",
          "name": "colourhex",
          "type": "string"
        },
        {
          "internalType": "string",
          "name": "plan",
          "type": "string"
        },
        {
          "internalType": "string",
          "name": "logoURI",
          "type": "string"
        }
      ],
      "name": "createStore",
      "outputs": [],
      "stateMutability": "payable",
      "type": "function"
    },
    {
      "inputs": [
        {
          "internalType": "string",
          "name": "subdomainIn",
          "type": "string"
        },
        {
          "internalType": "string",
          "name": "newHexColour",
          "type": "string"
        }
      ],
      "name": "editStoreColour",
      "outputs": [],
      "stateMutability": "payable",
      "type": "function"
    },
    {
      "inputs": [
        {
          "components": [
            {
              "internalType": "uint256",
              "name": "storeId",
              "type": "uint256"
            },
            {
              "internalType": "string",
              "name": "subdomain",
              "type": "string"
            },
            {
              "internalType": "string",
              "name": "colourHex",
              "type": "string"
            },
            {
              "internalType": "string",
              "name": "plan",
              "type": "string"
            },
            {
              "internalType": "address payable",
              "name": "owner",
              "type": "address"
            },
            {
              "internalType": "string",
              "name": "logoURI",
              "type": "string"
            },
            {
              "internalType": "bool",
              "name": "isInitialized",
              "type": "bool"
            }
          ],
          "internalType": "struct StoreMarketplace.Store",
          "name": "storeIn",
          "type": "tuple"
        },
        {
          "internalType": "string",
          "name": "newHexColour",
          "type": "string"
        }
      ],
      "name": "editStoreColour",
      "outputs": [],
      "stateMutability": "payable",
      "type": "function"
    },
    {
      "inputs": [
        {
          "internalType": "string",
          "name": "subdomainIn",
          "type": "string"
        },
        {
          "internalType": "string",
          "name": "newLogoURI",
          "type": "string"
        }
      ],
      "name": "editStoreLogo",
      "outputs": [],
      "stateMutability": "payable",
      "type": "function"
    },
    {
      "inputs": [
        {
          "internalType": "uint256",
          "name": "tokenId",
          "type": "uint256"
        }
      ],
      "name": "getApproved",
      "outputs": [
        {
          "internalType": "address",
          "name": "",
          "type": "address"
        }
      ],
      "stateMutability": "view",
      "type": "function"
    },
    {
      "inputs": [
        {
          "internalType": "string",
          "name": "subdomain",
          "type": "string"
        }
      ],
      "name": "getStoreWithSubdomain",
      "outputs": [
        {
          "components": [
            {
              "internalType": "uint256",
              "name": "storeId",
              "type": "uint256"
            },
            {
              "internalType": "string",
              "name": "subdomain",
              "type": "string"
            },
            {
              "internalType": "string",
              "name": "colourHex",
              "type": "string"
            },
            {
              "internalType": "string",
              "name": "plan",
              "type": "string"
            },
            {
              "internalType": "address payable",
              "name": "owner",
              "type": "address"
            },
            {
              "internalType": "string",
              "name": "logoURI",
              "type": "string"
            },
            {
              "internalType": "bool",
              "name": "isInitialized",
              "type": "bool"
            }
          ],
          "internalType": "struct StoreMarketplace.Store",
          "name": "",
          "type": "tuple"
        }
      ],
      "stateMutability": "view",
      "type": "function"
    },
    {
      "inputs": [
        {
          "internalType": "address",
          "name": "ownerAddress",
          "type": "address"
        }
      ],
      "name": "getSubdomainsFromWalletAddress",
      "outputs": [
        {
          "internalType": "string[]",
          "name": "",
          "type": "string[]"
        }
      ],
      "stateMutability": "view",
      "type": "function"
    },
    {
      "inputs": [
        {
          "internalType": "address",
          "name": "owner",
          "type": "address"
        },
        {
          "internalType": "address",
          "name": "operator",
          "type": "address"
        }
      ],
      "name": "isApprovedForAll",
      "outputs": [
        {
          "internalType": "bool",
          "name": "",
          "type": "bool"
        }
      ],
      "stateMutability": "view",
      "type": "function"
    },
    {
      "inputs": [],
      "name": "name",
      "outputs": [
        {
          "internalType": "string",
          "name": "",
          "type": "string"
        }
      ],
      "stateMutability": "view",
      "type": "function"
    },
    {
      "inputs": [
        {
          "internalType": "string",
          "name": "subdomain",
          "type": "string"
        }
      ],
      "name": "nameAvailable",
      "outputs": [
        {
          "internalType": "bool",
          "name": "",
          "type": "bool"
        }
      ],
      "stateMutability": "view",
      "type": "function"
    },
    {
      "inputs": [],
      "name": "owner",
      "outputs": [
        {
          "internalType": "address",
          "name": "",
          "type": "address"
        }
      ],
      "stateMutability": "view",
      "type": "function"
    },
    {
      "inputs": [
        {
          "internalType": "uint256",
          "name": "tokenId",
          "type": "uint256"
        }
      ],
      "name": "ownerOf",
      "outputs": [
        {
          "internalType": "address",
          "name": "",
          "type": "address"
        }
      ],
      "stateMutability": "view",
      "type": "function"
    },
    {
      "inputs": [],
      "name": "renounceOwnership",
      "outputs": [],
      "stateMutability": "nonpayable",
      "type": "function"
    },
    {
      "inputs": [
        {
          "internalType": "address",
          "name": "from",
          "type": "address"
        },
        {
          "internalType": "address",
          "name": "to",
          "type": "address"
        },
        {
          "internalType": "uint256",
          "name": "tokenId",
          "type": "uint256"
        }
      ],
      "name": "safeTransferFrom",
      "outputs": [],
      "stateMutability": "nonpayable",
      "type": "function"
    },
    {
      "inputs": [
        {
          "internalType": "address",
          "name": "from",
          "type": "address"
        },
        {
          "internalType": "address",
          "name": "to",
          "type": "address"
        },
        {
          "internalType": "uint256",
          "name": "tokenId",
          "type": "uint256"
        },
        {
          "internalType": "bytes",
          "name": "_data",
          "type": "bytes"
        }
      ],
      "name": "safeTransferFrom",
      "outputs": [],
      "stateMutability": "nonpayable",
      "type": "function"
    },
    {
      "inputs": [
        {
          "internalType": "address",
          "name": "operator",
          "type": "address"
        },
        {
          "internalType": "bool",
          "name": "approved",
          "type": "bool"
        }
      ],
      "name": "setApprovalForAll",
      "outputs": [],
      "stateMutability": "nonpayable",
      "type": "function"
    },
    {
      "inputs": [
        {
          "internalType": "string",
          "name": "_newBaseURI",
          "type": "string"
        }
      ],
      "name": "setBaseURI",
      "outputs": [],
      "stateMutability": "nonpayable",
      "type": "function"
    },
    {
      "inputs": [
        {
          "internalType": "bytes4",
          "name": "interfaceId",
          "type": "bytes4"
        }
      ],
      "name": "supportsInterface",
      "outputs": [
        {
          "internalType": "bool",
          "name": "",
          "type": "bool"
        }
      ],
      "stateMutability": "view",
      "type": "function"
    },
    {
      "inputs": [],
      "name": "symbol",
      "outputs": [
        {
          "internalType": "string",
          "name": "",
          "type": "string"
        }
      ],
      "stateMutability": "view",
      "type": "function"
    },
    {
      "inputs": [
        {
          "internalType": "uint256",
          "name": "tokenId",
          "type": "uint256"
        }
      ],
      "name": "tokenURI",
      "outputs": [
        {
          "internalType": "string",
          "name": "",
          "type": "string"
        }
      ],
      "stateMutability": "view",
      "type": "function"
    },
    {
      "inputs": [
        {
          "internalType": "address",
          "name": "from",
          "type": "address"
        },
        {
          "internalType": "address",
          "name": "to",
          "type": "address"
        },
        {
          "internalType": "uint256",
          "name": "tokenId",
          "type": "uint256"
        }
      ],
      "name": "transferFrom",
      "outputs": [],
      "stateMutability": "nonpayable",
      "type": "function"
    },
    {
      "inputs": [
        {
          "internalType": "address",
          "name": "newOwner",
          "type": "address"
        }
      ],
      "name": "transferOwnership",
      "outputs": [],
      "stateMutability": "nonpayable",
      "type": "function"
    }
  ],
  "bytecode": "0x6080604052681b1ae4d6e2ef500000600955683635c9adc5dea00000600a55686c6b935b8bbd400000600b553480156200003857600080fd5b506040516200499c3803806200499c83398181016040528101906200005e91906200039b565b818181600090805190602001906200007892919062000279565b5080600190805190602001906200009192919062000279565b5050506001600681905550620000bc620000b0620000d660201b60201c565b620000de60201b60201c565b620000cd83620001a460201b60201c565b5050506200062f565b600033905090565b6000600760009054906101000a900473ffffffffffffffffffffffffffffffffffffffff16905081600760006101000a81548173ffffffffffffffffffffffffffffffffffffffff021916908373ffffffffffffffffffffffffffffffffffffffff1602179055508173ffffffffffffffffffffffffffffffffffffffff168173ffffffffffffffffffffffffffffffffffffffff167f8be0079c531659141344cd1fd0a4f28419497f9722a3daafe3b4186f6b6457e060405160405180910390a35050565b620001b4620000d660201b60201c565b73ffffffffffffffffffffffffffffffffffffffff16620001da6200024f60201b60201c565b73ffffffffffffffffffffffffffffffffffffffff161462000233576040517f08c379a00000000000000000000000000000000000000000000000000000000081526004016200022a9062000463565b60405180910390fd5b80600c90805190602001906200024b92919062000279565b5050565b6000600760009054906101000a900473ffffffffffffffffffffffffffffffffffffffff16905090565b82805462000287906200052b565b90600052602060002090601f016020900481019282620002ab5760008555620002f7565b82601f10620002c657805160ff1916838001178555620002f7565b82800160010185558215620002f7579182015b82811115620002f6578251825591602001919060010190620002d9565b5b5090506200030691906200030a565b5090565b5b80821115620003255760008160009055506001016200030b565b5090565b6000620003406200033a84620004ae565b62000485565b9050828152602081018484840111156200035957600080fd5b62000366848285620004f5565b509392505050565b600082601f8301126200038057600080fd5b81516200039284826020860162000329565b91505092915050565b600080600060608486031215620003b157600080fd5b600084015167ffffffffffffffff811115620003cc57600080fd5b620003da868287016200036e565b935050602084015167ffffffffffffffff811115620003f857600080fd5b62000406868287016200036e565b925050604084015167ffffffffffffffff8111156200042457600080fd5b62000432868287016200036e565b9150509250925092565b60006200044b602083620004e4565b9150620004588262000606565b602082019050919050565b600060208201905081810360008301526200047e816200043c565b9050919050565b600062000491620004a4565b90506200049f828262000561565b919050565b6000604051905090565b600067ffffffffffffffff821115620004cc57620004cb620005c6565b5b620004d782620005f5565b9050602081019050919050565b600082825260208201905092915050565b60005b8381101562000515578082015181840152602081019050620004f8565b8381111562000525576000848401525b50505050565b600060028204905060018216806200054457607f821691505b602082108114156200055b576200055a62000597565b5b50919050565b6200056c82620005f5565b810181811067ffffffffffffffff821117156200058e576200058d620005c6565b5b80604052505050565b7f4e487b7100000000000000000000000000000000000000000000000000000000600052602260045260246000fd5b7f4e487b7100000000000000000000000000000000000000000000000000000000600052604160045260246000fd5b6000601f19601f8301169050919050565b7f4f776e61626c653a2063616c6c6572206973206e6f7420746865206f776e6572600082015250565b61435d806200063f6000396000f3fe6080604052600436106101665760003560e01c80636c0360eb116100d157806397061a911161008a578063b88d4fde11610064578063b88d4fde14610516578063c87b56dd1461053f578063e985e9c51461057c578063f2fde38b146105b957610166565b806397061a911461049457806398fa2fb8146104b0578063a22cb465146104ed57610166565b80636c0360eb1461038257806370a08231146103ad578063715018a6146103ea57806382bbdbec146104015780638da5cb5b1461043e57806395d89b411461046957610166565b806342842e0e1161012357806342842e0e1461029f578063508b019e146102c857806351b51d02146102e457806355f804b3146103005780636352211e146103295780636366d9f91461036657610166565b806301ffc9a71461016b57806306fdde03146101a8578063081812fc146101d3578063095ea7b314610210578063191164fe1461023957806323b872dd14610276575b600080fd5b34801561017757600080fd5b50610192600480360381019061018d9190612e15565b6105e2565b60405161019f91906136bd565b60405180910390f35b3480156101b457600080fd5b506101bd6106c4565b6040516101ca91906136d8565b60405180910390f35b3480156101df57600080fd5b506101fa60048036038101906101f59190613043565b610756565b6040516102079190613634565b60405180910390f35b34801561021c57600080fd5b5061023760048036038101906102329190612dd9565b6107db565b005b34801561024557600080fd5b50610260600480360381019061025b9190612c6e565b6108f3565b60405161026d919061369b565b60405180910390f35b34801561028257600080fd5b5061029d60048036038101906102989190612cd3565b610a0b565b005b3480156102ab57600080fd5b506102c660048036038101906102c19190612cd3565b610a6b565b005b6102e260048036038101906102dd9190612f14565b610a8b565b005b6102fe60048036038101906102f99190612ea8565b610f53565b005b34801561030c57600080fd5b5061032760048036038101906103229190612e67565b6110b1565b005b34801561033557600080fd5b50610350600480360381019061034b9190613043565b611147565b60405161035d9190613634565b60405180910390f35b610380600480360381019061037b9190612ea8565b6111f9565b005b34801561038e57600080fd5b50610397611357565b6040516103a491906136d8565b60405180910390f35b3480156103b957600080fd5b506103d460048036038101906103cf9190612c6e565b6113e5565b6040516103e191906139e4565b60405180910390f35b3480156103f657600080fd5b506103ff61149d565b005b34801561040d57600080fd5b5061042860048036038101906104239190612e67565b611525565b60405161043591906136bd565b60405180910390f35b34801561044a57600080fd5b5061045361156e565b6040516104609190613634565b60405180910390f35b34801561047557600080fd5b5061047e611598565b60405161048b91906136d8565b60405180910390f35b6104ae60048036038101906104a99190612fd7565b61162a565b005b3480156104bc57600080fd5b506104d760048036038101906104d29190612e67565b61177e565b6040516104e491906139c2565b60405180910390f35b3480156104f957600080fd5b50610514600480360381019061050f9190612d9d565b611a92565b005b34801561052257600080fd5b5061053d60048036038101906105389190612d22565b611aa8565b005b34801561054b57600080fd5b5061056660048036038101906105619190613043565b611b0a565b60405161057391906136d8565b60405180910390f35b34801561058857600080fd5b506105a3600480360381019061059e9190612c97565b611be6565b6040516105b091906136bd565b60405180910390f35b3480156105c557600080fd5b506105e060048036038101906105db9190612c6e565b611c7a565b005b60007f80ac58cd000000000000000000000000000000000000000000000000000000007bffffffffffffffffffffffffffffffffffffffffffffffffffffffff1916827bffffffffffffffffffffffffffffffffffffffffffffffffffffffff191614806106ad57507f5b5e139f000000000000000000000000000000000000000000000000000000007bffffffffffffffffffffffffffffffffffffffffffffffffffffffff1916827bffffffffffffffffffffffffffffffffffffffffffffffffffffffff1916145b806106bd57506106bc82611d72565b5b9050919050565b6060600080546106d390613c65565b80601f01602080910402602001604051908101604052809291908181526020018280546106ff90613c65565b801561074c5780601f106107215761010080835404028352916020019161074c565b820191906000526020600020905b81548152906001019060200180831161072f57829003601f168201915b5050505050905090565b600061076182611ddc565b6107a0576040517f08c379a0000000000000000000000000000000000000000000000000000000008152600401610797906138e2565b60405180910390fd5b6004600083815260200190815260200160002060009054906101000a900473ffffffffffffffffffffffffffffffffffffffff169050919050565b60006107e682611147565b90508073ffffffffffffffffffffffffffffffffffffffff168373ffffffffffffffffffffffffffffffffffffffff161415610857576040517f08c379a000000000000000000000000000000000000000000000000000000000815260040161084e90613962565b60405180910390fd5b8073ffffffffffffffffffffffffffffffffffffffff16610876611e48565b73ffffffffffffffffffffffffffffffffffffffff1614806108a557506108a48161089f611e48565b611be6565b5b6108e4576040517f08c379a00000000000000000000000000000000000000000000000000000000081526004016108db90613862565b60405180910390fd5b6108ee8383611e50565b505050565b6060600e60008373ffffffffffffffffffffffffffffffffffffffff1673ffffffffffffffffffffffffffffffffffffffff168152602001908152602001600020805480602002602001604051908101604052809291908181526020016000905b82821015610a0057838290600052602060002001805461097390613c65565b80601f016020809104026020016040519081016040528092919081815260200182805461099f90613c65565b80156109ec5780601f106109c1576101008083540402835291602001916109ec565b820191906000526020600020905b8154815290600101906020018083116109cf57829003601f168201915b505050505081526020019060010190610954565b505050509050919050565b610a1c610a16611e48565b82611f09565b610a5b576040517f08c379a0000000000000000000000000000000000000000000000000000000008152600401610a5290613982565b60405180910390fd5b610a66838383611fe7565b505050565b610a8683838360405180602001604052806000815250611aa8565b505050565b60026006541415610ad1576040517f08c379a0000000000000000000000000000000000000000000000000000000008152600401610ac8906139a2565b60405180910390fd5b600260068190555060011515610ae685611525565b151514610b28576040517f08c379a0000000000000000000000000000000000000000000000000000000008152600401610b1f90613942565b60405180910390fd5b604051602001610b379061361f565b6040516020818303038152906040528051906020012082604051602001610b5e91906135de565b604051602081830303815290604052805190602001201415610bc3576009543414610bbe576040517f08c379a0000000000000000000000000000000000000000000000000000000008152600401610bb590613762565b60405180910390fd5b610d00565b604051602001610bd29061360a565b6040516020818303038152906040528051906020012082604051602001610bf991906135de565b604051602081830303815290604052805190602001201415610c5e57600a543414610c59576040517f08c379a0000000000000000000000000000000000000000000000000000000008152600401610c5090613762565b60405180910390fd5b610cff565b604051602001610c6d906135f5565b6040516020818303038152906040528051906020012082604051602001610c9491906135de565b604051602081830303815290604052805190602001201415610cf957600b543414610cf4576040517f08c379a0000000000000000000000000000000000000000000000000000000008152600401610ceb90613762565b60405180910390fd5b610cfe565b600080fd5b5b5b610d0a600861224e565b6000610d166008612264565b90506040518060e001604052808281526020018681526020018581526020018481526020013373ffffffffffffffffffffffffffffffffffffffff16815260200183815260200160011515815250600d86604051610d7491906135de565b9081526020016040518091039020600082015181600001556020820151816001019080519060200190610da8929190612918565b506040820151816002019080519060200190610dc5929190612918565b506060820151816003019080519060200190610de2929190612918565b5060808201518160040160006101000a81548173ffffffffffffffffffffffffffffffffffffffff021916908373ffffffffffffffffffffffffffffffffffffffff16021790555060a0820151816005019080519060200190610e46929190612918565b5060c08201518160060160006101000a81548160ff021916908315150217905550905050600e60003373ffffffffffffffffffffffffffffffffffffffff1673ffffffffffffffffffffffffffffffffffffffff16815260200190815260200160002085908060018154018082558091505060019003906000526020600020016000909190919091509080519060200190610ee2929190612918565b5084604051610ef191906135de565b6040518091039020817fc412d3f67c8be2bbdbcb2767d8c923e2894a205315d4f4f1670cc508d17b8511868633876001604051610f329594939291906136fa565b60405180910390a3610f443382612272565b50600160068190555050505050565b6000610f5e8361177e565b9050806080015173ffffffffffffffffffffffffffffffffffffffff163373ffffffffffffffffffffffffffffffffffffffff1614610f9c57600080fd5b818160a0018190525080600d84604051610fb691906135de565b9081526020016040518091039020600082015181600001556020820151816001019080519060200190610fea929190612918565b506040820151816002019080519060200190611007929190612918565b506060820151816003019080519060200190611024929190612918565b5060808201518160040160006101000a81548173ffffffffffffffffffffffffffffffffffffffff021916908373ffffffffffffffffffffffffffffffffffffffff16021790555060a0820151816005019080519060200190611088929190612918565b5060c08201518160060160006101000a81548160ff021916908315150217905550905050505050565b6110b9611e48565b73ffffffffffffffffffffffffffffffffffffffff166110d761156e565b73ffffffffffffffffffffffffffffffffffffffff161461112d576040517f08c379a000000000000000000000000000000000000000000000000000000000815260040161112490613902565b60405180910390fd5b80600c9080519060200190611143929190612918565b5050565b6000806002600084815260200190815260200160002060009054906101000a900473ffffffffffffffffffffffffffffffffffffffff169050600073ffffffffffffffffffffffffffffffffffffffff168173ffffffffffffffffffffffffffffffffffffffff1614156111f0576040517f08c379a00000000000000000000000000000000000000000000000000000000081526004016111e7906138a2565b60405180910390fd5b80915050919050565b60006112048361177e565b9050806080015173ffffffffffffffffffffffffffffffffffffffff163373ffffffffffffffffffffffffffffffffffffffff161461124257600080fd5b81816040018190525080600d8460405161125c91906135de565b9081526020016040518091039020600082015181600001556020820151816001019080519060200190611290929190612918565b5060408201518160020190805190602001906112ad929190612918565b5060608201518160030190805190602001906112ca929190612918565b5060808201518160040160006101000a81548173ffffffffffffffffffffffffffffffffffffffff021916908373ffffffffffffffffffffffffffffffffffffffff16021790555060a082015181600501908051906020019061132e929190612918565b5060c08201518160060160006101000a81548160ff021916908315150217905550905050505050565b600c805461136490613c65565b80601f016020809104026020016040519081016040528092919081815260200182805461139090613c65565b80156113dd5780601f106113b2576101008083540402835291602001916113dd565b820191906000526020600020905b8154815290600101906020018083116113c057829003601f168201915b505050505081565b60008073ffffffffffffffffffffffffffffffffffffffff168273ffffffffffffffffffffffffffffffffffffffff161415611456576040517f08c379a000000000000000000000000000000000000000000000000000000000815260040161144d90613882565b60405180910390fd5b600360008373ffffffffffffffffffffffffffffffffffffffff1673ffffffffffffffffffffffffffffffffffffffff168152602001908152602001600020549050919050565b6114a5611e48565b73ffffffffffffffffffffffffffffffffffffffff166114c361156e565b73ffffffffffffffffffffffffffffffffffffffff1614611519576040517f08c379a000000000000000000000000000000000000000000000000000000000815260040161151090613902565b60405180910390fd5b6115236000612290565b565b6000600d8260405161153791906135de565b908152602001604051809103902060060160009054906101000a900460ff16156115645760009050611569565b600190505b919050565b6000600760009054906101000a900473ffffffffffffffffffffffffffffffffffffffff16905090565b6060600180546115a790613c65565b80601f01602080910402602001604051908101604052809291908181526020018280546115d390613c65565b80156116205780601f106115f557610100808354040283529160200191611620565b820191906000526020600020905b81548152906001019060200180831161160357829003601f168201915b5050505050905090565b816080015173ffffffffffffffffffffffffffffffffffffffff163373ffffffffffffffffffffffffffffffffffffffff161461166657600080fd5b80826040018190525081600d836020015160405161168491906135de565b90815260200160405180910390206000820151816000015560208201518160010190805190602001906116b8929190612918565b5060408201518160020190805190602001906116d5929190612918565b5060608201518160030190805190602001906116f2929190612918565b5060808201518160040160006101000a81548173ffffffffffffffffffffffffffffffffffffffff021916908373ffffffffffffffffffffffffffffffffffffffff16021790555060a0820151816005019080519060200190611756929190612918565b5060c08201518160060160006101000a81548160ff0219169083151502179055509050505050565b61178661299e565b6000151561179383611525565b15151461179f57600080fd5b600d826040516117af91906135de565b90815260200160405180910390206040518060e0016040529081600082015481526020016001820180546117e290613c65565b80601f016020809104026020016040519081016040528092919081815260200182805461180e90613c65565b801561185b5780601f106118305761010080835404028352916020019161185b565b820191906000526020600020905b81548152906001019060200180831161183e57829003601f168201915b5050505050815260200160028201805461187490613c65565b80601f01602080910402602001604051908101604052809291908181526020018280546118a090613c65565b80156118ed5780601f106118c2576101008083540402835291602001916118ed565b820191906000526020600020905b8154815290600101906020018083116118d057829003601f168201915b5050505050815260200160038201805461190690613c65565b80601f016020809104026020016040519081016040528092919081815260200182805461193290613c65565b801561197f5780601f106119545761010080835404028352916020019161197f565b820191906000526020600020905b81548152906001019060200180831161196257829003601f168201915b505050505081526020016004820160009054906101000a900473ffffffffffffffffffffffffffffffffffffffff1673ffffffffffffffffffffffffffffffffffffffff1673ffffffffffffffffffffffffffffffffffffffff1681526020016005820180546119ee90613c65565b80601f0160208091040260200160405190810160405280929190818152602001828054611a1a90613c65565b8015611a675780601f10611a3c57610100808354040283529160200191611a67565b820191906000526020600020905b815481529060010190602001808311611a4a57829003601f168201915b505050505081526020016006820160009054906101000a900460ff1615151515815250509050919050565b611aa4611a9d611e48565b8383612356565b5050565b611ab9611ab3611e48565b83611f09565b611af8576040517f08c379a0000000000000000000000000000000000000000000000000000000008152600401611aef90613982565b60405180910390fd5b611b04848484846124c3565b50505050565b6060611b1582611ddc565b611b54576040517f08c379a0000000000000000000000000000000000000000000000000000000008152600401611b4b90613922565b60405180910390fd5b600c8054611b6190613c65565b80601f0160208091040260200160405190810160405280929190818152602001828054611b8d90613c65565b8015611bda5780601f10611baf57610100808354040283529160200191611bda565b820191906000526020600020905b815481529060010190602001808311611bbd57829003601f168201915b50505050509050919050565b6000600560008473ffffffffffffffffffffffffffffffffffffffff1673ffffffffffffffffffffffffffffffffffffffff16815260200190815260200160002060008373ffffffffffffffffffffffffffffffffffffffff1673ffffffffffffffffffffffffffffffffffffffff16815260200190815260200160002060009054906101000a900460ff16905092915050565b611c82611e48565b73ffffffffffffffffffffffffffffffffffffffff16611ca061156e565b73ffffffffffffffffffffffffffffffffffffffff1614611cf6576040517f08c379a0000000000000000000000000000000000000000000000000000000008152600401611ced90613902565b60405180910390fd5b600073ffffffffffffffffffffffffffffffffffffffff168173ffffffffffffffffffffffffffffffffffffffff161415611d66576040517f08c379a0000000000000000000000000000000000000000000000000000000008152600401611d5d906137a2565b60405180910390fd5b611d6f81612290565b50565b60007f01ffc9a7000000000000000000000000000000000000000000000000000000007bffffffffffffffffffffffffffffffffffffffffffffffffffffffff1916827bffffffffffffffffffffffffffffffffffffffffffffffffffffffff1916149050919050565b60008073ffffffffffffffffffffffffffffffffffffffff166002600084815260200190815260200160002060009054906101000a900473ffffffffffffffffffffffffffffffffffffffff1673ffffffffffffffffffffffffffffffffffffffff1614159050919050565b600033905090565b816004600083815260200190815260200160002060006101000a81548173ffffffffffffffffffffffffffffffffffffffff021916908373ffffffffffffffffffffffffffffffffffffffff160217905550808273ffffffffffffffffffffffffffffffffffffffff16611ec383611147565b73ffffffffffffffffffffffffffffffffffffffff167f8c5be1e5ebec7d5bd14f71427d1e84f3dd0314c0f7b2291e5b200ac8c7c3b92560405160405180910390a45050565b6000611f1482611ddc565b611f53576040517f08c379a0000000000000000000000000000000000000000000000000000000008152600401611f4a90613842565b60405180910390fd5b6000611f5e83611147565b90508073ffffffffffffffffffffffffffffffffffffffff168473ffffffffffffffffffffffffffffffffffffffff161480611fcd57508373ffffffffffffffffffffffffffffffffffffffff16611fb584610756565b73ffffffffffffffffffffffffffffffffffffffff16145b80611fde5750611fdd8185611be6565b5b91505092915050565b8273ffffffffffffffffffffffffffffffffffffffff1661200782611147565b73ffffffffffffffffffffffffffffffffffffffff161461205d576040517f08c379a0000000000000000000000000000000000000000000000000000000008152600401612054906137c2565b60405180910390fd5b600073ffffffffffffffffffffffffffffffffffffffff168273ffffffffffffffffffffffffffffffffffffffff1614156120cd576040517f08c379a00000000000000000000000000000000000000000000000000000000081526004016120c490613802565b60405180910390fd5b6120d883838361251f565b6120e3600082611e50565b6001600360008573ffffffffffffffffffffffffffffffffffffffff1673ffffffffffffffffffffffffffffffffffffffff16815260200190815260200160002060008282546121339190613b69565b925050819055506001600360008473ffffffffffffffffffffffffffffffffffffffff1673ffffffffffffffffffffffffffffffffffffffff168152602001908152602001600020600082825461218a9190613b13565b92505081905550816002600083815260200190815260200160002060006101000a81548173ffffffffffffffffffffffffffffffffffffffff021916908373ffffffffffffffffffffffffffffffffffffffff160217905550808273ffffffffffffffffffffffffffffffffffffffff168473ffffffffffffffffffffffffffffffffffffffff167fddf252ad1be2c89b69c2b068fc378daa952ba7f163c4a11628f55a4df523b3ef60405160405180910390a4612249838383612524565b505050565b6001816000016000828254019250508190555050565b600081600001549050919050565b61228c828260405180602001604052806000815250612529565b5050565b6000600760009054906101000a900473ffffffffffffffffffffffffffffffffffffffff16905081600760006101000a81548173ffffffffffffffffffffffffffffffffffffffff021916908373ffffffffffffffffffffffffffffffffffffffff1602179055508173ffffffffffffffffffffffffffffffffffffffff168173ffffffffffffffffffffffffffffffffffffffff167f8be0079c531659141344cd1fd0a4f28419497f9722a3daafe3b4186f6b6457e060405160405180910390a35050565b8173ffffffffffffffffffffffffffffffffffffffff168373ffffffffffffffffffffffffffffffffffffffff1614156123c5576040517f08c379a00000000000000000000000000000000000000000000000000000000081526004016123bc90613822565b60405180910390fd5b80600560008573ffffffffffffffffffffffffffffffffffffffff1673ffffffffffffffffffffffffffffffffffffffff16815260200190815260200160002060008473ffffffffffffffffffffffffffffffffffffffff1673ffffffffffffffffffffffffffffffffffffffff16815260200190815260200160002060006101000a81548160ff0219169083151502179055508173ffffffffffffffffffffffffffffffffffffffff168373ffffffffffffffffffffffffffffffffffffffff167f17307eab39ab6107e8899845ad3d59bd9653f200f220920489ca2b5937696c31836040516124b691906136bd565b60405180910390a3505050565b6124ce848484611fe7565b6124da84848484612584565b612519576040517f08c379a000000000000000000000000000000000000000000000000000000000815260040161251090613782565b60405180910390fd5b50505050565b505050565b505050565b612533838361271b565b6125406000848484612584565b61257f576040517f08c379a000000000000000000000000000000000000000000000000000000000815260040161257690613782565b60405180910390fd5b505050565b60006125a58473ffffffffffffffffffffffffffffffffffffffff166128f5565b1561270e578373ffffffffffffffffffffffffffffffffffffffff1663150b7a026125ce611e48565b8786866040518563ffffffff1660e01b81526004016125f0949392919061364f565b602060405180830381600087803b15801561260a57600080fd5b505af192505050801561263b57506040513d601f19601f820116820180604052508101906126389190612e3e565b60015b6126be573d806000811461266b576040519150601f19603f3d011682016040523d82523d6000602084013e612670565b606091505b506000815114156126b6576040517f08c379a00000000000000000000000000000000000000000000000000000000081526004016126ad90613782565b60405180910390fd5b805181602001fd5b63150b7a0260e01b7bffffffffffffffffffffffffffffffffffffffffffffffffffffffff1916817bffffffffffffffffffffffffffffffffffffffffffffffffffffffff191614915050612713565b600190505b949350505050565b600073ffffffffffffffffffffffffffffffffffffffff168273ffffffffffffffffffffffffffffffffffffffff16141561278b576040517f08c379a0000000000000000000000000000000000000000000000000000000008152600401612782906138c2565b60405180910390fd5b61279481611ddc565b156127d4576040517f08c379a00000000000000000000000000000000000000000000000000000000081526004016127cb906137e2565b60405180910390fd5b6127e06000838361251f565b6001600360008473ffffffffffffffffffffffffffffffffffffffff1673ffffffffffffffffffffffffffffffffffffffff16815260200190815260200160002060008282546128309190613b13565b92505081905550816002600083815260200190815260200160002060006101000a81548173ffffffffffffffffffffffffffffffffffffffff021916908373ffffffffffffffffffffffffffffffffffffffff160217905550808273ffffffffffffffffffffffffffffffffffffffff16600073ffffffffffffffffffffffffffffffffffffffff167fddf252ad1be2c89b69c2b068fc378daa952ba7f163c4a11628f55a4df523b3ef60405160405180910390a46128f160008383612524565b5050565b6000808273ffffffffffffffffffffffffffffffffffffffff163b119050919050565b82805461292490613c65565b90600052602060002090601f016020900481019282612946576000855561298d565b82601f1061295f57805160ff191683800117855561298d565b8280016001018555821561298d579182015b8281111561298c578251825591602001919060010190612971565b5b50905061299a91906129f3565b5090565b6040518060e0016040528060008152602001606081526020016060815260200160608152602001600073ffffffffffffffffffffffffffffffffffffffff168152602001606081526020016000151581525090565b5b80821115612a0c5760008160009055506001016129f4565b5090565b6000612a23612a1e84613a24565b6139ff565b905082815260208101848484011115612a3b57600080fd5b612a46848285613c23565b509392505050565b6000612a61612a5c84613a55565b6139ff565b905082815260208101848484011115612a7957600080fd5b612a84848285613c23565b509392505050565b600081359050612a9b816142b4565b92915050565b600081359050612ab0816142cb565b92915050565b600081359050612ac5816142e2565b92915050565b600081359050612ada816142f9565b92915050565b600081519050612aef816142f9565b92915050565b600082601f830112612b0657600080fd5b8135612b16848260208601612a10565b91505092915050565b600082601f830112612b3057600080fd5b8135612b40848260208601612a4e565b91505092915050565b600060e08284031215612b5b57600080fd5b612b6560e06139ff565b90506000612b7584828501612c59565b600083015250602082013567ffffffffffffffff811115612b9557600080fd5b612ba184828501612b1f565b602083015250604082013567ffffffffffffffff811115612bc157600080fd5b612bcd84828501612b1f565b604083015250606082013567ffffffffffffffff811115612bed57600080fd5b612bf984828501612b1f565b6060830152506080612c0d84828501612aa1565b60808301525060a082013567ffffffffffffffff811115612c2d57600080fd5b612c3984828501612b1f565b60a08301525060c0612c4d84828501612ab6565b60c08301525092915050565b600081359050612c6881614310565b92915050565b600060208284031215612c8057600080fd5b6000612c8e84828501612a8c565b91505092915050565b60008060408385031215612caa57600080fd5b6000612cb885828601612a8c565b9250506020612cc985828601612a8c565b9150509250929050565b600080600060608486031215612ce857600080fd5b6000612cf686828701612a8c565b9350506020612d0786828701612a8c565b9250506040612d1886828701612c59565b9150509250925092565b60008060008060808587031215612d3857600080fd5b6000612d4687828801612a8c565b9450506020612d5787828801612a8c565b9350506040612d6887828801612c59565b925050606085013567ffffffffffffffff811115612d8557600080fd5b612d9187828801612af5565b91505092959194509250565b60008060408385031215612db057600080fd5b6000612dbe85828601612a8c565b9250506020612dcf85828601612ab6565b9150509250929050565b60008060408385031215612dec57600080fd5b6000612dfa85828601612a8c565b9250506020612e0b85828601612c59565b9150509250929050565b600060208284031215612e2757600080fd5b6000612e3584828501612acb565b91505092915050565b600060208284031215612e5057600080fd5b6000612e5e84828501612ae0565b91505092915050565b600060208284031215612e7957600080fd5b600082013567ffffffffffffffff811115612e9357600080fd5b612e9f84828501612b1f565b91505092915050565b60008060408385031215612ebb57600080fd5b600083013567ffffffffffffffff811115612ed557600080fd5b612ee185828601612b1f565b925050602083013567ffffffffffffffff811115612efe57600080fd5b612f0a85828601612b1f565b9150509250929050565b60008060008060808587031215612f2a57600080fd5b600085013567ffffffffffffffff811115612f4457600080fd5b612f5087828801612b1f565b945050602085013567ffffffffffffffff811115612f6d57600080fd5b612f7987828801612b1f565b935050604085013567ffffffffffffffff811115612f9657600080fd5b612fa287828801612b1f565b925050606085013567ffffffffffffffff811115612fbf57600080fd5b612fcb87828801612b1f565b91505092959194509250565b60008060408385031215612fea57600080fd5b600083013567ffffffffffffffff81111561300457600080fd5b61301085828601612b49565b925050602083013567ffffffffffffffff81111561302d57600080fd5b61303985828601612b1f565b9150509250929050565b60006020828403121561305557600080fd5b600061306384828501612c59565b91505092915050565b6000613078838361316a565b905092915050565b61308981613baf565b82525050565b61309881613b9d565b82525050565b60006130a982613a96565b6130b38185613ac4565b9350836020820285016130c585613a86565b8060005b8581101561310157848403895281516130e2858261306c565b94506130ed83613ab7565b925060208a019950506001810190506130c9565b50829750879550505050505092915050565b61311c81613bc1565b82525050565b61312b81613bc1565b82525050565b600061313c82613aa1565b6131468185613ad5565b9350613156818560208601613c32565b61315f81613d55565b840191505092915050565b600061317582613aac565b61317f8185613ae6565b935061318f818560208601613c32565b61319881613d55565b840191505092915050565b60006131ae82613aac565b6131b88185613af7565b93506131c8818560208601613c32565b6131d181613d55565b840191505092915050565b60006131e782613aac565b6131f18185613b08565b9350613201818560208601613c32565b80840191505092915050565b600061321a601c83613af7565b915061322582613d66565b602082019050919050565b600061323d603283613af7565b915061324882613d8f565b604082019050919050565b6000613260602683613af7565b915061326b82613dde565b604082019050919050565b6000613283602583613af7565b915061328e82613e2d565b604082019050919050565b60006132a6601c83613af7565b91506132b182613e7c565b602082019050919050565b60006132c9600983613b08565b91506132d482613ea5565b600982019050919050565b60006132ec600383613b08565b91506132f782613ece565b600382019050919050565b600061330f602483613af7565b915061331a82613ef7565b604082019050919050565b6000613332601983613af7565b915061333d82613f46565b602082019050919050565b6000613355602c83613af7565b915061336082613f6f565b604082019050919050565b6000613378603883613af7565b915061338382613fbe565b604082019050919050565b600061339b602a83613af7565b91506133a68261400d565b604082019050919050565b60006133be602983613af7565b91506133c98261405c565b604082019050919050565b60006133e1602083613af7565b91506133ec826140ab565b602082019050919050565b6000613404602c83613af7565b915061340f826140d4565b604082019050919050565b6000613427602083613af7565b915061343282614123565b602082019050919050565b600061344a602f83613af7565b91506134558261414c565b604082019050919050565b600061346d600583613b08565b91506134788261419b565b600582019050919050565b6000613490601383613af7565b915061349b826141c4565b602082019050919050565b60006134b3602183613af7565b91506134be826141ed565b604082019050919050565b60006134d6603183613af7565b91506134e18261423c565b604082019050919050565b60006134f9601f83613af7565b91506135048261428b565b602082019050919050565b600060e08301600083015161352760008601826135c0565b506020830151848203602086015261353f828261316a565b91505060408301518482036040860152613559828261316a565b91505060608301518482036060860152613573828261316a565b91505060808301516135886080860182613080565b5060a083015184820360a08601526135a0828261316a565b91505060c08301516135b560c0860182613113565b508091505092915050565b6135c981613c19565b82525050565b6135d881613c19565b82525050565b60006135ea82846131dc565b915081905092915050565b6000613600826132bc565b9150819050919050565b6000613615826132df565b9150819050919050565b600061362a82613460565b9150819050919050565b6000602082019050613649600083018461308f565b92915050565b6000608082019050613664600083018761308f565b613671602083018661308f565b61367e60408301856135cf565b81810360608301526136908184613131565b905095945050505050565b600060208201905081810360008301526136b5818461309e565b905092915050565b60006020820190506136d26000830184613122565b92915050565b600060208201905081810360008301526136f281846131a3565b905092915050565b600060a082019050818103600083015261371481886131a3565b9050818103602083015261372881876131a3565b9050613737604083018661308f565b818103606083015261374981856131a3565b90506137586080830184613122565b9695505050505050565b6000602082019050818103600083015261377b8161320d565b9050919050565b6000602082019050818103600083015261379b81613230565b9050919050565b600060208201905081810360008301526137bb81613253565b9050919050565b600060208201905081810360008301526137db81613276565b9050919050565b600060208201905081810360008301526137fb81613299565b9050919050565b6000602082019050818103600083015261381b81613302565b9050919050565b6000602082019050818103600083015261383b81613325565b9050919050565b6000602082019050818103600083015261385b81613348565b9050919050565b6000602082019050818103600083015261387b8161336b565b9050919050565b6000602082019050818103600083015261389b8161338e565b9050919050565b600060208201905081810360008301526138bb816133b1565b9050919050565b600060208201905081810360008301526138db816133d4565b9050919050565b600060208201905081810360008301526138fb816133f7565b9050919050565b6000602082019050818103600083015261391b8161341a565b9050919050565b6000602082019050818103600083015261393b8161343d565b9050919050565b6000602082019050818103600083015261395b81613483565b9050919050565b6000602082019050818103600083015261397b816134a6565b9050919050565b6000602082019050818103600083015261399b816134c9565b9050919050565b600060208201905081810360008301526139bb816134ec565b9050919050565b600060208201905081810360008301526139dc818461350f565b905092915050565b60006020820190506139f960008301846135cf565b92915050565b6000613a09613a1a565b9050613a158282613c97565b919050565b6000604051905090565b600067ffffffffffffffff821115613a3f57613a3e613d26565b5b613a4882613d55565b9050602081019050919050565b600067ffffffffffffffff821115613a7057613a6f613d26565b5b613a7982613d55565b9050602081019050919050565b6000819050602082019050919050565b600081519050919050565b600081519050919050565b600081519050919050565b6000602082019050919050565b600082825260208201905092915050565b600082825260208201905092915050565b600082825260208201905092915050565b600082825260208201905092915050565b600081905092915050565b6000613b1e82613c19565b9150613b2983613c19565b9250827fffffffffffffffffffffffffffffffffffffffffffffffffffffffffffffffff03821115613b5e57613b5d613cc8565b5b828201905092915050565b6000613b7482613c19565b9150613b7f83613c19565b925082821015613b9257613b91613cc8565b5b828203905092915050565b6000613ba882613bf9565b9050919050565b6000613bba82613bf9565b9050919050565b60008115159050919050565b60007fffffffff0000000000000000000000000000000000000000000000000000000082169050919050565b600073ffffffffffffffffffffffffffffffffffffffff82169050919050565b6000819050919050565b82818337600083830152505050565b60005b83811015613c50578082015181840152602081019050613c35565b83811115613c5f576000848401525b50505050565b60006002820490506001821680613c7d57607f821691505b60208210811415613c9157613c90613cf7565b5b50919050565b613ca082613d55565b810181811067ffffffffffffffff82111715613cbf57613cbe613d26565b5b80604052505050565b7f4e487b7100000000000000000000000000000000000000000000000000000000600052601160045260246000fd5b7f4e487b7100000000000000000000000000000000000000000000000000000000600052602260045260246000fd5b7f4e487b7100000000000000000000000000000000000000000000000000000000600052604160045260246000fd5b6000601f19601f8301169050919050565b7f7375626d69742066656520746f2063726561746520612073746f726500000000600082015250565b7f4552433732313a207472616e7366657220746f206e6f6e20455243373231526560008201527f63656976657220696d706c656d656e7465720000000000000000000000000000602082015250565b7f4f776e61626c653a206e6577206f776e657220697320746865207a65726f206160008201527f6464726573730000000000000000000000000000000000000000000000000000602082015250565b7f4552433732313a207472616e736665722066726f6d20696e636f72726563742060008201527f6f776e6572000000000000000000000000000000000000000000000000000000602082015250565b7f4552433732313a20746f6b656e20616c7265616479206d696e74656400000000600082015250565b7f756e6c696d697465640000000000000000000000000000000000000000000000600082015250565b7f70726f0000000000000000000000000000000000000000000000000000000000600082015250565b7f4552433732313a207472616e7366657220746f20746865207a65726f2061646460008201527f7265737300000000000000000000000000000000000000000000000000000000602082015250565b7f4552433732313a20617070726f766520746f2063616c6c657200000000000000600082015250565b7f4552433732313a206f70657261746f7220717565727920666f72206e6f6e657860008201527f697374656e7420746f6b656e0000000000000000000000000000000000000000602082015250565b7f4552433732313a20617070726f76652063616c6c6572206973206e6f74206f7760008201527f6e6572206e6f7220617070726f76656420666f7220616c6c0000000000000000602082015250565b7f4552433732313a2062616c616e636520717565727920666f7220746865207a6560008201527f726f206164647265737300000000000000000000000000000000000000000000602082015250565b7f4552433732313a206f776e657220717565727920666f72206e6f6e657869737460008201527f656e7420746f6b656e0000000000000000000000000000000000000000000000602082015250565b7f4552433732313a206d696e7420746f20746865207a65726f2061646472657373600082015250565b7f4552433732313a20617070726f76656420717565727920666f72206e6f6e657860008201527f697374656e7420746f6b656e0000000000000000000000000000000000000000602082015250565b7f4f776e61626c653a2063616c6c6572206973206e6f7420746865206f776e6572600082015250565b7f4552433732314d657461646174613a2055524920717565727920666f72206e6f60008201527f6e6578697374656e7420746f6b656e0000000000000000000000000000000000602082015250565b7f6261736963000000000000000000000000000000000000000000000000000000600082015250565b7f4e616d65206e6f7420617661696c61626c652e00000000000000000000000000600082015250565b7f4552433732313a20617070726f76616c20746f2063757272656e74206f776e6560008201527f7200000000000000000000000000000000000000000000000000000000000000602082015250565b7f4552433732313a207472616e736665722063616c6c6572206973206e6f74206f60008201527f776e6572206e6f7220617070726f766564000000000000000000000000000000602082015250565b7f5265656e7472616e637947756172643a207265656e7472616e742063616c6c00600082015250565b6142bd81613b9d565b81146142c857600080fd5b50565b6142d481613baf565b81146142df57600080fd5b50565b6142eb81613bc1565b81146142f657600080fd5b50565b61430281613bcd565b811461430d57600080fd5b50565b61431981613c19565b811461432457600080fd5b5056fea26469706673582212204f6b5255ea83e4f9acb3bd6999ce9921a8fbf953e462ef7668e26feb084d836164736f6c63430008040033",
  "linkReferences": {},
  "deployedLinkReferences": {}
}