{
  "_format": "hh-sol-artifact-1",
  "contractName": "StoreMarketplace",
  "sourceName": "contracts/StoreMarketplace.sol",
  "abi": [
    {
      "inputs": [
        {
          "internalType": "string",
          "name": "newBaseURI",
          "type": "string"
        },
        {
          "internalType": "string",
          "name": "_name",
          "type": "string"
        },
        {
          "internalType": "string",
          "name": "_symbol",
          "type": "string"
        }
      ],
      "stateMutability": "nonpayable",
      "type": "constructor"
    },
    {
      "anonymous": false,
      "inputs": [
        {
          "indexed": true,
          "internalType": "address",
          "name": "owner",
          "type": "address"
        },
        {
          "indexed": true,
          "internalType": "address",
          "name": "approved",
          "type": "address"
        },
        {
          "indexed": true,
          "internalType": "uint256",
          "name": "tokenId",
          "type": "uint256"
        }
      ],
      "name": "Approval",
      "type": "event"
    },
    {
      "anonymous": false,
      "inputs": [
        {
          "indexed": true,
          "internalType": "address",
          "name": "owner",
          "type": "address"
        },
        {
          "indexed": true,
          "internalType": "address",
          "name": "operator",
          "type": "address"
        },
        {
          "indexed": false,
          "internalType": "bool",
          "name": "approved",
          "type": "bool"
        }
      ],
      "name": "ApprovalForAll",
      "type": "event"
    },
    {
      "anonymous": false,
      "inputs": [
        {
          "indexed": true,
          "internalType": "address",
          "name": "previousOwner",
          "type": "address"
        },
        {
          "indexed": true,
          "internalType": "address",
          "name": "newOwner",
          "type": "address"
        }
      ],
      "name": "OwnershipTransferred",
      "type": "event"
    },
    {
      "anonymous": false,
      "inputs": [
        {
          "indexed": true,
          "internalType": "uint256",
          "name": "storeId",
          "type": "uint256"
        },
        {
          "indexed": true,
          "internalType": "string",
          "name": "subdomain",
          "type": "string"
        },
        {
          "indexed": false,
          "internalType": "string",
          "name": "colourHex",
          "type": "string"
        },
        {
          "indexed": false,
          "internalType": "string",
          "name": "plan",
          "type": "string"
        },
        {
          "indexed": false,
          "internalType": "address",
          "name": "owner",
          "type": "address"
        },
        {
          "indexed": false,
          "internalType": "string",
          "name": "logoURI",
          "type": "string"
        },
        {
          "indexed": false,
          "internalType": "bool",
          "name": "isInitialized",
          "type": "bool"
        }
      ],
      "name": "StoreCreated",
      "type": "event"
    },
    {
      "anonymous": false,
      "inputs": [
        {
          "indexed": true,
          "internalType": "address",
          "name": "from",
          "type": "address"
        },
        {
          "indexed": true,
          "internalType": "address",
          "name": "to",
          "type": "address"
        },
        {
          "indexed": true,
          "internalType": "uint256",
          "name": "tokenId",
          "type": "uint256"
        }
      ],
      "name": "Transfer",
      "type": "event"
    },
    {
      "inputs": [
        {
          "internalType": "address",
          "name": "to",
          "type": "address"
        },
        {
          "internalType": "uint256",
          "name": "tokenId",
          "type": "uint256"
        }
      ],
      "name": "approve",
      "outputs": [],
      "stateMutability": "nonpayable",
      "type": "function"
    },
    {
      "inputs": [
        {
          "internalType": "address",
          "name": "owner",
          "type": "address"
        }
      ],
      "name": "balanceOf",
      "outputs": [
        {
          "internalType": "uint256",
          "name": "",
          "type": "uint256"
        }
      ],
      "stateMutability": "view",
      "type": "function"
    },
    {
      "inputs": [],
      "name": "baseURI",
      "outputs": [
        {
          "internalType": "string",
          "name": "",
          "type": "string"
        }
      ],
      "stateMutability": "view",
      "type": "function"
    },
    {
      "inputs": [
        {
          "internalType": "string",
          "name": "subdomainIn",
          "type": "string"
        },
        {
          "internalType": "string",
          "name": "colourhex",
          "type": "string"
        },
        {
          "internalType": "string",
          "name": "plan",
          "type": "string"
        },
        {
          "internalType": "string",
          "name": "logoURI",
          "type": "string"
        }
      ],
      "name": "createStore",
      "outputs": [],
      "stateMutability": "payable",
      "type": "function"
    },
    {
      "inputs": [
        {
          "internalType": "string",
          "name": "subdomainIn",
          "type": "string"
        },
        {
          "internalType": "string",
          "name": "newHexColour",
          "type": "string"
        }
      ],
      "name": "editStoreColour",
      "outputs": [],
      "stateMutability": "payable",
      "type": "function"
    },
    {
      "inputs": [
        {
          "components": [
            {
              "internalType": "uint256",
              "name": "storeId",
              "type": "uint256"
            },
            {
              "internalType": "string",
              "name": "subdomain",
              "type": "string"
            },
            {
              "internalType": "string",
              "name": "colourHex",
              "type": "string"
            },
            {
              "internalType": "string",
              "name": "plan",
              "type": "string"
            },
            {
              "internalType": "address payable",
              "name": "owner",
              "type": "address"
            },
            {
              "internalType": "string",
              "name": "logoURI",
              "type": "string"
            },
            {
              "internalType": "bool",
              "name": "isInitialized",
              "type": "bool"
            }
          ],
          "internalType": "struct StoreMarketplace.Store",
          "name": "storeIn",
          "type": "tuple"
        },
        {
          "internalType": "string",
          "name": "newHexColour",
          "type": "string"
        }
      ],
      "name": "editStoreColour",
      "outputs": [],
      "stateMutability": "payable",
      "type": "function"
    },
    {
      "inputs": [
        {
          "internalType": "string",
          "name": "subdomainIn",
          "type": "string"
        },
        {
          "internalType": "string",
          "name": "newLogoURI",
          "type": "string"
        }
      ],
      "name": "editStoreLogo",
      "outputs": [],
      "stateMutability": "payable",
      "type": "function"
    },
    {
      "inputs": [
        {
          "internalType": "uint256",
          "name": "tokenId",
          "type": "uint256"
        }
      ],
      "name": "getApproved",
      "outputs": [
        {
          "internalType": "address",
          "name": "",
          "type": "address"
        }
      ],
      "stateMutability": "view",
      "type": "function"
    },
    {
      "inputs": [
        {
          "internalType": "string",
          "name": "subdomain",
          "type": "string"
        }
      ],
      "name": "getStoreWithSubdomain",
      "outputs": [
        {
          "components": [
            {
              "internalType": "uint256",
              "name": "storeId",
              "type": "uint256"
            },
            {
              "internalType": "string",
              "name": "subdomain",
              "type": "string"
            },
            {
              "internalType": "string",
              "name": "colourHex",
              "type": "string"
            },
            {
              "internalType": "string",
              "name": "plan",
              "type": "string"
            },
            {
              "internalType": "address payable",
              "name": "owner",
              "type": "address"
            },
            {
              "internalType": "string",
              "name": "logoURI",
              "type": "string"
            },
            {
              "internalType": "bool",
              "name": "isInitialized",
              "type": "bool"
            }
          ],
          "internalType": "struct StoreMarketplace.Store",
          "name": "",
          "type": "tuple"
        }
      ],
      "stateMutability": "view",
      "type": "function"
    },
    {
      "inputs": [
        {
          "internalType": "address",
          "name": "ownerAddress",
          "type": "address"
        }
      ],
      "name": "getSubdomainsFromWalletAddress",
      "outputs": [
        {
          "internalType": "string[]",
          "name": "",
          "type": "string[]"
        }
      ],
      "stateMutability": "view",
      "type": "function"
    },
    {
      "inputs": [
        {
          "internalType": "uint256",
          "name": "initial",
          "type": "uint256"
        }
      ],
      "name": "getValue",
      "outputs": [
        {
          "internalType": "uint256",
          "name": "",
          "type": "uint256"
        }
      ],
      "stateMutability": "view",
      "type": "function"
    },
    {
      "inputs": [
        {
          "internalType": "address",
          "name": "owner",
          "type": "address"
        },
        {
          "internalType": "address",
          "name": "operator",
          "type": "address"
        }
      ],
      "name": "isApprovedForAll",
      "outputs": [
        {
          "internalType": "bool",
          "name": "",
          "type": "bool"
        }
      ],
      "stateMutability": "view",
      "type": "function"
    },
    {
      "inputs": [],
      "name": "name",
      "outputs": [
        {
          "internalType": "string",
          "name": "",
          "type": "string"
        }
      ],
      "stateMutability": "view",
      "type": "function"
    },
    {
      "inputs": [
        {
          "internalType": "string",
          "name": "subdomain",
          "type": "string"
        }
      ],
      "name": "nameAvailable",
      "outputs": [
        {
          "internalType": "bool",
          "name": "",
          "type": "bool"
        }
      ],
      "stateMutability": "view",
      "type": "function"
    },
    {
      "inputs": [],
      "name": "owner",
      "outputs": [
        {
          "internalType": "address",
          "name": "",
          "type": "address"
        }
      ],
      "stateMutability": "view",
      "type": "function"
    },
    {
      "inputs": [
        {
          "internalType": "uint256",
          "name": "tokenId",
          "type": "uint256"
        }
      ],
      "name": "ownerOf",
      "outputs": [
        {
          "internalType": "address",
          "name": "",
          "type": "address"
        }
      ],
      "stateMutability": "view",
      "type": "function"
    },
    {
      "inputs": [],
      "name": "renounceOwnership",
      "outputs": [],
      "stateMutability": "nonpayable",
      "type": "function"
    },
    {
      "inputs": [
        {
          "internalType": "address",
          "name": "from",
          "type": "address"
        },
        {
          "internalType": "address",
          "name": "to",
          "type": "address"
        },
        {
          "internalType": "uint256",
          "name": "tokenId",
          "type": "uint256"
        }
      ],
      "name": "safeTransferFrom",
      "outputs": [],
      "stateMutability": "nonpayable",
      "type": "function"
    },
    {
      "inputs": [
        {
          "internalType": "address",
          "name": "from",
          "type": "address"
        },
        {
          "internalType": "address",
          "name": "to",
          "type": "address"
        },
        {
          "internalType": "uint256",
          "name": "tokenId",
          "type": "uint256"
        },
        {
          "internalType": "bytes",
          "name": "_data",
          "type": "bytes"
        }
      ],
      "name": "safeTransferFrom",
      "outputs": [],
      "stateMutability": "nonpayable",
      "type": "function"
    },
    {
      "inputs": [
        {
          "internalType": "address",
          "name": "operator",
          "type": "address"
        },
        {
          "internalType": "bool",
          "name": "approved",
          "type": "bool"
        }
      ],
      "name": "setApprovalForAll",
      "outputs": [],
      "stateMutability": "nonpayable",
      "type": "function"
    },
    {
      "inputs": [
        {
          "internalType": "string",
          "name": "_newBaseURI",
          "type": "string"
        }
      ],
      "name": "setBaseURI",
      "outputs": [],
      "stateMutability": "nonpayable",
      "type": "function"
    },
    {
      "inputs": [
        {
          "internalType": "bytes4",
          "name": "interfaceId",
          "type": "bytes4"
        }
      ],
      "name": "supportsInterface",
      "outputs": [
        {
          "internalType": "bool",
          "name": "",
          "type": "bool"
        }
      ],
      "stateMutability": "view",
      "type": "function"
    },
    {
      "inputs": [],
      "name": "symbol",
      "outputs": [
        {
          "internalType": "string",
          "name": "",
          "type": "string"
        }
      ],
      "stateMutability": "view",
      "type": "function"
    },
    {
      "inputs": [
        {
          "internalType": "uint256",
          "name": "tokenId",
          "type": "uint256"
        }
      ],
      "name": "tokenURI",
      "outputs": [
        {
          "internalType": "string",
          "name": "",
          "type": "string"
        }
      ],
      "stateMutability": "view",
      "type": "function"
    },
    {
      "inputs": [
        {
          "internalType": "address",
          "name": "from",
          "type": "address"
        },
        {
          "internalType": "address",
          "name": "to",
          "type": "address"
        },
        {
          "internalType": "uint256",
          "name": "tokenId",
          "type": "uint256"
        }
      ],
      "name": "transferFrom",
      "outputs": [],
      "stateMutability": "nonpayable",
      "type": "function"
    },
    {
      "inputs": [
        {
          "internalType": "address",
          "name": "newOwner",
          "type": "address"
        }
      ],
      "name": "transferOwnership",
      "outputs": [],
      "stateMutability": "nonpayable",
      "type": "function"
    }
  ],
  "bytecode": "0x6080604052681b1ae4d6e2ef500000600955683635c9adc5dea00000600a55686c6b935b8bbd400000600b553480156200003857600080fd5b5060405162004a0a38038062004a0a83398181016040528101906200005e91906200039b565b818181600090805190602001906200007892919062000279565b5080600190805190602001906200009192919062000279565b5050506001600681905550620000bc620000b0620000d660201b60201c565b620000de60201b60201c565b620000cd83620001a460201b60201c565b5050506200062f565b600033905090565b6000600760009054906101000a900473ffffffffffffffffffffffffffffffffffffffff16905081600760006101000a81548173ffffffffffffffffffffffffffffffffffffffff021916908373ffffffffffffffffffffffffffffffffffffffff1602179055508173ffffffffffffffffffffffffffffffffffffffff168173ffffffffffffffffffffffffffffffffffffffff167f8be0079c531659141344cd1fd0a4f28419497f9722a3daafe3b4186f6b6457e060405160405180910390a35050565b620001b4620000d660201b60201c565b73ffffffffffffffffffffffffffffffffffffffff16620001da6200024f60201b60201c565b73ffffffffffffffffffffffffffffffffffffffff161462000233576040517f08c379a00000000000000000000000000000000000000000000000000000000081526004016200022a9062000463565b60405180910390fd5b80600c90805190602001906200024b92919062000279565b5050565b6000600760009054906101000a900473ffffffffffffffffffffffffffffffffffffffff16905090565b82805462000287906200052b565b90600052602060002090601f016020900481019282620002ab5760008555620002f7565b82601f10620002c657805160ff1916838001178555620002f7565b82800160010185558215620002f7579182015b82811115620002f6578251825591602001919060010190620002d9565b5b5090506200030691906200030a565b5090565b5b80821115620003255760008160009055506001016200030b565b5090565b6000620003406200033a84620004ae565b62000485565b9050828152602081018484840111156200035957600080fd5b62000366848285620004f5565b509392505050565b600082601f8301126200038057600080fd5b81516200039284826020860162000329565b91505092915050565b600080600060608486031215620003b157600080fd5b600084015167ffffffffffffffff811115620003cc57600080fd5b620003da868287016200036e565b935050602084015167ffffffffffffffff811115620003f857600080fd5b62000406868287016200036e565b925050604084015167ffffffffffffffff8111156200042457600080fd5b62000432868287016200036e565b9150509250925092565b60006200044b602083620004e4565b9150620004588262000606565b602082019050919050565b600060208201905081810360008301526200047e816200043c565b9050919050565b600062000491620004a4565b90506200049f828262000561565b919050565b6000604051905090565b600067ffffffffffffffff821115620004cc57620004cb620005c6565b5b620004d782620005f5565b9050602081019050919050565b600082825260208201905092915050565b60005b8381101562000515578082015181840152602081019050620004f8565b8381111562000525576000848401525b50505050565b600060028204905060018216806200054457607f821691505b602082108114156200055b576200055a62000597565b5b50919050565b6200056c82620005f5565b810181811067ffffffffffffffff821117156200058e576200058d620005c6565b5b80604052505050565b7f4e487b7100000000000000000000000000000000000000000000000000000000600052602260045260246000fd5b7f4e487b7100000000000000000000000000000000000000000000000000000000600052604160045260246000fd5b6000601f19601f8301169050919050565b7f4f776e61626c653a2063616c6c6572206973206e6f7420746865206f776e6572600082015250565b6143cb806200063f6000396000f3fe6080604052600436106101815760003560e01c80636c0360eb116100d157806397061a911161008a578063b88d4fde11610064578063b88d4fde1461056e578063c87b56dd14610597578063e985e9c5146105d4578063f2fde38b1461061157610181565b806397061a91146104ec57806398fa2fb814610508578063a22cb4651461054557610181565b80636c0360eb146103da57806370a0823114610405578063715018a61461044257806382bbdbec146104595780638da5cb5b1461049657806395d89b41146104c157610181565b806323b872dd1161013e57806351b51d021161011857806351b51d021461033c57806355f804b3146103585780636352211e146103815780636366d9f9146103be57610181565b806323b872dd146102ce57806342842e0e146102f7578063508b019e1461032057610181565b806301ffc9a71461018657806306fdde03146101c3578063081812fc146101ee578063095ea7b31461022b5780630ff4c91614610254578063191164fe14610291575b600080fd5b34801561019257600080fd5b506101ad60048036038101906101a89190612e83565b61063a565b6040516101ba919061372b565b60405180910390f35b3480156101cf57600080fd5b506101d861071c565b6040516101e59190613746565b60405180910390f35b3480156101fa57600080fd5b50610215600480360381019061021091906130b1565b6107ae565b60405161022291906136a2565b60405180910390f35b34801561023757600080fd5b50610252600480360381019061024d9190612e47565b610833565b005b34801561026057600080fd5b5061027b600480360381019061027691906130b1565b61094b565b6040516102889190613a52565b60405180910390f35b34801561029d57600080fd5b506102b860048036038101906102b39190612cdc565b610961565b6040516102c59190613709565b60405180910390f35b3480156102da57600080fd5b506102f560048036038101906102f09190612d41565b610a79565b005b34801561030357600080fd5b5061031e60048036038101906103199190612d41565b610ad9565b005b61033a60048036038101906103359190612f82565b610af9565b005b61035660048036038101906103519190612f16565b610fc1565b005b34801561036457600080fd5b5061037f600480360381019061037a9190612ed5565b61111f565b005b34801561038d57600080fd5b506103a860048036038101906103a391906130b1565b6111b5565b6040516103b591906136a2565b60405180910390f35b6103d860048036038101906103d39190612f16565b611267565b005b3480156103e657600080fd5b506103ef6113c5565b6040516103fc9190613746565b60405180910390f35b34801561041157600080fd5b5061042c60048036038101906104279190612cdc565b611453565b6040516104399190613a52565b60405180910390f35b34801561044e57600080fd5b5061045761150b565b005b34801561046557600080fd5b50610480600480360381019061047b9190612ed5565b611593565b60405161048d919061372b565b60405180910390f35b3480156104a257600080fd5b506104ab6115dc565b6040516104b891906136a2565b60405180910390f35b3480156104cd57600080fd5b506104d6611606565b6040516104e39190613746565b60405180910390f35b61050660048036038101906105019190613045565b611698565b005b34801561051457600080fd5b5061052f600480360381019061052a9190612ed5565b6117ec565b60405161053c9190613a30565b60405180910390f35b34801561055157600080fd5b5061056c60048036038101906105679190612e0b565b611b00565b005b34801561057a57600080fd5b5061059560048036038101906105909190612d90565b611b16565b005b3480156105a357600080fd5b506105be60048036038101906105b991906130b1565b611b78565b6040516105cb9190613746565b60405180910390f35b3480156105e057600080fd5b506105fb60048036038101906105f69190612d05565b611c54565b604051610608919061372b565b60405180910390f35b34801561061d57600080fd5b5061063860048036038101906106339190612cdc565b611ce8565b005b60007f80ac58cd000000000000000000000000000000000000000000000000000000007bffffffffffffffffffffffffffffffffffffffffffffffffffffffff1916827bffffffffffffffffffffffffffffffffffffffffffffffffffffffff1916148061070557507f5b5e139f000000000000000000000000000000000000000000000000000000007bffffffffffffffffffffffffffffffffffffffffffffffffffffffff1916827bffffffffffffffffffffffffffffffffffffffffffffffffffffffff1916145b80610715575061071482611de0565b5b9050919050565b60606000805461072b90613cd3565b80601f016020809104026020016040519081016040528092919081815260200182805461075790613cd3565b80156107a45780601f10610779576101008083540402835291602001916107a4565b820191906000526020600020905b81548152906001019060200180831161078757829003601f168201915b5050505050905090565b60006107b982611e4a565b6107f8576040517f08c379a00000000000000000000000000000000000000000000000000000000081526004016107ef90613950565b60405180910390fd5b6004600083815260200190815260200160002060009054906101000a900473ffffffffffffffffffffffffffffffffffffffff169050919050565b600061083e826111b5565b90508073ffffffffffffffffffffffffffffffffffffffff168373ffffffffffffffffffffffffffffffffffffffff1614156108af576040517f08c379a00000000000000000000000000000000000000000000000000000000081526004016108a6906139d0565b60405180910390fd5b8073ffffffffffffffffffffffffffffffffffffffff166108ce611eb6565b73ffffffffffffffffffffffffffffffffffffffff1614806108fd57506108fc816108f7611eb6565b611c54565b5b61093c576040517f08c379a0000000000000000000000000000000000000000000000000000000008152600401610933906138d0565b60405180910390fd5b6109468383611ebe565b505050565b600060968261095a9190613b81565b9050919050565b6060600e60008373ffffffffffffffffffffffffffffffffffffffff1673ffffffffffffffffffffffffffffffffffffffff168152602001908152602001600020805480602002602001604051908101604052809291908181526020016000905b82821015610a6e5783829060005260206000200180546109e190613cd3565b80601f0160208091040260200160405190810160405280929190818152602001828054610a0d90613cd3565b8015610a5a5780601f10610a2f57610100808354040283529160200191610a5a565b820191906000526020600020905b815481529060010190602001808311610a3d57829003601f168201915b5050505050815260200190600101906109c2565b505050509050919050565b610a8a610a84611eb6565b82611f77565b610ac9576040517f08c379a0000000000000000000000000000000000000000000000000000000008152600401610ac0906139f0565b60405180910390fd5b610ad4838383612055565b505050565b610af483838360405180602001604052806000815250611b16565b505050565b60026006541415610b3f576040517f08c379a0000000000000000000000000000000000000000000000000000000008152600401610b3690613a10565b60405180910390fd5b600260068190555060011515610b5485611593565b151514610b96576040517f08c379a0000000000000000000000000000000000000000000000000000000008152600401610b8d906139b0565b60405180910390fd5b604051602001610ba59061368d565b6040516020818303038152906040528051906020012082604051602001610bcc919061364c565b604051602081830303815290604052805190602001201415610c31576009543414610c2c576040517f08c379a0000000000000000000000000000000000000000000000000000000008152600401610c23906137d0565b60405180910390fd5b610d6e565b604051602001610c4090613678565b6040516020818303038152906040528051906020012082604051602001610c67919061364c565b604051602081830303815290604052805190602001201415610ccc57600a543414610cc7576040517f08c379a0000000000000000000000000000000000000000000000000000000008152600401610cbe906137d0565b60405180910390fd5b610d6d565b604051602001610cdb90613663565b6040516020818303038152906040528051906020012082604051602001610d02919061364c565b604051602081830303815290604052805190602001201415610d6757600b543414610d62576040517f08c379a0000000000000000000000000000000000000000000000000000000008152600401610d59906137d0565b60405180910390fd5b610d6c565b600080fd5b5b5b610d7860086122bc565b6000610d8460086122d2565b90506040518060e001604052808281526020018681526020018581526020018481526020013373ffffffffffffffffffffffffffffffffffffffff16815260200183815260200160011515815250600d86604051610de2919061364c565b9081526020016040518091039020600082015181600001556020820151816001019080519060200190610e16929190612986565b506040820151816002019080519060200190610e33929190612986565b506060820151816003019080519060200190610e50929190612986565b5060808201518160040160006101000a81548173ffffffffffffffffffffffffffffffffffffffff021916908373ffffffffffffffffffffffffffffffffffffffff16021790555060a0820151816005019080519060200190610eb4929190612986565b5060c08201518160060160006101000a81548160ff021916908315150217905550905050600e60003373ffffffffffffffffffffffffffffffffffffffff1673ffffffffffffffffffffffffffffffffffffffff16815260200190815260200160002085908060018154018082558091505060019003906000526020600020016000909190919091509080519060200190610f50929190612986565b5084604051610f5f919061364c565b6040518091039020817fc412d3f67c8be2bbdbcb2767d8c923e2894a205315d4f4f1670cc508d17b8511868633876001604051610fa0959493929190613768565b60405180910390a3610fb233826122e0565b50600160068190555050505050565b6000610fcc836117ec565b9050806080015173ffffffffffffffffffffffffffffffffffffffff163373ffffffffffffffffffffffffffffffffffffffff161461100a57600080fd5b818160a0018190525080600d84604051611024919061364c565b9081526020016040518091039020600082015181600001556020820151816001019080519060200190611058929190612986565b506040820151816002019080519060200190611075929190612986565b506060820151816003019080519060200190611092929190612986565b5060808201518160040160006101000a81548173ffffffffffffffffffffffffffffffffffffffff021916908373ffffffffffffffffffffffffffffffffffffffff16021790555060a08201518160050190805190602001906110f6929190612986565b5060c08201518160060160006101000a81548160ff021916908315150217905550905050505050565b611127611eb6565b73ffffffffffffffffffffffffffffffffffffffff166111456115dc565b73ffffffffffffffffffffffffffffffffffffffff161461119b576040517f08c379a000000000000000000000000000000000000000000000000000000000815260040161119290613970565b60405180910390fd5b80600c90805190602001906111b1929190612986565b5050565b6000806002600084815260200190815260200160002060009054906101000a900473ffffffffffffffffffffffffffffffffffffffff169050600073ffffffffffffffffffffffffffffffffffffffff168173ffffffffffffffffffffffffffffffffffffffff16141561125e576040517f08c379a000000000000000000000000000000000000000000000000000000000815260040161125590613910565b60405180910390fd5b80915050919050565b6000611272836117ec565b9050806080015173ffffffffffffffffffffffffffffffffffffffff163373ffffffffffffffffffffffffffffffffffffffff16146112b057600080fd5b81816040018190525080600d846040516112ca919061364c565b90815260200160405180910390206000820151816000015560208201518160010190805190602001906112fe929190612986565b50604082015181600201908051906020019061131b929190612986565b506060820151816003019080519060200190611338929190612986565b5060808201518160040160006101000a81548173ffffffffffffffffffffffffffffffffffffffff021916908373ffffffffffffffffffffffffffffffffffffffff16021790555060a082015181600501908051906020019061139c929190612986565b5060c08201518160060160006101000a81548160ff021916908315150217905550905050505050565b600c80546113d290613cd3565b80601f01602080910402602001604051908101604052809291908181526020018280546113fe90613cd3565b801561144b5780601f106114205761010080835404028352916020019161144b565b820191906000526020600020905b81548152906001019060200180831161142e57829003601f168201915b505050505081565b60008073ffffffffffffffffffffffffffffffffffffffff168273ffffffffffffffffffffffffffffffffffffffff1614156114c4576040517f08c379a00000000000000000000000000000000000000000000000000000000081526004016114bb906138f0565b60405180910390fd5b600360008373ffffffffffffffffffffffffffffffffffffffff1673ffffffffffffffffffffffffffffffffffffffff168152602001908152602001600020549050919050565b611513611eb6565b73ffffffffffffffffffffffffffffffffffffffff166115316115dc565b73ffffffffffffffffffffffffffffffffffffffff1614611587576040517f08c379a000000000000000000000000000000000000000000000000000000000815260040161157e90613970565b60405180910390fd5b61159160006122fe565b565b6000600d826040516115a5919061364c565b908152602001604051809103902060060160009054906101000a900460ff16156115d257600090506115d7565b600190505b919050565b6000600760009054906101000a900473ffffffffffffffffffffffffffffffffffffffff16905090565b60606001805461161590613cd3565b80601f016020809104026020016040519081016040528092919081815260200182805461164190613cd3565b801561168e5780601f106116635761010080835404028352916020019161168e565b820191906000526020600020905b81548152906001019060200180831161167157829003601f168201915b5050505050905090565b816080015173ffffffffffffffffffffffffffffffffffffffff163373ffffffffffffffffffffffffffffffffffffffff16146116d457600080fd5b80826040018190525081600d83602001516040516116f2919061364c565b9081526020016040518091039020600082015181600001556020820151816001019080519060200190611726929190612986565b506040820151816002019080519060200190611743929190612986565b506060820151816003019080519060200190611760929190612986565b5060808201518160040160006101000a81548173ffffffffffffffffffffffffffffffffffffffff021916908373ffffffffffffffffffffffffffffffffffffffff16021790555060a08201518160050190805190602001906117c4929190612986565b5060c08201518160060160006101000a81548160ff0219169083151502179055509050505050565b6117f4612a0c565b6000151561180183611593565b15151461180d57600080fd5b600d8260405161181d919061364c565b90815260200160405180910390206040518060e00160405290816000820154815260200160018201805461185090613cd3565b80601f016020809104026020016040519081016040528092919081815260200182805461187c90613cd3565b80156118c95780601f1061189e576101008083540402835291602001916118c9565b820191906000526020600020905b8154815290600101906020018083116118ac57829003601f168201915b505050505081526020016002820180546118e290613cd3565b80601f016020809104026020016040519081016040528092919081815260200182805461190e90613cd3565b801561195b5780601f106119305761010080835404028352916020019161195b565b820191906000526020600020905b81548152906001019060200180831161193e57829003601f168201915b5050505050815260200160038201805461197490613cd3565b80601f01602080910402602001604051908101604052809291908181526020018280546119a090613cd3565b80156119ed5780601f106119c2576101008083540402835291602001916119ed565b820191906000526020600020905b8154815290600101906020018083116119d057829003601f168201915b505050505081526020016004820160009054906101000a900473ffffffffffffffffffffffffffffffffffffffff1673ffffffffffffffffffffffffffffffffffffffff1673ffffffffffffffffffffffffffffffffffffffff168152602001600582018054611a5c90613cd3565b80601f0160208091040260200160405190810160405280929190818152602001828054611a8890613cd3565b8015611ad55780601f10611aaa57610100808354040283529160200191611ad5565b820191906000526020600020905b815481529060010190602001808311611ab857829003601f168201915b505050505081526020016006820160009054906101000a900460ff1615151515815250509050919050565b611b12611b0b611eb6565b83836123c4565b5050565b611b27611b21611eb6565b83611f77565b611b66576040517f08c379a0000000000000000000000000000000000000000000000000000000008152600401611b5d906139f0565b60405180910390fd5b611b7284848484612531565b50505050565b6060611b8382611e4a565b611bc2576040517f08c379a0000000000000000000000000000000000000000000000000000000008152600401611bb990613990565b60405180910390fd5b600c8054611bcf90613cd3565b80601f0160208091040260200160405190810160405280929190818152602001828054611bfb90613cd3565b8015611c485780601f10611c1d57610100808354040283529160200191611c48565b820191906000526020600020905b815481529060010190602001808311611c2b57829003601f168201915b50505050509050919050565b6000600560008473ffffffffffffffffffffffffffffffffffffffff1673ffffffffffffffffffffffffffffffffffffffff16815260200190815260200160002060008373ffffffffffffffffffffffffffffffffffffffff1673ffffffffffffffffffffffffffffffffffffffff16815260200190815260200160002060009054906101000a900460ff16905092915050565b611cf0611eb6565b73ffffffffffffffffffffffffffffffffffffffff16611d0e6115dc565b73ffffffffffffffffffffffffffffffffffffffff1614611d64576040517f08c379a0000000000000000000000000000000000000000000000000000000008152600401611d5b90613970565b60405180910390fd5b600073ffffffffffffffffffffffffffffffffffffffff168173ffffffffffffffffffffffffffffffffffffffff161415611dd4576040517f08c379a0000000000000000000000000000000000000000000000000000000008152600401611dcb90613810565b60405180910390fd5b611ddd816122fe565b50565b60007f01ffc9a7000000000000000000000000000000000000000000000000000000007bffffffffffffffffffffffffffffffffffffffffffffffffffffffff1916827bffffffffffffffffffffffffffffffffffffffffffffffffffffffff1916149050919050565b60008073ffffffffffffffffffffffffffffffffffffffff166002600084815260200190815260200160002060009054906101000a900473ffffffffffffffffffffffffffffffffffffffff1673ffffffffffffffffffffffffffffffffffffffff1614159050919050565b600033905090565b816004600083815260200190815260200160002060006101000a81548173ffffffffffffffffffffffffffffffffffffffff021916908373ffffffffffffffffffffffffffffffffffffffff160217905550808273ffffffffffffffffffffffffffffffffffffffff16611f31836111b5565b73ffffffffffffffffffffffffffffffffffffffff167f8c5be1e5ebec7d5bd14f71427d1e84f3dd0314c0f7b2291e5b200ac8c7c3b92560405160405180910390a45050565b6000611f8282611e4a565b611fc1576040517f08c379a0000000000000000000000000000000000000000000000000000000008152600401611fb8906138b0565b60405180910390fd5b6000611fcc836111b5565b90508073ffffffffffffffffffffffffffffffffffffffff168473ffffffffffffffffffffffffffffffffffffffff16148061203b57508373ffffffffffffffffffffffffffffffffffffffff16612023846107ae565b73ffffffffffffffffffffffffffffffffffffffff16145b8061204c575061204b8185611c54565b5b91505092915050565b8273ffffffffffffffffffffffffffffffffffffffff16612075826111b5565b73ffffffffffffffffffffffffffffffffffffffff16146120cb576040517f08c379a00000000000000000000000000000000000000000000000000000000081526004016120c290613830565b60405180910390fd5b600073ffffffffffffffffffffffffffffffffffffffff168273ffffffffffffffffffffffffffffffffffffffff16141561213b576040517f08c379a000000000000000000000000000000000000000000000000000000000815260040161213290613870565b60405180910390fd5b61214683838361258d565b612151600082611ebe565b6001600360008573ffffffffffffffffffffffffffffffffffffffff1673ffffffffffffffffffffffffffffffffffffffff16815260200190815260200160002060008282546121a19190613bd7565b925050819055506001600360008473ffffffffffffffffffffffffffffffffffffffff1673ffffffffffffffffffffffffffffffffffffffff16815260200190815260200160002060008282546121f89190613b81565b92505081905550816002600083815260200190815260200160002060006101000a81548173ffffffffffffffffffffffffffffffffffffffff021916908373ffffffffffffffffffffffffffffffffffffffff160217905550808273ffffffffffffffffffffffffffffffffffffffff168473ffffffffffffffffffffffffffffffffffffffff167fddf252ad1be2c89b69c2b068fc378daa952ba7f163c4a11628f55a4df523b3ef60405160405180910390a46122b7838383612592565b505050565b6001816000016000828254019250508190555050565b600081600001549050919050565b6122fa828260405180602001604052806000815250612597565b5050565b6000600760009054906101000a900473ffffffffffffffffffffffffffffffffffffffff16905081600760006101000a81548173ffffffffffffffffffffffffffffffffffffffff021916908373ffffffffffffffffffffffffffffffffffffffff1602179055508173ffffffffffffffffffffffffffffffffffffffff168173ffffffffffffffffffffffffffffffffffffffff167f8be0079c531659141344cd1fd0a4f28419497f9722a3daafe3b4186f6b6457e060405160405180910390a35050565b8173ffffffffffffffffffffffffffffffffffffffff168373ffffffffffffffffffffffffffffffffffffffff161415612433576040517f08c379a000000000000000000000000000000000000000000000000000000000815260040161242a90613890565b60405180910390fd5b80600560008573ffffffffffffffffffffffffffffffffffffffff1673ffffffffffffffffffffffffffffffffffffffff16815260200190815260200160002060008473ffffffffffffffffffffffffffffffffffffffff1673ffffffffffffffffffffffffffffffffffffffff16815260200190815260200160002060006101000a81548160ff0219169083151502179055508173ffffffffffffffffffffffffffffffffffffffff168373ffffffffffffffffffffffffffffffffffffffff167f17307eab39ab6107e8899845ad3d59bd9653f200f220920489ca2b5937696c3183604051612524919061372b565b60405180910390a3505050565b61253c848484612055565b612548848484846125f2565b612587576040517f08c379a000000000000000000000000000000000000000000000000000000000815260040161257e906137f0565b60405180910390fd5b50505050565b505050565b505050565b6125a18383612789565b6125ae60008484846125f2565b6125ed576040517f08c379a00000000000000000000000000000000000000000000000000000000081526004016125e4906137f0565b60405180910390fd5b505050565b60006126138473ffffffffffffffffffffffffffffffffffffffff16612963565b1561277c578373ffffffffffffffffffffffffffffffffffffffff1663150b7a0261263c611eb6565b8786866040518563ffffffff1660e01b815260040161265e94939291906136bd565b602060405180830381600087803b15801561267857600080fd5b505af19250505080156126a957506040513d601f19601f820116820180604052508101906126a69190612eac565b60015b61272c573d80600081146126d9576040519150601f19603f3d011682016040523d82523d6000602084013e6126de565b606091505b50600081511415612724576040517f08c379a000000000000000000000000000000000000000000000000000000000815260040161271b906137f0565b60405180910390fd5b805181602001fd5b63150b7a0260e01b7bffffffffffffffffffffffffffffffffffffffffffffffffffffffff1916817bffffffffffffffffffffffffffffffffffffffffffffffffffffffff191614915050612781565b600190505b949350505050565b600073ffffffffffffffffffffffffffffffffffffffff168273ffffffffffffffffffffffffffffffffffffffff1614156127f9576040517f08c379a00000000000000000000000000000000000000000000000000000000081526004016127f090613930565b60405180910390fd5b61280281611e4a565b15612842576040517f08c379a000000000000000000000000000000000000000000000000000000000815260040161283990613850565b60405180910390fd5b61284e6000838361258d565b6001600360008473ffffffffffffffffffffffffffffffffffffffff1673ffffffffffffffffffffffffffffffffffffffff168152602001908152602001600020600082825461289e9190613b81565b92505081905550816002600083815260200190815260200160002060006101000a81548173ffffffffffffffffffffffffffffffffffffffff021916908373ffffffffffffffffffffffffffffffffffffffff160217905550808273ffffffffffffffffffffffffffffffffffffffff16600073ffffffffffffffffffffffffffffffffffffffff167fddf252ad1be2c89b69c2b068fc378daa952ba7f163c4a11628f55a4df523b3ef60405160405180910390a461295f60008383612592565b5050565b6000808273ffffffffffffffffffffffffffffffffffffffff163b119050919050565b82805461299290613cd3565b90600052602060002090601f0160209004810192826129b457600085556129fb565b82601f106129cd57805160ff19168380011785556129fb565b828001600101855582156129fb579182015b828111156129fa5782518255916020019190600101906129df565b5b509050612a089190612a61565b5090565b6040518060e0016040528060008152602001606081526020016060815260200160608152602001600073ffffffffffffffffffffffffffffffffffffffff168152602001606081526020016000151581525090565b5b80821115612a7a576000816000905550600101612a62565b5090565b6000612a91612a8c84613a92565b613a6d565b905082815260208101848484011115612aa957600080fd5b612ab4848285613c91565b509392505050565b6000612acf612aca84613ac3565b613a6d565b905082815260208101848484011115612ae757600080fd5b612af2848285613c91565b509392505050565b600081359050612b0981614322565b92915050565b600081359050612b1e81614339565b92915050565b600081359050612b3381614350565b92915050565b600081359050612b4881614367565b92915050565b600081519050612b5d81614367565b92915050565b600082601f830112612b7457600080fd5b8135612b84848260208601612a7e565b91505092915050565b600082601f830112612b9e57600080fd5b8135612bae848260208601612abc565b91505092915050565b600060e08284031215612bc957600080fd5b612bd360e0613a6d565b90506000612be384828501612cc7565b600083015250602082013567ffffffffffffffff811115612c0357600080fd5b612c0f84828501612b8d565b602083015250604082013567ffffffffffffffff811115612c2f57600080fd5b612c3b84828501612b8d565b604083015250606082013567ffffffffffffffff811115612c5b57600080fd5b612c6784828501612b8d565b6060830152506080612c7b84828501612b0f565b60808301525060a082013567ffffffffffffffff811115612c9b57600080fd5b612ca784828501612b8d565b60a08301525060c0612cbb84828501612b24565b60c08301525092915050565b600081359050612cd68161437e565b92915050565b600060208284031215612cee57600080fd5b6000612cfc84828501612afa565b91505092915050565b60008060408385031215612d1857600080fd5b6000612d2685828601612afa565b9250506020612d3785828601612afa565b9150509250929050565b600080600060608486031215612d5657600080fd5b6000612d6486828701612afa565b9350506020612d7586828701612afa565b9250506040612d8686828701612cc7565b9150509250925092565b60008060008060808587031215612da657600080fd5b6000612db487828801612afa565b9450506020612dc587828801612afa565b9350506040612dd687828801612cc7565b925050606085013567ffffffffffffffff811115612df357600080fd5b612dff87828801612b63565b91505092959194509250565b60008060408385031215612e1e57600080fd5b6000612e2c85828601612afa565b9250506020612e3d85828601612b24565b9150509250929050565b60008060408385031215612e5a57600080fd5b6000612e6885828601612afa565b9250506020612e7985828601612cc7565b9150509250929050565b600060208284031215612e9557600080fd5b6000612ea384828501612b39565b91505092915050565b600060208284031215612ebe57600080fd5b6000612ecc84828501612b4e565b91505092915050565b600060208284031215612ee757600080fd5b600082013567ffffffffffffffff811115612f0157600080fd5b612f0d84828501612b8d565b91505092915050565b60008060408385031215612f2957600080fd5b600083013567ffffffffffffffff811115612f4357600080fd5b612f4f85828601612b8d565b925050602083013567ffffffffffffffff811115612f6c57600080fd5b612f7885828601612b8d565b9150509250929050565b60008060008060808587031215612f9857600080fd5b600085013567ffffffffffffffff811115612fb257600080fd5b612fbe87828801612b8d565b945050602085013567ffffffffffffffff811115612fdb57600080fd5b612fe787828801612b8d565b935050604085013567ffffffffffffffff81111561300457600080fd5b61301087828801612b8d565b925050606085013567ffffffffffffffff81111561302d57600080fd5b61303987828801612b8d565b91505092959194509250565b6000806040838503121561305857600080fd5b600083013567ffffffffffffffff81111561307257600080fd5b61307e85828601612bb7565b925050602083013567ffffffffffffffff81111561309b57600080fd5b6130a785828601612b8d565b9150509250929050565b6000602082840312156130c357600080fd5b60006130d184828501612cc7565b91505092915050565b60006130e683836131d8565b905092915050565b6130f781613c1d565b82525050565b61310681613c0b565b82525050565b600061311782613b04565b6131218185613b32565b93508360208202850161313385613af4565b8060005b8581101561316f578484038952815161315085826130da565b945061315b83613b25565b925060208a01995050600181019050613137565b50829750879550505050505092915050565b61318a81613c2f565b82525050565b61319981613c2f565b82525050565b60006131aa82613b0f565b6131b48185613b43565b93506131c4818560208601613ca0565b6131cd81613dc3565b840191505092915050565b60006131e382613b1a565b6131ed8185613b54565b93506131fd818560208601613ca0565b61320681613dc3565b840191505092915050565b600061321c82613b1a565b6132268185613b65565b9350613236818560208601613ca0565b61323f81613dc3565b840191505092915050565b600061325582613b1a565b61325f8185613b76565b935061326f818560208601613ca0565b80840191505092915050565b6000613288601c83613b65565b915061329382613dd4565b602082019050919050565b60006132ab603283613b65565b91506132b682613dfd565b604082019050919050565b60006132ce602683613b65565b91506132d982613e4c565b604082019050919050565b60006132f1602583613b65565b91506132fc82613e9b565b604082019050919050565b6000613314601c83613b65565b915061331f82613eea565b602082019050919050565b6000613337600983613b76565b915061334282613f13565b600982019050919050565b600061335a600383613b76565b915061336582613f3c565b600382019050919050565b600061337d602483613b65565b915061338882613f65565b604082019050919050565b60006133a0601983613b65565b91506133ab82613fb4565b602082019050919050565b60006133c3602c83613b65565b91506133ce82613fdd565b604082019050919050565b60006133e6603883613b65565b91506133f18261402c565b604082019050919050565b6000613409602a83613b65565b91506134148261407b565b604082019050919050565b600061342c602983613b65565b9150613437826140ca565b604082019050919050565b600061344f602083613b65565b915061345a82614119565b602082019050919050565b6000613472602c83613b65565b915061347d82614142565b604082019050919050565b6000613495602083613b65565b91506134a082614191565b602082019050919050565b60006134b8602f83613b65565b91506134c3826141ba565b604082019050919050565b60006134db600583613b76565b91506134e682614209565b600582019050919050565b60006134fe601383613b65565b915061350982614232565b602082019050919050565b6000613521602183613b65565b915061352c8261425b565b604082019050919050565b6000613544603183613b65565b915061354f826142aa565b604082019050919050565b6000613567601f83613b65565b9150613572826142f9565b602082019050919050565b600060e083016000830151613595600086018261362e565b50602083015184820360208601526135ad82826131d8565b915050604083015184820360408601526135c782826131d8565b915050606083015184820360608601526135e182826131d8565b91505060808301516135f660808601826130ee565b5060a083015184820360a086015261360e82826131d8565b91505060c083015161362360c0860182613181565b508091505092915050565b61363781613c87565b82525050565b61364681613c87565b82525050565b6000613658828461324a565b915081905092915050565b600061366e8261332a565b9150819050919050565b60006136838261334d565b9150819050919050565b6000613698826134ce565b9150819050919050565b60006020820190506136b760008301846130fd565b92915050565b60006080820190506136d260008301876130fd565b6136df60208301866130fd565b6136ec604083018561363d565b81810360608301526136fe818461319f565b905095945050505050565b60006020820190508181036000830152613723818461310c565b905092915050565b60006020820190506137406000830184613190565b92915050565b600060208201905081810360008301526137608184613211565b905092915050565b600060a08201905081810360008301526137828188613211565b905081810360208301526137968187613211565b90506137a560408301866130fd565b81810360608301526137b78185613211565b90506137c66080830184613190565b9695505050505050565b600060208201905081810360008301526137e98161327b565b9050919050565b600060208201905081810360008301526138098161329e565b9050919050565b60006020820190508181036000830152613829816132c1565b9050919050565b60006020820190508181036000830152613849816132e4565b9050919050565b6000602082019050818103600083015261386981613307565b9050919050565b6000602082019050818103600083015261388981613370565b9050919050565b600060208201905081810360008301526138a981613393565b9050919050565b600060208201905081810360008301526138c9816133b6565b9050919050565b600060208201905081810360008301526138e9816133d9565b9050919050565b60006020820190508181036000830152613909816133fc565b9050919050565b600060208201905081810360008301526139298161341f565b9050919050565b6000602082019050818103600083015261394981613442565b9050919050565b6000602082019050818103600083015261396981613465565b9050919050565b6000602082019050818103600083015261398981613488565b9050919050565b600060208201905081810360008301526139a9816134ab565b9050919050565b600060208201905081810360008301526139c9816134f1565b9050919050565b600060208201905081810360008301526139e981613514565b9050919050565b60006020820190508181036000830152613a0981613537565b9050919050565b60006020820190508181036000830152613a298161355a565b9050919050565b60006020820190508181036000830152613a4a818461357d565b905092915050565b6000602082019050613a67600083018461363d565b92915050565b6000613a77613a88565b9050613a838282613d05565b919050565b6000604051905090565b600067ffffffffffffffff821115613aad57613aac613d94565b5b613ab682613dc3565b9050602081019050919050565b600067ffffffffffffffff821115613ade57613add613d94565b5b613ae782613dc3565b9050602081019050919050565b6000819050602082019050919050565b600081519050919050565b600081519050919050565b600081519050919050565b6000602082019050919050565b600082825260208201905092915050565b600082825260208201905092915050565b600082825260208201905092915050565b600082825260208201905092915050565b600081905092915050565b6000613b8c82613c87565b9150613b9783613c87565b9250827fffffffffffffffffffffffffffffffffffffffffffffffffffffffffffffffff03821115613bcc57613bcb613d36565b5b828201905092915050565b6000613be282613c87565b9150613bed83613c87565b925082821015613c0057613bff613d36565b5b828203905092915050565b6000613c1682613c67565b9050919050565b6000613c2882613c67565b9050919050565b60008115159050919050565b60007fffffffff0000000000000000000000000000000000000000000000000000000082169050919050565b600073ffffffffffffffffffffffffffffffffffffffff82169050919050565b6000819050919050565b82818337600083830152505050565b60005b83811015613cbe578082015181840152602081019050613ca3565b83811115613ccd576000848401525b50505050565b60006002820490506001821680613ceb57607f821691505b60208210811415613cff57613cfe613d65565b5b50919050565b613d0e82613dc3565b810181811067ffffffffffffffff82111715613d2d57613d2c613d94565b5b80604052505050565b7f4e487b7100000000000000000000000000000000000000000000000000000000600052601160045260246000fd5b7f4e487b7100000000000000000000000000000000000000000000000000000000600052602260045260246000fd5b7f4e487b7100000000000000000000000000000000000000000000000000000000600052604160045260246000fd5b6000601f19601f8301169050919050565b7f7375626d69742066656520746f2063726561746520612073746f726500000000600082015250565b7f4552433732313a207472616e7366657220746f206e6f6e20455243373231526560008201527f63656976657220696d706c656d656e7465720000000000000000000000000000602082015250565b7f4f776e61626c653a206e6577206f776e657220697320746865207a65726f206160008201527f6464726573730000000000000000000000000000000000000000000000000000602082015250565b7f4552433732313a207472616e736665722066726f6d20696e636f72726563742060008201527f6f776e6572000000000000000000000000000000000000000000000000000000602082015250565b7f4552433732313a20746f6b656e20616c7265616479206d696e74656400000000600082015250565b7f756e6c696d697465640000000000000000000000000000000000000000000000600082015250565b7f70726f0000000000000000000000000000000000000000000000000000000000600082015250565b7f4552433732313a207472616e7366657220746f20746865207a65726f2061646460008201527f7265737300000000000000000000000000000000000000000000000000000000602082015250565b7f4552433732313a20617070726f766520746f2063616c6c657200000000000000600082015250565b7f4552433732313a206f70657261746f7220717565727920666f72206e6f6e657860008201527f697374656e7420746f6b656e0000000000000000000000000000000000000000602082015250565b7f4552433732313a20617070726f76652063616c6c6572206973206e6f74206f7760008201527f6e6572206e6f7220617070726f76656420666f7220616c6c0000000000000000602082015250565b7f4552433732313a2062616c616e636520717565727920666f7220746865207a6560008201527f726f206164647265737300000000000000000000000000000000000000000000602082015250565b7f4552433732313a206f776e657220717565727920666f72206e6f6e657869737460008201527f656e7420746f6b656e0000000000000000000000000000000000000000000000602082015250565b7f4552433732313a206d696e7420746f20746865207a65726f2061646472657373600082015250565b7f4552433732313a20617070726f76656420717565727920666f72206e6f6e657860008201527f697374656e7420746f6b656e0000000000000000000000000000000000000000602082015250565b7f4f776e61626c653a2063616c6c6572206973206e6f7420746865206f776e6572600082015250565b7f4552433732314d657461646174613a2055524920717565727920666f72206e6f60008201527f6e6578697374656e7420746f6b656e0000000000000000000000000000000000602082015250565b7f6261736963000000000000000000000000000000000000000000000000000000600082015250565b7f4e616d65206e6f7420617661696c61626c652e00000000000000000000000000600082015250565b7f4552433732313a20617070726f76616c20746f2063757272656e74206f776e6560008201527f7200000000000000000000000000000000000000000000000000000000000000602082015250565b7f4552433732313a207472616e736665722063616c6c6572206973206e6f74206f60008201527f776e6572206e6f7220617070726f766564000000000000000000000000000000602082015250565b7f5265656e7472616e637947756172643a207265656e7472616e742063616c6c00600082015250565b61432b81613c0b565b811461433657600080fd5b50565b61434281613c1d565b811461434d57600080fd5b50565b61435981613c2f565b811461436457600080fd5b50565b61437081613c3b565b811461437b57600080fd5b50565b61438781613c87565b811461439257600080fd5b5056fea26469706673582212209b74e0d9081082330633f56254643d20caf6f3f14613f7dc8fd7861c58dc53ec64736f6c63430008040033",
  "linkReferences": {},
  "deployedLinkReferences": {}
}