{
  "_format": "hh-sol-artifact-1",
  "contractName": "StoreMarketplace",
  "sourceName": "contracts/StoreMarketplace.sol",
  "abi": [
    {
      "inputs": [
        {
          "internalType": "string",
          "name": "newBaseURI",
          "type": "string"
        },
        {
          "internalType": "string",
          "name": "_name",
          "type": "string"
        },
        {
          "internalType": "string",
          "name": "_symbol",
          "type": "string"
        }
      ],
      "stateMutability": "nonpayable",
      "type": "constructor"
    },
    {
      "anonymous": false,
      "inputs": [
        {
          "indexed": true,
          "internalType": "address",
          "name": "owner",
          "type": "address"
        },
        {
          "indexed": true,
          "internalType": "address",
          "name": "approved",
          "type": "address"
        },
        {
          "indexed": true,
          "internalType": "uint256",
          "name": "tokenId",
          "type": "uint256"
        }
      ],
      "name": "Approval",
      "type": "event"
    },
    {
      "anonymous": false,
      "inputs": [
        {
          "indexed": true,
          "internalType": "address",
          "name": "owner",
          "type": "address"
        },
        {
          "indexed": true,
          "internalType": "address",
          "name": "operator",
          "type": "address"
        },
        {
          "indexed": false,
          "internalType": "bool",
          "name": "approved",
          "type": "bool"
        }
      ],
      "name": "ApprovalForAll",
      "type": "event"
    },
    {
      "anonymous": false,
      "inputs": [
        {
          "indexed": true,
          "internalType": "address",
          "name": "previousOwner",
          "type": "address"
        },
        {
          "indexed": true,
          "internalType": "address",
          "name": "newOwner",
          "type": "address"
        }
      ],
      "name": "OwnershipTransferred",
      "type": "event"
    },
    {
      "anonymous": false,
      "inputs": [
        {
          "indexed": true,
          "internalType": "uint256",
          "name": "storeId",
          "type": "uint256"
        },
        {
          "indexed": true,
          "internalType": "string",
          "name": "subdomain",
          "type": "string"
        },
        {
          "indexed": false,
          "internalType": "string",
          "name": "colourHex",
          "type": "string"
        },
        {
          "indexed": false,
          "internalType": "string",
          "name": "plan",
          "type": "string"
        },
        {
          "indexed": false,
          "internalType": "address",
          "name": "owner",
          "type": "address"
        },
        {
          "indexed": false,
          "internalType": "string",
          "name": "logoURI",
          "type": "string"
        }
      ],
      "name": "StoreCreated",
      "type": "event"
    },
    {
      "anonymous": false,
      "inputs": [
        {
          "indexed": true,
          "internalType": "address",
          "name": "from",
          "type": "address"
        },
        {
          "indexed": true,
          "internalType": "address",
          "name": "to",
          "type": "address"
        },
        {
          "indexed": true,
          "internalType": "uint256",
          "name": "tokenId",
          "type": "uint256"
        }
      ],
      "name": "Transfer",
      "type": "event"
    },
    {
      "inputs": [
        {
          "internalType": "address",
          "name": "to",
          "type": "address"
        },
        {
          "internalType": "uint256",
          "name": "tokenId",
          "type": "uint256"
        }
      ],
      "name": "approve",
      "outputs": [],
      "stateMutability": "nonpayable",
      "type": "function"
    },
    {
      "inputs": [
        {
          "internalType": "address",
          "name": "owner",
          "type": "address"
        }
      ],
      "name": "balanceOf",
      "outputs": [
        {
          "internalType": "uint256",
          "name": "",
          "type": "uint256"
        }
      ],
      "stateMutability": "view",
      "type": "function"
    },
    {
      "inputs": [],
      "name": "baseURI",
      "outputs": [
        {
          "internalType": "string",
          "name": "",
          "type": "string"
        }
      ],
      "stateMutability": "view",
      "type": "function"
    },
    {
      "inputs": [
        {
          "internalType": "string",
          "name": "subdomainIn",
          "type": "string"
        },
        {
          "internalType": "string",
          "name": "colourhex",
          "type": "string"
        },
        {
          "internalType": "string",
          "name": "plan",
          "type": "string"
        },
        {
          "internalType": "string",
          "name": "logoURI",
          "type": "string"
        }
      ],
      "name": "createStore",
      "outputs": [],
      "stateMutability": "payable",
      "type": "function"
    },
    {
      "inputs": [
        {
          "internalType": "string",
          "name": "subdomainIn",
          "type": "string"
        },
        {
          "internalType": "string",
          "name": "newHexColour",
          "type": "string"
        }
      ],
      "name": "editStoreColour",
      "outputs": [],
      "stateMutability": "payable",
      "type": "function"
    },
    {
      "inputs": [
        {
          "components": [
            {
              "internalType": "uint256",
              "name": "storeId",
              "type": "uint256"
            },
            {
              "internalType": "string",
              "name": "subdomain",
              "type": "string"
            },
            {
              "internalType": "string",
              "name": "colourHex",
              "type": "string"
            },
            {
              "internalType": "string",
              "name": "plan",
              "type": "string"
            },
            {
              "internalType": "address payable",
              "name": "owner",
              "type": "address"
            },
            {
              "internalType": "string",
              "name": "logoURI",
              "type": "string"
            }
          ],
          "internalType": "struct StoreMarketplace.Store",
          "name": "storeIn",
          "type": "tuple"
        },
        {
          "internalType": "string",
          "name": "newHexColour",
          "type": "string"
        }
      ],
      "name": "editStoreColour",
      "outputs": [],
      "stateMutability": "payable",
      "type": "function"
    },
    {
      "inputs": [
        {
          "internalType": "string",
          "name": "subdomainIn",
          "type": "string"
        },
        {
          "internalType": "string",
          "name": "newLogoURI",
          "type": "string"
        }
      ],
      "name": "editStoreLogo",
      "outputs": [],
      "stateMutability": "payable",
      "type": "function"
    },
    {
      "inputs": [
        {
          "internalType": "uint256",
          "name": "tokenId",
          "type": "uint256"
        }
      ],
      "name": "getApproved",
      "outputs": [
        {
          "internalType": "address",
          "name": "",
          "type": "address"
        }
      ],
      "stateMutability": "view",
      "type": "function"
    },
    {
      "inputs": [
        {
          "internalType": "uint256",
          "name": "id",
          "type": "uint256"
        }
      ],
      "name": "getStoreWithId",
      "outputs": [
        {
          "components": [
            {
              "internalType": "uint256",
              "name": "storeId",
              "type": "uint256"
            },
            {
              "internalType": "string",
              "name": "subdomain",
              "type": "string"
            },
            {
              "internalType": "string",
              "name": "colourHex",
              "type": "string"
            },
            {
              "internalType": "string",
              "name": "plan",
              "type": "string"
            },
            {
              "internalType": "address payable",
              "name": "owner",
              "type": "address"
            },
            {
              "internalType": "string",
              "name": "logoURI",
              "type": "string"
            }
          ],
          "internalType": "struct StoreMarketplace.Store",
          "name": "",
          "type": "tuple"
        }
      ],
      "stateMutability": "view",
      "type": "function"
    },
    {
      "inputs": [
        {
          "internalType": "string",
          "name": "subdomainIn",
          "type": "string"
        }
      ],
      "name": "getStoreWithSubdomain",
      "outputs": [
        {
          "components": [
            {
              "internalType": "uint256",
              "name": "storeId",
              "type": "uint256"
            },
            {
              "internalType": "string",
              "name": "subdomain",
              "type": "string"
            },
            {
              "internalType": "string",
              "name": "colourHex",
              "type": "string"
            },
            {
              "internalType": "string",
              "name": "plan",
              "type": "string"
            },
            {
              "internalType": "address payable",
              "name": "owner",
              "type": "address"
            },
            {
              "internalType": "string",
              "name": "logoURI",
              "type": "string"
            }
          ],
          "internalType": "struct StoreMarketplace.Store",
          "name": "",
          "type": "tuple"
        }
      ],
      "stateMutability": "view",
      "type": "function"
    },
    {
      "inputs": [
        {
          "internalType": "address",
          "name": "owner",
          "type": "address"
        },
        {
          "internalType": "address",
          "name": "operator",
          "type": "address"
        }
      ],
      "name": "isApprovedForAll",
      "outputs": [
        {
          "internalType": "bool",
          "name": "",
          "type": "bool"
        }
      ],
      "stateMutability": "view",
      "type": "function"
    },
    {
      "inputs": [],
      "name": "name",
      "outputs": [
        {
          "internalType": "string",
          "name": "",
          "type": "string"
        }
      ],
      "stateMutability": "view",
      "type": "function"
    },
    {
      "inputs": [
        {
          "internalType": "string",
          "name": "name",
          "type": "string"
        }
      ],
      "name": "nameAvailable",
      "outputs": [
        {
          "internalType": "bool",
          "name": "",
          "type": "bool"
        }
      ],
      "stateMutability": "view",
      "type": "function"
    },
    {
      "inputs": [],
      "name": "owner",
      "outputs": [
        {
          "internalType": "address",
          "name": "",
          "type": "address"
        }
      ],
      "stateMutability": "view",
      "type": "function"
    },
    {
      "inputs": [
        {
          "internalType": "uint256",
          "name": "tokenId",
          "type": "uint256"
        }
      ],
      "name": "ownerOf",
      "outputs": [
        {
          "internalType": "address",
          "name": "",
          "type": "address"
        }
      ],
      "stateMutability": "view",
      "type": "function"
    },
    {
      "inputs": [],
      "name": "renounceOwnership",
      "outputs": [],
      "stateMutability": "nonpayable",
      "type": "function"
    },
    {
      "inputs": [
        {
          "internalType": "address",
          "name": "from",
          "type": "address"
        },
        {
          "internalType": "address",
          "name": "to",
          "type": "address"
        },
        {
          "internalType": "uint256",
          "name": "tokenId",
          "type": "uint256"
        }
      ],
      "name": "safeTransferFrom",
      "outputs": [],
      "stateMutability": "nonpayable",
      "type": "function"
    },
    {
      "inputs": [
        {
          "internalType": "address",
          "name": "from",
          "type": "address"
        },
        {
          "internalType": "address",
          "name": "to",
          "type": "address"
        },
        {
          "internalType": "uint256",
          "name": "tokenId",
          "type": "uint256"
        },
        {
          "internalType": "bytes",
          "name": "_data",
          "type": "bytes"
        }
      ],
      "name": "safeTransferFrom",
      "outputs": [],
      "stateMutability": "nonpayable",
      "type": "function"
    },
    {
      "inputs": [
        {
          "internalType": "address",
          "name": "operator",
          "type": "address"
        },
        {
          "internalType": "bool",
          "name": "approved",
          "type": "bool"
        }
      ],
      "name": "setApprovalForAll",
      "outputs": [],
      "stateMutability": "nonpayable",
      "type": "function"
    },
    {
      "inputs": [
        {
          "internalType": "string",
          "name": "_newBaseURI",
          "type": "string"
        }
      ],
      "name": "setBaseURI",
      "outputs": [],
      "stateMutability": "nonpayable",
      "type": "function"
    },
    {
      "inputs": [
        {
          "internalType": "bytes4",
          "name": "interfaceId",
          "type": "bytes4"
        }
      ],
      "name": "supportsInterface",
      "outputs": [
        {
          "internalType": "bool",
          "name": "",
          "type": "bool"
        }
      ],
      "stateMutability": "view",
      "type": "function"
    },
    {
      "inputs": [],
      "name": "symbol",
      "outputs": [
        {
          "internalType": "string",
          "name": "",
          "type": "string"
        }
      ],
      "stateMutability": "view",
      "type": "function"
    },
    {
      "inputs": [
        {
          "internalType": "uint256",
          "name": "tokenId",
          "type": "uint256"
        }
      ],
      "name": "tokenURI",
      "outputs": [
        {
          "internalType": "string",
          "name": "",
          "type": "string"
        }
      ],
      "stateMutability": "view",
      "type": "function"
    },
    {
      "inputs": [
        {
          "internalType": "address",
          "name": "from",
          "type": "address"
        },
        {
          "internalType": "address",
          "name": "to",
          "type": "address"
        },
        {
          "internalType": "uint256",
          "name": "tokenId",
          "type": "uint256"
        }
      ],
      "name": "transferFrom",
      "outputs": [],
      "stateMutability": "nonpayable",
      "type": "function"
    },
    {
      "inputs": [
        {
          "internalType": "address",
          "name": "newOwner",
          "type": "address"
        }
      ],
      "name": "transferOwnership",
      "outputs": [],
      "stateMutability": "nonpayable",
      "type": "function"
    }
  ],
  "bytecode": "0x6080604052681b1ae4d6e2ef500000600955683635c9adc5dea00000600a55686c6b935b8bbd400000600b553480156200003857600080fd5b5060405162004a5238038062004a5283398181016040528101906200005e91906200039b565b818181600090805190602001906200007892919062000279565b5080600190805190602001906200009192919062000279565b5050506001600681905550620000bc620000b0620000d660201b60201c565b620000de60201b60201c565b620000cd83620001a460201b60201c565b5050506200062f565b600033905090565b6000600760009054906101000a900473ffffffffffffffffffffffffffffffffffffffff16905081600760006101000a81548173ffffffffffffffffffffffffffffffffffffffff021916908373ffffffffffffffffffffffffffffffffffffffff1602179055508173ffffffffffffffffffffffffffffffffffffffff168173ffffffffffffffffffffffffffffffffffffffff167f8be0079c531659141344cd1fd0a4f28419497f9722a3daafe3b4186f6b6457e060405160405180910390a35050565b620001b4620000d660201b60201c565b73ffffffffffffffffffffffffffffffffffffffff16620001da6200024f60201b60201c565b73ffffffffffffffffffffffffffffffffffffffff161462000233576040517f08c379a00000000000000000000000000000000000000000000000000000000081526004016200022a9062000463565b60405180910390fd5b80600c90805190602001906200024b92919062000279565b5050565b6000600760009054906101000a900473ffffffffffffffffffffffffffffffffffffffff16905090565b82805462000287906200052b565b90600052602060002090601f016020900481019282620002ab5760008555620002f7565b82601f10620002c657805160ff1916838001178555620002f7565b82800160010185558215620002f7579182015b82811115620002f6578251825591602001919060010190620002d9565b5b5090506200030691906200030a565b5090565b5b80821115620003255760008160009055506001016200030b565b5090565b6000620003406200033a84620004ae565b62000485565b9050828152602081018484840111156200035957600080fd5b62000366848285620004f5565b509392505050565b600082601f8301126200038057600080fd5b81516200039284826020860162000329565b91505092915050565b600080600060608486031215620003b157600080fd5b600084015167ffffffffffffffff811115620003cc57600080fd5b620003da868287016200036e565b935050602084015167ffffffffffffffff811115620003f857600080fd5b62000406868287016200036e565b925050604084015167ffffffffffffffff8111156200042457600080fd5b62000432868287016200036e565b9150509250925092565b60006200044b602083620004e4565b9150620004588262000606565b602082019050919050565b600060208201905081810360008301526200047e816200043c565b9050919050565b600062000491620004a4565b90506200049f828262000561565b919050565b6000604051905090565b600067ffffffffffffffff821115620004cc57620004cb620005c6565b5b620004d782620005f5565b9050602081019050919050565b600082825260208201905092915050565b60005b8381101562000515578082015181840152602081019050620004f8565b8381111562000525576000848401525b50505050565b600060028204905060018216806200054457607f821691505b602082108114156200055b576200055a62000597565b5b50919050565b6200056c82620005f5565b810181811067ffffffffffffffff821117156200058e576200058d620005c6565b5b80604052505050565b7f4e487b7100000000000000000000000000000000000000000000000000000000600052602260045260246000fd5b7f4e487b7100000000000000000000000000000000000000000000000000000000600052604160045260246000fd5b6000601f19601f8301169050919050565b7f4f776e61626c653a2063616c6c6572206973206e6f7420746865206f776e6572600082015250565b614413806200063f6000396000f3fe6080604052600436106101665760003560e01c806370a08231116100d1578063a22cb4651161008a578063bdefa04011610064578063bdefa04014610523578063c87b56dd1461053f578063e985e9c51461057c578063f2fde38b146105b957610166565b8063a22cb46514610494578063a86b0593146104bd578063b88d4fde146104fa57610166565b806370a0823114610370578063715018a6146103ad57806382bbdbec146103c45780638da5cb5b1461040157806395d89b411461042c57806398fa2fb81461045757610166565b8063508b019e11610123578063508b019e1461028b57806351b51d02146102a757806355f804b3146102c35780636352211e146102ec5780636366d9f9146103295780636c0360eb1461034557610166565b806301ffc9a71461016b57806306fdde03146101a8578063081812fc146101d3578063095ea7b31461021057806323b872dd1461023957806342842e0e14610262575b600080fd5b34801561017757600080fd5b50610192600480360381019061018d9190612f57565b6105e2565b60405161019f91906137a5565b60405180910390f35b3480156101b457600080fd5b506101bd6106c4565b6040516101ca91906137c0565b60405180910390f35b3480156101df57600080fd5b506101fa60048036038101906101f59190613185565b610756565b604051610207919061373e565b60405180910390f35b34801561021c57600080fd5b5061023760048036038101906102329190612f1b565b6107db565b005b34801561024557600080fd5b50610260600480360381019061025b9190612e15565b6108f3565b005b34801561026e57600080fd5b5061028960048036038101906102849190612e15565b610953565b005b6102a560048036038101906102a09190613056565b610973565b005b6102c160048036038101906102bc9190612fea565b610d55565b005b3480156102cf57600080fd5b506102ea60048036038101906102e59190612fa9565b610e92565b005b3480156102f857600080fd5b50610313600480360381019061030e9190613185565b610f28565b604051610320919061373e565b60405180910390f35b610343600480360381019061033e9190612fea565b610fda565b005b34801561035157600080fd5b5061035a611117565b60405161036791906137c0565b60405180910390f35b34801561037c57600080fd5b5061039760048036038101906103929190612db0565b6111a5565b6040516103a49190613a9e565b60405180910390f35b3480156103b957600080fd5b506103c261125d565b005b3480156103d057600080fd5b506103eb60048036038101906103e69190612fa9565b6112e5565b6040516103f891906137a5565b60405180910390f35b34801561040d57600080fd5b50610416611392565b604051610423919061373e565b60405180910390f35b34801561043857600080fd5b506104416113bc565b60405161044e91906137c0565b60405180910390f35b34801561046357600080fd5b5061047e60048036038101906104799190612fa9565b61144e565b60405161048b9190613a7c565b60405180910390f35b3480156104a057600080fd5b506104bb60048036038101906104b69190612edf565b6117f3565b005b3480156104c957600080fd5b506104e460048036038101906104df9190613185565b611809565b6040516104f19190613a7c565b60405180910390f35b34801561050657600080fd5b50610521600480360381019061051c9190612e64565b611ade565b005b61053d60048036038101906105389190613119565b611b40565b005b34801561054b57600080fd5b5061056660048036038101906105619190613185565b611c69565b60405161057391906137c0565b60405180910390f35b34801561058857600080fd5b506105a3600480360381019061059e9190612dd9565b611d45565b6040516105b091906137a5565b60405180910390f35b3480156105c557600080fd5b506105e060048036038101906105db9190612db0565b611dd9565b005b60007f80ac58cd000000000000000000000000000000000000000000000000000000007bffffffffffffffffffffffffffffffffffffffffffffffffffffffff1916827bffffffffffffffffffffffffffffffffffffffffffffffffffffffff191614806106ad57507f5b5e139f000000000000000000000000000000000000000000000000000000007bffffffffffffffffffffffffffffffffffffffffffffffffffffffff1916827bffffffffffffffffffffffffffffffffffffffffffffffffffffffff1916145b806106bd57506106bc82611ed1565b5b9050919050565b6060600080546106d390613cfb565b80601f01602080910402602001604051908101604052809291908181526020018280546106ff90613cfb565b801561074c5780601f106107215761010080835404028352916020019161074c565b820191906000526020600020905b81548152906001019060200180831161072f57829003601f168201915b5050505050905090565b600061076182611f3b565b6107a0576040517f08c379a0000000000000000000000000000000000000000000000000000000008152600401610797906139bc565b60405180910390fd5b6004600083815260200190815260200160002060009054906101000a900473ffffffffffffffffffffffffffffffffffffffff169050919050565b60006107e682610f28565b90508073ffffffffffffffffffffffffffffffffffffffff168373ffffffffffffffffffffffffffffffffffffffff161415610857576040517f08c379a000000000000000000000000000000000000000000000000000000000815260040161084e90613a1c565b60405180910390fd5b8073ffffffffffffffffffffffffffffffffffffffff16610876611fa7565b73ffffffffffffffffffffffffffffffffffffffff1614806108a557506108a48161089f611fa7565b611d45565b5b6108e4576040517f08c379a00000000000000000000000000000000000000000000000000000000081526004016108db9061393c565b60405180910390fd5b6108ee8383611faf565b505050565b6109046108fe611fa7565b82612068565b610943576040517f08c379a000000000000000000000000000000000000000000000000000000000815260040161093a90613a3c565b60405180910390fd5b61094e838383612146565b505050565b61096e83838360405180602001604052806000815250611ade565b505050565b600260065414156109b9576040517f08c379a00000000000000000000000000000000000000000000000000000000081526004016109b090613a5c565b60405180910390fd5b6002600681905550600115156109ce856112e5565b1515146109da57600080fd5b6040516020016109e990613729565b6040516020818303038152906040528051906020012082604051602001610a1091906136d1565b604051602081830303815290604052805190602001201415610a75576009543414610a70576040517f08c379a0000000000000000000000000000000000000000000000000000000008152600401610a679061383c565b60405180910390fd5b610bb2565b604051602001610a8490613714565b6040516020818303038152906040528051906020012082604051602001610aab91906136d1565b604051602081830303815290604052805190602001201415610b1057600a543414610b0b576040517f08c379a0000000000000000000000000000000000000000000000000000000008152600401610b029061383c565b60405180910390fd5b610bb1565b604051602001610b1f906136ff565b6040516020818303038152906040528051906020012082604051602001610b4691906136d1565b604051602081830303815290604052805190602001201415610bab57600b543414610ba6576040517f08c379a0000000000000000000000000000000000000000000000000000000008152600401610b9d9061383c565b60405180910390fd5b610bb0565b600080fd5b5b5b610bbc60086123ad565b6000610bc860086123c3565b90506040518060c001604052808281526020018681526020018581526020018481526020013373ffffffffffffffffffffffffffffffffffffffff16815260200183815250600d6000838152602001908152602001600020600082015181600001556020820151816001019080519060200190610c46929190612a77565b506040820151816002019080519060200190610c63929190612a77565b506060820151816003019080519060200190610c80929190612a77565b5060808201518160040160006101000a81548173ffffffffffffffffffffffffffffffffffffffff021916908373ffffffffffffffffffffffffffffffffffffffff16021790555060a0820151816005019080519060200190610ce4929190612a77565b5090505084604051610cf691906136d1565b6040518091039020817fb5eee2047d9b69a8439b7bbe0d8f455ac66ebbbfd2cbd20da90854701b29c16086863387604051610d3494939291906137e2565b60405180910390a3610d4633826123d1565b50600160068190555050505050565b6000610d608361144e565b9050600081600001519050816080015173ffffffffffffffffffffffffffffffffffffffff163373ffffffffffffffffffffffffffffffffffffffff1614610da757600080fd5b828260a0018190525081600d6000838152602001908152602001600020600082015181600001556020820151816001019080519060200190610dea929190612a77565b506040820151816002019080519060200190610e07929190612a77565b506060820151816003019080519060200190610e24929190612a77565b5060808201518160040160006101000a81548173ffffffffffffffffffffffffffffffffffffffff021916908373ffffffffffffffffffffffffffffffffffffffff16021790555060a0820151816005019080519060200190610e88929190612a77565b5090505050505050565b610e9a611fa7565b73ffffffffffffffffffffffffffffffffffffffff16610eb8611392565b73ffffffffffffffffffffffffffffffffffffffff1614610f0e576040517f08c379a0000000000000000000000000000000000000000000000000000000008152600401610f05906139dc565b60405180910390fd5b80600c9080519060200190610f24929190612a77565b5050565b6000806002600084815260200190815260200160002060009054906101000a900473ffffffffffffffffffffffffffffffffffffffff169050600073ffffffffffffffffffffffffffffffffffffffff168173ffffffffffffffffffffffffffffffffffffffff161415610fd1576040517f08c379a0000000000000000000000000000000000000000000000000000000008152600401610fc89061397c565b60405180910390fd5b80915050919050565b6000610fe58361144e565b9050600081600001519050816080015173ffffffffffffffffffffffffffffffffffffffff163373ffffffffffffffffffffffffffffffffffffffff161461102c57600080fd5b82826040018190525081600d600083815260200190815260200160002060008201518160000155602082015181600101908051906020019061106f929190612a77565b50604082015181600201908051906020019061108c929190612a77565b5060608201518160030190805190602001906110a9929190612a77565b5060808201518160040160006101000a81548173ffffffffffffffffffffffffffffffffffffffff021916908373ffffffffffffffffffffffffffffffffffffffff16021790555060a082015181600501908051906020019061110d929190612a77565b5090505050505050565b600c805461112490613cfb565b80601f016020809104026020016040519081016040528092919081815260200182805461115090613cfb565b801561119d5780601f106111725761010080835404028352916020019161119d565b820191906000526020600020905b81548152906001019060200180831161118057829003601f168201915b505050505081565b60008073ffffffffffffffffffffffffffffffffffffffff168273ffffffffffffffffffffffffffffffffffffffff161415611216576040517f08c379a000000000000000000000000000000000000000000000000000000000815260040161120d9061395c565b60405180910390fd5b600360008373ffffffffffffffffffffffffffffffffffffffff1673ffffffffffffffffffffffffffffffffffffffff168152602001908152602001600020549050919050565b611265611fa7565b73ffffffffffffffffffffffffffffffffffffffff16611283611392565b73ffffffffffffffffffffffffffffffffffffffff16146112d9576040517f08c379a00000000000000000000000000000000000000000000000000000000081526004016112d0906139dc565b60405180910390fd5b6112e360006123ef565b565b6000806112f260086123c3565b905060005b81811015611386578360405160200161131091906136d1565b60405160208183030381529060405280519060200120600d600083815260200190815260200160002060010160405160200161134c91906136e8565b6040516020818303038152906040528051906020012014156113735760009250505061138d565b808061137e90613d5e565b9150506112f7565b5060019150505b919050565b6000600760009054906101000a900473ffffffffffffffffffffffffffffffffffffffff16905090565b6060600180546113cb90613cfb565b80601f01602080910402602001604051908101604052809291908181526020018280546113f790613cfb565b80156114445780601f1061141957610100808354040283529160200191611444565b820191906000526020600020905b81548152906001019060200180831161142757829003601f168201915b5050505050905090565b611456612afd565b60001515611463836112e5565b15151461146f57600080fd5b600061147b60086123c3565b905060005b818110156117eb578360405160200161149991906136d1565b60405160208183030381529060405280519060200120600d60006001846114c09190613ba9565b81526020019081526020016000206001016040516020016114e191906136e8565b6040516020818303038152906040528051906020012014156117d857600d600060018361150e9190613ba9565b81526020019081526020016000206040518060c00160405290816000820154815260200160018201805461154190613cfb565b80601f016020809104026020016040519081016040528092919081815260200182805461156d90613cfb565b80156115ba5780601f1061158f576101008083540402835291602001916115ba565b820191906000526020600020905b81548152906001019060200180831161159d57829003601f168201915b505050505081526020016002820180546115d390613cfb565b80601f01602080910402602001604051908101604052809291908181526020018280546115ff90613cfb565b801561164c5780601f106116215761010080835404028352916020019161164c565b820191906000526020600020905b81548152906001019060200180831161162f57829003601f168201915b5050505050815260200160038201805461166590613cfb565b80601f016020809104026020016040519081016040528092919081815260200182805461169190613cfb565b80156116de5780601f106116b3576101008083540402835291602001916116de565b820191906000526020600020905b8154815290600101906020018083116116c157829003601f168201915b505050505081526020016004820160009054906101000a900473ffffffffffffffffffffffffffffffffffffffff1673ffffffffffffffffffffffffffffffffffffffff1673ffffffffffffffffffffffffffffffffffffffff16815260200160058201805461174d90613cfb565b80601f016020809104026020016040519081016040528092919081815260200182805461177990613cfb565b80156117c65780601f1061179b576101008083540402835291602001916117c6565b820191906000526020600020905b8154815290600101906020018083116117a957829003601f168201915b505050505081525050925050506117ee565b80806117e390613d5e565b915050611480565b50505b919050565b6118056117fe611fa7565b83836124b5565b5050565b611811612afd565b600d60008381526020019081526020016000206040518060c00160405290816000820154815260200160018201805461184990613cfb565b80601f016020809104026020016040519081016040528092919081815260200182805461187590613cfb565b80156118c25780601f10611897576101008083540402835291602001916118c2565b820191906000526020600020905b8154815290600101906020018083116118a557829003601f168201915b505050505081526020016002820180546118db90613cfb565b80601f016020809104026020016040519081016040528092919081815260200182805461190790613cfb565b80156119545780601f1061192957610100808354040283529160200191611954565b820191906000526020600020905b81548152906001019060200180831161193757829003601f168201915b5050505050815260200160038201805461196d90613cfb565b80601f016020809104026020016040519081016040528092919081815260200182805461199990613cfb565b80156119e65780601f106119bb576101008083540402835291602001916119e6565b820191906000526020600020905b8154815290600101906020018083116119c957829003601f168201915b505050505081526020016004820160009054906101000a900473ffffffffffffffffffffffffffffffffffffffff1673ffffffffffffffffffffffffffffffffffffffff1673ffffffffffffffffffffffffffffffffffffffff168152602001600582018054611a5590613cfb565b80601f0160208091040260200160405190810160405280929190818152602001828054611a8190613cfb565b8015611ace5780601f10611aa357610100808354040283529160200191611ace565b820191906000526020600020905b815481529060010190602001808311611ab157829003601f168201915b5050505050815250509050919050565b611aef611ae9611fa7565b83612068565b611b2e576040517f08c379a0000000000000000000000000000000000000000000000000000000008152600401611b2590613a3c565b60405180910390fd5b611b3a84848484612622565b50505050565b816080015173ffffffffffffffffffffffffffffffffffffffff163373ffffffffffffffffffffffffffffffffffffffff1614611b7c57600080fd5b80826040018190525081600d600084600001518152602001908152602001600020600082015181600001556020820151816001019080519060200190611bc3929190612a77565b506040820151816002019080519060200190611be0929190612a77565b506060820151816003019080519060200190611bfd929190612a77565b5060808201518160040160006101000a81548173ffffffffffffffffffffffffffffffffffffffff021916908373ffffffffffffffffffffffffffffffffffffffff16021790555060a0820151816005019080519060200190611c61929190612a77565b509050505050565b6060611c7482611f3b565b611cb3576040517f08c379a0000000000000000000000000000000000000000000000000000000008152600401611caa906139fc565b60405180910390fd5b600c8054611cc090613cfb565b80601f0160208091040260200160405190810160405280929190818152602001828054611cec90613cfb565b8015611d395780601f10611d0e57610100808354040283529160200191611d39565b820191906000526020600020905b815481529060010190602001808311611d1c57829003601f168201915b50505050509050919050565b6000600560008473ffffffffffffffffffffffffffffffffffffffff1673ffffffffffffffffffffffffffffffffffffffff16815260200190815260200160002060008373ffffffffffffffffffffffffffffffffffffffff1673ffffffffffffffffffffffffffffffffffffffff16815260200190815260200160002060009054906101000a900460ff16905092915050565b611de1611fa7565b73ffffffffffffffffffffffffffffffffffffffff16611dff611392565b73ffffffffffffffffffffffffffffffffffffffff1614611e55576040517f08c379a0000000000000000000000000000000000000000000000000000000008152600401611e4c906139dc565b60405180910390fd5b600073ffffffffffffffffffffffffffffffffffffffff168173ffffffffffffffffffffffffffffffffffffffff161415611ec5576040517f08c379a0000000000000000000000000000000000000000000000000000000008152600401611ebc9061387c565b60405180910390fd5b611ece816123ef565b50565b60007f01ffc9a7000000000000000000000000000000000000000000000000000000007bffffffffffffffffffffffffffffffffffffffffffffffffffffffff1916827bffffffffffffffffffffffffffffffffffffffffffffffffffffffff1916149050919050565b60008073ffffffffffffffffffffffffffffffffffffffff166002600084815260200190815260200160002060009054906101000a900473ffffffffffffffffffffffffffffffffffffffff1673ffffffffffffffffffffffffffffffffffffffff1614159050919050565b600033905090565b816004600083815260200190815260200160002060006101000a81548173ffffffffffffffffffffffffffffffffffffffff021916908373ffffffffffffffffffffffffffffffffffffffff160217905550808273ffffffffffffffffffffffffffffffffffffffff1661202283610f28565b73ffffffffffffffffffffffffffffffffffffffff167f8c5be1e5ebec7d5bd14f71427d1e84f3dd0314c0f7b2291e5b200ac8c7c3b92560405160405180910390a45050565b600061207382611f3b565b6120b2576040517f08c379a00000000000000000000000000000000000000000000000000000000081526004016120a99061391c565b60405180910390fd5b60006120bd83610f28565b90508073ffffffffffffffffffffffffffffffffffffffff168473ffffffffffffffffffffffffffffffffffffffff16148061212c57508373ffffffffffffffffffffffffffffffffffffffff1661211484610756565b73ffffffffffffffffffffffffffffffffffffffff16145b8061213d575061213c8185611d45565b5b91505092915050565b8273ffffffffffffffffffffffffffffffffffffffff1661216682610f28565b73ffffffffffffffffffffffffffffffffffffffff16146121bc576040517f08c379a00000000000000000000000000000000000000000000000000000000081526004016121b39061389c565b60405180910390fd5b600073ffffffffffffffffffffffffffffffffffffffff168273ffffffffffffffffffffffffffffffffffffffff16141561222c576040517f08c379a0000000000000000000000000000000000000000000000000000000008152600401612223906138dc565b60405180910390fd5b61223783838361267e565b612242600082611faf565b6001600360008573ffffffffffffffffffffffffffffffffffffffff1673ffffffffffffffffffffffffffffffffffffffff16815260200190815260200160002060008282546122929190613bff565b925050819055506001600360008473ffffffffffffffffffffffffffffffffffffffff1673ffffffffffffffffffffffffffffffffffffffff16815260200190815260200160002060008282546122e99190613ba9565b92505081905550816002600083815260200190815260200160002060006101000a81548173ffffffffffffffffffffffffffffffffffffffff021916908373ffffffffffffffffffffffffffffffffffffffff160217905550808273ffffffffffffffffffffffffffffffffffffffff168473ffffffffffffffffffffffffffffffffffffffff167fddf252ad1be2c89b69c2b068fc378daa952ba7f163c4a11628f55a4df523b3ef60405160405180910390a46123a8838383612683565b505050565b6001816000016000828254019250508190555050565b600081600001549050919050565b6123eb828260405180602001604052806000815250612688565b5050565b6000600760009054906101000a900473ffffffffffffffffffffffffffffffffffffffff16905081600760006101000a81548173ffffffffffffffffffffffffffffffffffffffff021916908373ffffffffffffffffffffffffffffffffffffffff1602179055508173ffffffffffffffffffffffffffffffffffffffff168173ffffffffffffffffffffffffffffffffffffffff167f8be0079c531659141344cd1fd0a4f28419497f9722a3daafe3b4186f6b6457e060405160405180910390a35050565b8173ffffffffffffffffffffffffffffffffffffffff168373ffffffffffffffffffffffffffffffffffffffff161415612524576040517f08c379a000000000000000000000000000000000000000000000000000000000815260040161251b906138fc565b60405180910390fd5b80600560008573ffffffffffffffffffffffffffffffffffffffff1673ffffffffffffffffffffffffffffffffffffffff16815260200190815260200160002060008473ffffffffffffffffffffffffffffffffffffffff1673ffffffffffffffffffffffffffffffffffffffff16815260200190815260200160002060006101000a81548160ff0219169083151502179055508173ffffffffffffffffffffffffffffffffffffffff168373ffffffffffffffffffffffffffffffffffffffff167f17307eab39ab6107e8899845ad3d59bd9653f200f220920489ca2b5937696c318360405161261591906137a5565b60405180910390a3505050565b61262d848484612146565b612639848484846126e3565b612678576040517f08c379a000000000000000000000000000000000000000000000000000000000815260040161266f9061385c565b60405180910390fd5b50505050565b505050565b505050565b612692838361287a565b61269f60008484846126e3565b6126de576040517f08c379a00000000000000000000000000000000000000000000000000000000081526004016126d59061385c565b60405180910390fd5b505050565b60006127048473ffffffffffffffffffffffffffffffffffffffff16612a54565b1561286d578373ffffffffffffffffffffffffffffffffffffffff1663150b7a0261272d611fa7565b8786866040518563ffffffff1660e01b815260040161274f9493929190613759565b602060405180830381600087803b15801561276957600080fd5b505af192505050801561279a57506040513d601f19601f820116820180604052508101906127979190612f80565b60015b61281d573d80600081146127ca576040519150601f19603f3d011682016040523d82523d6000602084013e6127cf565b606091505b50600081511415612815576040517f08c379a000000000000000000000000000000000000000000000000000000000815260040161280c9061385c565b60405180910390fd5b805181602001fd5b63150b7a0260e01b7bffffffffffffffffffffffffffffffffffffffffffffffffffffffff1916817bffffffffffffffffffffffffffffffffffffffffffffffffffffffff191614915050612872565b600190505b949350505050565b600073ffffffffffffffffffffffffffffffffffffffff168273ffffffffffffffffffffffffffffffffffffffff1614156128ea576040517f08c379a00000000000000000000000000000000000000000000000000000000081526004016128e19061399c565b60405180910390fd5b6128f381611f3b565b15612933576040517f08c379a000000000000000000000000000000000000000000000000000000000815260040161292a906138bc565b60405180910390fd5b61293f6000838361267e565b6001600360008473ffffffffffffffffffffffffffffffffffffffff1673ffffffffffffffffffffffffffffffffffffffff168152602001908152602001600020600082825461298f9190613ba9565b92505081905550816002600083815260200190815260200160002060006101000a81548173ffffffffffffffffffffffffffffffffffffffff021916908373ffffffffffffffffffffffffffffffffffffffff160217905550808273ffffffffffffffffffffffffffffffffffffffff16600073ffffffffffffffffffffffffffffffffffffffff167fddf252ad1be2c89b69c2b068fc378daa952ba7f163c4a11628f55a4df523b3ef60405160405180910390a4612a5060008383612683565b5050565b6000808273ffffffffffffffffffffffffffffffffffffffff163b119050919050565b828054612a8390613cfb565b90600052602060002090601f016020900481019282612aa55760008555612aec565b82601f10612abe57805160ff1916838001178555612aec565b82800160010185558215612aec579182015b82811115612aeb578251825591602001919060010190612ad0565b5b509050612af99190612b49565b5090565b6040518060c0016040528060008152602001606081526020016060815260200160608152602001600073ffffffffffffffffffffffffffffffffffffffff168152602001606081525090565b5b80821115612b62576000816000905550600101612b4a565b5090565b6000612b79612b7484613ade565b613ab9565b905082815260208101848484011115612b9157600080fd5b612b9c848285613cb9565b509392505050565b6000612bb7612bb284613b0f565b613ab9565b905082815260208101848484011115612bcf57600080fd5b612bda848285613cb9565b509392505050565b600081359050612bf18161436a565b92915050565b600081359050612c0681614381565b92915050565b600081359050612c1b81614398565b92915050565b600081359050612c30816143af565b92915050565b600081519050612c45816143af565b92915050565b600082601f830112612c5c57600080fd5b8135612c6c848260208601612b66565b91505092915050565b600082601f830112612c8657600080fd5b8135612c96848260208601612ba4565b91505092915050565b600060c08284031215612cb157600080fd5b612cbb60c0613ab9565b90506000612ccb84828501612d9b565b600083015250602082013567ffffffffffffffff811115612ceb57600080fd5b612cf784828501612c75565b602083015250604082013567ffffffffffffffff811115612d1757600080fd5b612d2384828501612c75565b604083015250606082013567ffffffffffffffff811115612d4357600080fd5b612d4f84828501612c75565b6060830152506080612d6384828501612bf7565b60808301525060a082013567ffffffffffffffff811115612d8357600080fd5b612d8f84828501612c75565b60a08301525092915050565b600081359050612daa816143c6565b92915050565b600060208284031215612dc257600080fd5b6000612dd084828501612be2565b91505092915050565b60008060408385031215612dec57600080fd5b6000612dfa85828601612be2565b9250506020612e0b85828601612be2565b9150509250929050565b600080600060608486031215612e2a57600080fd5b6000612e3886828701612be2565b9350506020612e4986828701612be2565b9250506040612e5a86828701612d9b565b9150509250925092565b60008060008060808587031215612e7a57600080fd5b6000612e8887828801612be2565b9450506020612e9987828801612be2565b9350506040612eaa87828801612d9b565b925050606085013567ffffffffffffffff811115612ec757600080fd5b612ed387828801612c4b565b91505092959194509250565b60008060408385031215612ef257600080fd5b6000612f0085828601612be2565b9250506020612f1185828601612c0c565b9150509250929050565b60008060408385031215612f2e57600080fd5b6000612f3c85828601612be2565b9250506020612f4d85828601612d9b565b9150509250929050565b600060208284031215612f6957600080fd5b6000612f7784828501612c21565b91505092915050565b600060208284031215612f9257600080fd5b6000612fa084828501612c36565b91505092915050565b600060208284031215612fbb57600080fd5b600082013567ffffffffffffffff811115612fd557600080fd5b612fe184828501612c75565b91505092915050565b60008060408385031215612ffd57600080fd5b600083013567ffffffffffffffff81111561301757600080fd5b61302385828601612c75565b925050602083013567ffffffffffffffff81111561304057600080fd5b61304c85828601612c75565b9150509250929050565b6000806000806080858703121561306c57600080fd5b600085013567ffffffffffffffff81111561308657600080fd5b61309287828801612c75565b945050602085013567ffffffffffffffff8111156130af57600080fd5b6130bb87828801612c75565b935050604085013567ffffffffffffffff8111156130d857600080fd5b6130e487828801612c75565b925050606085013567ffffffffffffffff81111561310157600080fd5b61310d87828801612c75565b91505092959194509250565b6000806040838503121561312c57600080fd5b600083013567ffffffffffffffff81111561314657600080fd5b61315285828601612c9f565b925050602083013567ffffffffffffffff81111561316f57600080fd5b61317b85828601612c75565b9150509250929050565b60006020828403121561319757600080fd5b60006131a584828501612d9b565b91505092915050565b6131b781613c45565b82525050565b6131c681613c33565b82525050565b6131d581613c57565b82525050565b60006131e682613b55565b6131f08185613b6b565b9350613200818560208601613cc8565b61320981613e34565b840191505092915050565b600061321f82613b60565b6132298185613b7c565b9350613239818560208601613cc8565b61324281613e34565b840191505092915050565b600061325882613b60565b6132628185613b8d565b9350613272818560208601613cc8565b61327b81613e34565b840191505092915050565b600061329182613b60565b61329b8185613b9e565b93506132ab818560208601613cc8565b80840191505092915050565b600081546132c481613cfb565b6132ce8186613b9e565b945060018216600081146132e957600181146132fa5761332d565b60ff1983168652818601935061332d565b61330385613b40565b60005b8381101561332557815481890152600182019150602081019050613306565b838801955050505b50505092915050565b6000613343601c83613b8d565b915061334e82613e45565b602082019050919050565b6000613366603283613b8d565b915061337182613e6e565b604082019050919050565b6000613389602683613b8d565b915061339482613ebd565b604082019050919050565b60006133ac602583613b8d565b91506133b782613f0c565b604082019050919050565b60006133cf601c83613b8d565b91506133da82613f5b565b602082019050919050565b60006133f2600983613b9e565b91506133fd82613f84565b600982019050919050565b6000613415600383613b9e565b915061342082613fad565b600382019050919050565b6000613438602483613b8d565b915061344382613fd6565b604082019050919050565b600061345b601983613b8d565b915061346682614025565b602082019050919050565b600061347e602c83613b8d565b91506134898261404e565b604082019050919050565b60006134a1603883613b8d565b91506134ac8261409d565b604082019050919050565b60006134c4602a83613b8d565b91506134cf826140ec565b604082019050919050565b60006134e7602983613b8d565b91506134f28261413b565b604082019050919050565b600061350a602083613b8d565b91506135158261418a565b602082019050919050565b600061352d602c83613b8d565b9150613538826141b3565b604082019050919050565b6000613550602083613b8d565b915061355b82614202565b602082019050919050565b6000613573602f83613b8d565b915061357e8261422b565b604082019050919050565b6000613596600583613b9e565b91506135a18261427a565b600582019050919050565b60006135b9602183613b8d565b91506135c4826142a3565b604082019050919050565b60006135dc603183613b8d565b91506135e7826142f2565b604082019050919050565b60006135ff601f83613b8d565b915061360a82614341565b602082019050919050565b600060c08301600083015161362d60008601826136b3565b50602083015184820360208601526136458282613214565b9150506040830151848203604086015261365f8282613214565b915050606083015184820360608601526136798282613214565b915050608083015161368e60808601826131ae565b5060a083015184820360a08601526136a68282613214565b9150508091505092915050565b6136bc81613caf565b82525050565b6136cb81613caf565b82525050565b60006136dd8284613286565b915081905092915050565b60006136f482846132b7565b915081905092915050565b600061370a826133e5565b9150819050919050565b600061371f82613408565b9150819050919050565b600061373482613589565b9150819050919050565b600060208201905061375360008301846131bd565b92915050565b600060808201905061376e60008301876131bd565b61377b60208301866131bd565b61378860408301856136c2565b818103606083015261379a81846131db565b905095945050505050565b60006020820190506137ba60008301846131cc565b92915050565b600060208201905081810360008301526137da818461324d565b905092915050565b600060808201905081810360008301526137fc818761324d565b90508181036020830152613810818661324d565b905061381f60408301856131bd565b8181036060830152613831818461324d565b905095945050505050565b6000602082019050818103600083015261385581613336565b9050919050565b6000602082019050818103600083015261387581613359565b9050919050565b600060208201905081810360008301526138958161337c565b9050919050565b600060208201905081810360008301526138b58161339f565b9050919050565b600060208201905081810360008301526138d5816133c2565b9050919050565b600060208201905081810360008301526138f58161342b565b9050919050565b600060208201905081810360008301526139158161344e565b9050919050565b6000602082019050818103600083015261393581613471565b9050919050565b6000602082019050818103600083015261395581613494565b9050919050565b60006020820190508181036000830152613975816134b7565b9050919050565b60006020820190508181036000830152613995816134da565b9050919050565b600060208201905081810360008301526139b5816134fd565b9050919050565b600060208201905081810360008301526139d581613520565b9050919050565b600060208201905081810360008301526139f581613543565b9050919050565b60006020820190508181036000830152613a1581613566565b9050919050565b60006020820190508181036000830152613a35816135ac565b9050919050565b60006020820190508181036000830152613a55816135cf565b9050919050565b60006020820190508181036000830152613a75816135f2565b9050919050565b60006020820190508181036000830152613a968184613615565b905092915050565b6000602082019050613ab360008301846136c2565b92915050565b6000613ac3613ad4565b9050613acf8282613d2d565b919050565b6000604051905090565b600067ffffffffffffffff821115613af957613af8613e05565b5b613b0282613e34565b9050602081019050919050565b600067ffffffffffffffff821115613b2a57613b29613e05565b5b613b3382613e34565b9050602081019050919050565b60008190508160005260206000209050919050565b600081519050919050565b600081519050919050565b600082825260208201905092915050565b600082825260208201905092915050565b600082825260208201905092915050565b600081905092915050565b6000613bb482613caf565b9150613bbf83613caf565b9250827fffffffffffffffffffffffffffffffffffffffffffffffffffffffffffffffff03821115613bf457613bf3613da7565b5b828201905092915050565b6000613c0a82613caf565b9150613c1583613caf565b925082821015613c2857613c27613da7565b5b828203905092915050565b6000613c3e82613c8f565b9050919050565b6000613c5082613c8f565b9050919050565b60008115159050919050565b60007fffffffff0000000000000000000000000000000000000000000000000000000082169050919050565b600073ffffffffffffffffffffffffffffffffffffffff82169050919050565b6000819050919050565b82818337600083830152505050565b60005b83811015613ce6578082015181840152602081019050613ccb565b83811115613cf5576000848401525b50505050565b60006002820490506001821680613d1357607f821691505b60208210811415613d2757613d26613dd6565b5b50919050565b613d3682613e34565b810181811067ffffffffffffffff82111715613d5557613d54613e05565b5b80604052505050565b6000613d6982613caf565b91507fffffffffffffffffffffffffffffffffffffffffffffffffffffffffffffffff821415613d9c57613d9b613da7565b5b600182019050919050565b7f4e487b7100000000000000000000000000000000000000000000000000000000600052601160045260246000fd5b7f4e487b7100000000000000000000000000000000000000000000000000000000600052602260045260246000fd5b7f4e487b7100000000000000000000000000000000000000000000000000000000600052604160045260246000fd5b6000601f19601f8301169050919050565b7f7375626d69742066656520746f2063726561746520612073746f726500000000600082015250565b7f4552433732313a207472616e7366657220746f206e6f6e20455243373231526560008201527f63656976657220696d706c656d656e7465720000000000000000000000000000602082015250565b7f4f776e61626c653a206e6577206f776e657220697320746865207a65726f206160008201527f6464726573730000000000000000000000000000000000000000000000000000602082015250565b7f4552433732313a207472616e736665722066726f6d20696e636f72726563742060008201527f6f776e6572000000000000000000000000000000000000000000000000000000602082015250565b7f4552433732313a20746f6b656e20616c7265616479206d696e74656400000000600082015250565b7f756e6c696d697465640000000000000000000000000000000000000000000000600082015250565b7f70726f0000000000000000000000000000000000000000000000000000000000600082015250565b7f4552433732313a207472616e7366657220746f20746865207a65726f2061646460008201527f7265737300000000000000000000000000000000000000000000000000000000602082015250565b7f4552433732313a20617070726f766520746f2063616c6c657200000000000000600082015250565b7f4552433732313a206f70657261746f7220717565727920666f72206e6f6e657860008201527f697374656e7420746f6b656e0000000000000000000000000000000000000000602082015250565b7f4552433732313a20617070726f76652063616c6c6572206973206e6f74206f7760008201527f6e6572206e6f7220617070726f76656420666f7220616c6c0000000000000000602082015250565b7f4552433732313a2062616c616e636520717565727920666f7220746865207a6560008201527f726f206164647265737300000000000000000000000000000000000000000000602082015250565b7f4552433732313a206f776e657220717565727920666f72206e6f6e657869737460008201527f656e7420746f6b656e0000000000000000000000000000000000000000000000602082015250565b7f4552433732313a206d696e7420746f20746865207a65726f2061646472657373600082015250565b7f4552433732313a20617070726f76656420717565727920666f72206e6f6e657860008201527f697374656e7420746f6b656e0000000000000000000000000000000000000000602082015250565b7f4f776e61626c653a2063616c6c6572206973206e6f7420746865206f776e6572600082015250565b7f4552433732314d657461646174613a2055524920717565727920666f72206e6f60008201527f6e6578697374656e7420746f6b656e0000000000000000000000000000000000602082015250565b7f6261736963000000000000000000000000000000000000000000000000000000600082015250565b7f4552433732313a20617070726f76616c20746f2063757272656e74206f776e6560008201527f7200000000000000000000000000000000000000000000000000000000000000602082015250565b7f4552433732313a207472616e736665722063616c6c6572206973206e6f74206f60008201527f776e6572206e6f7220617070726f766564000000000000000000000000000000602082015250565b7f5265656e7472616e637947756172643a207265656e7472616e742063616c6c00600082015250565b61437381613c33565b811461437e57600080fd5b50565b61438a81613c45565b811461439557600080fd5b50565b6143a181613c57565b81146143ac57600080fd5b50565b6143b881613c63565b81146143c357600080fd5b50565b6143cf81613caf565b81146143da57600080fd5b5056fea2646970667358221220c2a587cd506681bec62b1ef413dac0b7d34259caa58dab4730345e426fc8882564736f6c63430008040033",
  "linkReferences": {},
  "deployedLinkReferences": {}
}