{
  "_format": "hh-sol-artifact-1",
  "contractName": "StoreMarketplace",
  "sourceName": "contracts/StoreMarketplace.sol",
  "abi": [
    {
      "inputs": [
        {
          "internalType": "string",
          "name": "newBaseURI",
          "type": "string"
        },
        {
          "internalType": "string",
          "name": "_name",
          "type": "string"
        },
        {
          "internalType": "string",
          "name": "_symbol",
          "type": "string"
        }
      ],
      "stateMutability": "nonpayable",
      "type": "constructor"
    },
    {
      "anonymous": false,
      "inputs": [
        {
          "indexed": true,
          "internalType": "address",
          "name": "owner",
          "type": "address"
        },
        {
          "indexed": true,
          "internalType": "address",
          "name": "approved",
          "type": "address"
        },
        {
          "indexed": true,
          "internalType": "uint256",
          "name": "tokenId",
          "type": "uint256"
        }
      ],
      "name": "Approval",
      "type": "event"
    },
    {
      "anonymous": false,
      "inputs": [
        {
          "indexed": true,
          "internalType": "address",
          "name": "owner",
          "type": "address"
        },
        {
          "indexed": true,
          "internalType": "address",
          "name": "operator",
          "type": "address"
        },
        {
          "indexed": false,
          "internalType": "bool",
          "name": "approved",
          "type": "bool"
        }
      ],
      "name": "ApprovalForAll",
      "type": "event"
    },
    {
      "anonymous": false,
      "inputs": [
        {
          "indexed": true,
          "internalType": "address",
          "name": "previousOwner",
          "type": "address"
        },
        {
          "indexed": true,
          "internalType": "address",
          "name": "newOwner",
          "type": "address"
        }
      ],
      "name": "OwnershipTransferred",
      "type": "event"
    },
    {
      "anonymous": false,
      "inputs": [
        {
          "indexed": true,
          "internalType": "uint256",
          "name": "storeId",
          "type": "uint256"
        },
        {
          "indexed": true,
          "internalType": "string",
          "name": "subdomain",
          "type": "string"
        },
        {
          "indexed": false,
          "internalType": "string",
          "name": "colourHex",
          "type": "string"
        },
        {
          "indexed": false,
          "internalType": "string",
          "name": "plan",
          "type": "string"
        },
        {
          "indexed": false,
          "internalType": "address",
          "name": "owner",
          "type": "address"
        },
        {
          "indexed": false,
          "internalType": "string",
          "name": "logoURI",
          "type": "string"
        },
        {
          "indexed": false,
          "internalType": "bool",
          "name": "isInitialized",
          "type": "bool"
        }
      ],
      "name": "StoreCreated",
      "type": "event"
    },
    {
      "anonymous": false,
      "inputs": [
        {
          "indexed": true,
          "internalType": "address",
          "name": "from",
          "type": "address"
        },
        {
          "indexed": true,
          "internalType": "address",
          "name": "to",
          "type": "address"
        },
        {
          "indexed": true,
          "internalType": "uint256",
          "name": "tokenId",
          "type": "uint256"
        }
      ],
      "name": "Transfer",
      "type": "event"
    },
    {
      "inputs": [
        {
          "internalType": "address",
          "name": "to",
          "type": "address"
        },
        {
          "internalType": "uint256",
          "name": "tokenId",
          "type": "uint256"
        }
      ],
      "name": "approve",
      "outputs": [],
      "stateMutability": "nonpayable",
      "type": "function"
    },
    {
      "inputs": [
        {
          "internalType": "address",
          "name": "owner",
          "type": "address"
        }
      ],
      "name": "balanceOf",
      "outputs": [
        {
          "internalType": "uint256",
          "name": "",
          "type": "uint256"
        }
      ],
      "stateMutability": "view",
      "type": "function"
    },
    {
      "inputs": [],
      "name": "baseURI",
      "outputs": [
        {
          "internalType": "string",
          "name": "",
          "type": "string"
        }
      ],
      "stateMutability": "view",
      "type": "function"
    },
    {
      "inputs": [
        {
          "internalType": "string",
          "name": "subdomainIn",
          "type": "string"
        },
        {
          "internalType": "string",
          "name": "colourhex",
          "type": "string"
        },
        {
          "internalType": "string",
          "name": "plan",
          "type": "string"
        },
        {
          "internalType": "string",
          "name": "logoURI",
          "type": "string"
        }
      ],
      "name": "createStore",
      "outputs": [],
      "stateMutability": "payable",
      "type": "function"
    },
    {
      "inputs": [
        {
          "internalType": "string",
          "name": "subdomainIn",
          "type": "string"
        },
        {
          "internalType": "string",
          "name": "newHexColour",
          "type": "string"
        }
      ],
      "name": "editStoreColour",
      "outputs": [],
      "stateMutability": "payable",
      "type": "function"
    },
    {
      "inputs": [
        {
          "components": [
            {
              "internalType": "uint256",
              "name": "storeId",
              "type": "uint256"
            },
            {
              "internalType": "string",
              "name": "subdomain",
              "type": "string"
            },
            {
              "internalType": "string",
              "name": "colourHex",
              "type": "string"
            },
            {
              "internalType": "string",
              "name": "plan",
              "type": "string"
            },
            {
              "internalType": "address payable",
              "name": "owner",
              "type": "address"
            },
            {
              "internalType": "string",
              "name": "logoURI",
              "type": "string"
            },
            {
              "internalType": "bool",
              "name": "isInitialized",
              "type": "bool"
            }
          ],
          "internalType": "struct StoreMarketplace.Store",
          "name": "storeIn",
          "type": "tuple"
        },
        {
          "internalType": "string",
          "name": "newHexColour",
          "type": "string"
        }
      ],
      "name": "editStoreColour",
      "outputs": [],
      "stateMutability": "payable",
      "type": "function"
    },
    {
      "inputs": [
        {
          "internalType": "string",
          "name": "subdomainIn",
          "type": "string"
        },
        {
          "internalType": "string",
          "name": "newLogoURI",
          "type": "string"
        }
      ],
      "name": "editStoreLogo",
      "outputs": [],
      "stateMutability": "payable",
      "type": "function"
    },
    {
      "inputs": [
        {
          "internalType": "uint256",
          "name": "tokenId",
          "type": "uint256"
        }
      ],
      "name": "getApproved",
      "outputs": [
        {
          "internalType": "address",
          "name": "",
          "type": "address"
        }
      ],
      "stateMutability": "view",
      "type": "function"
    },
    {
      "inputs": [
        {
          "internalType": "string",
          "name": "subdomain",
          "type": "string"
        }
      ],
      "name": "getStoreWithSubdomain",
      "outputs": [
        {
          "components": [
            {
              "internalType": "uint256",
              "name": "storeId",
              "type": "uint256"
            },
            {
              "internalType": "string",
              "name": "subdomain",
              "type": "string"
            },
            {
              "internalType": "string",
              "name": "colourHex",
              "type": "string"
            },
            {
              "internalType": "string",
              "name": "plan",
              "type": "string"
            },
            {
              "internalType": "address payable",
              "name": "owner",
              "type": "address"
            },
            {
              "internalType": "string",
              "name": "logoURI",
              "type": "string"
            },
            {
              "internalType": "bool",
              "name": "isInitialized",
              "type": "bool"
            }
          ],
          "internalType": "struct StoreMarketplace.Store",
          "name": "",
          "type": "tuple"
        }
      ],
      "stateMutability": "view",
      "type": "function"
    },
    {
      "inputs": [],
      "name": "getSubdomainsFromSender",
      "outputs": [
        {
          "internalType": "string[]",
          "name": "",
          "type": "string[]"
        }
      ],
      "stateMutability": "view",
      "type": "function"
    },
    {
      "inputs": [
        {
          "internalType": "address",
          "name": "owner",
          "type": "address"
        },
        {
          "internalType": "address",
          "name": "operator",
          "type": "address"
        }
      ],
      "name": "isApprovedForAll",
      "outputs": [
        {
          "internalType": "bool",
          "name": "",
          "type": "bool"
        }
      ],
      "stateMutability": "view",
      "type": "function"
    },
    {
      "inputs": [],
      "name": "name",
      "outputs": [
        {
          "internalType": "string",
          "name": "",
          "type": "string"
        }
      ],
      "stateMutability": "view",
      "type": "function"
    },
    {
      "inputs": [
        {
          "internalType": "string",
          "name": "subdomain",
          "type": "string"
        }
      ],
      "name": "nameAvailable",
      "outputs": [
        {
          "internalType": "bool",
          "name": "",
          "type": "bool"
        }
      ],
      "stateMutability": "view",
      "type": "function"
    },
    {
      "inputs": [],
      "name": "owner",
      "outputs": [
        {
          "internalType": "address",
          "name": "",
          "type": "address"
        }
      ],
      "stateMutability": "view",
      "type": "function"
    },
    {
      "inputs": [
        {
          "internalType": "uint256",
          "name": "tokenId",
          "type": "uint256"
        }
      ],
      "name": "ownerOf",
      "outputs": [
        {
          "internalType": "address",
          "name": "",
          "type": "address"
        }
      ],
      "stateMutability": "view",
      "type": "function"
    },
    {
      "inputs": [],
      "name": "renounceOwnership",
      "outputs": [],
      "stateMutability": "nonpayable",
      "type": "function"
    },
    {
      "inputs": [
        {
          "internalType": "address",
          "name": "from",
          "type": "address"
        },
        {
          "internalType": "address",
          "name": "to",
          "type": "address"
        },
        {
          "internalType": "uint256",
          "name": "tokenId",
          "type": "uint256"
        }
      ],
      "name": "safeTransferFrom",
      "outputs": [],
      "stateMutability": "nonpayable",
      "type": "function"
    },
    {
      "inputs": [
        {
          "internalType": "address",
          "name": "from",
          "type": "address"
        },
        {
          "internalType": "address",
          "name": "to",
          "type": "address"
        },
        {
          "internalType": "uint256",
          "name": "tokenId",
          "type": "uint256"
        },
        {
          "internalType": "bytes",
          "name": "_data",
          "type": "bytes"
        }
      ],
      "name": "safeTransferFrom",
      "outputs": [],
      "stateMutability": "nonpayable",
      "type": "function"
    },
    {
      "inputs": [
        {
          "internalType": "address",
          "name": "operator",
          "type": "address"
        },
        {
          "internalType": "bool",
          "name": "approved",
          "type": "bool"
        }
      ],
      "name": "setApprovalForAll",
      "outputs": [],
      "stateMutability": "nonpayable",
      "type": "function"
    },
    {
      "inputs": [
        {
          "internalType": "string",
          "name": "_newBaseURI",
          "type": "string"
        }
      ],
      "name": "setBaseURI",
      "outputs": [],
      "stateMutability": "nonpayable",
      "type": "function"
    },
    {
      "inputs": [
        {
          "internalType": "bytes4",
          "name": "interfaceId",
          "type": "bytes4"
        }
      ],
      "name": "supportsInterface",
      "outputs": [
        {
          "internalType": "bool",
          "name": "",
          "type": "bool"
        }
      ],
      "stateMutability": "view",
      "type": "function"
    },
    {
      "inputs": [],
      "name": "symbol",
      "outputs": [
        {
          "internalType": "string",
          "name": "",
          "type": "string"
        }
      ],
      "stateMutability": "view",
      "type": "function"
    },
    {
      "inputs": [
        {
          "internalType": "uint256",
          "name": "tokenId",
          "type": "uint256"
        }
      ],
      "name": "tokenURI",
      "outputs": [
        {
          "internalType": "string",
          "name": "",
          "type": "string"
        }
      ],
      "stateMutability": "view",
      "type": "function"
    },
    {
      "inputs": [
        {
          "internalType": "address",
          "name": "from",
          "type": "address"
        },
        {
          "internalType": "address",
          "name": "to",
          "type": "address"
        },
        {
          "internalType": "uint256",
          "name": "tokenId",
          "type": "uint256"
        }
      ],
      "name": "transferFrom",
      "outputs": [],
      "stateMutability": "nonpayable",
      "type": "function"
    },
    {
      "inputs": [
        {
          "internalType": "address",
          "name": "newOwner",
          "type": "address"
        }
      ],
      "name": "transferOwnership",
      "outputs": [],
      "stateMutability": "nonpayable",
      "type": "function"
    }
  ],
  "bytecode": "0x6080604052681b1ae4d6e2ef500000600955683635c9adc5dea00000600a55686c6b935b8bbd400000600b553480156200003857600080fd5b50604051620048e6380380620048e683398181016040528101906200005e91906200039b565b818181600090805190602001906200007892919062000279565b5080600190805190602001906200009192919062000279565b5050506001600681905550620000bc620000b0620000d660201b60201c565b620000de60201b60201c565b620000cd83620001a460201b60201c565b5050506200062f565b600033905090565b6000600760009054906101000a900473ffffffffffffffffffffffffffffffffffffffff16905081600760006101000a81548173ffffffffffffffffffffffffffffffffffffffff021916908373ffffffffffffffffffffffffffffffffffffffff1602179055508173ffffffffffffffffffffffffffffffffffffffff168173ffffffffffffffffffffffffffffffffffffffff167f8be0079c531659141344cd1fd0a4f28419497f9722a3daafe3b4186f6b6457e060405160405180910390a35050565b620001b4620000d660201b60201c565b73ffffffffffffffffffffffffffffffffffffffff16620001da6200024f60201b60201c565b73ffffffffffffffffffffffffffffffffffffffff161462000233576040517f08c379a00000000000000000000000000000000000000000000000000000000081526004016200022a9062000463565b60405180910390fd5b80600c90805190602001906200024b92919062000279565b5050565b6000600760009054906101000a900473ffffffffffffffffffffffffffffffffffffffff16905090565b82805462000287906200052b565b90600052602060002090601f016020900481019282620002ab5760008555620002f7565b82601f10620002c657805160ff1916838001178555620002f7565b82800160010185558215620002f7579182015b82811115620002f6578251825591602001919060010190620002d9565b5b5090506200030691906200030a565b5090565b5b80821115620003255760008160009055506001016200030b565b5090565b6000620003406200033a84620004ae565b62000485565b9050828152602081018484840111156200035957600080fd5b62000366848285620004f5565b509392505050565b600082601f8301126200038057600080fd5b81516200039284826020860162000329565b91505092915050565b600080600060608486031215620003b157600080fd5b600084015167ffffffffffffffff811115620003cc57600080fd5b620003da868287016200036e565b935050602084015167ffffffffffffffff811115620003f857600080fd5b62000406868287016200036e565b925050604084015167ffffffffffffffff8111156200042457600080fd5b62000432868287016200036e565b9150509250925092565b60006200044b602083620004e4565b9150620004588262000606565b602082019050919050565b600060208201905081810360008301526200047e816200043c565b9050919050565b600062000491620004a4565b90506200049f828262000561565b919050565b6000604051905090565b600067ffffffffffffffff821115620004cc57620004cb620005c6565b5b620004d782620005f5565b9050602081019050919050565b600082825260208201905092915050565b60005b8381101562000515578082015181840152602081019050620004f8565b8381111562000525576000848401525b50505050565b600060028204905060018216806200054457607f821691505b602082108114156200055b576200055a62000597565b5b50919050565b6200056c82620005f5565b810181811067ffffffffffffffff821117156200058e576200058d620005c6565b5b80604052505050565b7f4e487b7100000000000000000000000000000000000000000000000000000000600052602260045260246000fd5b7f4e487b7100000000000000000000000000000000000000000000000000000000600052604160045260246000fd5b6000601f19601f8301169050919050565b7f4f776e61626c653a2063616c6c6572206973206e6f7420746865206f776e6572600082015250565b6142a7806200063f6000396000f3fe6080604052600436106101665760003560e01c80636c0360eb116100d157806397061a911161008a578063b88d4fde11610064578063b88d4fde14610504578063c87b56dd1461052d578063e985e9c51461056a578063f2fde38b146105a757610166565b806397061a911461048257806398fa2fb81461049e578063a22cb465146104db57610166565b80636c0360eb1461037057806370a082311461039b578063715018a6146103d857806382bbdbec146103ef5780638da5cb5b1461042c57806395d89b411461045757610166565b8063508b019e11610123578063508b019e1461028b57806351b51d02146102a75780635542990d146102c357806355f804b3146102ee5780636352211e146103175780636366d9f91461035457610166565b806301ffc9a71461016b57806306fdde03146101a8578063081812fc146101d3578063095ea7b31461021057806323b872dd1461023957806342842e0e14610262575b600080fd5b34801561017757600080fd5b50610192600480360381019061018d9190612dcb565b6105d0565b60405161019f9190613650565b60405180910390f35b3480156101b457600080fd5b506101bd6106b2565b6040516101ca919061366b565b60405180910390f35b3480156101df57600080fd5b506101fa60048036038101906101f59190612ff9565b610744565b60405161020791906135c7565b60405180910390f35b34801561021c57600080fd5b5061023760048036038101906102329190612d8f565b6107c9565b005b34801561024557600080fd5b50610260600480360381019061025b9190612c89565b6108e1565b005b34801561026e57600080fd5b5061028960048036038101906102849190612c89565b610941565b005b6102a560048036038101906102a09190612eca565b610961565b005b6102c160048036038101906102bc9190612e5e565b610df3565b005b3480156102cf57600080fd5b506102d8610f51565b6040516102e5919061362e565b60405180910390f35b3480156102fa57600080fd5b5061031560048036038101906103109190612e1d565b611067565b005b34801561032357600080fd5b5061033e60048036038101906103399190612ff9565b6110fd565b60405161034b91906135c7565b60405180910390f35b61036e60048036038101906103699190612e5e565b6111af565b005b34801561037c57600080fd5b5061038561130d565b604051610392919061366b565b60405180910390f35b3480156103a757600080fd5b506103c260048036038101906103bd9190612c24565b61139b565b6040516103cf9190613957565b60405180910390f35b3480156103e457600080fd5b506103ed611453565b005b3480156103fb57600080fd5b5061041660048036038101906104119190612e1d565b6114db565b6040516104239190613650565b60405180910390f35b34801561043857600080fd5b50610441611524565b60405161044e91906135c7565b60405180910390f35b34801561046357600080fd5b5061046c61154e565b604051610479919061366b565b60405180910390f35b61049c60048036038101906104979190612f8d565b6115e0565b005b3480156104aa57600080fd5b506104c560048036038101906104c09190612e1d565b611734565b6040516104d29190613935565b60405180910390f35b3480156104e757600080fd5b5061050260048036038101906104fd9190612d53565b611a48565b005b34801561051057600080fd5b5061052b60048036038101906105269190612cd8565b611a5e565b005b34801561053957600080fd5b50610554600480360381019061054f9190612ff9565b611ac0565b604051610561919061366b565b60405180910390f35b34801561057657600080fd5b50610591600480360381019061058c9190612c4d565b611b9c565b60405161059e9190613650565b60405180910390f35b3480156105b357600080fd5b506105ce60048036038101906105c99190612c24565b611c30565b005b60007f80ac58cd000000000000000000000000000000000000000000000000000000007bffffffffffffffffffffffffffffffffffffffffffffffffffffffff1916827bffffffffffffffffffffffffffffffffffffffffffffffffffffffff1916148061069b57507f5b5e139f000000000000000000000000000000000000000000000000000000007bffffffffffffffffffffffffffffffffffffffffffffffffffffffff1916827bffffffffffffffffffffffffffffffffffffffffffffffffffffffff1916145b806106ab57506106aa82611d28565b5b9050919050565b6060600080546106c190613bd8565b80601f01602080910402602001604051908101604052809291908181526020018280546106ed90613bd8565b801561073a5780601f1061070f5761010080835404028352916020019161073a565b820191906000526020600020905b81548152906001019060200180831161071d57829003601f168201915b5050505050905090565b600061074f82611d92565b61078e576040517f08c379a000000000000000000000000000000000000000000000000000000000815260040161078590613875565b60405180910390fd5b6004600083815260200190815260200160002060009054906101000a900473ffffffffffffffffffffffffffffffffffffffff169050919050565b60006107d4826110fd565b90508073ffffffffffffffffffffffffffffffffffffffff168373ffffffffffffffffffffffffffffffffffffffff161415610845576040517f08c379a000000000000000000000000000000000000000000000000000000000815260040161083c906138d5565b60405180910390fd5b8073ffffffffffffffffffffffffffffffffffffffff16610864611dfe565b73ffffffffffffffffffffffffffffffffffffffff16148061089357506108928161088d611dfe565b611b9c565b5b6108d2576040517f08c379a00000000000000000000000000000000000000000000000000000000081526004016108c9906137f5565b60405180910390fd5b6108dc8383611e06565b505050565b6108f26108ec611dfe565b82611ebf565b610931576040517f08c379a0000000000000000000000000000000000000000000000000000000008152600401610928906138f5565b60405180910390fd5b61093c838383611f9d565b505050565b61095c83838360405180602001604052806000815250611a5e565b505050565b600260065414156109a7576040517f08c379a000000000000000000000000000000000000000000000000000000000815260040161099e90613915565b60405180910390fd5b6002600681905550600115156109bc856114db565b1515146109c857600080fd5b6040516020016109d7906135b2565b60405160208183030381529060405280519060200120826040516020016109fe9190613571565b604051602081830303815290604052805190602001201415610a63576009543414610a5e576040517f08c379a0000000000000000000000000000000000000000000000000000000008152600401610a55906136f5565b60405180910390fd5b610ba0565b604051602001610a729061359d565b6040516020818303038152906040528051906020012082604051602001610a999190613571565b604051602081830303815290604052805190602001201415610afe57600a543414610af9576040517f08c379a0000000000000000000000000000000000000000000000000000000008152600401610af0906136f5565b60405180910390fd5b610b9f565b604051602001610b0d90613588565b6040516020818303038152906040528051906020012082604051602001610b349190613571565b604051602081830303815290604052805190602001201415610b9957600b543414610b94576040517f08c379a0000000000000000000000000000000000000000000000000000000008152600401610b8b906136f5565b60405180910390fd5b610b9e565b600080fd5b5b5b610baa6008612204565b6000610bb6600861221a565b90506040518060e001604052808281526020018681526020018581526020018481526020013373ffffffffffffffffffffffffffffffffffffffff16815260200183815260200160011515815250600d86604051610c149190613571565b9081526020016040518091039020600082015181600001556020820151816001019080519060200190610c489291906128ce565b506040820151816002019080519060200190610c659291906128ce565b506060820151816003019080519060200190610c829291906128ce565b5060808201518160040160006101000a81548173ffffffffffffffffffffffffffffffffffffffff021916908373ffffffffffffffffffffffffffffffffffffffff16021790555060a0820151816005019080519060200190610ce69291906128ce565b5060c08201518160060160006101000a81548160ff021916908315150217905550905050600e60003373ffffffffffffffffffffffffffffffffffffffff1673ffffffffffffffffffffffffffffffffffffffff16815260200190815260200160002085908060018154018082558091505060019003906000526020600020016000909190919091509080519060200190610d829291906128ce565b5084604051610d919190613571565b6040518091039020817fc412d3f67c8be2bbdbcb2767d8c923e2894a205315d4f4f1670cc508d17b8511868633876001604051610dd295949392919061368d565b60405180910390a3610de43382612228565b50600160068190555050505050565b6000610dfe83611734565b9050806080015173ffffffffffffffffffffffffffffffffffffffff163373ffffffffffffffffffffffffffffffffffffffff1614610e3c57600080fd5b818160a0018190525080600d84604051610e569190613571565b9081526020016040518091039020600082015181600001556020820151816001019080519060200190610e8a9291906128ce565b506040820151816002019080519060200190610ea79291906128ce565b506060820151816003019080519060200190610ec49291906128ce565b5060808201518160040160006101000a81548173ffffffffffffffffffffffffffffffffffffffff021916908373ffffffffffffffffffffffffffffffffffffffff16021790555060a0820151816005019080519060200190610f289291906128ce565b5060c08201518160060160006101000a81548160ff021916908315150217905550905050505050565b6060600e60003373ffffffffffffffffffffffffffffffffffffffff1673ffffffffffffffffffffffffffffffffffffffff168152602001908152602001600020805480602002602001604051908101604052809291908181526020016000905b8282101561105e578382906000526020600020018054610fd190613bd8565b80601f0160208091040260200160405190810160405280929190818152602001828054610ffd90613bd8565b801561104a5780601f1061101f5761010080835404028352916020019161104a565b820191906000526020600020905b81548152906001019060200180831161102d57829003601f168201915b505050505081526020019060010190610fb2565b50505050905090565b61106f611dfe565b73ffffffffffffffffffffffffffffffffffffffff1661108d611524565b73ffffffffffffffffffffffffffffffffffffffff16146110e3576040517f08c379a00000000000000000000000000000000000000000000000000000000081526004016110da90613895565b60405180910390fd5b80600c90805190602001906110f99291906128ce565b5050565b6000806002600084815260200190815260200160002060009054906101000a900473ffffffffffffffffffffffffffffffffffffffff169050600073ffffffffffffffffffffffffffffffffffffffff168173ffffffffffffffffffffffffffffffffffffffff1614156111a6576040517f08c379a000000000000000000000000000000000000000000000000000000000815260040161119d90613835565b60405180910390fd5b80915050919050565b60006111ba83611734565b9050806080015173ffffffffffffffffffffffffffffffffffffffff163373ffffffffffffffffffffffffffffffffffffffff16146111f857600080fd5b81816040018190525080600d846040516112129190613571565b90815260200160405180910390206000820151816000015560208201518160010190805190602001906112469291906128ce565b5060408201518160020190805190602001906112639291906128ce565b5060608201518160030190805190602001906112809291906128ce565b5060808201518160040160006101000a81548173ffffffffffffffffffffffffffffffffffffffff021916908373ffffffffffffffffffffffffffffffffffffffff16021790555060a08201518160050190805190602001906112e49291906128ce565b5060c08201518160060160006101000a81548160ff021916908315150217905550905050505050565b600c805461131a90613bd8565b80601f016020809104026020016040519081016040528092919081815260200182805461134690613bd8565b80156113935780601f1061136857610100808354040283529160200191611393565b820191906000526020600020905b81548152906001019060200180831161137657829003601f168201915b505050505081565b60008073ffffffffffffffffffffffffffffffffffffffff168273ffffffffffffffffffffffffffffffffffffffff16141561140c576040517f08c379a000000000000000000000000000000000000000000000000000000000815260040161140390613815565b60405180910390fd5b600360008373ffffffffffffffffffffffffffffffffffffffff1673ffffffffffffffffffffffffffffffffffffffff168152602001908152602001600020549050919050565b61145b611dfe565b73ffffffffffffffffffffffffffffffffffffffff16611479611524565b73ffffffffffffffffffffffffffffffffffffffff16146114cf576040517f08c379a00000000000000000000000000000000000000000000000000000000081526004016114c690613895565b60405180910390fd5b6114d96000612246565b565b6000600d826040516114ed9190613571565b908152602001604051809103902060060160009054906101000a900460ff161561151a576000905061151f565b600190505b919050565b6000600760009054906101000a900473ffffffffffffffffffffffffffffffffffffffff16905090565b60606001805461155d90613bd8565b80601f016020809104026020016040519081016040528092919081815260200182805461158990613bd8565b80156115d65780601f106115ab576101008083540402835291602001916115d6565b820191906000526020600020905b8154815290600101906020018083116115b957829003601f168201915b5050505050905090565b816080015173ffffffffffffffffffffffffffffffffffffffff163373ffffffffffffffffffffffffffffffffffffffff161461161c57600080fd5b80826040018190525081600d836020015160405161163a9190613571565b908152602001604051809103902060008201518160000155602082015181600101908051906020019061166e9291906128ce565b50604082015181600201908051906020019061168b9291906128ce565b5060608201518160030190805190602001906116a89291906128ce565b5060808201518160040160006101000a81548173ffffffffffffffffffffffffffffffffffffffff021916908373ffffffffffffffffffffffffffffffffffffffff16021790555060a082015181600501908051906020019061170c9291906128ce565b5060c08201518160060160006101000a81548160ff0219169083151502179055509050505050565b61173c612954565b60001515611749836114db565b15151461175557600080fd5b600d826040516117659190613571565b90815260200160405180910390206040518060e00160405290816000820154815260200160018201805461179890613bd8565b80601f01602080910402602001604051908101604052809291908181526020018280546117c490613bd8565b80156118115780601f106117e657610100808354040283529160200191611811565b820191906000526020600020905b8154815290600101906020018083116117f457829003601f168201915b5050505050815260200160028201805461182a90613bd8565b80601f016020809104026020016040519081016040528092919081815260200182805461185690613bd8565b80156118a35780601f10611878576101008083540402835291602001916118a3565b820191906000526020600020905b81548152906001019060200180831161188657829003601f168201915b505050505081526020016003820180546118bc90613bd8565b80601f01602080910402602001604051908101604052809291908181526020018280546118e890613bd8565b80156119355780601f1061190a57610100808354040283529160200191611935565b820191906000526020600020905b81548152906001019060200180831161191857829003601f168201915b505050505081526020016004820160009054906101000a900473ffffffffffffffffffffffffffffffffffffffff1673ffffffffffffffffffffffffffffffffffffffff1673ffffffffffffffffffffffffffffffffffffffff1681526020016005820180546119a490613bd8565b80601f01602080910402602001604051908101604052809291908181526020018280546119d090613bd8565b8015611a1d5780601f106119f257610100808354040283529160200191611a1d565b820191906000526020600020905b815481529060010190602001808311611a0057829003601f168201915b505050505081526020016006820160009054906101000a900460ff1615151515815250509050919050565b611a5a611a53611dfe565b838361230c565b5050565b611a6f611a69611dfe565b83611ebf565b611aae576040517f08c379a0000000000000000000000000000000000000000000000000000000008152600401611aa5906138f5565b60405180910390fd5b611aba84848484612479565b50505050565b6060611acb82611d92565b611b0a576040517f08c379a0000000000000000000000000000000000000000000000000000000008152600401611b01906138b5565b60405180910390fd5b600c8054611b1790613bd8565b80601f0160208091040260200160405190810160405280929190818152602001828054611b4390613bd8565b8015611b905780601f10611b6557610100808354040283529160200191611b90565b820191906000526020600020905b815481529060010190602001808311611b7357829003601f168201915b50505050509050919050565b6000600560008473ffffffffffffffffffffffffffffffffffffffff1673ffffffffffffffffffffffffffffffffffffffff16815260200190815260200160002060008373ffffffffffffffffffffffffffffffffffffffff1673ffffffffffffffffffffffffffffffffffffffff16815260200190815260200160002060009054906101000a900460ff16905092915050565b611c38611dfe565b73ffffffffffffffffffffffffffffffffffffffff16611c56611524565b73ffffffffffffffffffffffffffffffffffffffff1614611cac576040517f08c379a0000000000000000000000000000000000000000000000000000000008152600401611ca390613895565b60405180910390fd5b600073ffffffffffffffffffffffffffffffffffffffff168173ffffffffffffffffffffffffffffffffffffffff161415611d1c576040517f08c379a0000000000000000000000000000000000000000000000000000000008152600401611d1390613735565b60405180910390fd5b611d2581612246565b50565b60007f01ffc9a7000000000000000000000000000000000000000000000000000000007bffffffffffffffffffffffffffffffffffffffffffffffffffffffff1916827bffffffffffffffffffffffffffffffffffffffffffffffffffffffff1916149050919050565b60008073ffffffffffffffffffffffffffffffffffffffff166002600084815260200190815260200160002060009054906101000a900473ffffffffffffffffffffffffffffffffffffffff1673ffffffffffffffffffffffffffffffffffffffff1614159050919050565b600033905090565b816004600083815260200190815260200160002060006101000a81548173ffffffffffffffffffffffffffffffffffffffff021916908373ffffffffffffffffffffffffffffffffffffffff160217905550808273ffffffffffffffffffffffffffffffffffffffff16611e79836110fd565b73ffffffffffffffffffffffffffffffffffffffff167f8c5be1e5ebec7d5bd14f71427d1e84f3dd0314c0f7b2291e5b200ac8c7c3b92560405160405180910390a45050565b6000611eca82611d92565b611f09576040517f08c379a0000000000000000000000000000000000000000000000000000000008152600401611f00906137d5565b60405180910390fd5b6000611f14836110fd565b90508073ffffffffffffffffffffffffffffffffffffffff168473ffffffffffffffffffffffffffffffffffffffff161480611f8357508373ffffffffffffffffffffffffffffffffffffffff16611f6b84610744565b73ffffffffffffffffffffffffffffffffffffffff16145b80611f945750611f938185611b9c565b5b91505092915050565b8273ffffffffffffffffffffffffffffffffffffffff16611fbd826110fd565b73ffffffffffffffffffffffffffffffffffffffff1614612013576040517f08c379a000000000000000000000000000000000000000000000000000000000815260040161200a90613755565b60405180910390fd5b600073ffffffffffffffffffffffffffffffffffffffff168273ffffffffffffffffffffffffffffffffffffffff161415612083576040517f08c379a000000000000000000000000000000000000000000000000000000000815260040161207a90613795565b60405180910390fd5b61208e8383836124d5565b612099600082611e06565b6001600360008573ffffffffffffffffffffffffffffffffffffffff1673ffffffffffffffffffffffffffffffffffffffff16815260200190815260200160002060008282546120e99190613adc565b925050819055506001600360008473ffffffffffffffffffffffffffffffffffffffff1673ffffffffffffffffffffffffffffffffffffffff16815260200190815260200160002060008282546121409190613a86565b92505081905550816002600083815260200190815260200160002060006101000a81548173ffffffffffffffffffffffffffffffffffffffff021916908373ffffffffffffffffffffffffffffffffffffffff160217905550808273ffffffffffffffffffffffffffffffffffffffff168473ffffffffffffffffffffffffffffffffffffffff167fddf252ad1be2c89b69c2b068fc378daa952ba7f163c4a11628f55a4df523b3ef60405160405180910390a46121ff8383836124da565b505050565b6001816000016000828254019250508190555050565b600081600001549050919050565b6122428282604051806020016040528060008152506124df565b5050565b6000600760009054906101000a900473ffffffffffffffffffffffffffffffffffffffff16905081600760006101000a81548173ffffffffffffffffffffffffffffffffffffffff021916908373ffffffffffffffffffffffffffffffffffffffff1602179055508173ffffffffffffffffffffffffffffffffffffffff168173ffffffffffffffffffffffffffffffffffffffff167f8be0079c531659141344cd1fd0a4f28419497f9722a3daafe3b4186f6b6457e060405160405180910390a35050565b8173ffffffffffffffffffffffffffffffffffffffff168373ffffffffffffffffffffffffffffffffffffffff16141561237b576040517f08c379a0000000000000000000000000000000000000000000000000000000008152600401612372906137b5565b60405180910390fd5b80600560008573ffffffffffffffffffffffffffffffffffffffff1673ffffffffffffffffffffffffffffffffffffffff16815260200190815260200160002060008473ffffffffffffffffffffffffffffffffffffffff1673ffffffffffffffffffffffffffffffffffffffff16815260200190815260200160002060006101000a81548160ff0219169083151502179055508173ffffffffffffffffffffffffffffffffffffffff168373ffffffffffffffffffffffffffffffffffffffff167f17307eab39ab6107e8899845ad3d59bd9653f200f220920489ca2b5937696c318360405161246c9190613650565b60405180910390a3505050565b612484848484611f9d565b6124908484848461253a565b6124cf576040517f08c379a00000000000000000000000000000000000000000000000000000000081526004016124c690613715565b60405180910390fd5b50505050565b505050565b505050565b6124e983836126d1565b6124f6600084848461253a565b612535576040517f08c379a000000000000000000000000000000000000000000000000000000000815260040161252c90613715565b60405180910390fd5b505050565b600061255b8473ffffffffffffffffffffffffffffffffffffffff166128ab565b156126c4578373ffffffffffffffffffffffffffffffffffffffff1663150b7a02612584611dfe565b8786866040518563ffffffff1660e01b81526004016125a694939291906135e2565b602060405180830381600087803b1580156125c057600080fd5b505af19250505080156125f157506040513d601f19601f820116820180604052508101906125ee9190612df4565b60015b612674573d8060008114612621576040519150601f19603f3d011682016040523d82523d6000602084013e612626565b606091505b5060008151141561266c576040517f08c379a000000000000000000000000000000000000000000000000000000000815260040161266390613715565b60405180910390fd5b805181602001fd5b63150b7a0260e01b7bffffffffffffffffffffffffffffffffffffffffffffffffffffffff1916817bffffffffffffffffffffffffffffffffffffffffffffffffffffffff1916149150506126c9565b600190505b949350505050565b600073ffffffffffffffffffffffffffffffffffffffff168273ffffffffffffffffffffffffffffffffffffffff161415612741576040517f08c379a000000000000000000000000000000000000000000000000000000000815260040161273890613855565b60405180910390fd5b61274a81611d92565b1561278a576040517f08c379a000000000000000000000000000000000000000000000000000000000815260040161278190613775565b60405180910390fd5b612796600083836124d5565b6001600360008473ffffffffffffffffffffffffffffffffffffffff1673ffffffffffffffffffffffffffffffffffffffff16815260200190815260200160002060008282546127e69190613a86565b92505081905550816002600083815260200190815260200160002060006101000a81548173ffffffffffffffffffffffffffffffffffffffff021916908373ffffffffffffffffffffffffffffffffffffffff160217905550808273ffffffffffffffffffffffffffffffffffffffff16600073ffffffffffffffffffffffffffffffffffffffff167fddf252ad1be2c89b69c2b068fc378daa952ba7f163c4a11628f55a4df523b3ef60405160405180910390a46128a7600083836124da565b5050565b6000808273ffffffffffffffffffffffffffffffffffffffff163b119050919050565b8280546128da90613bd8565b90600052602060002090601f0160209004810192826128fc5760008555612943565b82601f1061291557805160ff1916838001178555612943565b82800160010185558215612943579182015b82811115612942578251825591602001919060010190612927565b5b50905061295091906129a9565b5090565b6040518060e0016040528060008152602001606081526020016060815260200160608152602001600073ffffffffffffffffffffffffffffffffffffffff168152602001606081526020016000151581525090565b5b808211156129c25760008160009055506001016129aa565b5090565b60006129d96129d484613997565b613972565b9050828152602081018484840111156129f157600080fd5b6129fc848285613b96565b509392505050565b6000612a17612a12846139c8565b613972565b905082815260208101848484011115612a2f57600080fd5b612a3a848285613b96565b509392505050565b600081359050612a51816141fe565b92915050565b600081359050612a6681614215565b92915050565b600081359050612a7b8161422c565b92915050565b600081359050612a9081614243565b92915050565b600081519050612aa581614243565b92915050565b600082601f830112612abc57600080fd5b8135612acc8482602086016129c6565b91505092915050565b600082601f830112612ae657600080fd5b8135612af6848260208601612a04565b91505092915050565b600060e08284031215612b1157600080fd5b612b1b60e0613972565b90506000612b2b84828501612c0f565b600083015250602082013567ffffffffffffffff811115612b4b57600080fd5b612b5784828501612ad5565b602083015250604082013567ffffffffffffffff811115612b7757600080fd5b612b8384828501612ad5565b604083015250606082013567ffffffffffffffff811115612ba357600080fd5b612baf84828501612ad5565b6060830152506080612bc384828501612a57565b60808301525060a082013567ffffffffffffffff811115612be357600080fd5b612bef84828501612ad5565b60a08301525060c0612c0384828501612a6c565b60c08301525092915050565b600081359050612c1e8161425a565b92915050565b600060208284031215612c3657600080fd5b6000612c4484828501612a42565b91505092915050565b60008060408385031215612c6057600080fd5b6000612c6e85828601612a42565b9250506020612c7f85828601612a42565b9150509250929050565b600080600060608486031215612c9e57600080fd5b6000612cac86828701612a42565b9350506020612cbd86828701612a42565b9250506040612cce86828701612c0f565b9150509250925092565b60008060008060808587031215612cee57600080fd5b6000612cfc87828801612a42565b9450506020612d0d87828801612a42565b9350506040612d1e87828801612c0f565b925050606085013567ffffffffffffffff811115612d3b57600080fd5b612d4787828801612aab565b91505092959194509250565b60008060408385031215612d6657600080fd5b6000612d7485828601612a42565b9250506020612d8585828601612a6c565b9150509250929050565b60008060408385031215612da257600080fd5b6000612db085828601612a42565b9250506020612dc185828601612c0f565b9150509250929050565b600060208284031215612ddd57600080fd5b6000612deb84828501612a81565b91505092915050565b600060208284031215612e0657600080fd5b6000612e1484828501612a96565b91505092915050565b600060208284031215612e2f57600080fd5b600082013567ffffffffffffffff811115612e4957600080fd5b612e5584828501612ad5565b91505092915050565b60008060408385031215612e7157600080fd5b600083013567ffffffffffffffff811115612e8b57600080fd5b612e9785828601612ad5565b925050602083013567ffffffffffffffff811115612eb457600080fd5b612ec085828601612ad5565b9150509250929050565b60008060008060808587031215612ee057600080fd5b600085013567ffffffffffffffff811115612efa57600080fd5b612f0687828801612ad5565b945050602085013567ffffffffffffffff811115612f2357600080fd5b612f2f87828801612ad5565b935050604085013567ffffffffffffffff811115612f4c57600080fd5b612f5887828801612ad5565b925050606085013567ffffffffffffffff811115612f7557600080fd5b612f8187828801612ad5565b91505092959194509250565b60008060408385031215612fa057600080fd5b600083013567ffffffffffffffff811115612fba57600080fd5b612fc685828601612aff565b925050602083013567ffffffffffffffff811115612fe357600080fd5b612fef85828601612ad5565b9150509250929050565b60006020828403121561300b57600080fd5b600061301984828501612c0f565b91505092915050565b600061302e8383613120565b905092915050565b61303f81613b22565b82525050565b61304e81613b10565b82525050565b600061305f82613a09565b6130698185613a37565b93508360208202850161307b856139f9565b8060005b858110156130b757848403895281516130988582613022565b94506130a383613a2a565b925060208a0199505060018101905061307f565b50829750879550505050505092915050565b6130d281613b34565b82525050565b6130e181613b34565b82525050565b60006130f282613a14565b6130fc8185613a48565b935061310c818560208601613ba5565b61311581613cc8565b840191505092915050565b600061312b82613a1f565b6131358185613a59565b9350613145818560208601613ba5565b61314e81613cc8565b840191505092915050565b600061316482613a1f565b61316e8185613a6a565b935061317e818560208601613ba5565b61318781613cc8565b840191505092915050565b600061319d82613a1f565b6131a78185613a7b565b93506131b7818560208601613ba5565b80840191505092915050565b60006131d0601c83613a6a565b91506131db82613cd9565b602082019050919050565b60006131f3603283613a6a565b91506131fe82613d02565b604082019050919050565b6000613216602683613a6a565b915061322182613d51565b604082019050919050565b6000613239602583613a6a565b915061324482613da0565b604082019050919050565b600061325c601c83613a6a565b915061326782613def565b602082019050919050565b600061327f600983613a7b565b915061328a82613e18565b600982019050919050565b60006132a2600383613a7b565b91506132ad82613e41565b600382019050919050565b60006132c5602483613a6a565b91506132d082613e6a565b604082019050919050565b60006132e8601983613a6a565b91506132f382613eb9565b602082019050919050565b600061330b602c83613a6a565b915061331682613ee2565b604082019050919050565b600061332e603883613a6a565b915061333982613f31565b604082019050919050565b6000613351602a83613a6a565b915061335c82613f80565b604082019050919050565b6000613374602983613a6a565b915061337f82613fcf565b604082019050919050565b6000613397602083613a6a565b91506133a28261401e565b602082019050919050565b60006133ba602c83613a6a565b91506133c582614047565b604082019050919050565b60006133dd602083613a6a565b91506133e882614096565b602082019050919050565b6000613400602f83613a6a565b915061340b826140bf565b604082019050919050565b6000613423600583613a7b565b915061342e8261410e565b600582019050919050565b6000613446602183613a6a565b915061345182614137565b604082019050919050565b6000613469603183613a6a565b915061347482614186565b604082019050919050565b600061348c601f83613a6a565b9150613497826141d5565b602082019050919050565b600060e0830160008301516134ba6000860182613553565b50602083015184820360208601526134d28282613120565b915050604083015184820360408601526134ec8282613120565b915050606083015184820360608601526135068282613120565b915050608083015161351b6080860182613036565b5060a083015184820360a08601526135338282613120565b91505060c083015161354860c08601826130c9565b508091505092915050565b61355c81613b8c565b82525050565b61356b81613b8c565b82525050565b600061357d8284613192565b915081905092915050565b600061359382613272565b9150819050919050565b60006135a882613295565b9150819050919050565b60006135bd82613416565b9150819050919050565b60006020820190506135dc6000830184613045565b92915050565b60006080820190506135f76000830187613045565b6136046020830186613045565b6136116040830185613562565b818103606083015261362381846130e7565b905095945050505050565b600060208201905081810360008301526136488184613054565b905092915050565b600060208201905061366560008301846130d8565b92915050565b600060208201905081810360008301526136858184613159565b905092915050565b600060a08201905081810360008301526136a78188613159565b905081810360208301526136bb8187613159565b90506136ca6040830186613045565b81810360608301526136dc8185613159565b90506136eb60808301846130d8565b9695505050505050565b6000602082019050818103600083015261370e816131c3565b9050919050565b6000602082019050818103600083015261372e816131e6565b9050919050565b6000602082019050818103600083015261374e81613209565b9050919050565b6000602082019050818103600083015261376e8161322c565b9050919050565b6000602082019050818103600083015261378e8161324f565b9050919050565b600060208201905081810360008301526137ae816132b8565b9050919050565b600060208201905081810360008301526137ce816132db565b9050919050565b600060208201905081810360008301526137ee816132fe565b9050919050565b6000602082019050818103600083015261380e81613321565b9050919050565b6000602082019050818103600083015261382e81613344565b9050919050565b6000602082019050818103600083015261384e81613367565b9050919050565b6000602082019050818103600083015261386e8161338a565b9050919050565b6000602082019050818103600083015261388e816133ad565b9050919050565b600060208201905081810360008301526138ae816133d0565b9050919050565b600060208201905081810360008301526138ce816133f3565b9050919050565b600060208201905081810360008301526138ee81613439565b9050919050565b6000602082019050818103600083015261390e8161345c565b9050919050565b6000602082019050818103600083015261392e8161347f565b9050919050565b6000602082019050818103600083015261394f81846134a2565b905092915050565b600060208201905061396c6000830184613562565b92915050565b600061397c61398d565b90506139888282613c0a565b919050565b6000604051905090565b600067ffffffffffffffff8211156139b2576139b1613c99565b5b6139bb82613cc8565b9050602081019050919050565b600067ffffffffffffffff8211156139e3576139e2613c99565b5b6139ec82613cc8565b9050602081019050919050565b6000819050602082019050919050565b600081519050919050565b600081519050919050565b600081519050919050565b6000602082019050919050565b600082825260208201905092915050565b600082825260208201905092915050565b600082825260208201905092915050565b600082825260208201905092915050565b600081905092915050565b6000613a9182613b8c565b9150613a9c83613b8c565b9250827fffffffffffffffffffffffffffffffffffffffffffffffffffffffffffffffff03821115613ad157613ad0613c3b565b5b828201905092915050565b6000613ae782613b8c565b9150613af283613b8c565b925082821015613b0557613b04613c3b565b5b828203905092915050565b6000613b1b82613b6c565b9050919050565b6000613b2d82613b6c565b9050919050565b60008115159050919050565b60007fffffffff0000000000000000000000000000000000000000000000000000000082169050919050565b600073ffffffffffffffffffffffffffffffffffffffff82169050919050565b6000819050919050565b82818337600083830152505050565b60005b83811015613bc3578082015181840152602081019050613ba8565b83811115613bd2576000848401525b50505050565b60006002820490506001821680613bf057607f821691505b60208210811415613c0457613c03613c6a565b5b50919050565b613c1382613cc8565b810181811067ffffffffffffffff82111715613c3257613c31613c99565b5b80604052505050565b7f4e487b7100000000000000000000000000000000000000000000000000000000600052601160045260246000fd5b7f4e487b7100000000000000000000000000000000000000000000000000000000600052602260045260246000fd5b7f4e487b7100000000000000000000000000000000000000000000000000000000600052604160045260246000fd5b6000601f19601f8301169050919050565b7f7375626d69742066656520746f2063726561746520612073746f726500000000600082015250565b7f4552433732313a207472616e7366657220746f206e6f6e20455243373231526560008201527f63656976657220696d706c656d656e7465720000000000000000000000000000602082015250565b7f4f776e61626c653a206e6577206f776e657220697320746865207a65726f206160008201527f6464726573730000000000000000000000000000000000000000000000000000602082015250565b7f4552433732313a207472616e736665722066726f6d20696e636f72726563742060008201527f6f776e6572000000000000000000000000000000000000000000000000000000602082015250565b7f4552433732313a20746f6b656e20616c7265616479206d696e74656400000000600082015250565b7f756e6c696d697465640000000000000000000000000000000000000000000000600082015250565b7f70726f0000000000000000000000000000000000000000000000000000000000600082015250565b7f4552433732313a207472616e7366657220746f20746865207a65726f2061646460008201527f7265737300000000000000000000000000000000000000000000000000000000602082015250565b7f4552433732313a20617070726f766520746f2063616c6c657200000000000000600082015250565b7f4552433732313a206f70657261746f7220717565727920666f72206e6f6e657860008201527f697374656e7420746f6b656e0000000000000000000000000000000000000000602082015250565b7f4552433732313a20617070726f76652063616c6c6572206973206e6f74206f7760008201527f6e6572206e6f7220617070726f76656420666f7220616c6c0000000000000000602082015250565b7f4552433732313a2062616c616e636520717565727920666f7220746865207a6560008201527f726f206164647265737300000000000000000000000000000000000000000000602082015250565b7f4552433732313a206f776e657220717565727920666f72206e6f6e657869737460008201527f656e7420746f6b656e0000000000000000000000000000000000000000000000602082015250565b7f4552433732313a206d696e7420746f20746865207a65726f2061646472657373600082015250565b7f4552433732313a20617070726f76656420717565727920666f72206e6f6e657860008201527f697374656e7420746f6b656e0000000000000000000000000000000000000000602082015250565b7f4f776e61626c653a2063616c6c6572206973206e6f7420746865206f776e6572600082015250565b7f4552433732314d657461646174613a2055524920717565727920666f72206e6f60008201527f6e6578697374656e7420746f6b656e0000000000000000000000000000000000602082015250565b7f6261736963000000000000000000000000000000000000000000000000000000600082015250565b7f4552433732313a20617070726f76616c20746f2063757272656e74206f776e6560008201527f7200000000000000000000000000000000000000000000000000000000000000602082015250565b7f4552433732313a207472616e736665722063616c6c6572206973206e6f74206f60008201527f776e6572206e6f7220617070726f766564000000000000000000000000000000602082015250565b7f5265656e7472616e637947756172643a207265656e7472616e742063616c6c00600082015250565b61420781613b10565b811461421257600080fd5b50565b61421e81613b22565b811461422957600080fd5b50565b61423581613b34565b811461424057600080fd5b50565b61424c81613b40565b811461425757600080fd5b50565b61426381613b8c565b811461426e57600080fd5b5056fea2646970667358221220783ec19a4210ba46d1802e76bf99f65e27281f25c3068b1b155889a689f0410164736f6c63430008040033",
  "linkReferences": {},
  "deployedLinkReferences": {}
}