{
  "_format": "hh-sol-artifact-1",
  "contractName": "StoreMarketplace",
  "sourceName": "contracts/StoreMarketplace.sol",
  "abi": [
    {
      "inputs": [
        {
          "internalType": "string",
          "name": "newBaseURI",
          "type": "string"
        },
        {
          "internalType": "string",
          "name": "_name",
          "type": "string"
        },
        {
          "internalType": "string",
          "name": "_symbol",
          "type": "string"
        }
      ],
      "stateMutability": "nonpayable",
      "type": "constructor"
    },
    {
      "anonymous": false,
      "inputs": [
        {
          "indexed": true,
          "internalType": "address",
          "name": "owner",
          "type": "address"
        },
        {
          "indexed": true,
          "internalType": "address",
          "name": "approved",
          "type": "address"
        },
        {
          "indexed": true,
          "internalType": "uint256",
          "name": "tokenId",
          "type": "uint256"
        }
      ],
      "name": "Approval",
      "type": "event"
    },
    {
      "anonymous": false,
      "inputs": [
        {
          "indexed": true,
          "internalType": "address",
          "name": "owner",
          "type": "address"
        },
        {
          "indexed": true,
          "internalType": "address",
          "name": "operator",
          "type": "address"
        },
        {
          "indexed": false,
          "internalType": "bool",
          "name": "approved",
          "type": "bool"
        }
      ],
      "name": "ApprovalForAll",
      "type": "event"
    },
    {
      "anonymous": false,
      "inputs": [
        {
          "indexed": true,
          "internalType": "address",
          "name": "previousOwner",
          "type": "address"
        },
        {
          "indexed": true,
          "internalType": "address",
          "name": "newOwner",
          "type": "address"
        }
      ],
      "name": "OwnershipTransferred",
      "type": "event"
    },
    {
      "anonymous": false,
      "inputs": [
        {
          "indexed": true,
          "internalType": "uint256",
          "name": "storeId",
          "type": "uint256"
        },
        {
          "indexed": true,
          "internalType": "string",
          "name": "subdomain",
          "type": "string"
        },
        {
          "indexed": false,
          "internalType": "string",
          "name": "colourHex",
          "type": "string"
        },
        {
          "indexed": false,
          "internalType": "string",
          "name": "plan",
          "type": "string"
        },
        {
          "indexed": false,
          "internalType": "address",
          "name": "owner",
          "type": "address"
        },
        {
          "indexed": false,
          "internalType": "string",
          "name": "logoURI",
          "type": "string"
        },
        {
          "indexed": false,
          "internalType": "bool",
          "name": "isInitialized",
          "type": "bool"
        }
      ],
      "name": "StoreCreated",
      "type": "event"
    },
    {
      "anonymous": false,
      "inputs": [
        {
          "indexed": true,
          "internalType": "address",
          "name": "from",
          "type": "address"
        },
        {
          "indexed": true,
          "internalType": "address",
          "name": "to",
          "type": "address"
        },
        {
          "indexed": true,
          "internalType": "uint256",
          "name": "tokenId",
          "type": "uint256"
        }
      ],
      "name": "Transfer",
      "type": "event"
    },
    {
      "inputs": [
        {
          "internalType": "address",
          "name": "to",
          "type": "address"
        },
        {
          "internalType": "uint256",
          "name": "tokenId",
          "type": "uint256"
        }
      ],
      "name": "approve",
      "outputs": [],
      "stateMutability": "nonpayable",
      "type": "function"
    },
    {
      "inputs": [
        {
          "internalType": "address",
          "name": "owner",
          "type": "address"
        }
      ],
      "name": "balanceOf",
      "outputs": [
        {
          "internalType": "uint256",
          "name": "",
          "type": "uint256"
        }
      ],
      "stateMutability": "view",
      "type": "function"
    },
    {
      "inputs": [],
      "name": "baseURI",
      "outputs": [
        {
          "internalType": "string",
          "name": "",
          "type": "string"
        }
      ],
      "stateMutability": "view",
      "type": "function"
    },
    {
      "inputs": [
        {
          "internalType": "string",
          "name": "subdomainIn",
          "type": "string"
        },
        {
          "internalType": "string",
          "name": "colourhex",
          "type": "string"
        },
        {
          "internalType": "string",
          "name": "plan",
          "type": "string"
        },
        {
          "internalType": "string",
          "name": "logoURI",
          "type": "string"
        }
      ],
      "name": "createStore",
      "outputs": [],
      "stateMutability": "payable",
      "type": "function"
    },
    {
      "inputs": [
        {
          "internalType": "string",
          "name": "subdomainIn",
          "type": "string"
        },
        {
          "internalType": "string",
          "name": "newHexColour",
          "type": "string"
        }
      ],
      "name": "editStoreColour",
      "outputs": [],
      "stateMutability": "payable",
      "type": "function"
    },
    {
      "inputs": [
        {
          "components": [
            {
              "internalType": "uint256",
              "name": "storeId",
              "type": "uint256"
            },
            {
              "internalType": "string",
              "name": "subdomain",
              "type": "string"
            },
            {
              "internalType": "string",
              "name": "colourHex",
              "type": "string"
            },
            {
              "internalType": "string",
              "name": "plan",
              "type": "string"
            },
            {
              "internalType": "address payable",
              "name": "owner",
              "type": "address"
            },
            {
              "internalType": "string",
              "name": "logoURI",
              "type": "string"
            },
            {
              "internalType": "bool",
              "name": "isInitialized",
              "type": "bool"
            }
          ],
          "internalType": "struct StoreMarketplace.Store",
          "name": "storeIn",
          "type": "tuple"
        },
        {
          "internalType": "string",
          "name": "newHexColour",
          "type": "string"
        }
      ],
      "name": "editStoreColour",
      "outputs": [],
      "stateMutability": "payable",
      "type": "function"
    },
    {
      "inputs": [
        {
          "internalType": "string",
          "name": "subdomainIn",
          "type": "string"
        },
        {
          "internalType": "string",
          "name": "newLogoURI",
          "type": "string"
        }
      ],
      "name": "editStoreLogo",
      "outputs": [],
      "stateMutability": "payable",
      "type": "function"
    },
    {
      "inputs": [
        {
          "internalType": "uint256",
          "name": "tokenId",
          "type": "uint256"
        }
      ],
      "name": "getApproved",
      "outputs": [
        {
          "internalType": "address",
          "name": "",
          "type": "address"
        }
      ],
      "stateMutability": "view",
      "type": "function"
    },
    {
      "inputs": [
        {
          "internalType": "string",
          "name": "subdomain",
          "type": "string"
        }
      ],
      "name": "getStoreWithSubdomain",
      "outputs": [
        {
          "components": [
            {
              "internalType": "uint256",
              "name": "storeId",
              "type": "uint256"
            },
            {
              "internalType": "string",
              "name": "subdomain",
              "type": "string"
            },
            {
              "internalType": "string",
              "name": "colourHex",
              "type": "string"
            },
            {
              "internalType": "string",
              "name": "plan",
              "type": "string"
            },
            {
              "internalType": "address payable",
              "name": "owner",
              "type": "address"
            },
            {
              "internalType": "string",
              "name": "logoURI",
              "type": "string"
            },
            {
              "internalType": "bool",
              "name": "isInitialized",
              "type": "bool"
            }
          ],
          "internalType": "struct StoreMarketplace.Store",
          "name": "",
          "type": "tuple"
        }
      ],
      "stateMutability": "view",
      "type": "function"
    },
    {
      "inputs": [
        {
          "internalType": "address",
          "name": "ownerAddress",
          "type": "address"
        }
      ],
      "name": "getSubdomainsFromWalletAddress",
      "outputs": [
        {
          "internalType": "string[]",
          "name": "",
          "type": "string[]"
        }
      ],
      "stateMutability": "view",
      "type": "function"
    },
    {
      "inputs": [
        {
          "internalType": "address",
          "name": "owner",
          "type": "address"
        },
        {
          "internalType": "address",
          "name": "operator",
          "type": "address"
        }
      ],
      "name": "isApprovedForAll",
      "outputs": [
        {
          "internalType": "bool",
          "name": "",
          "type": "bool"
        }
      ],
      "stateMutability": "view",
      "type": "function"
    },
    {
      "inputs": [],
      "name": "name",
      "outputs": [
        {
          "internalType": "string",
          "name": "",
          "type": "string"
        }
      ],
      "stateMutability": "view",
      "type": "function"
    },
    {
      "inputs": [
        {
          "internalType": "string",
          "name": "subdomain",
          "type": "string"
        }
      ],
      "name": "nameAvailable",
      "outputs": [
        {
          "internalType": "bool",
          "name": "",
          "type": "bool"
        }
      ],
      "stateMutability": "view",
      "type": "function"
    },
    {
      "inputs": [],
      "name": "owner",
      "outputs": [
        {
          "internalType": "address",
          "name": "",
          "type": "address"
        }
      ],
      "stateMutability": "view",
      "type": "function"
    },
    {
      "inputs": [
        {
          "internalType": "uint256",
          "name": "tokenId",
          "type": "uint256"
        }
      ],
      "name": "ownerOf",
      "outputs": [
        {
          "internalType": "address",
          "name": "",
          "type": "address"
        }
      ],
      "stateMutability": "view",
      "type": "function"
    },
    {
      "inputs": [],
      "name": "renounceOwnership",
      "outputs": [],
      "stateMutability": "nonpayable",
      "type": "function"
    },
    {
      "inputs": [
        {
          "internalType": "address",
          "name": "from",
          "type": "address"
        },
        {
          "internalType": "address",
          "name": "to",
          "type": "address"
        },
        {
          "internalType": "uint256",
          "name": "tokenId",
          "type": "uint256"
        }
      ],
      "name": "safeTransferFrom",
      "outputs": [],
      "stateMutability": "nonpayable",
      "type": "function"
    },
    {
      "inputs": [
        {
          "internalType": "address",
          "name": "from",
          "type": "address"
        },
        {
          "internalType": "address",
          "name": "to",
          "type": "address"
        },
        {
          "internalType": "uint256",
          "name": "tokenId",
          "type": "uint256"
        },
        {
          "internalType": "bytes",
          "name": "_data",
          "type": "bytes"
        }
      ],
      "name": "safeTransferFrom",
      "outputs": [],
      "stateMutability": "nonpayable",
      "type": "function"
    },
    {
      "inputs": [
        {
          "internalType": "address",
          "name": "operator",
          "type": "address"
        },
        {
          "internalType": "bool",
          "name": "approved",
          "type": "bool"
        }
      ],
      "name": "setApprovalForAll",
      "outputs": [],
      "stateMutability": "nonpayable",
      "type": "function"
    },
    {
      "inputs": [
        {
          "internalType": "string",
          "name": "_newBaseURI",
          "type": "string"
        }
      ],
      "name": "setBaseURI",
      "outputs": [],
      "stateMutability": "nonpayable",
      "type": "function"
    },
    {
      "inputs": [
        {
          "internalType": "address payable",
          "name": "add",
          "type": "address"
        }
      ],
      "name": "setRoyaltyAddress",
      "outputs": [],
      "stateMutability": "nonpayable",
      "type": "function"
    },
    {
      "inputs": [
        {
          "internalType": "bytes4",
          "name": "interfaceId",
          "type": "bytes4"
        }
      ],
      "name": "supportsInterface",
      "outputs": [
        {
          "internalType": "bool",
          "name": "",
          "type": "bool"
        }
      ],
      "stateMutability": "view",
      "type": "function"
    },
    {
      "inputs": [],
      "name": "symbol",
      "outputs": [
        {
          "internalType": "string",
          "name": "",
          "type": "string"
        }
      ],
      "stateMutability": "view",
      "type": "function"
    },
    {
      "inputs": [
        {
          "internalType": "uint256",
          "name": "tokenId",
          "type": "uint256"
        }
      ],
      "name": "tokenURI",
      "outputs": [
        {
          "internalType": "string",
          "name": "",
          "type": "string"
        }
      ],
      "stateMutability": "view",
      "type": "function"
    },
    {
      "inputs": [
        {
          "internalType": "address",
          "name": "from",
          "type": "address"
        },
        {
          "internalType": "address",
          "name": "to",
          "type": "address"
        },
        {
          "internalType": "uint256",
          "name": "tokenId",
          "type": "uint256"
        }
      ],
      "name": "transferFrom",
      "outputs": [],
      "stateMutability": "nonpayable",
      "type": "function"
    },
    {
      "inputs": [
        {
          "internalType": "address",
          "name": "newOwner",
          "type": "address"
        }
      ],
      "name": "transferOwnership",
      "outputs": [],
      "stateMutability": "nonpayable",
      "type": "function"
    },
    {
      "inputs": [
        {
          "internalType": "string",
          "name": "subdomainIn",
          "type": "string"
        },
        {
          "internalType": "string",
          "name": "newPlan",
          "type": "string"
        }
      ],
      "name": "upgrade",
      "outputs": [],
      "stateMutability": "payable",
      "type": "function"
    }
  ],
  "bytecode": "0x6080604052681b1ae4d6e2ef500000600955683635c9adc5dea00000600a55686c6b935b8bbd400000600b553480156200003857600080fd5b50604051620050c4380380620050c483398181016040528101906200005e91906200039b565b818181600090805190602001906200007892919062000279565b5080600190805190602001906200009192919062000279565b5050506001600681905550620000bc620000b0620000d660201b60201c565b620000de60201b60201c565b620000cd83620001a460201b60201c565b5050506200062f565b600033905090565b6000600760009054906101000a900473ffffffffffffffffffffffffffffffffffffffff16905081600760006101000a81548173ffffffffffffffffffffffffffffffffffffffff021916908373ffffffffffffffffffffffffffffffffffffffff1602179055508173ffffffffffffffffffffffffffffffffffffffff168173ffffffffffffffffffffffffffffffffffffffff167f8be0079c531659141344cd1fd0a4f28419497f9722a3daafe3b4186f6b6457e060405160405180910390a35050565b620001b4620000d660201b60201c565b73ffffffffffffffffffffffffffffffffffffffff16620001da6200024f60201b60201c565b73ffffffffffffffffffffffffffffffffffffffff161462000233576040517f08c379a00000000000000000000000000000000000000000000000000000000081526004016200022a9062000463565b60405180910390fd5b80600c90805190602001906200024b92919062000279565b5050565b6000600760009054906101000a900473ffffffffffffffffffffffffffffffffffffffff16905090565b82805462000287906200052b565b90600052602060002090601f016020900481019282620002ab5760008555620002f7565b82601f10620002c657805160ff1916838001178555620002f7565b82800160010185558215620002f7579182015b82811115620002f6578251825591602001919060010190620002d9565b5b5090506200030691906200030a565b5090565b5b80821115620003255760008160009055506001016200030b565b5090565b6000620003406200033a84620004ae565b62000485565b9050828152602081018484840111156200035957600080fd5b62000366848285620004f5565b509392505050565b600082601f8301126200038057600080fd5b81516200039284826020860162000329565b91505092915050565b600080600060608486031215620003b157600080fd5b600084015167ffffffffffffffff811115620003cc57600080fd5b620003da868287016200036e565b935050602084015167ffffffffffffffff811115620003f857600080fd5b62000406868287016200036e565b925050604084015167ffffffffffffffff8111156200042457600080fd5b62000432868287016200036e565b9150509250925092565b60006200044b602083620004e4565b9150620004588262000606565b602082019050919050565b600060208201905081810360008301526200047e816200043c565b9050919050565b600062000491620004a4565b90506200049f828262000561565b919050565b6000604051905090565b600067ffffffffffffffff821115620004cc57620004cb620005c6565b5b620004d782620005f5565b9050602081019050919050565b600082825260208201905092915050565b60005b8381101562000515578082015181840152602081019050620004f8565b8381111562000525576000848401525b50505050565b600060028204905060018216806200054457607f821691505b602082108114156200055b576200055a62000597565b5b50919050565b6200056c82620005f5565b810181811067ffffffffffffffff821117156200058e576200058d620005c6565b5b80604052505050565b7f4e487b7100000000000000000000000000000000000000000000000000000000600052602260045260246000fd5b7f4e487b7100000000000000000000000000000000000000000000000000000000600052604160045260246000fd5b6000601f19601f8301169050919050565b7f4f776e61626c653a2063616c6c6572206973206e6f7420746865206f776e6572600082015250565b614a85806200063f6000396000f3fe60806040526004361061019c5760003560e01c80636366d9f9116100ec57806397061a911161008a578063b88d4fde11610064578063b88d4fde14610591578063c87b56dd146105ba578063e985e9c5146105f7578063f2fde38b146106345761019c565b806397061a911461050f57806398fa2fb81461052b578063a22cb465146105685761019c565b8063715018a6116100c6578063715018a61461046557806382bbdbec1461047c5780638da5cb5b146104b957806395d89b41146104e45761019c565b80636366d9f9146103e15780636c0360eb146103fd57806370a08231146104285761019c565b806323b872dd1161015957806351b51d021161013357806351b51d021461034357806353108b361461035f57806355f804b31461037b5780636352211e146103a45761019c565b806323b872dd146102d557806342842e0e146102fe578063508b019e146103275761019c565b806301ffc9a7146101a157806306d254da146101de57806306fdde0314610207578063081812fc14610232578063095ea7b31461026f578063191164fe14610298575b600080fd5b3480156101ad57600080fd5b506101c860048036038101906101c391906134d1565b61065d565b6040516101d59190613d9c565b60405180910390f35b3480156101ea57600080fd5b506102056004803603810190610200919061332a565b61073f565b005b34801561021357600080fd5b5061021c6107ff565b6040516102299190613db7565b60405180910390f35b34801561023e57600080fd5b50610259600480360381019061025491906136ff565b610891565b6040516102669190613d13565b60405180910390f35b34801561027b57600080fd5b5061029660048036038101906102919190613495565b610916565b005b3480156102a457600080fd5b506102bf60048036038101906102ba9190613301565b610a2e565b6040516102cc9190613d7a565b60405180910390f35b3480156102e157600080fd5b506102fc60048036038101906102f7919061338f565b610b46565b005b34801561030a57600080fd5b506103256004803603810190610320919061338f565b610ba6565b005b610341600480360381019061033c91906135d0565b610bc6565b005b61035d60048036038101906103589190613564565b6110f7565b005b61037960048036038101906103749190613564565b611255565b005b34801561038757600080fd5b506103a2600480360381019061039d9190613523565b611744565b005b3480156103b057600080fd5b506103cb60048036038101906103c691906136ff565b6117da565b6040516103d89190613d13565b60405180910390f35b6103fb60048036038101906103f69190613564565b61188c565b005b34801561040957600080fd5b506104126119ea565b60405161041f9190613db7565b60405180910390f35b34801561043457600080fd5b5061044f600480360381019061044a9190613301565b611a78565b60405161045c91906140e3565b60405180910390f35b34801561047157600080fd5b5061047a611b30565b005b34801561048857600080fd5b506104a3600480360381019061049e9190613523565b611bb8565b6040516104b09190613d9c565b60405180910390f35b3480156104c557600080fd5b506104ce611c01565b6040516104db9190613d13565b60405180910390f35b3480156104f057600080fd5b506104f9611c2b565b6040516105069190613db7565b60405180910390f35b61052960048036038101906105249190613693565b611cbd565b005b34801561053757600080fd5b50610552600480360381019061054d9190613523565b611e11565b60405161055f91906140c1565b60405180910390f35b34801561057457600080fd5b5061058f600480360381019061058a9190613459565b612125565b005b34801561059d57600080fd5b506105b860048036038101906105b391906133de565b61213b565b005b3480156105c657600080fd5b506105e160048036038101906105dc91906136ff565b61219d565b6040516105ee9190613db7565b60405180910390f35b34801561060357600080fd5b5061061e60048036038101906106199190613353565b612279565b60405161062b9190613d9c565b60405180910390f35b34801561064057600080fd5b5061065b60048036038101906106569190613301565b61230d565b005b60007f80ac58cd000000000000000000000000000000000000000000000000000000007bffffffffffffffffffffffffffffffffffffffffffffffffffffffff1916827bffffffffffffffffffffffffffffffffffffffffffffffffffffffff1916148061072857507f5b5e139f000000000000000000000000000000000000000000000000000000007bffffffffffffffffffffffffffffffffffffffffffffffffffffffff1916827bffffffffffffffffffffffffffffffffffffffffffffffffffffffff1916145b80610738575061073782612405565b5b9050919050565b61074761246f565b73ffffffffffffffffffffffffffffffffffffffff16610765611c01565b73ffffffffffffffffffffffffffffffffffffffff16146107bb576040517f08c379a00000000000000000000000000000000000000000000000000000000081526004016107b290614001565b60405180910390fd5b80600d60006101000a81548173ffffffffffffffffffffffffffffffffffffffff021916908373ffffffffffffffffffffffffffffffffffffffff16021790555050565b60606000805461080e90614364565b80601f016020809104026020016040519081016040528092919081815260200182805461083a90614364565b80156108875780601f1061085c57610100808354040283529160200191610887565b820191906000526020600020905b81548152906001019060200180831161086a57829003601f168201915b5050505050905090565b600061089c82612477565b6108db576040517f08c379a00000000000000000000000000000000000000000000000000000000081526004016108d290613fe1565b60405180910390fd5b6004600083815260200190815260200160002060009054906101000a900473ffffffffffffffffffffffffffffffffffffffff169050919050565b6000610921826117da565b90508073ffffffffffffffffffffffffffffffffffffffff168373ffffffffffffffffffffffffffffffffffffffff161415610992576040517f08c379a000000000000000000000000000000000000000000000000000000000815260040161098990614061565b60405180910390fd5b8073ffffffffffffffffffffffffffffffffffffffff166109b161246f565b73ffffffffffffffffffffffffffffffffffffffff1614806109e057506109df816109da61246f565b612279565b5b610a1f576040517f08c379a0000000000000000000000000000000000000000000000000000000008152600401610a1690613f61565b60405180910390fd5b610a2983836124e3565b505050565b6060600f60008373ffffffffffffffffffffffffffffffffffffffff1673ffffffffffffffffffffffffffffffffffffffff168152602001908152602001600020805480602002602001604051908101604052809291908181526020016000905b82821015610b3b578382906000526020600020018054610aae90614364565b80601f0160208091040260200160405190810160405280929190818152602001828054610ada90614364565b8015610b275780601f10610afc57610100808354040283529160200191610b27565b820191906000526020600020905b815481529060010190602001808311610b0a57829003601f168201915b505050505081526020019060010190610a8f565b505050509050919050565b610b57610b5161246f565b8261259c565b610b96576040517f08c379a0000000000000000000000000000000000000000000000000000000008152600401610b8d90614081565b60405180910390fd5b610ba183838361267a565b505050565b610bc18383836040518060200160405280600081525061213b565b505050565b60026006541415610c0c576040517f08c379a0000000000000000000000000000000000000000000000000000000008152600401610c03906140a1565b60405180910390fd5b600260068190555060011515610c2185611bb8565b151514610c63576040517f08c379a0000000000000000000000000000000000000000000000000000000008152600401610c5a90614041565b60405180910390fd5b604051602001610c7290613cfe565b6040516020818303038152906040528051906020012082604051602001610c999190613cbd565b604051602081830303815290604052805190602001201415610cfe576009543414610cf9576040517f08c379a0000000000000000000000000000000000000000000000000000000008152600401610cf090613e41565b60405180910390fd5b610e3b565b604051602001610d0d90613ce9565b6040516020818303038152906040528051906020012082604051602001610d349190613cbd565b604051602081830303815290604052805190602001201415610d9957600a543414610d94576040517f08c379a0000000000000000000000000000000000000000000000000000000008152600401610d8b90613e41565b60405180910390fd5b610e3a565b604051602001610da890613cd4565b6040516020818303038152906040528051906020012082604051602001610dcf9190613cbd565b604051602081830303815290604052805190602001201415610e3457600b543414610e2f576040517f08c379a0000000000000000000000000000000000000000000000000000000008152600401610e2690613e41565b60405180910390fd5b610e39565b600080fd5b5b5b600d60009054906101000a900473ffffffffffffffffffffffffffffffffffffffff1673ffffffffffffffffffffffffffffffffffffffff166108fc349081150290604051600060405180830381858888f19350505050158015610ea3573d6000803e3d6000fd5b50610eae60086128e1565b6000610eba60086128f7565b90506040518060e001604052808281526020018681526020018581526020018481526020013373ffffffffffffffffffffffffffffffffffffffff16815260200183815260200160011515815250600e86604051610f189190613cbd565b9081526020016040518091039020600082015181600001556020820151816001019080519060200190610f4c929190612fab565b506040820151816002019080519060200190610f69929190612fab565b506060820151816003019080519060200190610f86929190612fab565b5060808201518160040160006101000a81548173ffffffffffffffffffffffffffffffffffffffff021916908373ffffffffffffffffffffffffffffffffffffffff16021790555060a0820151816005019080519060200190610fea929190612fab565b5060c08201518160060160006101000a81548160ff021916908315150217905550905050600f60003373ffffffffffffffffffffffffffffffffffffffff1673ffffffffffffffffffffffffffffffffffffffff16815260200190815260200160002085908060018154018082558091505060019003906000526020600020016000909190919091509080519060200190611086929190612fab565b50846040516110959190613cbd565b6040518091039020817fc412d3f67c8be2bbdbcb2767d8c923e2894a205315d4f4f1670cc508d17b85118686338760016040516110d6959493929190613dd9565b60405180910390a36110e83382612905565b50600160068190555050505050565b600061110283611e11565b9050806080015173ffffffffffffffffffffffffffffffffffffffff163373ffffffffffffffffffffffffffffffffffffffff161461114057600080fd5b818160a0018190525080600e8460405161115a9190613cbd565b908152602001604051809103902060008201518160000155602082015181600101908051906020019061118e929190612fab565b5060408201518160020190805190602001906111ab929190612fab565b5060608201518160030190805190602001906111c8929190612fab565b5060808201518160040160006101000a81548173ffffffffffffffffffffffffffffffffffffffff021916908373ffffffffffffffffffffffffffffffffffffffff16021790555060a082015181600501908051906020019061122c929190612fab565b5060c08201518160060160006101000a81548160ff021916908315150217905550905050505050565b600061126083611e11565b60600151905060405160200161127590613cfe565b604051602081830303815290604052805190602001208160405160200161129c9190613cbd565b6040516020818303038152906040528051906020012014801561130857506040516020016112c990613ce9565b60405160208183030381529060405280519060200120826040516020016112f09190613cbd565b60405160208183030381529060405280519060200120145b1561139057681b1ae4d6e2ef500000341461132257600080fd5b600d60009054906101000a900473ffffffffffffffffffffffffffffffffffffffff1673ffffffffffffffffffffffffffffffffffffffff166108fc349081150290604051600060405180830381858888f1935050505015801561138a573d6000803e3d6000fd5b50611621565b60405160200161139f90613cfe565b60405160208183030381529060405280519060200120816040516020016113c69190613cbd565b6040516020818303038152906040528051906020012014801561143257506040516020016113f390613cd4565b604051602081830303815290604052805190602001208260405160200161141a9190613cbd565b60405160208183030381529060405280519060200120145b156114ba57685150ae84a8cdf00000341461144c57600080fd5b600d60009054906101000a900473ffffffffffffffffffffffffffffffffffffffff1673ffffffffffffffffffffffffffffffffffffffff166108fc349081150290604051600060405180830381858888f193505050501580156114b4573d6000803e3d6000fd5b50611620565b6040516020016114c990613ce9565b60405160208183030381529060405280519060200120816040516020016114f09190613cbd565b6040516020818303038152906040528051906020012014801561155c575060405160200161151d90613cd4565b60405160208183030381529060405280519060200120826040516020016115449190613cbd565b60405160208183030381529060405280519060200120145b156115e457683635c9adc5dea00000341461157657600080fd5b600d60009054906101000a900473ffffffffffffffffffffffffffffffffffffffff1673ffffffffffffffffffffffffffffffffffffffff166108fc349081150290604051600060405180830381858888f193505050501580156115de573d6000803e3d6000fd5b5061161f565b6040517f08c379a000000000000000000000000000000000000000000000000000000000815260040161161690613e61565b60405180910390fd5b5b5b600061162c84611e11565b905082816060018190525080600e856040516116489190613cbd565b908152602001604051809103902060008201518160000155602082015181600101908051906020019061167c929190612fab565b506040820151816002019080519060200190611699929190612fab565b5060608201518160030190805190602001906116b6929190612fab565b5060808201518160040160006101000a81548173ffffffffffffffffffffffffffffffffffffffff021916908373ffffffffffffffffffffffffffffffffffffffff16021790555060a082015181600501908051906020019061171a929190612fab565b5060c08201518160060160006101000a81548160ff02191690831515021790555090505050505050565b61174c61246f565b73ffffffffffffffffffffffffffffffffffffffff1661176a611c01565b73ffffffffffffffffffffffffffffffffffffffff16146117c0576040517f08c379a00000000000000000000000000000000000000000000000000000000081526004016117b790614001565b60405180910390fd5b80600c90805190602001906117d6929190612fab565b5050565b6000806002600084815260200190815260200160002060009054906101000a900473ffffffffffffffffffffffffffffffffffffffff169050600073ffffffffffffffffffffffffffffffffffffffff168173ffffffffffffffffffffffffffffffffffffffff161415611883576040517f08c379a000000000000000000000000000000000000000000000000000000000815260040161187a90613fa1565b60405180910390fd5b80915050919050565b600061189783611e11565b9050806080015173ffffffffffffffffffffffffffffffffffffffff163373ffffffffffffffffffffffffffffffffffffffff16146118d557600080fd5b81816040018190525080600e846040516118ef9190613cbd565b9081526020016040518091039020600082015181600001556020820151816001019080519060200190611923929190612fab565b506040820151816002019080519060200190611940929190612fab565b50606082015181600301908051906020019061195d929190612fab565b5060808201518160040160006101000a81548173ffffffffffffffffffffffffffffffffffffffff021916908373ffffffffffffffffffffffffffffffffffffffff16021790555060a08201518160050190805190602001906119c1929190612fab565b5060c08201518160060160006101000a81548160ff021916908315150217905550905050505050565b600c80546119f790614364565b80601f0160208091040260200160405190810160405280929190818152602001828054611a2390614364565b8015611a705780601f10611a4557610100808354040283529160200191611a70565b820191906000526020600020905b815481529060010190602001808311611a5357829003601f168201915b505050505081565b60008073ffffffffffffffffffffffffffffffffffffffff168273ffffffffffffffffffffffffffffffffffffffff161415611ae9576040517f08c379a0000000000000000000000000000000000000000000000000000000008152600401611ae090613f81565b60405180910390fd5b600360008373ffffffffffffffffffffffffffffffffffffffff1673ffffffffffffffffffffffffffffffffffffffff168152602001908152602001600020549050919050565b611b3861246f565b73ffffffffffffffffffffffffffffffffffffffff16611b56611c01565b73ffffffffffffffffffffffffffffffffffffffff1614611bac576040517f08c379a0000000000000000000000000000000000000000000000000000000008152600401611ba390614001565b60405180910390fd5b611bb66000612923565b565b6000600e82604051611bca9190613cbd565b908152602001604051809103902060060160009054906101000a900460ff1615611bf75760009050611bfc565b600190505b919050565b6000600760009054906101000a900473ffffffffffffffffffffffffffffffffffffffff16905090565b606060018054611c3a90614364565b80601f0160208091040260200160405190810160405280929190818152602001828054611c6690614364565b8015611cb35780601f10611c8857610100808354040283529160200191611cb3565b820191906000526020600020905b815481529060010190602001808311611c9657829003601f168201915b5050505050905090565b816080015173ffffffffffffffffffffffffffffffffffffffff163373ffffffffffffffffffffffffffffffffffffffff1614611cf957600080fd5b80826040018190525081600e8360200151604051611d179190613cbd565b9081526020016040518091039020600082015181600001556020820151816001019080519060200190611d4b929190612fab565b506040820151816002019080519060200190611d68929190612fab565b506060820151816003019080519060200190611d85929190612fab565b5060808201518160040160006101000a81548173ffffffffffffffffffffffffffffffffffffffff021916908373ffffffffffffffffffffffffffffffffffffffff16021790555060a0820151816005019080519060200190611de9929190612fab565b5060c08201518160060160006101000a81548160ff0219169083151502179055509050505050565b611e19613031565b60001515611e2683611bb8565b151514611e3257600080fd5b600e82604051611e429190613cbd565b90815260200160405180910390206040518060e001604052908160008201548152602001600182018054611e7590614364565b80601f0160208091040260200160405190810160405280929190818152602001828054611ea190614364565b8015611eee5780601f10611ec357610100808354040283529160200191611eee565b820191906000526020600020905b815481529060010190602001808311611ed157829003601f168201915b50505050508152602001600282018054611f0790614364565b80601f0160208091040260200160405190810160405280929190818152602001828054611f3390614364565b8015611f805780601f10611f5557610100808354040283529160200191611f80565b820191906000526020600020905b815481529060010190602001808311611f6357829003601f168201915b50505050508152602001600382018054611f9990614364565b80601f0160208091040260200160405190810160405280929190818152602001828054611fc590614364565b80156120125780601f10611fe757610100808354040283529160200191612012565b820191906000526020600020905b815481529060010190602001808311611ff557829003601f168201915b505050505081526020016004820160009054906101000a900473ffffffffffffffffffffffffffffffffffffffff1673ffffffffffffffffffffffffffffffffffffffff1673ffffffffffffffffffffffffffffffffffffffff16815260200160058201805461208190614364565b80601f01602080910402602001604051908101604052809291908181526020018280546120ad90614364565b80156120fa5780601f106120cf576101008083540402835291602001916120fa565b820191906000526020600020905b8154815290600101906020018083116120dd57829003601f168201915b505050505081526020016006820160009054906101000a900460ff1615151515815250509050919050565b61213761213061246f565b83836129e9565b5050565b61214c61214661246f565b8361259c565b61218b576040517f08c379a000000000000000000000000000000000000000000000000000000000815260040161218290614081565b60405180910390fd5b61219784848484612b56565b50505050565b60606121a882612477565b6121e7576040517f08c379a00000000000000000000000000000000000000000000000000000000081526004016121de90614021565b60405180910390fd5b600c80546121f490614364565b80601f016020809104026020016040519081016040528092919081815260200182805461222090614364565b801561226d5780601f106122425761010080835404028352916020019161226d565b820191906000526020600020905b81548152906001019060200180831161225057829003601f168201915b50505050509050919050565b6000600560008473ffffffffffffffffffffffffffffffffffffffff1673ffffffffffffffffffffffffffffffffffffffff16815260200190815260200160002060008373ffffffffffffffffffffffffffffffffffffffff1673ffffffffffffffffffffffffffffffffffffffff16815260200190815260200160002060009054906101000a900460ff16905092915050565b61231561246f565b73ffffffffffffffffffffffffffffffffffffffff16612333611c01565b73ffffffffffffffffffffffffffffffffffffffff1614612389576040517f08c379a000000000000000000000000000000000000000000000000000000000815260040161238090614001565b60405180910390fd5b600073ffffffffffffffffffffffffffffffffffffffff168173ffffffffffffffffffffffffffffffffffffffff1614156123f9576040517f08c379a00000000000000000000000000000000000000000000000000000000081526004016123f090613ea1565b60405180910390fd5b61240281612923565b50565b60007f01ffc9a7000000000000000000000000000000000000000000000000000000007bffffffffffffffffffffffffffffffffffffffffffffffffffffffff1916827bffffffffffffffffffffffffffffffffffffffffffffffffffffffff1916149050919050565b600033905090565b60008073ffffffffffffffffffffffffffffffffffffffff166002600084815260200190815260200160002060009054906101000a900473ffffffffffffffffffffffffffffffffffffffff1673ffffffffffffffffffffffffffffffffffffffff1614159050919050565b816004600083815260200190815260200160002060006101000a81548173ffffffffffffffffffffffffffffffffffffffff021916908373ffffffffffffffffffffffffffffffffffffffff160217905550808273ffffffffffffffffffffffffffffffffffffffff16612556836117da565b73ffffffffffffffffffffffffffffffffffffffff167f8c5be1e5ebec7d5bd14f71427d1e84f3dd0314c0f7b2291e5b200ac8c7c3b92560405160405180910390a45050565b60006125a782612477565b6125e6576040517f08c379a00000000000000000000000000000000000000000000000000000000081526004016125dd90613f41565b60405180910390fd5b60006125f1836117da565b90508073ffffffffffffffffffffffffffffffffffffffff168473ffffffffffffffffffffffffffffffffffffffff16148061266057508373ffffffffffffffffffffffffffffffffffffffff1661264884610891565b73ffffffffffffffffffffffffffffffffffffffff16145b8061267157506126708185612279565b5b91505092915050565b8273ffffffffffffffffffffffffffffffffffffffff1661269a826117da565b73ffffffffffffffffffffffffffffffffffffffff16146126f0576040517f08c379a00000000000000000000000000000000000000000000000000000000081526004016126e790613ec1565b60405180910390fd5b600073ffffffffffffffffffffffffffffffffffffffff168273ffffffffffffffffffffffffffffffffffffffff161415612760576040517f08c379a000000000000000000000000000000000000000000000000000000000815260040161275790613f01565b60405180910390fd5b61276b838383612bb2565b6127766000826124e3565b6001600360008573ffffffffffffffffffffffffffffffffffffffff1673ffffffffffffffffffffffffffffffffffffffff16815260200190815260200160002060008282546127c69190614268565b925050819055506001600360008473ffffffffffffffffffffffffffffffffffffffff1673ffffffffffffffffffffffffffffffffffffffff168152602001908152602001600020600082825461281d9190614212565b92505081905550816002600083815260200190815260200160002060006101000a81548173ffffffffffffffffffffffffffffffffffffffff021916908373ffffffffffffffffffffffffffffffffffffffff160217905550808273ffffffffffffffffffffffffffffffffffffffff168473ffffffffffffffffffffffffffffffffffffffff167fddf252ad1be2c89b69c2b068fc378daa952ba7f163c4a11628f55a4df523b3ef60405160405180910390a46128dc838383612bb7565b505050565b6001816000016000828254019250508190555050565b600081600001549050919050565b61291f828260405180602001604052806000815250612bbc565b5050565b6000600760009054906101000a900473ffffffffffffffffffffffffffffffffffffffff16905081600760006101000a81548173ffffffffffffffffffffffffffffffffffffffff021916908373ffffffffffffffffffffffffffffffffffffffff1602179055508173ffffffffffffffffffffffffffffffffffffffff168173ffffffffffffffffffffffffffffffffffffffff167f8be0079c531659141344cd1fd0a4f28419497f9722a3daafe3b4186f6b6457e060405160405180910390a35050565b8173ffffffffffffffffffffffffffffffffffffffff168373ffffffffffffffffffffffffffffffffffffffff161415612a58576040517f08c379a0000000000000000000000000000000000000000000000000000000008152600401612a4f90613f21565b60405180910390fd5b80600560008573ffffffffffffffffffffffffffffffffffffffff1673ffffffffffffffffffffffffffffffffffffffff16815260200190815260200160002060008473ffffffffffffffffffffffffffffffffffffffff1673ffffffffffffffffffffffffffffffffffffffff16815260200190815260200160002060006101000a81548160ff0219169083151502179055508173ffffffffffffffffffffffffffffffffffffffff168373ffffffffffffffffffffffffffffffffffffffff167f17307eab39ab6107e8899845ad3d59bd9653f200f220920489ca2b5937696c3183604051612b499190613d9c565b60405180910390a3505050565b612b6184848461267a565b612b6d84848484612c17565b612bac576040517f08c379a0000000000000000000000000000000000000000000000000000000008152600401612ba390613e81565b60405180910390fd5b50505050565b505050565b505050565b612bc68383612dae565b612bd36000848484612c17565b612c12576040517f08c379a0000000000000000000000000000000000000000000000000000000008152600401612c0990613e81565b60405180910390fd5b505050565b6000612c388473ffffffffffffffffffffffffffffffffffffffff16612f88565b15612da1578373ffffffffffffffffffffffffffffffffffffffff1663150b7a02612c6161246f565b8786866040518563ffffffff1660e01b8152600401612c839493929190613d2e565b602060405180830381600087803b158015612c9d57600080fd5b505af1925050508015612cce57506040513d601f19601f82011682018060405250810190612ccb91906134fa565b60015b612d51573d8060008114612cfe576040519150601f19603f3d011682016040523d82523d6000602084013e612d03565b606091505b50600081511415612d49576040517f08c379a0000000000000000000000000000000000000000000000000000000008152600401612d4090613e81565b60405180910390fd5b805181602001fd5b63150b7a0260e01b7bffffffffffffffffffffffffffffffffffffffffffffffffffffffff1916817bffffffffffffffffffffffffffffffffffffffffffffffffffffffff191614915050612da6565b600190505b949350505050565b600073ffffffffffffffffffffffffffffffffffffffff168273ffffffffffffffffffffffffffffffffffffffff161415612e1e576040517f08c379a0000000000000000000000000000000000000000000000000000000008152600401612e1590613fc1565b60405180910390fd5b612e2781612477565b15612e67576040517f08c379a0000000000000000000000000000000000000000000000000000000008152600401612e5e90613ee1565b60405180910390fd5b612e7360008383612bb2565b6001600360008473ffffffffffffffffffffffffffffffffffffffff1673ffffffffffffffffffffffffffffffffffffffff1681526020019081526020016000206000828254612ec39190614212565b92505081905550816002600083815260200190815260200160002060006101000a81548173ffffffffffffffffffffffffffffffffffffffff021916908373ffffffffffffffffffffffffffffffffffffffff160217905550808273ffffffffffffffffffffffffffffffffffffffff16600073ffffffffffffffffffffffffffffffffffffffff167fddf252ad1be2c89b69c2b068fc378daa952ba7f163c4a11628f55a4df523b3ef60405160405180910390a4612f8460008383612bb7565b5050565b6000808273ffffffffffffffffffffffffffffffffffffffff163b119050919050565b828054612fb790614364565b90600052602060002090601f016020900481019282612fd95760008555613020565b82601f10612ff257805160ff1916838001178555613020565b82800160010185558215613020579182015b8281111561301f578251825591602001919060010190613004565b5b50905061302d9190613086565b5090565b6040518060e0016040528060008152602001606081526020016060815260200160608152602001600073ffffffffffffffffffffffffffffffffffffffff168152602001606081526020016000151581525090565b5b8082111561309f576000816000905550600101613087565b5090565b60006130b66130b184614123565b6140fe565b9050828152602081018484840111156130ce57600080fd5b6130d9848285614322565b509392505050565b60006130f46130ef84614154565b6140fe565b90508281526020810184848401111561310c57600080fd5b613117848285614322565b509392505050565b60008135905061312e816149dc565b92915050565b600081359050613143816149f3565b92915050565b60008135905061315881614a0a565b92915050565b60008135905061316d81614a21565b92915050565b60008151905061318281614a21565b92915050565b600082601f83011261319957600080fd5b81356131a98482602086016130a3565b91505092915050565b600082601f8301126131c357600080fd5b81356131d38482602086016130e1565b91505092915050565b600060e082840312156131ee57600080fd5b6131f860e06140fe565b90506000613208848285016132ec565b600083015250602082013567ffffffffffffffff81111561322857600080fd5b613234848285016131b2565b602083015250604082013567ffffffffffffffff81111561325457600080fd5b613260848285016131b2565b604083015250606082013567ffffffffffffffff81111561328057600080fd5b61328c848285016131b2565b60608301525060806132a084828501613134565b60808301525060a082013567ffffffffffffffff8111156132c057600080fd5b6132cc848285016131b2565b60a08301525060c06132e084828501613149565b60c08301525092915050565b6000813590506132fb81614a38565b92915050565b60006020828403121561331357600080fd5b60006133218482850161311f565b91505092915050565b60006020828403121561333c57600080fd5b600061334a84828501613134565b91505092915050565b6000806040838503121561336657600080fd5b60006133748582860161311f565b92505060206133858582860161311f565b9150509250929050565b6000806000606084860312156133a457600080fd5b60006133b28682870161311f565b93505060206133c38682870161311f565b92505060406133d4868287016132ec565b9150509250925092565b600080600080608085870312156133f457600080fd5b60006134028782880161311f565b94505060206134138782880161311f565b9350506040613424878288016132ec565b925050606085013567ffffffffffffffff81111561344157600080fd5b61344d87828801613188565b91505092959194509250565b6000806040838503121561346c57600080fd5b600061347a8582860161311f565b925050602061348b85828601613149565b9150509250929050565b600080604083850312156134a857600080fd5b60006134b68582860161311f565b92505060206134c7858286016132ec565b9150509250929050565b6000602082840312156134e357600080fd5b60006134f18482850161315e565b91505092915050565b60006020828403121561350c57600080fd5b600061351a84828501613173565b91505092915050565b60006020828403121561353557600080fd5b600082013567ffffffffffffffff81111561354f57600080fd5b61355b848285016131b2565b91505092915050565b6000806040838503121561357757600080fd5b600083013567ffffffffffffffff81111561359157600080fd5b61359d858286016131b2565b925050602083013567ffffffffffffffff8111156135ba57600080fd5b6135c6858286016131b2565b9150509250929050565b600080600080608085870312156135e657600080fd5b600085013567ffffffffffffffff81111561360057600080fd5b61360c878288016131b2565b945050602085013567ffffffffffffffff81111561362957600080fd5b613635878288016131b2565b935050604085013567ffffffffffffffff81111561365257600080fd5b61365e878288016131b2565b925050606085013567ffffffffffffffff81111561367b57600080fd5b613687878288016131b2565b91505092959194509250565b600080604083850312156136a657600080fd5b600083013567ffffffffffffffff8111156136c057600080fd5b6136cc858286016131dc565b925050602083013567ffffffffffffffff8111156136e957600080fd5b6136f5858286016131b2565b9150509250929050565b60006020828403121561371157600080fd5b600061371f848285016132ec565b91505092915050565b60006137348383613826565b905092915050565b613745816142ae565b82525050565b6137548161429c565b82525050565b600061376582614195565b61376f81856141c3565b93508360208202850161378185614185565b8060005b858110156137bd578484038952815161379e8582613728565b94506137a9836141b6565b925060208a01995050600181019050613785565b50829750879550505050505092915050565b6137d8816142c0565b82525050565b6137e7816142c0565b82525050565b60006137f8826141a0565b61380281856141d4565b9350613812818560208601614331565b61381b81614454565b840191505092915050565b6000613831826141ab565b61383b81856141e5565b935061384b818560208601614331565b61385481614454565b840191505092915050565b600061386a826141ab565b61387481856141f6565b9350613884818560208601614331565b61388d81614454565b840191505092915050565b60006138a3826141ab565b6138ad8185614207565b93506138bd818560208601614331565b80840191505092915050565b60006138d6601c836141f6565b91506138e182614465565b602082019050919050565b60006138f96005836141f6565b91506139048261448e565b602082019050919050565b600061391c6032836141f6565b9150613927826144b7565b604082019050919050565b600061393f6026836141f6565b915061394a82614506565b604082019050919050565b60006139626025836141f6565b915061396d82614555565b604082019050919050565b6000613985601c836141f6565b9150613990826145a4565b602082019050919050565b60006139a8600983614207565b91506139b3826145cd565b600982019050919050565b60006139cb600383614207565b91506139d6826145f6565b600382019050919050565b60006139ee6024836141f6565b91506139f98261461f565b604082019050919050565b6000613a116019836141f6565b9150613a1c8261466e565b602082019050919050565b6000613a34602c836141f6565b9150613a3f82614697565b604082019050919050565b6000613a576038836141f6565b9150613a62826146e6565b604082019050919050565b6000613a7a602a836141f6565b9150613a8582614735565b604082019050919050565b6000613a9d6029836141f6565b9150613aa882614784565b604082019050919050565b6000613ac06020836141f6565b9150613acb826147d3565b602082019050919050565b6000613ae3602c836141f6565b9150613aee826147fc565b604082019050919050565b6000613b066020836141f6565b9150613b118261484b565b602082019050919050565b6000613b29602f836141f6565b9150613b3482614874565b604082019050919050565b6000613b4c600583614207565b9150613b57826148c3565b600582019050919050565b6000613b6f6013836141f6565b9150613b7a826148ec565b602082019050919050565b6000613b926021836141f6565b9150613b9d82614915565b604082019050919050565b6000613bb56031836141f6565b9150613bc082614964565b604082019050919050565b6000613bd8601f836141f6565b9150613be3826149b3565b602082019050919050565b600060e083016000830151613c066000860182613c9f565b5060208301518482036020860152613c1e8282613826565b91505060408301518482036040860152613c388282613826565b91505060608301518482036060860152613c528282613826565b9150506080830151613c67608086018261373c565b5060a083015184820360a0860152613c7f8282613826565b91505060c0830151613c9460c08601826137cf565b508091505092915050565b613ca881614318565b82525050565b613cb781614318565b82525050565b6000613cc98284613898565b915081905092915050565b6000613cdf8261399b565b9150819050919050565b6000613cf4826139be565b9150819050919050565b6000613d0982613b3f565b9150819050919050565b6000602082019050613d28600083018461374b565b92915050565b6000608082019050613d43600083018761374b565b613d50602083018661374b565b613d5d6040830185613cae565b8181036060830152613d6f81846137ed565b905095945050505050565b60006020820190508181036000830152613d94818461375a565b905092915050565b6000602082019050613db160008301846137de565b92915050565b60006020820190508181036000830152613dd1818461385f565b905092915050565b600060a0820190508181036000830152613df3818861385f565b90508181036020830152613e07818761385f565b9050613e16604083018661374b565b8181036060830152613e28818561385f565b9050613e3760808301846137de565b9695505050505050565b60006020820190508181036000830152613e5a816138c9565b9050919050565b60006020820190508181036000830152613e7a816138ec565b9050919050565b60006020820190508181036000830152613e9a8161390f565b9050919050565b60006020820190508181036000830152613eba81613932565b9050919050565b60006020820190508181036000830152613eda81613955565b9050919050565b60006020820190508181036000830152613efa81613978565b9050919050565b60006020820190508181036000830152613f1a816139e1565b9050919050565b60006020820190508181036000830152613f3a81613a04565b9050919050565b60006020820190508181036000830152613f5a81613a27565b9050919050565b60006020820190508181036000830152613f7a81613a4a565b9050919050565b60006020820190508181036000830152613f9a81613a6d565b9050919050565b60006020820190508181036000830152613fba81613a90565b9050919050565b60006020820190508181036000830152613fda81613ab3565b9050919050565b60006020820190508181036000830152613ffa81613ad6565b9050919050565b6000602082019050818103600083015261401a81613af9565b9050919050565b6000602082019050818103600083015261403a81613b1c565b9050919050565b6000602082019050818103600083015261405a81613b62565b9050919050565b6000602082019050818103600083015261407a81613b85565b9050919050565b6000602082019050818103600083015261409a81613ba8565b9050919050565b600060208201905081810360008301526140ba81613bcb565b9050919050565b600060208201905081810360008301526140db8184613bee565b905092915050565b60006020820190506140f86000830184613cae565b92915050565b6000614108614119565b90506141148282614396565b919050565b6000604051905090565b600067ffffffffffffffff82111561413e5761413d614425565b5b61414782614454565b9050602081019050919050565b600067ffffffffffffffff82111561416f5761416e614425565b5b61417882614454565b9050602081019050919050565b6000819050602082019050919050565b600081519050919050565b600081519050919050565b600081519050919050565b6000602082019050919050565b600082825260208201905092915050565b600082825260208201905092915050565b600082825260208201905092915050565b600082825260208201905092915050565b600081905092915050565b600061421d82614318565b915061422883614318565b9250827fffffffffffffffffffffffffffffffffffffffffffffffffffffffffffffffff0382111561425d5761425c6143c7565b5b828201905092915050565b600061427382614318565b915061427e83614318565b925082821015614291576142906143c7565b5b828203905092915050565b60006142a7826142f8565b9050919050565b60006142b9826142f8565b9050919050565b60008115159050919050565b60007fffffffff0000000000000000000000000000000000000000000000000000000082169050919050565b600073ffffffffffffffffffffffffffffffffffffffff82169050919050565b6000819050919050565b82818337600083830152505050565b60005b8381101561434f578082015181840152602081019050614334565b8381111561435e576000848401525b50505050565b6000600282049050600182168061437c57607f821691505b602082108114156143905761438f6143f6565b5b50919050565b61439f82614454565b810181811067ffffffffffffffff821117156143be576143bd614425565b5b80604052505050565b7f4e487b7100000000000000000000000000000000000000000000000000000000600052601160045260246000fd5b7f4e487b7100000000000000000000000000000000000000000000000000000000600052602260045260246000fd5b7f4e487b7100000000000000000000000000000000000000000000000000000000600052604160045260246000fd5b6000601f19601f8301169050919050565b7f7375626d69742066656520746f2063726561746520612073746f726500000000600082015250565b7f68656c6c6f000000000000000000000000000000000000000000000000000000600082015250565b7f4552433732313a207472616e7366657220746f206e6f6e20455243373231526560008201527f63656976657220696d706c656d656e7465720000000000000000000000000000602082015250565b7f4f776e61626c653a206e6577206f776e657220697320746865207a65726f206160008201527f6464726573730000000000000000000000000000000000000000000000000000602082015250565b7f4552433732313a207472616e736665722066726f6d20696e636f72726563742060008201527f6f776e6572000000000000000000000000000000000000000000000000000000602082015250565b7f4552433732313a20746f6b656e20616c7265616479206d696e74656400000000600082015250565b7f756e6c696d697465640000000000000000000000000000000000000000000000600082015250565b7f70726f0000000000000000000000000000000000000000000000000000000000600082015250565b7f4552433732313a207472616e7366657220746f20746865207a65726f2061646460008201527f7265737300000000000000000000000000000000000000000000000000000000602082015250565b7f4552433732313a20617070726f766520746f2063616c6c657200000000000000600082015250565b7f4552433732313a206f70657261746f7220717565727920666f72206e6f6e657860008201527f697374656e7420746f6b656e0000000000000000000000000000000000000000602082015250565b7f4552433732313a20617070726f76652063616c6c6572206973206e6f74206f7760008201527f6e6572206e6f7220617070726f76656420666f7220616c6c0000000000000000602082015250565b7f4552433732313a2062616c616e636520717565727920666f7220746865207a6560008201527f726f206164647265737300000000000000000000000000000000000000000000602082015250565b7f4552433732313a206f776e657220717565727920666f72206e6f6e657869737460008201527f656e7420746f6b656e0000000000000000000000000000000000000000000000602082015250565b7f4552433732313a206d696e7420746f20746865207a65726f2061646472657373600082015250565b7f4552433732313a20617070726f76656420717565727920666f72206e6f6e657860008201527f697374656e7420746f6b656e0000000000000000000000000000000000000000602082015250565b7f4f776e61626c653a2063616c6c6572206973206e6f7420746865206f776e6572600082015250565b7f4552433732314d657461646174613a2055524920717565727920666f72206e6f60008201527f6e6578697374656e7420746f6b656e0000000000000000000000000000000000602082015250565b7f6261736963000000000000000000000000000000000000000000000000000000600082015250565b7f4e616d65206e6f7420617661696c61626c652e00000000000000000000000000600082015250565b7f4552433732313a20617070726f76616c20746f2063757272656e74206f776e6560008201527f7200000000000000000000000000000000000000000000000000000000000000602082015250565b7f4552433732313a207472616e736665722063616c6c6572206973206e6f74206f60008201527f776e6572206e6f7220617070726f766564000000000000000000000000000000602082015250565b7f5265656e7472616e637947756172643a207265656e7472616e742063616c6c00600082015250565b6149e58161429c565b81146149f057600080fd5b50565b6149fc816142ae565b8114614a0757600080fd5b50565b614a13816142c0565b8114614a1e57600080fd5b50565b614a2a816142cc565b8114614a3557600080fd5b50565b614a4181614318565b8114614a4c57600080fd5b5056fea26469706673582212206133f78b85423eb67ac2edc7c9f3ef5641a4b135efab2735184c3f9b2ddb952464736f6c63430008040033",
  "linkReferences": {},
  "deployedLinkReferences": {}
}