{
  "_format": "hh-sol-artifact-1",
  "contractName": "StoreMarketplace",
  "sourceName": "contracts/StoreMarketplace.sol",
  "abi": [
    {
      "inputs": [
        {
          "internalType": "string",
          "name": "newBaseURI",
          "type": "string"
        },
        {
          "internalType": "string",
          "name": "_name",
          "type": "string"
        },
        {
          "internalType": "string",
          "name": "_symbol",
          "type": "string"
        }
      ],
      "stateMutability": "nonpayable",
      "type": "constructor"
    },
    {
      "anonymous": false,
      "inputs": [
        {
          "indexed": true,
          "internalType": "address",
          "name": "owner",
          "type": "address"
        },
        {
          "indexed": true,
          "internalType": "address",
          "name": "approved",
          "type": "address"
        },
        {
          "indexed": true,
          "internalType": "uint256",
          "name": "tokenId",
          "type": "uint256"
        }
      ],
      "name": "Approval",
      "type": "event"
    },
    {
      "anonymous": false,
      "inputs": [
        {
          "indexed": true,
          "internalType": "address",
          "name": "owner",
          "type": "address"
        },
        {
          "indexed": true,
          "internalType": "address",
          "name": "operator",
          "type": "address"
        },
        {
          "indexed": false,
          "internalType": "bool",
          "name": "approved",
          "type": "bool"
        }
      ],
      "name": "ApprovalForAll",
      "type": "event"
    },
    {
      "anonymous": false,
      "inputs": [
        {
          "indexed": true,
          "internalType": "address",
          "name": "previousOwner",
          "type": "address"
        },
        {
          "indexed": true,
          "internalType": "address",
          "name": "newOwner",
          "type": "address"
        }
      ],
      "name": "OwnershipTransferred",
      "type": "event"
    },
    {
      "anonymous": false,
      "inputs": [
        {
          "indexed": true,
          "internalType": "uint256",
          "name": "storeId",
          "type": "uint256"
        },
        {
          "indexed": true,
          "internalType": "string",
          "name": "subdomain",
          "type": "string"
        },
        {
          "indexed": false,
          "internalType": "string",
          "name": "colourHex",
          "type": "string"
        },
        {
          "indexed": false,
          "internalType": "string",
          "name": "plan",
          "type": "string"
        },
        {
          "indexed": false,
          "internalType": "address",
          "name": "owner",
          "type": "address"
        },
        {
          "indexed": false,
          "internalType": "string",
          "name": "logoURI",
          "type": "string"
        }
      ],
      "name": "StoreCreated",
      "type": "event"
    },
    {
      "anonymous": false,
      "inputs": [
        {
          "indexed": true,
          "internalType": "address",
          "name": "from",
          "type": "address"
        },
        {
          "indexed": true,
          "internalType": "address",
          "name": "to",
          "type": "address"
        },
        {
          "indexed": true,
          "internalType": "uint256",
          "name": "tokenId",
          "type": "uint256"
        }
      ],
      "name": "Transfer",
      "type": "event"
    },
    {
      "inputs": [
        {
          "internalType": "address",
          "name": "to",
          "type": "address"
        },
        {
          "internalType": "uint256",
          "name": "tokenId",
          "type": "uint256"
        }
      ],
      "name": "approve",
      "outputs": [],
      "stateMutability": "nonpayable",
      "type": "function"
    },
    {
      "inputs": [
        {
          "internalType": "address",
          "name": "owner",
          "type": "address"
        }
      ],
      "name": "balanceOf",
      "outputs": [
        {
          "internalType": "uint256",
          "name": "",
          "type": "uint256"
        }
      ],
      "stateMutability": "view",
      "type": "function"
    },
    {
      "inputs": [],
      "name": "baseURI",
      "outputs": [
        {
          "internalType": "string",
          "name": "",
          "type": "string"
        }
      ],
      "stateMutability": "view",
      "type": "function"
    },
    {
      "inputs": [
        {
          "internalType": "string",
          "name": "subdomainIn",
          "type": "string"
        },
        {
          "internalType": "string",
          "name": "colourhex",
          "type": "string"
        },
        {
          "internalType": "string",
          "name": "plan",
          "type": "string"
        },
        {
          "internalType": "string",
          "name": "logoURI",
          "type": "string"
        }
      ],
      "name": "createStore",
      "outputs": [],
      "stateMutability": "payable",
      "type": "function"
    },
    {
      "inputs": [
        {
          "internalType": "string",
          "name": "subdomainIn",
          "type": "string"
        },
        {
          "internalType": "string",
          "name": "newHexColour",
          "type": "string"
        }
      ],
      "name": "editStoreColour",
      "outputs": [],
      "stateMutability": "payable",
      "type": "function"
    },
    {
      "inputs": [
        {
          "components": [
            {
              "internalType": "uint256",
              "name": "storeId",
              "type": "uint256"
            },
            {
              "internalType": "string",
              "name": "subdomain",
              "type": "string"
            },
            {
              "internalType": "string",
              "name": "colourHex",
              "type": "string"
            },
            {
              "internalType": "string",
              "name": "plan",
              "type": "string"
            },
            {
              "internalType": "address payable",
              "name": "owner",
              "type": "address"
            },
            {
              "internalType": "string",
              "name": "logoURI",
              "type": "string"
            }
          ],
          "internalType": "struct StoreMarketplace.Store",
          "name": "storeIn",
          "type": "tuple"
        },
        {
          "internalType": "string",
          "name": "newHexColour",
          "type": "string"
        }
      ],
      "name": "editStoreColour",
      "outputs": [],
      "stateMutability": "payable",
      "type": "function"
    },
    {
      "inputs": [
        {
          "internalType": "string",
          "name": "subdomainIn",
          "type": "string"
        },
        {
          "internalType": "string",
          "name": "newLogoURI",
          "type": "string"
        }
      ],
      "name": "editStoreLogo",
      "outputs": [],
      "stateMutability": "payable",
      "type": "function"
    },
    {
      "inputs": [
        {
          "internalType": "uint256",
          "name": "tokenId",
          "type": "uint256"
        }
      ],
      "name": "getApproved",
      "outputs": [
        {
          "internalType": "address",
          "name": "",
          "type": "address"
        }
      ],
      "stateMutability": "view",
      "type": "function"
    },
    {
      "inputs": [
        {
          "internalType": "uint256",
          "name": "id",
          "type": "uint256"
        }
      ],
      "name": "getStoreWithId",
      "outputs": [
        {
          "components": [
            {
              "internalType": "uint256",
              "name": "storeId",
              "type": "uint256"
            },
            {
              "internalType": "string",
              "name": "subdomain",
              "type": "string"
            },
            {
              "internalType": "string",
              "name": "colourHex",
              "type": "string"
            },
            {
              "internalType": "string",
              "name": "plan",
              "type": "string"
            },
            {
              "internalType": "address payable",
              "name": "owner",
              "type": "address"
            },
            {
              "internalType": "string",
              "name": "logoURI",
              "type": "string"
            }
          ],
          "internalType": "struct StoreMarketplace.Store",
          "name": "",
          "type": "tuple"
        }
      ],
      "stateMutability": "view",
      "type": "function"
    },
    {
      "inputs": [
        {
          "internalType": "string",
          "name": "subdomainIn",
          "type": "string"
        }
      ],
      "name": "getStoreWithSubdomain",
      "outputs": [
        {
          "components": [
            {
              "internalType": "uint256",
              "name": "storeId",
              "type": "uint256"
            },
            {
              "internalType": "string",
              "name": "subdomain",
              "type": "string"
            },
            {
              "internalType": "string",
              "name": "colourHex",
              "type": "string"
            },
            {
              "internalType": "string",
              "name": "plan",
              "type": "string"
            },
            {
              "internalType": "address payable",
              "name": "owner",
              "type": "address"
            },
            {
              "internalType": "string",
              "name": "logoURI",
              "type": "string"
            }
          ],
          "internalType": "struct StoreMarketplace.Store",
          "name": "",
          "type": "tuple"
        }
      ],
      "stateMutability": "view",
      "type": "function"
    },
    {
      "inputs": [
        {
          "internalType": "address",
          "name": "owner",
          "type": "address"
        },
        {
          "internalType": "address",
          "name": "operator",
          "type": "address"
        }
      ],
      "name": "isApprovedForAll",
      "outputs": [
        {
          "internalType": "bool",
          "name": "",
          "type": "bool"
        }
      ],
      "stateMutability": "view",
      "type": "function"
    },
    {
      "inputs": [],
      "name": "name",
      "outputs": [
        {
          "internalType": "string",
          "name": "",
          "type": "string"
        }
      ],
      "stateMutability": "view",
      "type": "function"
    },
    {
      "inputs": [
        {
          "internalType": "string",
          "name": "name",
          "type": "string"
        }
      ],
      "name": "nameAvailable",
      "outputs": [
        {
          "internalType": "bool",
          "name": "",
          "type": "bool"
        }
      ],
      "stateMutability": "view",
      "type": "function"
    },
    {
      "inputs": [],
      "name": "owner",
      "outputs": [
        {
          "internalType": "address",
          "name": "",
          "type": "address"
        }
      ],
      "stateMutability": "view",
      "type": "function"
    },
    {
      "inputs": [
        {
          "internalType": "uint256",
          "name": "tokenId",
          "type": "uint256"
        }
      ],
      "name": "ownerOf",
      "outputs": [
        {
          "internalType": "address",
          "name": "",
          "type": "address"
        }
      ],
      "stateMutability": "view",
      "type": "function"
    },
    {
      "inputs": [],
      "name": "renounceOwnership",
      "outputs": [],
      "stateMutability": "nonpayable",
      "type": "function"
    },
    {
      "inputs": [
        {
          "internalType": "address",
          "name": "from",
          "type": "address"
        },
        {
          "internalType": "address",
          "name": "to",
          "type": "address"
        },
        {
          "internalType": "uint256",
          "name": "tokenId",
          "type": "uint256"
        }
      ],
      "name": "safeTransferFrom",
      "outputs": [],
      "stateMutability": "nonpayable",
      "type": "function"
    },
    {
      "inputs": [
        {
          "internalType": "address",
          "name": "from",
          "type": "address"
        },
        {
          "internalType": "address",
          "name": "to",
          "type": "address"
        },
        {
          "internalType": "uint256",
          "name": "tokenId",
          "type": "uint256"
        },
        {
          "internalType": "bytes",
          "name": "_data",
          "type": "bytes"
        }
      ],
      "name": "safeTransferFrom",
      "outputs": [],
      "stateMutability": "nonpayable",
      "type": "function"
    },
    {
      "inputs": [
        {
          "internalType": "address",
          "name": "operator",
          "type": "address"
        },
        {
          "internalType": "bool",
          "name": "approved",
          "type": "bool"
        }
      ],
      "name": "setApprovalForAll",
      "outputs": [],
      "stateMutability": "nonpayable",
      "type": "function"
    },
    {
      "inputs": [
        {
          "internalType": "string",
          "name": "_newBaseURI",
          "type": "string"
        }
      ],
      "name": "setBaseURI",
      "outputs": [],
      "stateMutability": "nonpayable",
      "type": "function"
    },
    {
      "inputs": [
        {
          "internalType": "bytes4",
          "name": "interfaceId",
          "type": "bytes4"
        }
      ],
      "name": "supportsInterface",
      "outputs": [
        {
          "internalType": "bool",
          "name": "",
          "type": "bool"
        }
      ],
      "stateMutability": "view",
      "type": "function"
    },
    {
      "inputs": [],
      "name": "symbol",
      "outputs": [
        {
          "internalType": "string",
          "name": "",
          "type": "string"
        }
      ],
      "stateMutability": "view",
      "type": "function"
    },
    {
      "inputs": [
        {
          "internalType": "uint256",
          "name": "tokenId",
          "type": "uint256"
        }
      ],
      "name": "tokenURI",
      "outputs": [
        {
          "internalType": "string",
          "name": "",
          "type": "string"
        }
      ],
      "stateMutability": "view",
      "type": "function"
    },
    {
      "inputs": [
        {
          "internalType": "address",
          "name": "from",
          "type": "address"
        },
        {
          "internalType": "address",
          "name": "to",
          "type": "address"
        },
        {
          "internalType": "uint256",
          "name": "tokenId",
          "type": "uint256"
        }
      ],
      "name": "transferFrom",
      "outputs": [],
      "stateMutability": "nonpayable",
      "type": "function"
    },
    {
      "inputs": [
        {
          "internalType": "address",
          "name": "newOwner",
          "type": "address"
        }
      ],
      "name": "transferOwnership",
      "outputs": [],
      "stateMutability": "nonpayable",
      "type": "function"
    }
  ],
  "bytecode": "0x6080604052681b1ae4d6e2ef500000600955683635c9adc5dea00000600a55686c6b935b8bbd400000600b553480156200003857600080fd5b5060405162004a3838038062004a3883398181016040528101906200005e91906200039b565b818181600090805190602001906200007892919062000279565b5080600190805190602001906200009192919062000279565b5050506001600681905550620000bc620000b0620000d660201b60201c565b620000de60201b60201c565b620000cd83620001a460201b60201c565b5050506200062f565b600033905090565b6000600760009054906101000a900473ffffffffffffffffffffffffffffffffffffffff16905081600760006101000a81548173ffffffffffffffffffffffffffffffffffffffff021916908373ffffffffffffffffffffffffffffffffffffffff1602179055508173ffffffffffffffffffffffffffffffffffffffff168173ffffffffffffffffffffffffffffffffffffffff167f8be0079c531659141344cd1fd0a4f28419497f9722a3daafe3b4186f6b6457e060405160405180910390a35050565b620001b4620000d660201b60201c565b73ffffffffffffffffffffffffffffffffffffffff16620001da6200024f60201b60201c565b73ffffffffffffffffffffffffffffffffffffffff161462000233576040517f08c379a00000000000000000000000000000000000000000000000000000000081526004016200022a9062000463565b60405180910390fd5b80600c90805190602001906200024b92919062000279565b5050565b6000600760009054906101000a900473ffffffffffffffffffffffffffffffffffffffff16905090565b82805462000287906200052b565b90600052602060002090601f016020900481019282620002ab5760008555620002f7565b82601f10620002c657805160ff1916838001178555620002f7565b82800160010185558215620002f7579182015b82811115620002f6578251825591602001919060010190620002d9565b5b5090506200030691906200030a565b5090565b5b80821115620003255760008160009055506001016200030b565b5090565b6000620003406200033a84620004ae565b62000485565b9050828152602081018484840111156200035957600080fd5b62000366848285620004f5565b509392505050565b600082601f8301126200038057600080fd5b81516200039284826020860162000329565b91505092915050565b600080600060608486031215620003b157600080fd5b600084015167ffffffffffffffff811115620003cc57600080fd5b620003da868287016200036e565b935050602084015167ffffffffffffffff811115620003f857600080fd5b62000406868287016200036e565b925050604084015167ffffffffffffffff8111156200042457600080fd5b62000432868287016200036e565b9150509250925092565b60006200044b602083620004e4565b9150620004588262000606565b602082019050919050565b600060208201905081810360008301526200047e816200043c565b9050919050565b600062000491620004a4565b90506200049f828262000561565b919050565b6000604051905090565b600067ffffffffffffffff821115620004cc57620004cb620005c6565b5b620004d782620005f5565b9050602081019050919050565b600082825260208201905092915050565b60005b8381101562000515578082015181840152602081019050620004f8565b8381111562000525576000848401525b50505050565b600060028204905060018216806200054457607f821691505b602082108114156200055b576200055a62000597565b5b50919050565b6200056c82620005f5565b810181811067ffffffffffffffff821117156200058e576200058d620005c6565b5b80604052505050565b7f4e487b7100000000000000000000000000000000000000000000000000000000600052602260045260246000fd5b7f4e487b7100000000000000000000000000000000000000000000000000000000600052604160045260246000fd5b6000601f19601f8301169050919050565b7f4f776e61626c653a2063616c6c6572206973206e6f7420746865206f776e6572600082015250565b6143f9806200063f6000396000f3fe6080604052600436106101665760003560e01c806370a08231116100d1578063a22cb4651161008a578063bdefa04011610064578063bdefa04014610523578063c87b56dd1461053f578063e985e9c51461057c578063f2fde38b146105b957610166565b8063a22cb46514610494578063a86b0593146104bd578063b88d4fde146104fa57610166565b806370a0823114610370578063715018a6146103ad57806382bbdbec146103c45780638da5cb5b1461040157806395d89b411461042c57806398fa2fb81461045757610166565b8063508b019e11610123578063508b019e1461028b57806351b51d02146102a757806355f804b3146102c35780636352211e146102ec5780636366d9f9146103295780636c0360eb1461034557610166565b806301ffc9a71461016b57806306fdde03146101a8578063081812fc146101d3578063095ea7b31461021057806323b872dd1461023957806342842e0e14610262575b600080fd5b34801561017757600080fd5b50610192600480360381019061018d9190612f3d565b6105e2565b60405161019f919061378b565b60405180910390f35b3480156101b457600080fd5b506101bd6106c4565b6040516101ca91906137a6565b60405180910390f35b3480156101df57600080fd5b506101fa60048036038101906101f5919061316b565b610756565b6040516102079190613724565b60405180910390f35b34801561021c57600080fd5b5061023760048036038101906102329190612f01565b6107db565b005b34801561024557600080fd5b50610260600480360381019061025b9190612dfb565b6108f3565b005b34801561026e57600080fd5b5061028960048036038101906102849190612dfb565b610953565b005b6102a560048036038101906102a0919061303c565b610973565b005b6102c160048036038101906102bc9190612fd0565b610d55565b005b3480156102cf57600080fd5b506102ea60048036038101906102e59190612f8f565b610e92565b005b3480156102f857600080fd5b50610313600480360381019061030e919061316b565b610f28565b6040516103209190613724565b60405180910390f35b610343600480360381019061033e9190612fd0565b610fda565b005b34801561035157600080fd5b5061035a611117565b60405161036791906137a6565b60405180910390f35b34801561037c57600080fd5b5061039760048036038101906103929190612d96565b6111a5565b6040516103a49190613a84565b60405180910390f35b3480156103b957600080fd5b506103c261125d565b005b3480156103d057600080fd5b506103eb60048036038101906103e69190612f8f565b6112e5565b6040516103f8919061378b565b60405180910390f35b34801561040d57600080fd5b50610416611391565b6040516104239190613724565b60405180910390f35b34801561043857600080fd5b506104416113bb565b60405161044e91906137a6565b60405180910390f35b34801561046357600080fd5b5061047e60048036038101906104799190612f8f565b61144d565b60405161048b9190613a62565b60405180910390f35b3480156104a057600080fd5b506104bb60048036038101906104b69190612ec5565b6117d9565b005b3480156104c957600080fd5b506104e460048036038101906104df919061316b565b6117ef565b6040516104f19190613a62565b60405180910390f35b34801561050657600080fd5b50610521600480360381019061051c9190612e4a565b611ac4565b005b61053d600480360381019061053891906130ff565b611b26565b005b34801561054b57600080fd5b506105666004803603810190610561919061316b565b611c4f565b60405161057391906137a6565b60405180910390f35b34801561058857600080fd5b506105a3600480360381019061059e9190612dbf565b611d2b565b6040516105b0919061378b565b60405180910390f35b3480156105c557600080fd5b506105e060048036038101906105db9190612d96565b611dbf565b005b60007f80ac58cd000000000000000000000000000000000000000000000000000000007bffffffffffffffffffffffffffffffffffffffffffffffffffffffff1916827bffffffffffffffffffffffffffffffffffffffffffffffffffffffff191614806106ad57507f5b5e139f000000000000000000000000000000000000000000000000000000007bffffffffffffffffffffffffffffffffffffffffffffffffffffffff1916827bffffffffffffffffffffffffffffffffffffffffffffffffffffffff1916145b806106bd57506106bc82611eb7565b5b9050919050565b6060600080546106d390613ce1565b80601f01602080910402602001604051908101604052809291908181526020018280546106ff90613ce1565b801561074c5780601f106107215761010080835404028352916020019161074c565b820191906000526020600020905b81548152906001019060200180831161072f57829003601f168201915b5050505050905090565b600061076182611f21565b6107a0576040517f08c379a0000000000000000000000000000000000000000000000000000000008152600401610797906139a2565b60405180910390fd5b6004600083815260200190815260200160002060009054906101000a900473ffffffffffffffffffffffffffffffffffffffff169050919050565b60006107e682610f28565b90508073ffffffffffffffffffffffffffffffffffffffff168373ffffffffffffffffffffffffffffffffffffffff161415610857576040517f08c379a000000000000000000000000000000000000000000000000000000000815260040161084e90613a02565b60405180910390fd5b8073ffffffffffffffffffffffffffffffffffffffff16610876611f8d565b73ffffffffffffffffffffffffffffffffffffffff1614806108a557506108a48161089f611f8d565b611d2b565b5b6108e4576040517f08c379a00000000000000000000000000000000000000000000000000000000081526004016108db90613922565b60405180910390fd5b6108ee8383611f95565b505050565b6109046108fe611f8d565b8261204e565b610943576040517f08c379a000000000000000000000000000000000000000000000000000000000815260040161093a90613a22565b60405180910390fd5b61094e83838361212c565b505050565b61096e83838360405180602001604052806000815250611ac4565b505050565b600260065414156109b9576040517f08c379a00000000000000000000000000000000000000000000000000000000081526004016109b090613a42565b60405180910390fd5b6002600681905550600115156109ce856112e5565b1515146109da57600080fd5b6040516020016109e99061370f565b6040516020818303038152906040528051906020012082604051602001610a1091906136b7565b604051602081830303815290604052805190602001201415610a75576009543414610a70576040517f08c379a0000000000000000000000000000000000000000000000000000000008152600401610a6790613822565b60405180910390fd5b610bb2565b604051602001610a84906136fa565b6040516020818303038152906040528051906020012082604051602001610aab91906136b7565b604051602081830303815290604052805190602001201415610b1057600a543414610b0b576040517f08c379a0000000000000000000000000000000000000000000000000000000008152600401610b0290613822565b60405180910390fd5b610bb1565b604051602001610b1f906136e5565b6040516020818303038152906040528051906020012082604051602001610b4691906136b7565b604051602081830303815290604052805190602001201415610bab57600b543414610ba6576040517f08c379a0000000000000000000000000000000000000000000000000000000008152600401610b9d90613822565b60405180910390fd5b610bb0565b600080fd5b5b5b610bbc6008612393565b6000610bc860086123a9565b90506040518060c001604052808281526020018681526020018581526020018481526020013373ffffffffffffffffffffffffffffffffffffffff16815260200183815250600d6000838152602001908152602001600020600082015181600001556020820151816001019080519060200190610c46929190612a5d565b506040820151816002019080519060200190610c63929190612a5d565b506060820151816003019080519060200190610c80929190612a5d565b5060808201518160040160006101000a81548173ffffffffffffffffffffffffffffffffffffffff021916908373ffffffffffffffffffffffffffffffffffffffff16021790555060a0820151816005019080519060200190610ce4929190612a5d565b5090505084604051610cf691906136b7565b6040518091039020817fb5eee2047d9b69a8439b7bbe0d8f455ac66ebbbfd2cbd20da90854701b29c16086863387604051610d3494939291906137c8565b60405180910390a3610d4633826123b7565b50600160068190555050505050565b6000610d608361144d565b9050600081600001519050816080015173ffffffffffffffffffffffffffffffffffffffff163373ffffffffffffffffffffffffffffffffffffffff1614610da757600080fd5b828260a0018190525081600d6000838152602001908152602001600020600082015181600001556020820151816001019080519060200190610dea929190612a5d565b506040820151816002019080519060200190610e07929190612a5d565b506060820151816003019080519060200190610e24929190612a5d565b5060808201518160040160006101000a81548173ffffffffffffffffffffffffffffffffffffffff021916908373ffffffffffffffffffffffffffffffffffffffff16021790555060a0820151816005019080519060200190610e88929190612a5d565b5090505050505050565b610e9a611f8d565b73ffffffffffffffffffffffffffffffffffffffff16610eb8611391565b73ffffffffffffffffffffffffffffffffffffffff1614610f0e576040517f08c379a0000000000000000000000000000000000000000000000000000000008152600401610f05906139c2565b60405180910390fd5b80600c9080519060200190610f24929190612a5d565b5050565b6000806002600084815260200190815260200160002060009054906101000a900473ffffffffffffffffffffffffffffffffffffffff169050600073ffffffffffffffffffffffffffffffffffffffff168173ffffffffffffffffffffffffffffffffffffffff161415610fd1576040517f08c379a0000000000000000000000000000000000000000000000000000000008152600401610fc890613962565b60405180910390fd5b80915050919050565b6000610fe58361144d565b9050600081600001519050816080015173ffffffffffffffffffffffffffffffffffffffff163373ffffffffffffffffffffffffffffffffffffffff161461102c57600080fd5b82826040018190525081600d600083815260200190815260200160002060008201518160000155602082015181600101908051906020019061106f929190612a5d565b50604082015181600201908051906020019061108c929190612a5d565b5060608201518160030190805190602001906110a9929190612a5d565b5060808201518160040160006101000a81548173ffffffffffffffffffffffffffffffffffffffff021916908373ffffffffffffffffffffffffffffffffffffffff16021790555060a082015181600501908051906020019061110d929190612a5d565b5090505050505050565b600c805461112490613ce1565b80601f016020809104026020016040519081016040528092919081815260200182805461115090613ce1565b801561119d5780601f106111725761010080835404028352916020019161119d565b820191906000526020600020905b81548152906001019060200180831161118057829003601f168201915b505050505081565b60008073ffffffffffffffffffffffffffffffffffffffff168273ffffffffffffffffffffffffffffffffffffffff161415611216576040517f08c379a000000000000000000000000000000000000000000000000000000000815260040161120d90613942565b60405180910390fd5b600360008373ffffffffffffffffffffffffffffffffffffffff1673ffffffffffffffffffffffffffffffffffffffff168152602001908152602001600020549050919050565b611265611f8d565b73ffffffffffffffffffffffffffffffffffffffff16611283611391565b73ffffffffffffffffffffffffffffffffffffffff16146112d9576040517f08c379a00000000000000000000000000000000000000000000000000000000081526004016112d0906139c2565b60405180910390fd5b6112e360006123d5565b565b6000806112f260086123a9565b905060005b818111611385578360405160200161130f91906136b7565b60405160208183030381529060405280519060200120600d600083815260200190815260200160002060010160405160200161134b91906136ce565b6040516020818303038152906040528051906020012014156113725760009250505061138c565b808061137d90613d44565b9150506112f7565b5060019150505b919050565b6000600760009054906101000a900473ffffffffffffffffffffffffffffffffffffffff16905090565b6060600180546113ca90613ce1565b80601f01602080910402602001604051908101604052809291908181526020018280546113f690613ce1565b80156114435780601f1061141857610100808354040283529160200191611443565b820191906000526020600020905b81548152906001019060200180831161142657829003601f168201915b5050505050905090565b611455612ae3565b60001515611462836112e5565b15151461146e57600080fd5b600061147a60086123a9565b905060005b8181116117d1578360405160200161149791906136b7565b60405160208183030381529060405280519060200120600d60008381526020019081526020016000206001016040516020016114d391906136ce565b6040516020818303038152906040528051906020012014156117be57600d60008281526020019081526020016000206040518060c00160405290816000820154815260200160018201805461152790613ce1565b80601f016020809104026020016040519081016040528092919081815260200182805461155390613ce1565b80156115a05780601f10611575576101008083540402835291602001916115a0565b820191906000526020600020905b81548152906001019060200180831161158357829003601f168201915b505050505081526020016002820180546115b990613ce1565b80601f01602080910402602001604051908101604052809291908181526020018280546115e590613ce1565b80156116325780601f1061160757610100808354040283529160200191611632565b820191906000526020600020905b81548152906001019060200180831161161557829003601f168201915b5050505050815260200160038201805461164b90613ce1565b80601f016020809104026020016040519081016040528092919081815260200182805461167790613ce1565b80156116c45780601f10611699576101008083540402835291602001916116c4565b820191906000526020600020905b8154815290600101906020018083116116a757829003601f168201915b505050505081526020016004820160009054906101000a900473ffffffffffffffffffffffffffffffffffffffff1673ffffffffffffffffffffffffffffffffffffffff1673ffffffffffffffffffffffffffffffffffffffff16815260200160058201805461173390613ce1565b80601f016020809104026020016040519081016040528092919081815260200182805461175f90613ce1565b80156117ac5780601f10611781576101008083540402835291602001916117ac565b820191906000526020600020905b81548152906001019060200180831161178f57829003601f168201915b505050505081525050925050506117d4565b80806117c990613d44565b91505061147f565b50505b919050565b6117eb6117e4611f8d565b838361249b565b5050565b6117f7612ae3565b600d60008381526020019081526020016000206040518060c00160405290816000820154815260200160018201805461182f90613ce1565b80601f016020809104026020016040519081016040528092919081815260200182805461185b90613ce1565b80156118a85780601f1061187d576101008083540402835291602001916118a8565b820191906000526020600020905b81548152906001019060200180831161188b57829003601f168201915b505050505081526020016002820180546118c190613ce1565b80601f01602080910402602001604051908101604052809291908181526020018280546118ed90613ce1565b801561193a5780601f1061190f5761010080835404028352916020019161193a565b820191906000526020600020905b81548152906001019060200180831161191d57829003601f168201915b5050505050815260200160038201805461195390613ce1565b80601f016020809104026020016040519081016040528092919081815260200182805461197f90613ce1565b80156119cc5780601f106119a1576101008083540402835291602001916119cc565b820191906000526020600020905b8154815290600101906020018083116119af57829003601f168201915b505050505081526020016004820160009054906101000a900473ffffffffffffffffffffffffffffffffffffffff1673ffffffffffffffffffffffffffffffffffffffff1673ffffffffffffffffffffffffffffffffffffffff168152602001600582018054611a3b90613ce1565b80601f0160208091040260200160405190810160405280929190818152602001828054611a6790613ce1565b8015611ab45780601f10611a8957610100808354040283529160200191611ab4565b820191906000526020600020905b815481529060010190602001808311611a9757829003601f168201915b5050505050815250509050919050565b611ad5611acf611f8d565b8361204e565b611b14576040517f08c379a0000000000000000000000000000000000000000000000000000000008152600401611b0b90613a22565b60405180910390fd5b611b2084848484612608565b50505050565b816080015173ffffffffffffffffffffffffffffffffffffffff163373ffffffffffffffffffffffffffffffffffffffff1614611b6257600080fd5b80826040018190525081600d600084600001518152602001908152602001600020600082015181600001556020820151816001019080519060200190611ba9929190612a5d565b506040820151816002019080519060200190611bc6929190612a5d565b506060820151816003019080519060200190611be3929190612a5d565b5060808201518160040160006101000a81548173ffffffffffffffffffffffffffffffffffffffff021916908373ffffffffffffffffffffffffffffffffffffffff16021790555060a0820151816005019080519060200190611c47929190612a5d565b509050505050565b6060611c5a82611f21565b611c99576040517f08c379a0000000000000000000000000000000000000000000000000000000008152600401611c90906139e2565b60405180910390fd5b600c8054611ca690613ce1565b80601f0160208091040260200160405190810160405280929190818152602001828054611cd290613ce1565b8015611d1f5780601f10611cf457610100808354040283529160200191611d1f565b820191906000526020600020905b815481529060010190602001808311611d0257829003601f168201915b50505050509050919050565b6000600560008473ffffffffffffffffffffffffffffffffffffffff1673ffffffffffffffffffffffffffffffffffffffff16815260200190815260200160002060008373ffffffffffffffffffffffffffffffffffffffff1673ffffffffffffffffffffffffffffffffffffffff16815260200190815260200160002060009054906101000a900460ff16905092915050565b611dc7611f8d565b73ffffffffffffffffffffffffffffffffffffffff16611de5611391565b73ffffffffffffffffffffffffffffffffffffffff1614611e3b576040517f08c379a0000000000000000000000000000000000000000000000000000000008152600401611e32906139c2565b60405180910390fd5b600073ffffffffffffffffffffffffffffffffffffffff168173ffffffffffffffffffffffffffffffffffffffff161415611eab576040517f08c379a0000000000000000000000000000000000000000000000000000000008152600401611ea290613862565b60405180910390fd5b611eb4816123d5565b50565b60007f01ffc9a7000000000000000000000000000000000000000000000000000000007bffffffffffffffffffffffffffffffffffffffffffffffffffffffff1916827bffffffffffffffffffffffffffffffffffffffffffffffffffffffff1916149050919050565b60008073ffffffffffffffffffffffffffffffffffffffff166002600084815260200190815260200160002060009054906101000a900473ffffffffffffffffffffffffffffffffffffffff1673ffffffffffffffffffffffffffffffffffffffff1614159050919050565b600033905090565b816004600083815260200190815260200160002060006101000a81548173ffffffffffffffffffffffffffffffffffffffff021916908373ffffffffffffffffffffffffffffffffffffffff160217905550808273ffffffffffffffffffffffffffffffffffffffff1661200883610f28565b73ffffffffffffffffffffffffffffffffffffffff167f8c5be1e5ebec7d5bd14f71427d1e84f3dd0314c0f7b2291e5b200ac8c7c3b92560405160405180910390a45050565b600061205982611f21565b612098576040517f08c379a000000000000000000000000000000000000000000000000000000000815260040161208f90613902565b60405180910390fd5b60006120a383610f28565b90508073ffffffffffffffffffffffffffffffffffffffff168473ffffffffffffffffffffffffffffffffffffffff16148061211257508373ffffffffffffffffffffffffffffffffffffffff166120fa84610756565b73ffffffffffffffffffffffffffffffffffffffff16145b8061212357506121228185611d2b565b5b91505092915050565b8273ffffffffffffffffffffffffffffffffffffffff1661214c82610f28565b73ffffffffffffffffffffffffffffffffffffffff16146121a2576040517f08c379a000000000000000000000000000000000000000000000000000000000815260040161219990613882565b60405180910390fd5b600073ffffffffffffffffffffffffffffffffffffffff168273ffffffffffffffffffffffffffffffffffffffff161415612212576040517f08c379a0000000000000000000000000000000000000000000000000000000008152600401612209906138c2565b60405180910390fd5b61221d838383612664565b612228600082611f95565b6001600360008573ffffffffffffffffffffffffffffffffffffffff1673ffffffffffffffffffffffffffffffffffffffff16815260200190815260200160002060008282546122789190613be5565b925050819055506001600360008473ffffffffffffffffffffffffffffffffffffffff1673ffffffffffffffffffffffffffffffffffffffff16815260200190815260200160002060008282546122cf9190613b8f565b92505081905550816002600083815260200190815260200160002060006101000a81548173ffffffffffffffffffffffffffffffffffffffff021916908373ffffffffffffffffffffffffffffffffffffffff160217905550808273ffffffffffffffffffffffffffffffffffffffff168473ffffffffffffffffffffffffffffffffffffffff167fddf252ad1be2c89b69c2b068fc378daa952ba7f163c4a11628f55a4df523b3ef60405160405180910390a461238e838383612669565b505050565b6001816000016000828254019250508190555050565b600081600001549050919050565b6123d182826040518060200160405280600081525061266e565b5050565b6000600760009054906101000a900473ffffffffffffffffffffffffffffffffffffffff16905081600760006101000a81548173ffffffffffffffffffffffffffffffffffffffff021916908373ffffffffffffffffffffffffffffffffffffffff1602179055508173ffffffffffffffffffffffffffffffffffffffff168173ffffffffffffffffffffffffffffffffffffffff167f8be0079c531659141344cd1fd0a4f28419497f9722a3daafe3b4186f6b6457e060405160405180910390a35050565b8173ffffffffffffffffffffffffffffffffffffffff168373ffffffffffffffffffffffffffffffffffffffff16141561250a576040517f08c379a0000000000000000000000000000000000000000000000000000000008152600401612501906138e2565b60405180910390fd5b80600560008573ffffffffffffffffffffffffffffffffffffffff1673ffffffffffffffffffffffffffffffffffffffff16815260200190815260200160002060008473ffffffffffffffffffffffffffffffffffffffff1673ffffffffffffffffffffffffffffffffffffffff16815260200190815260200160002060006101000a81548160ff0219169083151502179055508173ffffffffffffffffffffffffffffffffffffffff168373ffffffffffffffffffffffffffffffffffffffff167f17307eab39ab6107e8899845ad3d59bd9653f200f220920489ca2b5937696c31836040516125fb919061378b565b60405180910390a3505050565b61261384848461212c565b61261f848484846126c9565b61265e576040517f08c379a000000000000000000000000000000000000000000000000000000000815260040161265590613842565b60405180910390fd5b50505050565b505050565b505050565b6126788383612860565b61268560008484846126c9565b6126c4576040517f08c379a00000000000000000000000000000000000000000000000000000000081526004016126bb90613842565b60405180910390fd5b505050565b60006126ea8473ffffffffffffffffffffffffffffffffffffffff16612a3a565b15612853578373ffffffffffffffffffffffffffffffffffffffff1663150b7a02612713611f8d565b8786866040518563ffffffff1660e01b8152600401612735949392919061373f565b602060405180830381600087803b15801561274f57600080fd5b505af192505050801561278057506040513d601f19601f8201168201806040525081019061277d9190612f66565b60015b612803573d80600081146127b0576040519150601f19603f3d011682016040523d82523d6000602084013e6127b5565b606091505b506000815114156127fb576040517f08c379a00000000000000000000000000000000000000000000000000000000081526004016127f290613842565b60405180910390fd5b805181602001fd5b63150b7a0260e01b7bffffffffffffffffffffffffffffffffffffffffffffffffffffffff1916817bffffffffffffffffffffffffffffffffffffffffffffffffffffffff191614915050612858565b600190505b949350505050565b600073ffffffffffffffffffffffffffffffffffffffff168273ffffffffffffffffffffffffffffffffffffffff1614156128d0576040517f08c379a00000000000000000000000000000000000000000000000000000000081526004016128c790613982565b60405180910390fd5b6128d981611f21565b15612919576040517f08c379a0000000000000000000000000000000000000000000000000000000008152600401612910906138a2565b60405180910390fd5b61292560008383612664565b6001600360008473ffffffffffffffffffffffffffffffffffffffff1673ffffffffffffffffffffffffffffffffffffffff16815260200190815260200160002060008282546129759190613b8f565b92505081905550816002600083815260200190815260200160002060006101000a81548173ffffffffffffffffffffffffffffffffffffffff021916908373ffffffffffffffffffffffffffffffffffffffff160217905550808273ffffffffffffffffffffffffffffffffffffffff16600073ffffffffffffffffffffffffffffffffffffffff167fddf252ad1be2c89b69c2b068fc378daa952ba7f163c4a11628f55a4df523b3ef60405160405180910390a4612a3660008383612669565b5050565b6000808273ffffffffffffffffffffffffffffffffffffffff163b119050919050565b828054612a6990613ce1565b90600052602060002090601f016020900481019282612a8b5760008555612ad2565b82601f10612aa457805160ff1916838001178555612ad2565b82800160010185558215612ad2579182015b82811115612ad1578251825591602001919060010190612ab6565b5b509050612adf9190612b2f565b5090565b6040518060c0016040528060008152602001606081526020016060815260200160608152602001600073ffffffffffffffffffffffffffffffffffffffff168152602001606081525090565b5b80821115612b48576000816000905550600101612b30565b5090565b6000612b5f612b5a84613ac4565b613a9f565b905082815260208101848484011115612b7757600080fd5b612b82848285613c9f565b509392505050565b6000612b9d612b9884613af5565b613a9f565b905082815260208101848484011115612bb557600080fd5b612bc0848285613c9f565b509392505050565b600081359050612bd781614350565b92915050565b600081359050612bec81614367565b92915050565b600081359050612c018161437e565b92915050565b600081359050612c1681614395565b92915050565b600081519050612c2b81614395565b92915050565b600082601f830112612c4257600080fd5b8135612c52848260208601612b4c565b91505092915050565b600082601f830112612c6c57600080fd5b8135612c7c848260208601612b8a565b91505092915050565b600060c08284031215612c9757600080fd5b612ca160c0613a9f565b90506000612cb184828501612d81565b600083015250602082013567ffffffffffffffff811115612cd157600080fd5b612cdd84828501612c5b565b602083015250604082013567ffffffffffffffff811115612cfd57600080fd5b612d0984828501612c5b565b604083015250606082013567ffffffffffffffff811115612d2957600080fd5b612d3584828501612c5b565b6060830152506080612d4984828501612bdd565b60808301525060a082013567ffffffffffffffff811115612d6957600080fd5b612d7584828501612c5b565b60a08301525092915050565b600081359050612d90816143ac565b92915050565b600060208284031215612da857600080fd5b6000612db684828501612bc8565b91505092915050565b60008060408385031215612dd257600080fd5b6000612de085828601612bc8565b9250506020612df185828601612bc8565b9150509250929050565b600080600060608486031215612e1057600080fd5b6000612e1e86828701612bc8565b9350506020612e2f86828701612bc8565b9250506040612e4086828701612d81565b9150509250925092565b60008060008060808587031215612e6057600080fd5b6000612e6e87828801612bc8565b9450506020612e7f87828801612bc8565b9350506040612e9087828801612d81565b925050606085013567ffffffffffffffff811115612ead57600080fd5b612eb987828801612c31565b91505092959194509250565b60008060408385031215612ed857600080fd5b6000612ee685828601612bc8565b9250506020612ef785828601612bf2565b9150509250929050565b60008060408385031215612f1457600080fd5b6000612f2285828601612bc8565b9250506020612f3385828601612d81565b9150509250929050565b600060208284031215612f4f57600080fd5b6000612f5d84828501612c07565b91505092915050565b600060208284031215612f7857600080fd5b6000612f8684828501612c1c565b91505092915050565b600060208284031215612fa157600080fd5b600082013567ffffffffffffffff811115612fbb57600080fd5b612fc784828501612c5b565b91505092915050565b60008060408385031215612fe357600080fd5b600083013567ffffffffffffffff811115612ffd57600080fd5b61300985828601612c5b565b925050602083013567ffffffffffffffff81111561302657600080fd5b61303285828601612c5b565b9150509250929050565b6000806000806080858703121561305257600080fd5b600085013567ffffffffffffffff81111561306c57600080fd5b61307887828801612c5b565b945050602085013567ffffffffffffffff81111561309557600080fd5b6130a187828801612c5b565b935050604085013567ffffffffffffffff8111156130be57600080fd5b6130ca87828801612c5b565b925050606085013567ffffffffffffffff8111156130e757600080fd5b6130f387828801612c5b565b91505092959194509250565b6000806040838503121561311257600080fd5b600083013567ffffffffffffffff81111561312c57600080fd5b61313885828601612c85565b925050602083013567ffffffffffffffff81111561315557600080fd5b61316185828601612c5b565b9150509250929050565b60006020828403121561317d57600080fd5b600061318b84828501612d81565b91505092915050565b61319d81613c2b565b82525050565b6131ac81613c19565b82525050565b6131bb81613c3d565b82525050565b60006131cc82613b3b565b6131d68185613b51565b93506131e6818560208601613cae565b6131ef81613e1a565b840191505092915050565b600061320582613b46565b61320f8185613b62565b935061321f818560208601613cae565b61322881613e1a565b840191505092915050565b600061323e82613b46565b6132488185613b73565b9350613258818560208601613cae565b61326181613e1a565b840191505092915050565b600061327782613b46565b6132818185613b84565b9350613291818560208601613cae565b80840191505092915050565b600081546132aa81613ce1565b6132b48186613b84565b945060018216600081146132cf57600181146132e057613313565b60ff19831686528186019350613313565b6132e985613b26565b60005b8381101561330b578154818901526001820191506020810190506132ec565b838801955050505b50505092915050565b6000613329601c83613b73565b915061333482613e2b565b602082019050919050565b600061334c603283613b73565b915061335782613e54565b604082019050919050565b600061336f602683613b73565b915061337a82613ea3565b604082019050919050565b6000613392602583613b73565b915061339d82613ef2565b604082019050919050565b60006133b5601c83613b73565b91506133c082613f41565b602082019050919050565b60006133d8600983613b84565b91506133e382613f6a565b600982019050919050565b60006133fb600383613b84565b915061340682613f93565b600382019050919050565b600061341e602483613b73565b915061342982613fbc565b604082019050919050565b6000613441601983613b73565b915061344c8261400b565b602082019050919050565b6000613464602c83613b73565b915061346f82614034565b604082019050919050565b6000613487603883613b73565b915061349282614083565b604082019050919050565b60006134aa602a83613b73565b91506134b5826140d2565b604082019050919050565b60006134cd602983613b73565b91506134d882614121565b604082019050919050565b60006134f0602083613b73565b91506134fb82614170565b602082019050919050565b6000613513602c83613b73565b915061351e82614199565b604082019050919050565b6000613536602083613b73565b9150613541826141e8565b602082019050919050565b6000613559602f83613b73565b915061356482614211565b604082019050919050565b600061357c600583613b84565b915061358782614260565b600582019050919050565b600061359f602183613b73565b91506135aa82614289565b604082019050919050565b60006135c2603183613b73565b91506135cd826142d8565b604082019050919050565b60006135e5601f83613b73565b91506135f082614327565b602082019050919050565b600060c0830160008301516136136000860182613699565b506020830151848203602086015261362b82826131fa565b9150506040830151848203604086015261364582826131fa565b9150506060830151848203606086015261365f82826131fa565b91505060808301516136746080860182613194565b5060a083015184820360a086015261368c82826131fa565b9150508091505092915050565b6136a281613c95565b82525050565b6136b181613c95565b82525050565b60006136c3828461326c565b915081905092915050565b60006136da828461329d565b915081905092915050565b60006136f0826133cb565b9150819050919050565b6000613705826133ee565b9150819050919050565b600061371a8261356f565b9150819050919050565b600060208201905061373960008301846131a3565b92915050565b600060808201905061375460008301876131a3565b61376160208301866131a3565b61376e60408301856136a8565b818103606083015261378081846131c1565b905095945050505050565b60006020820190506137a060008301846131b2565b92915050565b600060208201905081810360008301526137c08184613233565b905092915050565b600060808201905081810360008301526137e28187613233565b905081810360208301526137f68186613233565b905061380560408301856131a3565b81810360608301526138178184613233565b905095945050505050565b6000602082019050818103600083015261383b8161331c565b9050919050565b6000602082019050818103600083015261385b8161333f565b9050919050565b6000602082019050818103600083015261387b81613362565b9050919050565b6000602082019050818103600083015261389b81613385565b9050919050565b600060208201905081810360008301526138bb816133a8565b9050919050565b600060208201905081810360008301526138db81613411565b9050919050565b600060208201905081810360008301526138fb81613434565b9050919050565b6000602082019050818103600083015261391b81613457565b9050919050565b6000602082019050818103600083015261393b8161347a565b9050919050565b6000602082019050818103600083015261395b8161349d565b9050919050565b6000602082019050818103600083015261397b816134c0565b9050919050565b6000602082019050818103600083015261399b816134e3565b9050919050565b600060208201905081810360008301526139bb81613506565b9050919050565b600060208201905081810360008301526139db81613529565b9050919050565b600060208201905081810360008301526139fb8161354c565b9050919050565b60006020820190508181036000830152613a1b81613592565b9050919050565b60006020820190508181036000830152613a3b816135b5565b9050919050565b60006020820190508181036000830152613a5b816135d8565b9050919050565b60006020820190508181036000830152613a7c81846135fb565b905092915050565b6000602082019050613a9960008301846136a8565b92915050565b6000613aa9613aba565b9050613ab58282613d13565b919050565b6000604051905090565b600067ffffffffffffffff821115613adf57613ade613deb565b5b613ae882613e1a565b9050602081019050919050565b600067ffffffffffffffff821115613b1057613b0f613deb565b5b613b1982613e1a565b9050602081019050919050565b60008190508160005260206000209050919050565b600081519050919050565b600081519050919050565b600082825260208201905092915050565b600082825260208201905092915050565b600082825260208201905092915050565b600081905092915050565b6000613b9a82613c95565b9150613ba583613c95565b9250827fffffffffffffffffffffffffffffffffffffffffffffffffffffffffffffffff03821115613bda57613bd9613d8d565b5b828201905092915050565b6000613bf082613c95565b9150613bfb83613c95565b925082821015613c0e57613c0d613d8d565b5b828203905092915050565b6000613c2482613c75565b9050919050565b6000613c3682613c75565b9050919050565b60008115159050919050565b60007fffffffff0000000000000000000000000000000000000000000000000000000082169050919050565b600073ffffffffffffffffffffffffffffffffffffffff82169050919050565b6000819050919050565b82818337600083830152505050565b60005b83811015613ccc578082015181840152602081019050613cb1565b83811115613cdb576000848401525b50505050565b60006002820490506001821680613cf957607f821691505b60208210811415613d0d57613d0c613dbc565b5b50919050565b613d1c82613e1a565b810181811067ffffffffffffffff82111715613d3b57613d3a613deb565b5b80604052505050565b6000613d4f82613c95565b91507fffffffffffffffffffffffffffffffffffffffffffffffffffffffffffffffff821415613d8257613d81613d8d565b5b600182019050919050565b7f4e487b7100000000000000000000000000000000000000000000000000000000600052601160045260246000fd5b7f4e487b7100000000000000000000000000000000000000000000000000000000600052602260045260246000fd5b7f4e487b7100000000000000000000000000000000000000000000000000000000600052604160045260246000fd5b6000601f19601f8301169050919050565b7f7375626d69742066656520746f2063726561746520612073746f726500000000600082015250565b7f4552433732313a207472616e7366657220746f206e6f6e20455243373231526560008201527f63656976657220696d706c656d656e7465720000000000000000000000000000602082015250565b7f4f776e61626c653a206e6577206f776e657220697320746865207a65726f206160008201527f6464726573730000000000000000000000000000000000000000000000000000602082015250565b7f4552433732313a207472616e736665722066726f6d20696e636f72726563742060008201527f6f776e6572000000000000000000000000000000000000000000000000000000602082015250565b7f4552433732313a20746f6b656e20616c7265616479206d696e74656400000000600082015250565b7f756e6c696d697465640000000000000000000000000000000000000000000000600082015250565b7f70726f0000000000000000000000000000000000000000000000000000000000600082015250565b7f4552433732313a207472616e7366657220746f20746865207a65726f2061646460008201527f7265737300000000000000000000000000000000000000000000000000000000602082015250565b7f4552433732313a20617070726f766520746f2063616c6c657200000000000000600082015250565b7f4552433732313a206f70657261746f7220717565727920666f72206e6f6e657860008201527f697374656e7420746f6b656e0000000000000000000000000000000000000000602082015250565b7f4552433732313a20617070726f76652063616c6c6572206973206e6f74206f7760008201527f6e6572206e6f7220617070726f76656420666f7220616c6c0000000000000000602082015250565b7f4552433732313a2062616c616e636520717565727920666f7220746865207a6560008201527f726f206164647265737300000000000000000000000000000000000000000000602082015250565b7f4552433732313a206f776e657220717565727920666f72206e6f6e657869737460008201527f656e7420746f6b656e0000000000000000000000000000000000000000000000602082015250565b7f4552433732313a206d696e7420746f20746865207a65726f2061646472657373600082015250565b7f4552433732313a20617070726f76656420717565727920666f72206e6f6e657860008201527f697374656e7420746f6b656e0000000000000000000000000000000000000000602082015250565b7f4f776e61626c653a2063616c6c6572206973206e6f7420746865206f776e6572600082015250565b7f4552433732314d657461646174613a2055524920717565727920666f72206e6f60008201527f6e6578697374656e7420746f6b656e0000000000000000000000000000000000602082015250565b7f6261736963000000000000000000000000000000000000000000000000000000600082015250565b7f4552433732313a20617070726f76616c20746f2063757272656e74206f776e6560008201527f7200000000000000000000000000000000000000000000000000000000000000602082015250565b7f4552433732313a207472616e736665722063616c6c6572206973206e6f74206f60008201527f776e6572206e6f7220617070726f766564000000000000000000000000000000602082015250565b7f5265656e7472616e637947756172643a207265656e7472616e742063616c6c00600082015250565b61435981613c19565b811461436457600080fd5b50565b61437081613c2b565b811461437b57600080fd5b50565b61438781613c3d565b811461439257600080fd5b50565b61439e81613c49565b81146143a957600080fd5b50565b6143b581613c95565b81146143c057600080fd5b5056fea26469706673582212209711d9b8860158aba261a04ade4b1319c07e91ba2b0360eb67a36d144d5813ea64736f6c63430008040033",
  "linkReferences": {},
  "deployedLinkReferences": {}
}