{
  "_format": "hh-sol-artifact-1",
  "contractName": "StoreMarketplace",
  "sourceName": "contracts/StoreMarketplace.sol",
  "abi": [
    {
      "inputs": [
        {
          "internalType": "string",
          "name": "newBaseURI",
          "type": "string"
        },
        {
          "internalType": "string",
          "name": "_name",
          "type": "string"
        },
        {
          "internalType": "string",
          "name": "_symbol",
          "type": "string"
        }
      ],
      "stateMutability": "nonpayable",
      "type": "constructor"
    },
    {
      "anonymous": false,
      "inputs": [
        {
          "indexed": true,
          "internalType": "address",
          "name": "owner",
          "type": "address"
        },
        {
          "indexed": true,
          "internalType": "address",
          "name": "approved",
          "type": "address"
        },
        {
          "indexed": true,
          "internalType": "uint256",
          "name": "tokenId",
          "type": "uint256"
        }
      ],
      "name": "Approval",
      "type": "event"
    },
    {
      "anonymous": false,
      "inputs": [
        {
          "indexed": true,
          "internalType": "address",
          "name": "owner",
          "type": "address"
        },
        {
          "indexed": true,
          "internalType": "address",
          "name": "operator",
          "type": "address"
        },
        {
          "indexed": false,
          "internalType": "bool",
          "name": "approved",
          "type": "bool"
        }
      ],
      "name": "ApprovalForAll",
      "type": "event"
    },
    {
      "anonymous": false,
      "inputs": [
        {
          "indexed": true,
          "internalType": "address",
          "name": "previousOwner",
          "type": "address"
        },
        {
          "indexed": true,
          "internalType": "address",
          "name": "newOwner",
          "type": "address"
        }
      ],
      "name": "OwnershipTransferred",
      "type": "event"
    },
    {
      "anonymous": false,
      "inputs": [
        {
          "indexed": true,
          "internalType": "uint256",
          "name": "storeId",
          "type": "uint256"
        },
        {
          "indexed": true,
          "internalType": "string",
          "name": "subdomain",
          "type": "string"
        },
        {
          "indexed": false,
          "internalType": "string",
          "name": "colourHex",
          "type": "string"
        },
        {
          "indexed": false,
          "internalType": "string",
          "name": "plan",
          "type": "string"
        },
        {
          "indexed": false,
          "internalType": "address",
          "name": "owner",
          "type": "address"
        },
        {
          "indexed": false,
          "internalType": "string",
          "name": "logoURI",
          "type": "string"
        }
      ],
      "name": "StoreCreated",
      "type": "event"
    },
    {
      "anonymous": false,
      "inputs": [
        {
          "indexed": true,
          "internalType": "address",
          "name": "from",
          "type": "address"
        },
        {
          "indexed": true,
          "internalType": "address",
          "name": "to",
          "type": "address"
        },
        {
          "indexed": true,
          "internalType": "uint256",
          "name": "tokenId",
          "type": "uint256"
        }
      ],
      "name": "Transfer",
      "type": "event"
    },
    {
      "inputs": [
        {
          "internalType": "address",
          "name": "to",
          "type": "address"
        },
        {
          "internalType": "uint256",
          "name": "tokenId",
          "type": "uint256"
        }
      ],
      "name": "approve",
      "outputs": [],
      "stateMutability": "nonpayable",
      "type": "function"
    },
    {
      "inputs": [
        {
          "internalType": "address",
          "name": "owner",
          "type": "address"
        }
      ],
      "name": "balanceOf",
      "outputs": [
        {
          "internalType": "uint256",
          "name": "",
          "type": "uint256"
        }
      ],
      "stateMutability": "view",
      "type": "function"
    },
    {
      "inputs": [],
      "name": "baseURI",
      "outputs": [
        {
          "internalType": "string",
          "name": "",
          "type": "string"
        }
      ],
      "stateMutability": "view",
      "type": "function"
    },
    {
      "inputs": [
        {
          "internalType": "string",
          "name": "subdomainIn",
          "type": "string"
        },
        {
          "internalType": "string",
          "name": "colourhex",
          "type": "string"
        },
        {
          "internalType": "string",
          "name": "plan",
          "type": "string"
        },
        {
          "internalType": "string",
          "name": "logoURI",
          "type": "string"
        }
      ],
      "name": "createStore",
      "outputs": [],
      "stateMutability": "payable",
      "type": "function"
    },
    {
      "inputs": [
        {
          "internalType": "string",
          "name": "subdomainIn",
          "type": "string"
        },
        {
          "internalType": "string",
          "name": "newHexColour",
          "type": "string"
        }
      ],
      "name": "editStoreColour",
      "outputs": [],
      "stateMutability": "payable",
      "type": "function"
    },
    {
      "inputs": [
        {
          "components": [
            {
              "internalType": "uint256",
              "name": "storeId",
              "type": "uint256"
            },
            {
              "internalType": "string",
              "name": "subdomain",
              "type": "string"
            },
            {
              "internalType": "string",
              "name": "colourHex",
              "type": "string"
            },
            {
              "internalType": "string",
              "name": "plan",
              "type": "string"
            },
            {
              "internalType": "address payable",
              "name": "owner",
              "type": "address"
            },
            {
              "internalType": "string",
              "name": "logoURI",
              "type": "string"
            }
          ],
          "internalType": "struct StoreMarketplace.Store",
          "name": "storeIn",
          "type": "tuple"
        },
        {
          "internalType": "string",
          "name": "newHexColour",
          "type": "string"
        }
      ],
      "name": "editStoreColour",
      "outputs": [],
      "stateMutability": "payable",
      "type": "function"
    },
    {
      "inputs": [
        {
          "internalType": "string",
          "name": "subdomainIn",
          "type": "string"
        },
        {
          "internalType": "string",
          "name": "newLogoURI",
          "type": "string"
        }
      ],
      "name": "editStoreLogo",
      "outputs": [],
      "stateMutability": "payable",
      "type": "function"
    },
    {
      "inputs": [
        {
          "internalType": "uint256",
          "name": "tokenId",
          "type": "uint256"
        }
      ],
      "name": "getApproved",
      "outputs": [
        {
          "internalType": "address",
          "name": "",
          "type": "address"
        }
      ],
      "stateMutability": "view",
      "type": "function"
    },
    {
      "inputs": [
        {
          "internalType": "uint256",
          "name": "id",
          "type": "uint256"
        }
      ],
      "name": "getStoreWithId",
      "outputs": [
        {
          "components": [
            {
              "internalType": "uint256",
              "name": "storeId",
              "type": "uint256"
            },
            {
              "internalType": "string",
              "name": "subdomain",
              "type": "string"
            },
            {
              "internalType": "string",
              "name": "colourHex",
              "type": "string"
            },
            {
              "internalType": "string",
              "name": "plan",
              "type": "string"
            },
            {
              "internalType": "address payable",
              "name": "owner",
              "type": "address"
            },
            {
              "internalType": "string",
              "name": "logoURI",
              "type": "string"
            }
          ],
          "internalType": "struct StoreMarketplace.Store",
          "name": "",
          "type": "tuple"
        }
      ],
      "stateMutability": "view",
      "type": "function"
    },
    {
      "inputs": [
        {
          "internalType": "string",
          "name": "subdomainIn",
          "type": "string"
        }
      ],
      "name": "getStoreWithSubdomain",
      "outputs": [
        {
          "components": [
            {
              "internalType": "uint256",
              "name": "storeId",
              "type": "uint256"
            },
            {
              "internalType": "string",
              "name": "subdomain",
              "type": "string"
            },
            {
              "internalType": "string",
              "name": "colourHex",
              "type": "string"
            },
            {
              "internalType": "string",
              "name": "plan",
              "type": "string"
            },
            {
              "internalType": "address payable",
              "name": "owner",
              "type": "address"
            },
            {
              "internalType": "string",
              "name": "logoURI",
              "type": "string"
            }
          ],
          "internalType": "struct StoreMarketplace.Store",
          "name": "",
          "type": "tuple"
        }
      ],
      "stateMutability": "view",
      "type": "function"
    },
    {
      "inputs": [
        {
          "internalType": "address",
          "name": "owner",
          "type": "address"
        },
        {
          "internalType": "address",
          "name": "operator",
          "type": "address"
        }
      ],
      "name": "isApprovedForAll",
      "outputs": [
        {
          "internalType": "bool",
          "name": "",
          "type": "bool"
        }
      ],
      "stateMutability": "view",
      "type": "function"
    },
    {
      "inputs": [],
      "name": "name",
      "outputs": [
        {
          "internalType": "string",
          "name": "",
          "type": "string"
        }
      ],
      "stateMutability": "view",
      "type": "function"
    },
    {
      "inputs": [],
      "name": "owner",
      "outputs": [
        {
          "internalType": "address",
          "name": "",
          "type": "address"
        }
      ],
      "stateMutability": "view",
      "type": "function"
    },
    {
      "inputs": [
        {
          "internalType": "uint256",
          "name": "tokenId",
          "type": "uint256"
        }
      ],
      "name": "ownerOf",
      "outputs": [
        {
          "internalType": "address",
          "name": "",
          "type": "address"
        }
      ],
      "stateMutability": "view",
      "type": "function"
    },
    {
      "inputs": [],
      "name": "renounceOwnership",
      "outputs": [],
      "stateMutability": "nonpayable",
      "type": "function"
    },
    {
      "inputs": [
        {
          "internalType": "address",
          "name": "from",
          "type": "address"
        },
        {
          "internalType": "address",
          "name": "to",
          "type": "address"
        },
        {
          "internalType": "uint256",
          "name": "tokenId",
          "type": "uint256"
        }
      ],
      "name": "safeTransferFrom",
      "outputs": [],
      "stateMutability": "nonpayable",
      "type": "function"
    },
    {
      "inputs": [
        {
          "internalType": "address",
          "name": "from",
          "type": "address"
        },
        {
          "internalType": "address",
          "name": "to",
          "type": "address"
        },
        {
          "internalType": "uint256",
          "name": "tokenId",
          "type": "uint256"
        },
        {
          "internalType": "bytes",
          "name": "_data",
          "type": "bytes"
        }
      ],
      "name": "safeTransferFrom",
      "outputs": [],
      "stateMutability": "nonpayable",
      "type": "function"
    },
    {
      "inputs": [
        {
          "internalType": "address",
          "name": "operator",
          "type": "address"
        },
        {
          "internalType": "bool",
          "name": "approved",
          "type": "bool"
        }
      ],
      "name": "setApprovalForAll",
      "outputs": [],
      "stateMutability": "nonpayable",
      "type": "function"
    },
    {
      "inputs": [
        {
          "internalType": "string",
          "name": "_newBaseURI",
          "type": "string"
        }
      ],
      "name": "setBaseURI",
      "outputs": [],
      "stateMutability": "nonpayable",
      "type": "function"
    },
    {
      "inputs": [
        {
          "internalType": "bytes4",
          "name": "interfaceId",
          "type": "bytes4"
        }
      ],
      "name": "supportsInterface",
      "outputs": [
        {
          "internalType": "bool",
          "name": "",
          "type": "bool"
        }
      ],
      "stateMutability": "view",
      "type": "function"
    },
    {
      "inputs": [],
      "name": "symbol",
      "outputs": [
        {
          "internalType": "string",
          "name": "",
          "type": "string"
        }
      ],
      "stateMutability": "view",
      "type": "function"
    },
    {
      "inputs": [
        {
          "internalType": "uint256",
          "name": "tokenId",
          "type": "uint256"
        }
      ],
      "name": "tokenURI",
      "outputs": [
        {
          "internalType": "string",
          "name": "",
          "type": "string"
        }
      ],
      "stateMutability": "view",
      "type": "function"
    },
    {
      "inputs": [
        {
          "internalType": "address",
          "name": "from",
          "type": "address"
        },
        {
          "internalType": "address",
          "name": "to",
          "type": "address"
        },
        {
          "internalType": "uint256",
          "name": "tokenId",
          "type": "uint256"
        }
      ],
      "name": "transferFrom",
      "outputs": [],
      "stateMutability": "nonpayable",
      "type": "function"
    },
    {
      "inputs": [
        {
          "internalType": "address",
          "name": "newOwner",
          "type": "address"
        }
      ],
      "name": "transferOwnership",
      "outputs": [],
      "stateMutability": "nonpayable",
      "type": "function"
    }
  ],
  "bytecode": "0x6080604052681b1ae4d6e2ef500000600955683635c9adc5dea00000600a55686c6b935b8bbd400000600b553480156200003857600080fd5b50604051620049fa380380620049fa83398181016040528101906200005e91906200039b565b818181600090805190602001906200007892919062000279565b5080600190805190602001906200009192919062000279565b5050506001600681905550620000bc620000b0620000d660201b60201c565b620000de60201b60201c565b620000cd83620001a460201b60201c565b5050506200062f565b600033905090565b6000600760009054906101000a900473ffffffffffffffffffffffffffffffffffffffff16905081600760006101000a81548173ffffffffffffffffffffffffffffffffffffffff021916908373ffffffffffffffffffffffffffffffffffffffff1602179055508173ffffffffffffffffffffffffffffffffffffffff168173ffffffffffffffffffffffffffffffffffffffff167f8be0079c531659141344cd1fd0a4f28419497f9722a3daafe3b4186f6b6457e060405160405180910390a35050565b620001b4620000d660201b60201c565b73ffffffffffffffffffffffffffffffffffffffff16620001da6200024f60201b60201c565b73ffffffffffffffffffffffffffffffffffffffff161462000233576040517f08c379a00000000000000000000000000000000000000000000000000000000081526004016200022a9062000463565b60405180910390fd5b80600c90805190602001906200024b92919062000279565b5050565b6000600760009054906101000a900473ffffffffffffffffffffffffffffffffffffffff16905090565b82805462000287906200052b565b90600052602060002090601f016020900481019282620002ab5760008555620002f7565b82601f10620002c657805160ff1916838001178555620002f7565b82800160010185558215620002f7579182015b82811115620002f6578251825591602001919060010190620002d9565b5b5090506200030691906200030a565b5090565b5b80821115620003255760008160009055506001016200030b565b5090565b6000620003406200033a84620004ae565b62000485565b9050828152602081018484840111156200035957600080fd5b62000366848285620004f5565b509392505050565b600082601f8301126200038057600080fd5b81516200039284826020860162000329565b91505092915050565b600080600060608486031215620003b157600080fd5b600084015167ffffffffffffffff811115620003cc57600080fd5b620003da868287016200036e565b935050602084015167ffffffffffffffff811115620003f857600080fd5b62000406868287016200036e565b925050604084015167ffffffffffffffff8111156200042457600080fd5b62000432868287016200036e565b9150509250925092565b60006200044b602083620004e4565b9150620004588262000606565b602082019050919050565b600060208201905081810360008301526200047e816200043c565b9050919050565b600062000491620004a4565b90506200049f828262000561565b919050565b6000604051905090565b600067ffffffffffffffff821115620004cc57620004cb620005c6565b5b620004d782620005f5565b9050602081019050919050565b600082825260208201905092915050565b60005b8381101562000515578082015181840152602081019050620004f8565b8381111562000525576000848401525b50505050565b600060028204905060018216806200054457607f821691505b602082108114156200055b576200055a62000597565b5b50919050565b6200056c82620005f5565b810181811067ffffffffffffffff821117156200058e576200058d620005c6565b5b80604052505050565b7f4e487b7100000000000000000000000000000000000000000000000000000000600052602260045260246000fd5b7f4e487b7100000000000000000000000000000000000000000000000000000000600052604160045260246000fd5b6000601f19601f8301169050919050565b7f4f776e61626c653a2063616c6c6572206973206e6f7420746865206f776e6572600082015250565b6143bb806200063f6000396000f3fe60806040526004361061014b5760003560e01c806370a08231116100b6578063a86b05931161006f578063a86b059314610465578063b88d4fde146104a2578063bdefa040146104cb578063c87b56dd146104e7578063e985e9c514610524578063f2fde38b146105615761014b565b806370a0823114610355578063715018a6146103925780638da5cb5b146103a957806395d89b41146103d457806398fa2fb8146103ff578063a22cb4651461043c5761014b565b8063508b019e11610108578063508b019e1461027057806351b51d021461028c57806355f804b3146102a85780636352211e146102d15780636366d9f91461030e5780636c0360eb1461032a5761014b565b806301ffc9a71461015057806306fdde031461018d578063081812fc146101b8578063095ea7b3146101f557806323b872dd1461021e57806342842e0e14610247575b600080fd5b34801561015c57600080fd5b5061017760048036038101906101729190612eff565b61058a565b604051610184919061374d565b60405180910390f35b34801561019957600080fd5b506101a261066c565b6040516101af9190613768565b60405180910390f35b3480156101c457600080fd5b506101df60048036038101906101da919061312d565b6106fe565b6040516101ec91906136e6565b60405180910390f35b34801561020157600080fd5b5061021c60048036038101906102179190612ec3565b610783565b005b34801561022a57600080fd5b5061024560048036038101906102409190612dbd565b61089b565b005b34801561025357600080fd5b5061026e60048036038101906102699190612dbd565b6108fb565b005b61028a60048036038101906102859190612ffe565b61091b565b005b6102a660048036038101906102a19190612f92565b610cfd565b005b3480156102b457600080fd5b506102cf60048036038101906102ca9190612f51565b610e3a565b005b3480156102dd57600080fd5b506102f860048036038101906102f3919061312d565b610ed0565b60405161030591906136e6565b60405180910390f35b61032860048036038101906103239190612f92565b610f82565b005b34801561033657600080fd5b5061033f6110bf565b60405161034c9190613768565b60405180910390f35b34801561036157600080fd5b5061037c60048036038101906103779190612d58565b61114d565b6040516103899190613a46565b60405180910390f35b34801561039e57600080fd5b506103a7611205565b005b3480156103b557600080fd5b506103be61128d565b6040516103cb91906136e6565b60405180910390f35b3480156103e057600080fd5b506103e96112b7565b6040516103f69190613768565b60405180910390f35b34801561040b57600080fd5b5061042660048036038101906104219190612f51565b611349565b6040516104339190613a24565b60405180910390f35b34801561044857600080fd5b50610463600480360381019061045e9190612e87565b6116ee565b005b34801561047157600080fd5b5061048c6004803603810190610487919061312d565b611704565b6040516104999190613a24565b60405180910390f35b3480156104ae57600080fd5b506104c960048036038101906104c49190612e0c565b6119d9565b005b6104e560048036038101906104e091906130c1565b611a3b565b005b3480156104f357600080fd5b5061050e6004803603810190610509919061312d565b611b64565b60405161051b9190613768565b60405180910390f35b34801561053057600080fd5b5061054b60048036038101906105469190612d81565b611c40565b604051610558919061374d565b60405180910390f35b34801561056d57600080fd5b5061058860048036038101906105839190612d58565b611cd4565b005b60007f80ac58cd000000000000000000000000000000000000000000000000000000007bffffffffffffffffffffffffffffffffffffffffffffffffffffffff1916827bffffffffffffffffffffffffffffffffffffffffffffffffffffffff1916148061065557507f5b5e139f000000000000000000000000000000000000000000000000000000007bffffffffffffffffffffffffffffffffffffffffffffffffffffffff1916827bffffffffffffffffffffffffffffffffffffffffffffffffffffffff1916145b80610665575061066482611dcc565b5b9050919050565b60606000805461067b90613ca3565b80601f01602080910402602001604051908101604052809291908181526020018280546106a790613ca3565b80156106f45780601f106106c9576101008083540402835291602001916106f4565b820191906000526020600020905b8154815290600101906020018083116106d757829003601f168201915b5050505050905090565b600061070982611e36565b610748576040517f08c379a000000000000000000000000000000000000000000000000000000000815260040161073f90613964565b60405180910390fd5b6004600083815260200190815260200160002060009054906101000a900473ffffffffffffffffffffffffffffffffffffffff169050919050565b600061078e82610ed0565b90508073ffffffffffffffffffffffffffffffffffffffff168373ffffffffffffffffffffffffffffffffffffffff1614156107ff576040517f08c379a00000000000000000000000000000000000000000000000000000000081526004016107f6906139c4565b60405180910390fd5b8073ffffffffffffffffffffffffffffffffffffffff1661081e611ea2565b73ffffffffffffffffffffffffffffffffffffffff16148061084d575061084c81610847611ea2565b611c40565b5b61088c576040517f08c379a0000000000000000000000000000000000000000000000000000000008152600401610883906138e4565b60405180910390fd5b6108968383611eaa565b505050565b6108ac6108a6611ea2565b82611f63565b6108eb576040517f08c379a00000000000000000000000000000000000000000000000000000000081526004016108e2906139e4565b60405180910390fd5b6108f6838383612041565b505050565b610916838383604051806020016040528060008152506119d9565b505050565b60026006541415610961576040517f08c379a000000000000000000000000000000000000000000000000000000000815260040161095890613a04565b60405180910390fd5b600260068190555060011515610976856122a8565b15151461098257600080fd5b604051602001610991906136d1565b60405160208183030381529060405280519060200120826040516020016109b89190613679565b604051602081830303815290604052805190602001201415610a1d576009543414610a18576040517f08c379a0000000000000000000000000000000000000000000000000000000008152600401610a0f906137e4565b60405180910390fd5b610b5a565b604051602001610a2c906136bc565b6040516020818303038152906040528051906020012082604051602001610a539190613679565b604051602081830303815290604052805190602001201415610ab857600a543414610ab3576040517f08c379a0000000000000000000000000000000000000000000000000000000008152600401610aaa906137e4565b60405180910390fd5b610b59565b604051602001610ac7906136a7565b6040516020818303038152906040528051906020012082604051602001610aee9190613679565b604051602081830303815290604052805190602001201415610b5357600b543414610b4e576040517f08c379a0000000000000000000000000000000000000000000000000000000008152600401610b45906137e4565b60405180910390fd5b610b58565b600080fd5b5b5b610b646008612355565b6000610b70600861236b565b90506040518060c001604052808281526020018681526020018581526020018481526020013373ffffffffffffffffffffffffffffffffffffffff16815260200183815250600d6000838152602001908152602001600020600082015181600001556020820151816001019080519060200190610bee929190612a1f565b506040820151816002019080519060200190610c0b929190612a1f565b506060820151816003019080519060200190610c28929190612a1f565b5060808201518160040160006101000a81548173ffffffffffffffffffffffffffffffffffffffff021916908373ffffffffffffffffffffffffffffffffffffffff16021790555060a0820151816005019080519060200190610c8c929190612a1f565b5090505084604051610c9e9190613679565b6040518091039020817fb5eee2047d9b69a8439b7bbe0d8f455ac66ebbbfd2cbd20da90854701b29c16086863387604051610cdc949392919061378a565b60405180910390a3610cee3382612379565b50600160068190555050505050565b6000610d0883611349565b9050600081600001519050816080015173ffffffffffffffffffffffffffffffffffffffff163373ffffffffffffffffffffffffffffffffffffffff1614610d4f57600080fd5b828260a0018190525081600d6000838152602001908152602001600020600082015181600001556020820151816001019080519060200190610d92929190612a1f565b506040820151816002019080519060200190610daf929190612a1f565b506060820151816003019080519060200190610dcc929190612a1f565b5060808201518160040160006101000a81548173ffffffffffffffffffffffffffffffffffffffff021916908373ffffffffffffffffffffffffffffffffffffffff16021790555060a0820151816005019080519060200190610e30929190612a1f565b5090505050505050565b610e42611ea2565b73ffffffffffffffffffffffffffffffffffffffff16610e6061128d565b73ffffffffffffffffffffffffffffffffffffffff1614610eb6576040517f08c379a0000000000000000000000000000000000000000000000000000000008152600401610ead90613984565b60405180910390fd5b80600c9080519060200190610ecc929190612a1f565b5050565b6000806002600084815260200190815260200160002060009054906101000a900473ffffffffffffffffffffffffffffffffffffffff169050600073ffffffffffffffffffffffffffffffffffffffff168173ffffffffffffffffffffffffffffffffffffffff161415610f79576040517f08c379a0000000000000000000000000000000000000000000000000000000008152600401610f7090613924565b60405180910390fd5b80915050919050565b6000610f8d83611349565b9050600081600001519050816080015173ffffffffffffffffffffffffffffffffffffffff163373ffffffffffffffffffffffffffffffffffffffff1614610fd457600080fd5b82826040018190525081600d6000838152602001908152602001600020600082015181600001556020820151816001019080519060200190611017929190612a1f565b506040820151816002019080519060200190611034929190612a1f565b506060820151816003019080519060200190611051929190612a1f565b5060808201518160040160006101000a81548173ffffffffffffffffffffffffffffffffffffffff021916908373ffffffffffffffffffffffffffffffffffffffff16021790555060a08201518160050190805190602001906110b5929190612a1f565b5090505050505050565b600c80546110cc90613ca3565b80601f01602080910402602001604051908101604052809291908181526020018280546110f890613ca3565b80156111455780601f1061111a57610100808354040283529160200191611145565b820191906000526020600020905b81548152906001019060200180831161112857829003601f168201915b505050505081565b60008073ffffffffffffffffffffffffffffffffffffffff168273ffffffffffffffffffffffffffffffffffffffff1614156111be576040517f08c379a00000000000000000000000000000000000000000000000000000000081526004016111b590613904565b60405180910390fd5b600360008373ffffffffffffffffffffffffffffffffffffffff1673ffffffffffffffffffffffffffffffffffffffff168152602001908152602001600020549050919050565b61120d611ea2565b73ffffffffffffffffffffffffffffffffffffffff1661122b61128d565b73ffffffffffffffffffffffffffffffffffffffff1614611281576040517f08c379a000000000000000000000000000000000000000000000000000000000815260040161127890613984565b60405180910390fd5b61128b6000612397565b565b6000600760009054906101000a900473ffffffffffffffffffffffffffffffffffffffff16905090565b6060600180546112c690613ca3565b80601f01602080910402602001604051908101604052809291908181526020018280546112f290613ca3565b801561133f5780601f106113145761010080835404028352916020019161133f565b820191906000526020600020905b81548152906001019060200180831161132257829003601f168201915b5050505050905090565b611351612aa5565b6000151561135e836122a8565b15151461136a57600080fd5b6000611376600861236b565b905060005b818110156116e657836040516020016113949190613679565b60405160208183030381529060405280519060200120600d60006001846113bb9190613b51565b81526020019081526020016000206001016040516020016113dc9190613690565b6040516020818303038152906040528051906020012014156116d357600d60006001836114099190613b51565b81526020019081526020016000206040518060c00160405290816000820154815260200160018201805461143c90613ca3565b80601f016020809104026020016040519081016040528092919081815260200182805461146890613ca3565b80156114b55780601f1061148a576101008083540402835291602001916114b5565b820191906000526020600020905b81548152906001019060200180831161149857829003601f168201915b505050505081526020016002820180546114ce90613ca3565b80601f01602080910402602001604051908101604052809291908181526020018280546114fa90613ca3565b80156115475780601f1061151c57610100808354040283529160200191611547565b820191906000526020600020905b81548152906001019060200180831161152a57829003601f168201915b5050505050815260200160038201805461156090613ca3565b80601f016020809104026020016040519081016040528092919081815260200182805461158c90613ca3565b80156115d95780601f106115ae576101008083540402835291602001916115d9565b820191906000526020600020905b8154815290600101906020018083116115bc57829003601f168201915b505050505081526020016004820160009054906101000a900473ffffffffffffffffffffffffffffffffffffffff1673ffffffffffffffffffffffffffffffffffffffff1673ffffffffffffffffffffffffffffffffffffffff16815260200160058201805461164890613ca3565b80601f016020809104026020016040519081016040528092919081815260200182805461167490613ca3565b80156116c15780601f10611696576101008083540402835291602001916116c1565b820191906000526020600020905b8154815290600101906020018083116116a457829003601f168201915b505050505081525050925050506116e9565b80806116de90613d06565b91505061137b565b50505b919050565b6117006116f9611ea2565b838361245d565b5050565b61170c612aa5565b600d60008381526020019081526020016000206040518060c00160405290816000820154815260200160018201805461174490613ca3565b80601f016020809104026020016040519081016040528092919081815260200182805461177090613ca3565b80156117bd5780601f10611792576101008083540402835291602001916117bd565b820191906000526020600020905b8154815290600101906020018083116117a057829003601f168201915b505050505081526020016002820180546117d690613ca3565b80601f016020809104026020016040519081016040528092919081815260200182805461180290613ca3565b801561184f5780601f106118245761010080835404028352916020019161184f565b820191906000526020600020905b81548152906001019060200180831161183257829003601f168201915b5050505050815260200160038201805461186890613ca3565b80601f016020809104026020016040519081016040528092919081815260200182805461189490613ca3565b80156118e15780601f106118b6576101008083540402835291602001916118e1565b820191906000526020600020905b8154815290600101906020018083116118c457829003601f168201915b505050505081526020016004820160009054906101000a900473ffffffffffffffffffffffffffffffffffffffff1673ffffffffffffffffffffffffffffffffffffffff1673ffffffffffffffffffffffffffffffffffffffff16815260200160058201805461195090613ca3565b80601f016020809104026020016040519081016040528092919081815260200182805461197c90613ca3565b80156119c95780601f1061199e576101008083540402835291602001916119c9565b820191906000526020600020905b8154815290600101906020018083116119ac57829003601f168201915b5050505050815250509050919050565b6119ea6119e4611ea2565b83611f63565b611a29576040517f08c379a0000000000000000000000000000000000000000000000000000000008152600401611a20906139e4565b60405180910390fd5b611a35848484846125ca565b50505050565b816080015173ffffffffffffffffffffffffffffffffffffffff163373ffffffffffffffffffffffffffffffffffffffff1614611a7757600080fd5b80826040018190525081600d600084600001518152602001908152602001600020600082015181600001556020820151816001019080519060200190611abe929190612a1f565b506040820151816002019080519060200190611adb929190612a1f565b506060820151816003019080519060200190611af8929190612a1f565b5060808201518160040160006101000a81548173ffffffffffffffffffffffffffffffffffffffff021916908373ffffffffffffffffffffffffffffffffffffffff16021790555060a0820151816005019080519060200190611b5c929190612a1f565b509050505050565b6060611b6f82611e36565b611bae576040517f08c379a0000000000000000000000000000000000000000000000000000000008152600401611ba5906139a4565b60405180910390fd5b600c8054611bbb90613ca3565b80601f0160208091040260200160405190810160405280929190818152602001828054611be790613ca3565b8015611c345780601f10611c0957610100808354040283529160200191611c34565b820191906000526020600020905b815481529060010190602001808311611c1757829003601f168201915b50505050509050919050565b6000600560008473ffffffffffffffffffffffffffffffffffffffff1673ffffffffffffffffffffffffffffffffffffffff16815260200190815260200160002060008373ffffffffffffffffffffffffffffffffffffffff1673ffffffffffffffffffffffffffffffffffffffff16815260200190815260200160002060009054906101000a900460ff16905092915050565b611cdc611ea2565b73ffffffffffffffffffffffffffffffffffffffff16611cfa61128d565b73ffffffffffffffffffffffffffffffffffffffff1614611d50576040517f08c379a0000000000000000000000000000000000000000000000000000000008152600401611d4790613984565b60405180910390fd5b600073ffffffffffffffffffffffffffffffffffffffff168173ffffffffffffffffffffffffffffffffffffffff161415611dc0576040517f08c379a0000000000000000000000000000000000000000000000000000000008152600401611db790613824565b60405180910390fd5b611dc981612397565b50565b60007f01ffc9a7000000000000000000000000000000000000000000000000000000007bffffffffffffffffffffffffffffffffffffffffffffffffffffffff1916827bffffffffffffffffffffffffffffffffffffffffffffffffffffffff1916149050919050565b60008073ffffffffffffffffffffffffffffffffffffffff166002600084815260200190815260200160002060009054906101000a900473ffffffffffffffffffffffffffffffffffffffff1673ffffffffffffffffffffffffffffffffffffffff1614159050919050565b600033905090565b816004600083815260200190815260200160002060006101000a81548173ffffffffffffffffffffffffffffffffffffffff021916908373ffffffffffffffffffffffffffffffffffffffff160217905550808273ffffffffffffffffffffffffffffffffffffffff16611f1d83610ed0565b73ffffffffffffffffffffffffffffffffffffffff167f8c5be1e5ebec7d5bd14f71427d1e84f3dd0314c0f7b2291e5b200ac8c7c3b92560405160405180910390a45050565b6000611f6e82611e36565b611fad576040517f08c379a0000000000000000000000000000000000000000000000000000000008152600401611fa4906138c4565b60405180910390fd5b6000611fb883610ed0565b90508073ffffffffffffffffffffffffffffffffffffffff168473ffffffffffffffffffffffffffffffffffffffff16148061202757508373ffffffffffffffffffffffffffffffffffffffff1661200f846106fe565b73ffffffffffffffffffffffffffffffffffffffff16145b8061203857506120378185611c40565b5b91505092915050565b8273ffffffffffffffffffffffffffffffffffffffff1661206182610ed0565b73ffffffffffffffffffffffffffffffffffffffff16146120b7576040517f08c379a00000000000000000000000000000000000000000000000000000000081526004016120ae90613844565b60405180910390fd5b600073ffffffffffffffffffffffffffffffffffffffff168273ffffffffffffffffffffffffffffffffffffffff161415612127576040517f08c379a000000000000000000000000000000000000000000000000000000000815260040161211e90613884565b60405180910390fd5b612132838383612626565b61213d600082611eaa565b6001600360008573ffffffffffffffffffffffffffffffffffffffff1673ffffffffffffffffffffffffffffffffffffffff168152602001908152602001600020600082825461218d9190613ba7565b925050819055506001600360008473ffffffffffffffffffffffffffffffffffffffff1673ffffffffffffffffffffffffffffffffffffffff16815260200190815260200160002060008282546121e49190613b51565b92505081905550816002600083815260200190815260200160002060006101000a81548173ffffffffffffffffffffffffffffffffffffffff021916908373ffffffffffffffffffffffffffffffffffffffff160217905550808273ffffffffffffffffffffffffffffffffffffffff168473ffffffffffffffffffffffffffffffffffffffff167fddf252ad1be2c89b69c2b068fc378daa952ba7f163c4a11628f55a4df523b3ef60405160405180910390a46122a383838361262b565b505050565b6000806122b5600861236b565b905060005b8181101561234957836040516020016122d39190613679565b60405160208183030381529060405280519060200120600d600083815260200190815260200160002060010160405160200161230f9190613690565b60405160208183030381529060405280519060200120141561233657600092505050612350565b808061234190613d06565b9150506122ba565b5060019150505b919050565b6001816000016000828254019250508190555050565b600081600001549050919050565b612393828260405180602001604052806000815250612630565b5050565b6000600760009054906101000a900473ffffffffffffffffffffffffffffffffffffffff16905081600760006101000a81548173ffffffffffffffffffffffffffffffffffffffff021916908373ffffffffffffffffffffffffffffffffffffffff1602179055508173ffffffffffffffffffffffffffffffffffffffff168173ffffffffffffffffffffffffffffffffffffffff167f8be0079c531659141344cd1fd0a4f28419497f9722a3daafe3b4186f6b6457e060405160405180910390a35050565b8173ffffffffffffffffffffffffffffffffffffffff168373ffffffffffffffffffffffffffffffffffffffff1614156124cc576040517f08c379a00000000000000000000000000000000000000000000000000000000081526004016124c3906138a4565b60405180910390fd5b80600560008573ffffffffffffffffffffffffffffffffffffffff1673ffffffffffffffffffffffffffffffffffffffff16815260200190815260200160002060008473ffffffffffffffffffffffffffffffffffffffff1673ffffffffffffffffffffffffffffffffffffffff16815260200190815260200160002060006101000a81548160ff0219169083151502179055508173ffffffffffffffffffffffffffffffffffffffff168373ffffffffffffffffffffffffffffffffffffffff167f17307eab39ab6107e8899845ad3d59bd9653f200f220920489ca2b5937696c31836040516125bd919061374d565b60405180910390a3505050565b6125d5848484612041565b6125e18484848461268b565b612620576040517f08c379a000000000000000000000000000000000000000000000000000000000815260040161261790613804565b60405180910390fd5b50505050565b505050565b505050565b61263a8383612822565b612647600084848461268b565b612686576040517f08c379a000000000000000000000000000000000000000000000000000000000815260040161267d90613804565b60405180910390fd5b505050565b60006126ac8473ffffffffffffffffffffffffffffffffffffffff166129fc565b15612815578373ffffffffffffffffffffffffffffffffffffffff1663150b7a026126d5611ea2565b8786866040518563ffffffff1660e01b81526004016126f79493929190613701565b602060405180830381600087803b15801561271157600080fd5b505af192505050801561274257506040513d601f19601f8201168201806040525081019061273f9190612f28565b60015b6127c5573d8060008114612772576040519150601f19603f3d011682016040523d82523d6000602084013e612777565b606091505b506000815114156127bd576040517f08c379a00000000000000000000000000000000000000000000000000000000081526004016127b490613804565b60405180910390fd5b805181602001fd5b63150b7a0260e01b7bffffffffffffffffffffffffffffffffffffffffffffffffffffffff1916817bffffffffffffffffffffffffffffffffffffffffffffffffffffffff19161491505061281a565b600190505b949350505050565b600073ffffffffffffffffffffffffffffffffffffffff168273ffffffffffffffffffffffffffffffffffffffff161415612892576040517f08c379a000000000000000000000000000000000000000000000000000000000815260040161288990613944565b60405180910390fd5b61289b81611e36565b156128db576040517f08c379a00000000000000000000000000000000000000000000000000000000081526004016128d290613864565b60405180910390fd5b6128e760008383612626565b6001600360008473ffffffffffffffffffffffffffffffffffffffff1673ffffffffffffffffffffffffffffffffffffffff16815260200190815260200160002060008282546129379190613b51565b92505081905550816002600083815260200190815260200160002060006101000a81548173ffffffffffffffffffffffffffffffffffffffff021916908373ffffffffffffffffffffffffffffffffffffffff160217905550808273ffffffffffffffffffffffffffffffffffffffff16600073ffffffffffffffffffffffffffffffffffffffff167fddf252ad1be2c89b69c2b068fc378daa952ba7f163c4a11628f55a4df523b3ef60405160405180910390a46129f86000838361262b565b5050565b6000808273ffffffffffffffffffffffffffffffffffffffff163b119050919050565b828054612a2b90613ca3565b90600052602060002090601f016020900481019282612a4d5760008555612a94565b82601f10612a6657805160ff1916838001178555612a94565b82800160010185558215612a94579182015b82811115612a93578251825591602001919060010190612a78565b5b509050612aa19190612af1565b5090565b6040518060c0016040528060008152602001606081526020016060815260200160608152602001600073ffffffffffffffffffffffffffffffffffffffff168152602001606081525090565b5b80821115612b0a576000816000905550600101612af2565b5090565b6000612b21612b1c84613a86565b613a61565b905082815260208101848484011115612b3957600080fd5b612b44848285613c61565b509392505050565b6000612b5f612b5a84613ab7565b613a61565b905082815260208101848484011115612b7757600080fd5b612b82848285613c61565b509392505050565b600081359050612b9981614312565b92915050565b600081359050612bae81614329565b92915050565b600081359050612bc381614340565b92915050565b600081359050612bd881614357565b92915050565b600081519050612bed81614357565b92915050565b600082601f830112612c0457600080fd5b8135612c14848260208601612b0e565b91505092915050565b600082601f830112612c2e57600080fd5b8135612c3e848260208601612b4c565b91505092915050565b600060c08284031215612c5957600080fd5b612c6360c0613a61565b90506000612c7384828501612d43565b600083015250602082013567ffffffffffffffff811115612c9357600080fd5b612c9f84828501612c1d565b602083015250604082013567ffffffffffffffff811115612cbf57600080fd5b612ccb84828501612c1d565b604083015250606082013567ffffffffffffffff811115612ceb57600080fd5b612cf784828501612c1d565b6060830152506080612d0b84828501612b9f565b60808301525060a082013567ffffffffffffffff811115612d2b57600080fd5b612d3784828501612c1d565b60a08301525092915050565b600081359050612d528161436e565b92915050565b600060208284031215612d6a57600080fd5b6000612d7884828501612b8a565b91505092915050565b60008060408385031215612d9457600080fd5b6000612da285828601612b8a565b9250506020612db385828601612b8a565b9150509250929050565b600080600060608486031215612dd257600080fd5b6000612de086828701612b8a565b9350506020612df186828701612b8a565b9250506040612e0286828701612d43565b9150509250925092565b60008060008060808587031215612e2257600080fd5b6000612e3087828801612b8a565b9450506020612e4187828801612b8a565b9350506040612e5287828801612d43565b925050606085013567ffffffffffffffff811115612e6f57600080fd5b612e7b87828801612bf3565b91505092959194509250565b60008060408385031215612e9a57600080fd5b6000612ea885828601612b8a565b9250506020612eb985828601612bb4565b9150509250929050565b60008060408385031215612ed657600080fd5b6000612ee485828601612b8a565b9250506020612ef585828601612d43565b9150509250929050565b600060208284031215612f1157600080fd5b6000612f1f84828501612bc9565b91505092915050565b600060208284031215612f3a57600080fd5b6000612f4884828501612bde565b91505092915050565b600060208284031215612f6357600080fd5b600082013567ffffffffffffffff811115612f7d57600080fd5b612f8984828501612c1d565b91505092915050565b60008060408385031215612fa557600080fd5b600083013567ffffffffffffffff811115612fbf57600080fd5b612fcb85828601612c1d565b925050602083013567ffffffffffffffff811115612fe857600080fd5b612ff485828601612c1d565b9150509250929050565b6000806000806080858703121561301457600080fd5b600085013567ffffffffffffffff81111561302e57600080fd5b61303a87828801612c1d565b945050602085013567ffffffffffffffff81111561305757600080fd5b61306387828801612c1d565b935050604085013567ffffffffffffffff81111561308057600080fd5b61308c87828801612c1d565b925050606085013567ffffffffffffffff8111156130a957600080fd5b6130b587828801612c1d565b91505092959194509250565b600080604083850312156130d457600080fd5b600083013567ffffffffffffffff8111156130ee57600080fd5b6130fa85828601612c47565b925050602083013567ffffffffffffffff81111561311757600080fd5b61312385828601612c1d565b9150509250929050565b60006020828403121561313f57600080fd5b600061314d84828501612d43565b91505092915050565b61315f81613bed565b82525050565b61316e81613bdb565b82525050565b61317d81613bff565b82525050565b600061318e82613afd565b6131988185613b13565b93506131a8818560208601613c70565b6131b181613ddc565b840191505092915050565b60006131c782613b08565b6131d18185613b24565b93506131e1818560208601613c70565b6131ea81613ddc565b840191505092915050565b600061320082613b08565b61320a8185613b35565b935061321a818560208601613c70565b61322381613ddc565b840191505092915050565b600061323982613b08565b6132438185613b46565b9350613253818560208601613c70565b80840191505092915050565b6000815461326c81613ca3565b6132768186613b46565b9450600182166000811461329157600181146132a2576132d5565b60ff198316865281860193506132d5565b6132ab85613ae8565b60005b838110156132cd578154818901526001820191506020810190506132ae565b838801955050505b50505092915050565b60006132eb601c83613b35565b91506132f682613ded565b602082019050919050565b600061330e603283613b35565b915061331982613e16565b604082019050919050565b6000613331602683613b35565b915061333c82613e65565b604082019050919050565b6000613354602583613b35565b915061335f82613eb4565b604082019050919050565b6000613377601c83613b35565b915061338282613f03565b602082019050919050565b600061339a600983613b46565b91506133a582613f2c565b600982019050919050565b60006133bd600383613b46565b91506133c882613f55565b600382019050919050565b60006133e0602483613b35565b91506133eb82613f7e565b604082019050919050565b6000613403601983613b35565b915061340e82613fcd565b602082019050919050565b6000613426602c83613b35565b915061343182613ff6565b604082019050919050565b6000613449603883613b35565b915061345482614045565b604082019050919050565b600061346c602a83613b35565b915061347782614094565b604082019050919050565b600061348f602983613b35565b915061349a826140e3565b604082019050919050565b60006134b2602083613b35565b91506134bd82614132565b602082019050919050565b60006134d5602c83613b35565b91506134e08261415b565b604082019050919050565b60006134f8602083613b35565b9150613503826141aa565b602082019050919050565b600061351b602f83613b35565b9150613526826141d3565b604082019050919050565b600061353e600583613b46565b915061354982614222565b600582019050919050565b6000613561602183613b35565b915061356c8261424b565b604082019050919050565b6000613584603183613b35565b915061358f8261429a565b604082019050919050565b60006135a7601f83613b35565b91506135b2826142e9565b602082019050919050565b600060c0830160008301516135d5600086018261365b565b50602083015184820360208601526135ed82826131bc565b9150506040830151848203604086015261360782826131bc565b9150506060830151848203606086015261362182826131bc565b91505060808301516136366080860182613156565b5060a083015184820360a086015261364e82826131bc565b9150508091505092915050565b61366481613c57565b82525050565b61367381613c57565b82525050565b6000613685828461322e565b915081905092915050565b600061369c828461325f565b915081905092915050565b60006136b28261338d565b9150819050919050565b60006136c7826133b0565b9150819050919050565b60006136dc82613531565b9150819050919050565b60006020820190506136fb6000830184613165565b92915050565b60006080820190506137166000830187613165565b6137236020830186613165565b613730604083018561366a565b81810360608301526137428184613183565b905095945050505050565b60006020820190506137626000830184613174565b92915050565b6000602082019050818103600083015261378281846131f5565b905092915050565b600060808201905081810360008301526137a481876131f5565b905081810360208301526137b881866131f5565b90506137c76040830185613165565b81810360608301526137d981846131f5565b905095945050505050565b600060208201905081810360008301526137fd816132de565b9050919050565b6000602082019050818103600083015261381d81613301565b9050919050565b6000602082019050818103600083015261383d81613324565b9050919050565b6000602082019050818103600083015261385d81613347565b9050919050565b6000602082019050818103600083015261387d8161336a565b9050919050565b6000602082019050818103600083015261389d816133d3565b9050919050565b600060208201905081810360008301526138bd816133f6565b9050919050565b600060208201905081810360008301526138dd81613419565b9050919050565b600060208201905081810360008301526138fd8161343c565b9050919050565b6000602082019050818103600083015261391d8161345f565b9050919050565b6000602082019050818103600083015261393d81613482565b9050919050565b6000602082019050818103600083015261395d816134a5565b9050919050565b6000602082019050818103600083015261397d816134c8565b9050919050565b6000602082019050818103600083015261399d816134eb565b9050919050565b600060208201905081810360008301526139bd8161350e565b9050919050565b600060208201905081810360008301526139dd81613554565b9050919050565b600060208201905081810360008301526139fd81613577565b9050919050565b60006020820190508181036000830152613a1d8161359a565b9050919050565b60006020820190508181036000830152613a3e81846135bd565b905092915050565b6000602082019050613a5b600083018461366a565b92915050565b6000613a6b613a7c565b9050613a778282613cd5565b919050565b6000604051905090565b600067ffffffffffffffff821115613aa157613aa0613dad565b5b613aaa82613ddc565b9050602081019050919050565b600067ffffffffffffffff821115613ad257613ad1613dad565b5b613adb82613ddc565b9050602081019050919050565b60008190508160005260206000209050919050565b600081519050919050565b600081519050919050565b600082825260208201905092915050565b600082825260208201905092915050565b600082825260208201905092915050565b600081905092915050565b6000613b5c82613c57565b9150613b6783613c57565b9250827fffffffffffffffffffffffffffffffffffffffffffffffffffffffffffffffff03821115613b9c57613b9b613d4f565b5b828201905092915050565b6000613bb282613c57565b9150613bbd83613c57565b925082821015613bd057613bcf613d4f565b5b828203905092915050565b6000613be682613c37565b9050919050565b6000613bf882613c37565b9050919050565b60008115159050919050565b60007fffffffff0000000000000000000000000000000000000000000000000000000082169050919050565b600073ffffffffffffffffffffffffffffffffffffffff82169050919050565b6000819050919050565b82818337600083830152505050565b60005b83811015613c8e578082015181840152602081019050613c73565b83811115613c9d576000848401525b50505050565b60006002820490506001821680613cbb57607f821691505b60208210811415613ccf57613cce613d7e565b5b50919050565b613cde82613ddc565b810181811067ffffffffffffffff82111715613cfd57613cfc613dad565b5b80604052505050565b6000613d1182613c57565b91507fffffffffffffffffffffffffffffffffffffffffffffffffffffffffffffffff821415613d4457613d43613d4f565b5b600182019050919050565b7f4e487b7100000000000000000000000000000000000000000000000000000000600052601160045260246000fd5b7f4e487b7100000000000000000000000000000000000000000000000000000000600052602260045260246000fd5b7f4e487b7100000000000000000000000000000000000000000000000000000000600052604160045260246000fd5b6000601f19601f8301169050919050565b7f7375626d69742066656520746f2063726561746520612073746f726500000000600082015250565b7f4552433732313a207472616e7366657220746f206e6f6e20455243373231526560008201527f63656976657220696d706c656d656e7465720000000000000000000000000000602082015250565b7f4f776e61626c653a206e6577206f776e657220697320746865207a65726f206160008201527f6464726573730000000000000000000000000000000000000000000000000000602082015250565b7f4552433732313a207472616e736665722066726f6d20696e636f72726563742060008201527f6f776e6572000000000000000000000000000000000000000000000000000000602082015250565b7f4552433732313a20746f6b656e20616c7265616479206d696e74656400000000600082015250565b7f756e6c696d697465640000000000000000000000000000000000000000000000600082015250565b7f70726f0000000000000000000000000000000000000000000000000000000000600082015250565b7f4552433732313a207472616e7366657220746f20746865207a65726f2061646460008201527f7265737300000000000000000000000000000000000000000000000000000000602082015250565b7f4552433732313a20617070726f766520746f2063616c6c657200000000000000600082015250565b7f4552433732313a206f70657261746f7220717565727920666f72206e6f6e657860008201527f697374656e7420746f6b656e0000000000000000000000000000000000000000602082015250565b7f4552433732313a20617070726f76652063616c6c6572206973206e6f74206f7760008201527f6e6572206e6f7220617070726f76656420666f7220616c6c0000000000000000602082015250565b7f4552433732313a2062616c616e636520717565727920666f7220746865207a6560008201527f726f206164647265737300000000000000000000000000000000000000000000602082015250565b7f4552433732313a206f776e657220717565727920666f72206e6f6e657869737460008201527f656e7420746f6b656e0000000000000000000000000000000000000000000000602082015250565b7f4552433732313a206d696e7420746f20746865207a65726f2061646472657373600082015250565b7f4552433732313a20617070726f76656420717565727920666f72206e6f6e657860008201527f697374656e7420746f6b656e0000000000000000000000000000000000000000602082015250565b7f4f776e61626c653a2063616c6c6572206973206e6f7420746865206f776e6572600082015250565b7f4552433732314d657461646174613a2055524920717565727920666f72206e6f60008201527f6e6578697374656e7420746f6b656e0000000000000000000000000000000000602082015250565b7f6261736963000000000000000000000000000000000000000000000000000000600082015250565b7f4552433732313a20617070726f76616c20746f2063757272656e74206f776e6560008201527f7200000000000000000000000000000000000000000000000000000000000000602082015250565b7f4552433732313a207472616e736665722063616c6c6572206973206e6f74206f60008201527f776e6572206e6f7220617070726f766564000000000000000000000000000000602082015250565b7f5265656e7472616e637947756172643a207265656e7472616e742063616c6c00600082015250565b61431b81613bdb565b811461432657600080fd5b50565b61433281613bed565b811461433d57600080fd5b50565b61434981613bff565b811461435457600080fd5b50565b61436081613c0b565b811461436b57600080fd5b50565b61437781613c57565b811461438257600080fd5b5056fea2646970667358221220e1da48939f7024bdca894cb0e20ea60d98c83e6c2643e6403f5231e34964475c64736f6c63430008040033",
  "linkReferences": {},
  "deployedLinkReferences": {}
}