{
  "_format": "hh-sol-artifact-1",
  "contractName": "Marketplace",
  "sourceName": "contracts/Marketplace.sol",
  "abi": [
    {
      "inputs": [],
      "stateMutability": "nonpayable",
      "type": "constructor"
    },
    {
      "anonymous": false,
      "inputs": [
        {
          "indexed": true,
          "internalType": "uint256",
          "name": "itemId",
          "type": "uint256"
        },
        {
          "indexed": false,
          "internalType": "uint256",
          "name": "tokenId",
          "type": "uint256"
        },
        {
          "indexed": false,
          "internalType": "uint256",
          "name": "price",
          "type": "uint256"
        },
        {
          "indexed": false,
          "internalType": "string",
          "name": "subdomain",
          "type": "string"
        },
        {
          "indexed": true,
          "internalType": "address",
          "name": "nftContract",
          "type": "address"
        },
        {
          "indexed": true,
          "internalType": "address",
          "name": "owner",
          "type": "address"
        },
        {
          "indexed": false,
          "internalType": "bool",
          "name": "sold",
          "type": "bool"
        },
        {
          "indexed": false,
          "internalType": "bool",
          "name": "active",
          "type": "bool"
        }
      ],
      "name": "ListingCreated",
      "type": "event"
    },
    {
      "anonymous": false,
      "inputs": [
        {
          "indexed": true,
          "internalType": "address",
          "name": "previousOwner",
          "type": "address"
        },
        {
          "indexed": true,
          "internalType": "address",
          "name": "newOwner",
          "type": "address"
        }
      ],
      "name": "OwnershipTransferred",
      "type": "event"
    },
    {
      "inputs": [
        {
          "internalType": "address",
          "name": "nftContract",
          "type": "address"
        },
        {
          "internalType": "uint256",
          "name": "itemId",
          "type": "uint256"
        }
      ],
      "name": "buyNow",
      "outputs": [],
      "stateMutability": "payable",
      "type": "function"
    },
    {
      "inputs": [
        {
          "internalType": "uint256",
          "name": "itemId",
          "type": "uint256"
        }
      ],
      "name": "cancelListing",
      "outputs": [],
      "stateMutability": "payable",
      "type": "function"
    },
    {
      "inputs": [
        {
          "internalType": "string",
          "name": "subdomain",
          "type": "string"
        },
        {
          "internalType": "uint256",
          "name": "tokenId",
          "type": "uint256"
        },
        {
          "internalType": "uint256",
          "name": "priceIn",
          "type": "uint256"
        },
        {
          "internalType": "address",
          "name": "nftContract",
          "type": "address"
        }
      ],
      "name": "createListing",
      "outputs": [],
      "stateMutability": "payable",
      "type": "function"
    },
    {
      "inputs": [],
      "name": "fetchListings",
      "outputs": [
        {
          "components": [
            {
              "internalType": "uint256",
              "name": "itemId",
              "type": "uint256"
            },
            {
              "internalType": "uint256",
              "name": "tokenId",
              "type": "uint256"
            },
            {
              "internalType": "uint256",
              "name": "price",
              "type": "uint256"
            },
            {
              "internalType": "string",
              "name": "subdomain",
              "type": "string"
            },
            {
              "internalType": "address",
              "name": "nftContract",
              "type": "address"
            },
            {
              "internalType": "address payable",
              "name": "owner",
              "type": "address"
            },
            {
              "internalType": "bool",
              "name": "sold",
              "type": "bool"
            },
            {
              "internalType": "bool",
              "name": "active",
              "type": "bool"
            }
          ],
          "internalType": "struct Marketplace.Listing[]",
          "name": "",
          "type": "tuple[]"
        }
      ],
      "stateMutability": "view",
      "type": "function"
    },
    {
      "inputs": [],
      "name": "getFee",
      "outputs": [
        {
          "internalType": "uint256",
          "name": "",
          "type": "uint256"
        }
      ],
      "stateMutability": "view",
      "type": "function"
    },
    {
      "inputs": [
        {
          "internalType": "uint256",
          "name": "id",
          "type": "uint256"
        }
      ],
      "name": "getListing",
      "outputs": [
        {
          "components": [
            {
              "internalType": "uint256",
              "name": "itemId",
              "type": "uint256"
            },
            {
              "internalType": "uint256",
              "name": "tokenId",
              "type": "uint256"
            },
            {
              "internalType": "uint256",
              "name": "price",
              "type": "uint256"
            },
            {
              "internalType": "string",
              "name": "subdomain",
              "type": "string"
            },
            {
              "internalType": "address",
              "name": "nftContract",
              "type": "address"
            },
            {
              "internalType": "address payable",
              "name": "owner",
              "type": "address"
            },
            {
              "internalType": "bool",
              "name": "sold",
              "type": "bool"
            },
            {
              "internalType": "bool",
              "name": "active",
              "type": "bool"
            }
          ],
          "internalType": "struct Marketplace.Listing",
          "name": "",
          "type": "tuple"
        }
      ],
      "stateMutability": "view",
      "type": "function"
    },
    {
      "inputs": [
        {
          "internalType": "string",
          "name": "subdomainIn",
          "type": "string"
        }
      ],
      "name": "getListingIdsBySubdomain",
      "outputs": [
        {
          "internalType": "uint256[]",
          "name": "",
          "type": "uint256[]"
        }
      ],
      "stateMutability": "view",
      "type": "function"
    },
    {
      "inputs": [
        {
          "internalType": "uint256",
          "name": "id",
          "type": "uint256"
        }
      ],
      "name": "getListingPrice",
      "outputs": [
        {
          "internalType": "uint256",
          "name": "",
          "type": "uint256"
        }
      ],
      "stateMutability": "view",
      "type": "function"
    },
    {
      "inputs": [],
      "name": "owner",
      "outputs": [
        {
          "internalType": "address",
          "name": "",
          "type": "address"
        }
      ],
      "stateMutability": "view",
      "type": "function"
    },
    {
      "inputs": [
        {
          "internalType": "uint256",
          "name": "tokenId",
          "type": "uint256"
        },
        {
          "internalType": "uint256",
          "name": "price",
          "type": "uint256"
        },
        {
          "internalType": "address",
          "name": "nftContract",
          "type": "address"
        }
      ],
      "name": "relistToken",
      "outputs": [],
      "stateMutability": "payable",
      "type": "function"
    },
    {
      "inputs": [],
      "name": "renounceOwnership",
      "outputs": [],
      "stateMutability": "nonpayable",
      "type": "function"
    },
    {
      "inputs": [
        {
          "internalType": "address",
          "name": "newOwner",
          "type": "address"
        }
      ],
      "name": "transferOwnership",
      "outputs": [],
      "stateMutability": "nonpayable",
      "type": "function"
    },
    {
      "inputs": [
        {
          "internalType": "uint256",
          "name": "_fee",
          "type": "uint256"
        }
      ],
      "name": "updateFee",
      "outputs": [],
      "stateMutability": "payable",
      "type": "function"
    }
  ],
  "bytecode": "0x608060405266038d7ea4c680006004553480156200001c57600080fd5b50600160008190555062000045620000396200004b60201b60201c565b6200005360201b60201c565b62000119565b600033905090565b6000600160009054906101000a900473ffffffffffffffffffffffffffffffffffffffff16905081600160006101000a81548173ffffffffffffffffffffffffffffffffffffffff021916908373ffffffffffffffffffffffffffffffffffffffff1602179055508173ffffffffffffffffffffffffffffffffffffffff168173ffffffffffffffffffffffffffffffffffffffff167f8be0079c531659141344cd1fd0a4f28419497f9722a3daafe3b4186f6b6457e060405160405180910390a35050565b61280280620001296000396000f3fe6080604052600436106100c25760003560e01c80637bc71f781161007f578063a80f99ec11610059578063a80f99ec1461020f578063ced72f871461023a578063d6077fbf14610265578063f2fde38b146102a2576100c2565b80637bc71f78146101ac5780638da5cb5b146101c85780639012c4a8146101f3576100c2565b80630e4bdc90146100c7578063107a274a146100e35780631f17600b14610120578063305a67a81461015d578063715018a6146101795780637834a0bf14610190575b600080fd5b6100e160048036038101906100dc91906118c5565b6102cb565b005b3480156100ef57600080fd5b5061010a600480360381019061010591906119bd565b610639565b604051610117919061212e565b60405180910390f35b34801561012c57600080fd5b5061014760048036038101906101429190611901565b6107f9565b6040516101549190611fac565b60405180910390f35b610177600480360381019061017291906119bd565b61086f565b005b34801561018557600080fd5b5061018e610a20565b005b6101aa60048036038101906101a59190611942565b610aa8565b005b6101c660048036038101906101c191906119e6565b610e16565b005b3480156101d457600080fd5b506101dd611024565b6040516101ea9190611f38565b60405180910390f35b61020d600480360381019061020891906119bd565b61104e565b005b34801561021b57600080fd5b506102246110d4565b6040516102319190611f8a565b60405180910390f35b34801561024657600080fd5b5061024f611442565b60405161025c9190612150565b60405180910390f35b34801561027157600080fd5b5061028c600480360381019061028791906119bd565b61144c565b6040516102999190612150565b60405180910390f35b3480156102ae57600080fd5b506102c960048036038101906102c4919061189c565b61146c565b005b60026000541415610311576040517f08c379a00000000000000000000000000000000000000000000000000000000081526004016103089061210e565b60405180910390fd5b600260008190555060006005600083815260200190815260200160002060020154670de0b6b3a7640000610345919061231b565b90506000600560008481526020019081526020016000206001015490508134146103a4576040517f08c379a000000000000000000000000000000000000000000000000000000000815260040161039b9061206e565b60405180910390fd5b600015156005600085815260200190815260200160002060050160149054906101000a900460ff1615151461040e576040517f08c379a00000000000000000000000000000000000000000000000000000000081526004016104059061204e565b60405180910390fd5b600115156005600085815260200190815260200160002060050160159054906101000a900460ff16151514610478576040517f08c379a000000000000000000000000000000000000000000000000000000000815260040161046f90611fce565b60405180910390fd5b60016005600085815260200190815260200160002060050160146101000a81548160ff0219169083151502179055506104b16003611564565b6005600084815260200190815260200160002060050160009054906101000a900473ffffffffffffffffffffffffffffffffffffffff1673ffffffffffffffffffffffffffffffffffffffff166108fc349081150290604051600060405180830381858888f1935050505015801561052d573d6000803e3d6000fd5b508373ffffffffffffffffffffffffffffffffffffffff166323b872dd3033846040518463ffffffff1660e01b815260040161056b93929190611f53565b600060405180830381600087803b15801561058557600080fd5b505af1158015610599573d6000803e3d6000fd5b50505050336005600085815260200190815260200160002060050160006101000a81548173ffffffffffffffffffffffffffffffffffffffff021916908373ffffffffffffffffffffffffffffffffffffffff16021790555060006005600085815260200190815260200160002060050160156101000a81548160ff02191690831515021790555061062b6003611564565b505060016000819055505050565b6106416116b2565b600560008381526020019081526020016000206040518061010001604052908160008201548152602001600182015481526020016002820154815260200160038201805461068e90612445565b80601f01602080910402602001604051908101604052809291908181526020018280546106ba90612445565b80156107075780601f106106dc57610100808354040283529160200191610707565b820191906000526020600020905b8154815290600101906020018083116106ea57829003601f168201915b505050505081526020016004820160009054906101000a900473ffffffffffffffffffffffffffffffffffffffff1673ffffffffffffffffffffffffffffffffffffffff1673ffffffffffffffffffffffffffffffffffffffff1681526020016005820160009054906101000a900473ffffffffffffffffffffffffffffffffffffffff1673ffffffffffffffffffffffffffffffffffffffff1673ffffffffffffffffffffffffffffffffffffffff1681526020016005820160149054906101000a900460ff161515151581526020016005820160159054906101000a900460ff1615151515815250509050919050565b606060068260405161080b9190611f21565b908152602001604051809103902080548060200260200160405190810160405280929190818152602001828054801561086357602002820191906000526020600020905b81548152602001906001019080831161084f575b50505050509050919050565b600260005414156108b5576040517f08c379a00000000000000000000000000000000000000000000000000000000081526004016108ac9061210e565b60405180910390fd5b60026000819055506005600082815260200190815260200160002060050160009054906101000a900473ffffffffffffffffffffffffffffffffffffffff1673ffffffffffffffffffffffffffffffffffffffff163373ffffffffffffffffffffffffffffffffffffffff1614610961576040517f08c379a0000000000000000000000000000000000000000000000000000000008152600401610958906120ee565b60405180910390fd5b600560008281526020019081526020016000206000808201600090556001820160009055600282016000905560038201600061099d9190611727565b6004820160006101000a81549073ffffffffffffffffffffffffffffffffffffffff02191690556005820160006101000a81549073ffffffffffffffffffffffffffffffffffffffff02191690556005820160146101000a81549060ff02191690556005820160156101000a81549060ff02191690555050600160008190555050565b610a2861157a565b73ffffffffffffffffffffffffffffffffffffffff16610a46611024565b73ffffffffffffffffffffffffffffffffffffffff1614610a9c576040517f08c379a0000000000000000000000000000000000000000000000000000000008152600401610a93906120ae565b60405180910390fd5b610aa66000611582565b565b60026000541415610aee576040517f08c379a0000000000000000000000000000000000000000000000000000000008152600401610ae59061210e565b60405180910390fd5b60026000819055506004543414610b3a576040517f08c379a0000000000000000000000000000000000000000000000000000000008152600401610b319061208e565b60405180910390fd5b610b446002611564565b6000610b506002611648565b905060008390506040518061010001604052808381526020018681526020018281526020018781526020018473ffffffffffffffffffffffffffffffffffffffff1681526020013373ffffffffffffffffffffffffffffffffffffffff16815260200160001515815260200160011515815250600560008481526020019081526020016000206000820151816000015560208201518160010155604082015181600201556060820151816003019080519060200190610c10929190611767565b5060808201518160040160006101000a81548173ffffffffffffffffffffffffffffffffffffffff021916908373ffffffffffffffffffffffffffffffffffffffff16021790555060a08201518160050160006101000a81548173ffffffffffffffffffffffffffffffffffffffff021916908373ffffffffffffffffffffffffffffffffffffffff16021790555060c08201518160050160146101000a81548160ff02191690831515021790555060e08201518160050160156101000a81548160ff0219169083151502179055509050508273ffffffffffffffffffffffffffffffffffffffff166323b872dd3330886040518463ffffffff1660e01b8152600401610d1f93929190611f53565b600060405180830381600087803b158015610d3957600080fd5b505af1158015610d4d573d6000803e3d6000fd5b50505050600686604051610d619190611f21565b90815260200160405180910390208290806001815401808255809150506001900390600052602060002001600090919091909150553373ffffffffffffffffffffffffffffffffffffffff168373ffffffffffffffffffffffffffffffffffffffff16837f35f37b604f3adfcf05dbb34225b7636fa7138d2c082ddcfc8e913915004c58b388858b60006001604051610dfe95949392919061216b565b60405180910390a45050600160008190555050505050565b3373ffffffffffffffffffffffffffffffffffffffff166005600085815260200190815260200160002060050160009054906101000a900473ffffffffffffffffffffffffffffffffffffffff1673ffffffffffffffffffffffffffffffffffffffff1614610eba576040517f08c379a0000000000000000000000000000000000000000000000000000000008152600401610eb190611fee565b60405180910390fd5b6004543414610efe576040517f08c379a0000000000000000000000000000000000000000000000000000000008152600401610ef5906120ce565b60405180910390fd5b60006005600085815260200190815260200160002060050160146101000a81548160ff02191690831515021790555060006005600085815260200190815260200160002060050160156101000a81548160ff02191690831515021790555081600560008581526020019081526020016000206002018190555060016005600085815260200190815260200160002060050160156101000a81548160ff021916908315150217905550610fb06003611656565b8073ffffffffffffffffffffffffffffffffffffffff166323b872dd3330866040518463ffffffff1660e01b8152600401610fed93929190611f53565b600060405180830381600087803b15801561100757600080fd5b505af115801561101b573d6000803e3d6000fd5b50505050505050565b6000600160009054906101000a900473ffffffffffffffffffffffffffffffffffffffff16905090565b61105661157a565b73ffffffffffffffffffffffffffffffffffffffff16611074611024565b73ffffffffffffffffffffffffffffffffffffffff16146110ca576040517f08c379a00000000000000000000000000000000000000000000000000000000081526004016110c1906120ae565b60405180910390fd5b8060048190555050565b606060006110e26002611648565b905060006110f06003611648565b6110fa6002611648565b6111049190612375565b90506000808267ffffffffffffffff811115611149577f4e487b7100000000000000000000000000000000000000000000000000000000600052604160045260246000fd5b60405190808252806020026020018201604052801561118257816020015b61116f6116b2565b8152602001906001900390816111675790505b50905060005b8481101561143757600073ffffffffffffffffffffffffffffffffffffffff16600560006001846111b991906122c5565b815260200190815260200160002060050160009054906101000a900473ffffffffffffffffffffffffffffffffffffffff1673ffffffffffffffffffffffffffffffffffffffff16141561142457600060018261121691906122c5565b90506000600560008381526020019081526020016000209050806040518061010001604052908160008201548152602001600182015481526020016002820154815260200160038201805461126a90612445565b80601f016020809104026020016040519081016040528092919081815260200182805461129690612445565b80156112e35780601f106112b8576101008083540402835291602001916112e3565b820191906000526020600020905b8154815290600101906020018083116112c657829003601f168201915b505050505081526020016004820160009054906101000a900473ffffffffffffffffffffffffffffffffffffffff1673ffffffffffffffffffffffffffffffffffffffff1673ffffffffffffffffffffffffffffffffffffffff1681526020016005820160009054906101000a900473ffffffffffffffffffffffffffffffffffffffff1673ffffffffffffffffffffffffffffffffffffffff1673ffffffffffffffffffffffffffffffffffffffff1681526020016005820160149054906101000a900460ff161515151581526020016005820160159054906101000a900460ff161515151581525050848681518110611407577f4e487b7100000000000000000000000000000000000000000000000000000000600052603260045260246000fd5b602002602001018190525060018561141f91906122c5565b945050505b808061142f906124a8565b915050611188565b508094505050505090565b6000600454905090565b600060056000838152602001908152602001600020600201549050919050565b61147461157a565b73ffffffffffffffffffffffffffffffffffffffff16611492611024565b73ffffffffffffffffffffffffffffffffffffffff16146114e8576040517f08c379a00000000000000000000000000000000000000000000000000000000081526004016114df906120ae565b60405180910390fd5b600073ffffffffffffffffffffffffffffffffffffffff168173ffffffffffffffffffffffffffffffffffffffff161415611558576040517f08c379a000000000000000000000000000000000000000000000000000000000815260040161154f9061202e565b60405180910390fd5b61156181611582565b50565b6001816000016000828254019250508190555050565b600033905090565b6000600160009054906101000a900473ffffffffffffffffffffffffffffffffffffffff16905081600160006101000a81548173ffffffffffffffffffffffffffffffffffffffff021916908373ffffffffffffffffffffffffffffffffffffffff1602179055508173ffffffffffffffffffffffffffffffffffffffff168173ffffffffffffffffffffffffffffffffffffffff167f8be0079c531659141344cd1fd0a4f28419497f9722a3daafe3b4186f6b6457e060405160405180910390a35050565b600081600001549050919050565b600081600001549050600081116116a2576040517f08c379a00000000000000000000000000000000000000000000000000000000081526004016116999061200e565b60405180910390fd5b6001810382600001819055505050565b60405180610100016040528060008152602001600081526020016000815260200160608152602001600073ffffffffffffffffffffffffffffffffffffffff168152602001600073ffffffffffffffffffffffffffffffffffffffff1681526020016000151581526020016000151581525090565b50805461173390612445565b6000825580601f106117455750611764565b601f01602090049060005260206000209081019061176391906117ed565b5b50565b82805461177390612445565b90600052602060002090601f01602090048101928261179557600085556117dc565b82601f106117ae57805160ff19168380011785556117dc565b828001600101855582156117dc579182015b828111156117db5782518255916020019190600101906117c0565b5b5090506117e991906117ed565b5090565b5b808211156118065760008160009055506001016117ee565b5090565b600061181d611818846121ea565b6121c5565b90508281526020810184848401111561183557600080fd5b611840848285612403565b509392505050565b6000813590506118578161279e565b92915050565b600082601f83011261186e57600080fd5b813561187e84826020860161180a565b91505092915050565b600081359050611896816127b5565b92915050565b6000602082840312156118ae57600080fd5b60006118bc84828501611848565b91505092915050565b600080604083850312156118d857600080fd5b60006118e685828601611848565b92505060206118f785828601611887565b9150509250929050565b60006020828403121561191357600080fd5b600082013567ffffffffffffffff81111561192d57600080fd5b6119398482850161185d565b91505092915050565b6000806000806080858703121561195857600080fd5b600085013567ffffffffffffffff81111561197257600080fd5b61197e8782880161185d565b945050602061198f87828801611887565b93505060406119a087828801611887565b92505060606119b187828801611848565b91505092959194509250565b6000602082840312156119cf57600080fd5b60006119dd84828501611887565b91505092915050565b6000806000606084860312156119fb57600080fd5b6000611a0986828701611887565b9350506020611a1a86828701611887565b9250506040611a2b86828701611848565b9150509250925092565b6000611a418383611da3565b905092915050565b6000611a558383611f03565b60208301905092915050565b611a6a816123bb565b82525050565b611a79816123a9565b82525050565b611a88816123a9565b82525050565b6000611a998261223b565b611aa38185612276565b935083602082028501611ab58561221b565b8060005b85811015611af15784840389528151611ad28582611a35565b9450611add8361225c565b925060208a01995050600181019050611ab9565b50829750879550505050505092915050565b6000611b0e82612246565b611b188185612287565b9350611b238361222b565b8060005b83811015611b54578151611b3b8882611a49565b9750611b4683612269565b925050600181019050611b27565b5085935050505092915050565b611b6a816123cd565b82525050565b611b79816123cd565b82525050565b6000611b8a82612251565b611b948185612298565b9350611ba4818560208601612412565b611bad8161257e565b840191505092915050565b6000611bc382612251565b611bcd81856122a9565b9350611bdd818560208601612412565b611be68161257e565b840191505092915050565b6000611bfc82612251565b611c0681856122ba565b9350611c16818560208601612412565b80840191505092915050565b6000611c2f6020836122a9565b9150611c3a8261258f565b602082019050919050565b6000611c526015836122a9565b9150611c5d826125b8565b602082019050919050565b6000611c75601b836122a9565b9150611c80826125e1565b602082019050919050565b6000611c986026836122a9565b9150611ca38261260a565b604082019050919050565b6000611cbb601f836122a9565b9150611cc682612659565b602082019050919050565b6000611cde6040836122a9565b9150611ce982612682565b604082019050919050565b6000611d016016836122a9565b9150611d0c826126d1565b602082019050919050565b6000611d246020836122a9565b9150611d2f826126fa565b602082019050919050565b6000611d47601d836122a9565b9150611d5282612723565b602082019050919050565b6000611d6a6009836122a9565b9150611d758261274c565b602082019050919050565b6000611d8d601f836122a9565b9150611d9882612775565b602082019050919050565b600061010083016000830151611dbc6000860182611f03565b506020830151611dcf6020860182611f03565b506040830151611de26040860182611f03565b5060608301518482036060860152611dfa8282611b7f565b9150506080830151611e0f6080860182611a70565b5060a0830151611e2260a0860182611a61565b5060c0830151611e3560c0860182611b61565b5060e0830151611e4860e0860182611b61565b508091505092915050565b600061010083016000830151611e6c6000860182611f03565b506020830151611e7f6020860182611f03565b506040830151611e926040860182611f03565b5060608301518482036060860152611eaa8282611b7f565b9150506080830151611ebf6080860182611a70565b5060a0830151611ed260a0860182611a61565b5060c0830151611ee560c0860182611b61565b5060e0830151611ef860e0860182611b61565b508091505092915050565b611f0c816123f9565b82525050565b611f1b816123f9565b82525050565b6000611f2d8284611bf1565b915081905092915050565b6000602082019050611f4d6000830184611a7f565b92915050565b6000606082019050611f686000830186611a7f565b611f756020830185611a7f565b611f826040830184611f12565b949350505050565b60006020820190508181036000830152611fa48184611a8e565b905092915050565b60006020820190508181036000830152611fc68184611b03565b905092915050565b60006020820190508181036000830152611fe781611c22565b9050919050565b6000602082019050818103600083015261200781611c45565b9050919050565b6000602082019050818103600083015261202781611c68565b9050919050565b6000602082019050818103600083015261204781611c8b565b9050919050565b6000602082019050818103600083015261206781611cae565b9050919050565b6000602082019050818103600083015261208781611cd1565b9050919050565b600060208201905081810360008301526120a781611cf4565b9050919050565b600060208201905081810360008301526120c781611d17565b9050919050565b600060208201905081810360008301526120e781611d3a565b9050919050565b6000602082019050818103600083015261210781611d5d565b9050919050565b6000602082019050818103600083015261212781611d80565b9050919050565b600060208201905081810360008301526121488184611e53565b905092915050565b60006020820190506121656000830184611f12565b92915050565b600060a0820190506121806000830188611f12565b61218d6020830187611f12565b818103604083015261219f8186611bb8565b90506121ae6060830185611b70565b6121bb6080830184611b70565b9695505050505050565b60006121cf6121e0565b90506121db8282612477565b919050565b6000604051905090565b600067ffffffffffffffff8211156122055761220461254f565b5b61220e8261257e565b9050602081019050919050565b6000819050602082019050919050565b6000819050602082019050919050565b600081519050919050565b600081519050919050565b600081519050919050565b6000602082019050919050565b6000602082019050919050565b600082825260208201905092915050565b600082825260208201905092915050565b600082825260208201905092915050565b600082825260208201905092915050565b600081905092915050565b60006122d0826123f9565b91506122db836123f9565b9250827fffffffffffffffffffffffffffffffffffffffffffffffffffffffffffffffff038211156123105761230f6124f1565b5b828201905092915050565b6000612326826123f9565b9150612331836123f9565b9250817fffffffffffffffffffffffffffffffffffffffffffffffffffffffffffffffff048311821515161561236a576123696124f1565b5b828202905092915050565b6000612380826123f9565b915061238b836123f9565b92508282101561239e5761239d6124f1565b5b828203905092915050565b60006123b4826123d9565b9050919050565b60006123c6826123d9565b9050919050565b60008115159050919050565b600073ffffffffffffffffffffffffffffffffffffffff82169050919050565b6000819050919050565b82818337600083830152505050565b60005b83811015612430578082015181840152602081019050612415565b8381111561243f576000848401525b50505050565b6000600282049050600182168061245d57607f821691505b6020821081141561247157612470612520565b5b50919050565b6124808261257e565b810181811067ffffffffffffffff8211171561249f5761249e61254f565b5b80604052505050565b60006124b3826123f9565b91507fffffffffffffffffffffffffffffffffffffffffffffffffffffffffffffffff8214156124e6576124e56124f1565b5b600182019050919050565b7f4e487b7100000000000000000000000000000000000000000000000000000000600052601160045260246000fd5b7f4e487b7100000000000000000000000000000000000000000000000000000000600052602260045260246000fd5b7f4e487b7100000000000000000000000000000000000000000000000000000000600052604160045260246000fd5b6000601f19601f8301169050919050565b7f54686973206c697374696e67206973206e6f206c6f6e67657220616374697665600082015250565b7f4f6e6c79206f776e65722063616e2072656c6973740000000000000000000000600082015250565b7f436f756e7465723a2064656372656d656e74206f766572666c6f770000000000600082015250565b7f4f776e61626c653a206e6577206f776e657220697320746865207a65726f206160008201527f6464726573730000000000000000000000000000000000000000000000000000602082015250565b7f54686973206974656d2068617320616c7265616479206265656e20736f6c6400600082015250565b7f506c65617365207375626d6974207468652061736b696e67207072696365206960008201527f6e206f7264657220746f20636f6d706c65746520746865207075726368617365602082015250565b7f506c6561736520706179206c697374696e672066656500000000000000000000600082015250565b7f4f776e61626c653a2063616c6c6572206973206e6f7420746865206f776e6572600082015250565b7f506c65617365207375626d6974206c697374696e672066656520283129000000600082015250565b7f4e6f74206f776e65720000000000000000000000000000000000000000000000600082015250565b7f5265656e7472616e637947756172643a207265656e7472616e742063616c6c00600082015250565b6127a7816123a9565b81146127b257600080fd5b50565b6127be816123f9565b81146127c957600080fd5b5056fea26469706673582212205fb4e2414fc64f598d0af7fb51d19d5b45572c2c82a462a49f0bd8d3267fa5c064736f6c63430008040033",
  "linkReferences": {},
  "deployedLinkReferences": {}
}