{
  "_format": "hh-sol-artifact-1",
  "contractName": "Marketplace",
  "sourceName": "contracts/Marketplace.sol",
  "abi": [
    {
      "inputs": [],
      "stateMutability": "nonpayable",
      "type": "constructor"
    },
    {
      "anonymous": false,
      "inputs": [
        {
          "indexed": true,
          "internalType": "uint256",
          "name": "itemId",
          "type": "uint256"
        },
        {
          "indexed": false,
          "internalType": "uint256",
          "name": "tokenId",
          "type": "uint256"
        },
        {
          "indexed": false,
          "internalType": "uint256",
          "name": "price",
          "type": "uint256"
        },
        {
          "indexed": false,
          "internalType": "string",
          "name": "subdomain",
          "type": "string"
        },
        {
          "indexed": true,
          "internalType": "address",
          "name": "nftContract",
          "type": "address"
        },
        {
          "indexed": true,
          "internalType": "address",
          "name": "owner",
          "type": "address"
        },
        {
          "indexed": false,
          "internalType": "bool",
          "name": "sold",
          "type": "bool"
        },
        {
          "indexed": false,
          "internalType": "bool",
          "name": "active",
          "type": "bool"
        }
      ],
      "name": "ListingCreated",
      "type": "event"
    },
    {
      "anonymous": false,
      "inputs": [
        {
          "indexed": true,
          "internalType": "address",
          "name": "previousOwner",
          "type": "address"
        },
        {
          "indexed": true,
          "internalType": "address",
          "name": "newOwner",
          "type": "address"
        }
      ],
      "name": "OwnershipTransferred",
      "type": "event"
    },
    {
      "inputs": [
        {
          "internalType": "address",
          "name": "nftContract",
          "type": "address"
        },
        {
          "internalType": "uint256",
          "name": "itemId",
          "type": "uint256"
        }
      ],
      "name": "buyNow",
      "outputs": [],
      "stateMutability": "payable",
      "type": "function"
    },
    {
      "inputs": [
        {
          "internalType": "uint256",
          "name": "itemId",
          "type": "uint256"
        }
      ],
      "name": "cancelListing",
      "outputs": [],
      "stateMutability": "payable",
      "type": "function"
    },
    {
      "inputs": [
        {
          "internalType": "string",
          "name": "subdomain",
          "type": "string"
        },
        {
          "internalType": "uint256",
          "name": "tokenId",
          "type": "uint256"
        },
        {
          "internalType": "uint256",
          "name": "priceIn",
          "type": "uint256"
        },
        {
          "internalType": "address",
          "name": "nftContract",
          "type": "address"
        }
      ],
      "name": "createListing",
      "outputs": [],
      "stateMutability": "payable",
      "type": "function"
    },
    {
      "inputs": [],
      "name": "fetchListings",
      "outputs": [
        {
          "components": [
            {
              "internalType": "uint256",
              "name": "itemId",
              "type": "uint256"
            },
            {
              "internalType": "uint256",
              "name": "tokenId",
              "type": "uint256"
            },
            {
              "internalType": "uint256",
              "name": "price",
              "type": "uint256"
            },
            {
              "internalType": "string",
              "name": "subdomain",
              "type": "string"
            },
            {
              "internalType": "address",
              "name": "nftContract",
              "type": "address"
            },
            {
              "internalType": "address payable",
              "name": "owner",
              "type": "address"
            },
            {
              "internalType": "bool",
              "name": "sold",
              "type": "bool"
            },
            {
              "internalType": "bool",
              "name": "active",
              "type": "bool"
            }
          ],
          "internalType": "struct Marketplace.Listing[]",
          "name": "",
          "type": "tuple[]"
        }
      ],
      "stateMutability": "view",
      "type": "function"
    },
    {
      "inputs": [],
      "name": "getFee",
      "outputs": [
        {
          "internalType": "uint256",
          "name": "",
          "type": "uint256"
        }
      ],
      "stateMutability": "view",
      "type": "function"
    },
    {
      "inputs": [
        {
          "internalType": "uint256",
          "name": "id",
          "type": "uint256"
        }
      ],
      "name": "getListing",
      "outputs": [
        {
          "components": [
            {
              "internalType": "uint256",
              "name": "itemId",
              "type": "uint256"
            },
            {
              "internalType": "uint256",
              "name": "tokenId",
              "type": "uint256"
            },
            {
              "internalType": "uint256",
              "name": "price",
              "type": "uint256"
            },
            {
              "internalType": "string",
              "name": "subdomain",
              "type": "string"
            },
            {
              "internalType": "address",
              "name": "nftContract",
              "type": "address"
            },
            {
              "internalType": "address payable",
              "name": "owner",
              "type": "address"
            },
            {
              "internalType": "bool",
              "name": "sold",
              "type": "bool"
            },
            {
              "internalType": "bool",
              "name": "active",
              "type": "bool"
            }
          ],
          "internalType": "struct Marketplace.Listing",
          "name": "",
          "type": "tuple"
        }
      ],
      "stateMutability": "view",
      "type": "function"
    },
    {
      "inputs": [
        {
          "internalType": "string",
          "name": "subdomainIn",
          "type": "string"
        }
      ],
      "name": "getListingIdsBySubDomain",
      "outputs": [
        {
          "internalType": "uint256[]",
          "name": "",
          "type": "uint256[]"
        }
      ],
      "stateMutability": "view",
      "type": "function"
    },
    {
      "inputs": [
        {
          "internalType": "uint256",
          "name": "id",
          "type": "uint256"
        }
      ],
      "name": "getListingPrice",
      "outputs": [
        {
          "internalType": "uint256",
          "name": "",
          "type": "uint256"
        }
      ],
      "stateMutability": "view",
      "type": "function"
    },
    {
      "inputs": [],
      "name": "owner",
      "outputs": [
        {
          "internalType": "address",
          "name": "",
          "type": "address"
        }
      ],
      "stateMutability": "view",
      "type": "function"
    },
    {
      "inputs": [
        {
          "internalType": "uint256",
          "name": "tokenId",
          "type": "uint256"
        },
        {
          "internalType": "uint256",
          "name": "price",
          "type": "uint256"
        },
        {
          "internalType": "address",
          "name": "nftContract",
          "type": "address"
        }
      ],
      "name": "relistToken",
      "outputs": [],
      "stateMutability": "payable",
      "type": "function"
    },
    {
      "inputs": [],
      "name": "renounceOwnership",
      "outputs": [],
      "stateMutability": "nonpayable",
      "type": "function"
    },
    {
      "inputs": [
        {
          "internalType": "address",
          "name": "newOwner",
          "type": "address"
        }
      ],
      "name": "transferOwnership",
      "outputs": [],
      "stateMutability": "nonpayable",
      "type": "function"
    },
    {
      "inputs": [
        {
          "internalType": "uint256",
          "name": "_fee",
          "type": "uint256"
        }
      ],
      "name": "updateFee",
      "outputs": [],
      "stateMutability": "payable",
      "type": "function"
    }
  ],
  "bytecode": "0x608060405266038d7ea4c680006004553480156200001c57600080fd5b50600160008190555062000045620000396200004b60201b60201c565b6200005360201b60201c565b62000119565b600033905090565b6000600160009054906101000a900473ffffffffffffffffffffffffffffffffffffffff16905081600160006101000a81548173ffffffffffffffffffffffffffffffffffffffff021916908373ffffffffffffffffffffffffffffffffffffffff1602179055508173ffffffffffffffffffffffffffffffffffffffff168173ffffffffffffffffffffffffffffffffffffffff167f8be0079c531659141344cd1fd0a4f28419497f9722a3daafe3b4186f6b6457e060405160405180910390a35050565b612a3680620001296000396000f3fe6080604052600436106100c25760003560e01c80637bc71f781161007f578063a80f99ec11610059578063a80f99ec1461020f578063ced72f871461023a578063d6077fbf14610265578063f2fde38b146102a2576100c2565b80637bc71f78146101ac5780638da5cb5b146101c85780639012c4a8146101f3576100c2565b80630e4bdc90146100c7578063107a274a146100e3578063305a67a814610120578063523413971461013c578063715018a6146101795780637834a0bf14610190575b600080fd5b6100e160048036038101906100dc9190611a4e565b6102cb565b005b3480156100ef57600080fd5b5061010a60048036038101906101059190611b46565b610639565b604051610117919061234d565b60405180910390f35b61013a60048036038101906101359190611b46565b6107f9565b005b34801561014857600080fd5b50610163600480360381019061015e9190611a8a565b6109aa565b60405161017091906121cb565b60405180910390f35b34801561018557600080fd5b5061018e610bee565b005b6101aa60048036038101906101a59190611acb565b610c76565b005b6101c660048036038101906101c19190611b6f565b610f9f565b005b3480156101d457600080fd5b506101dd6111ad565b6040516101ea9190612157565b60405180910390f35b61020d60048036038101906102089190611b46565b6111d7565b005b34801561021b57600080fd5b5061022461125d565b60405161023191906121a9565b60405180910390f35b34801561024657600080fd5b5061024f6115cb565b60405161025c919061236f565b60405180910390f35b34801561027157600080fd5b5061028c60048036038101906102879190611b46565b6115d5565b604051610299919061236f565b60405180910390f35b3480156102ae57600080fd5b506102c960048036038101906102c49190611a25565b6115f5565b005b60026000541415610311576040517f08c379a00000000000000000000000000000000000000000000000000000000081526004016103089061232d565b60405180910390fd5b600260008190555060006005600083815260200190815260200160002060020154670de0b6b3a7640000610345919061254f565b90506000600560008481526020019081526020016000206001015490508134146103a4576040517f08c379a000000000000000000000000000000000000000000000000000000000815260040161039b9061228d565b60405180910390fd5b600015156005600085815260200190815260200160002060050160149054906101000a900460ff1615151461040e576040517f08c379a00000000000000000000000000000000000000000000000000000000081526004016104059061226d565b60405180910390fd5b600115156005600085815260200190815260200160002060050160159054906101000a900460ff16151514610478576040517f08c379a000000000000000000000000000000000000000000000000000000000815260040161046f906121ed565b60405180910390fd5b60016005600085815260200190815260200160002060050160146101000a81548160ff0219169083151502179055506104b160036116ed565b6005600084815260200190815260200160002060050160009054906101000a900473ffffffffffffffffffffffffffffffffffffffff1673ffffffffffffffffffffffffffffffffffffffff166108fc349081150290604051600060405180830381858888f1935050505015801561052d573d6000803e3d6000fd5b508373ffffffffffffffffffffffffffffffffffffffff166323b872dd3033846040518463ffffffff1660e01b815260040161056b93929190612172565b600060405180830381600087803b15801561058557600080fd5b505af1158015610599573d6000803e3d6000fd5b50505050336005600085815260200190815260200160002060050160006101000a81548173ffffffffffffffffffffffffffffffffffffffff021916908373ffffffffffffffffffffffffffffffffffffffff16021790555060006005600085815260200190815260200160002060050160156101000a81548160ff02191690831515021790555061062b60036116ed565b505060016000819055505050565b61064161183b565b600560008381526020019081526020016000206040518061010001604052908160008201548152602001600182015481526020016002820154815260200160038201805461068e90612679565b80601f01602080910402602001604051908101604052809291908181526020018280546106ba90612679565b80156107075780601f106106dc57610100808354040283529160200191610707565b820191906000526020600020905b8154815290600101906020018083116106ea57829003601f168201915b505050505081526020016004820160009054906101000a900473ffffffffffffffffffffffffffffffffffffffff1673ffffffffffffffffffffffffffffffffffffffff1673ffffffffffffffffffffffffffffffffffffffff1681526020016005820160009054906101000a900473ffffffffffffffffffffffffffffffffffffffff1673ffffffffffffffffffffffffffffffffffffffff1673ffffffffffffffffffffffffffffffffffffffff1681526020016005820160149054906101000a900460ff161515151581526020016005820160159054906101000a900460ff1615151515815250509050919050565b6002600054141561083f576040517f08c379a00000000000000000000000000000000000000000000000000000000081526004016108369061232d565b60405180910390fd5b60026000819055506005600082815260200190815260200160002060050160009054906101000a900473ffffffffffffffffffffffffffffffffffffffff1673ffffffffffffffffffffffffffffffffffffffff163373ffffffffffffffffffffffffffffffffffffffff16146108eb576040517f08c379a00000000000000000000000000000000000000000000000000000000081526004016108e29061230d565b60405180910390fd5b600560008281526020019081526020016000206000808201600090556001820160009055600282016000905560038201600061092791906118b0565b6004820160006101000a81549073ffffffffffffffffffffffffffffffffffffffff02191690556005820160006101000a81549073ffffffffffffffffffffffffffffffffffffffff02191690556005820160146101000a81549060ff02191690556005820160156101000a81549060ff02191690555050600160008190555050565b606060006109b86002611703565b905060006109c66003611703565b6109d06002611703565b6109da91906125a9565b90506000808267ffffffffffffffff811115610a1f577f4e487b7100000000000000000000000000000000000000000000000000000000600052604160045260246000fd5b604051908082528060200260200182016040528015610a4d5781602001602082028036833780820191505090505b50905060005b84811015610be157600073ffffffffffffffffffffffffffffffffffffffff1660056000600184610a8491906124f9565b815260200190815260200160002060050160009054906101000a900473ffffffffffffffffffffffffffffffffffffffff1673ffffffffffffffffffffffffffffffffffffffff16148015610b45575086604051602001610ae59190612129565b6040516020818303038152906040528051906020012060056000600184610b0c91906124f9565b8152602001908152602001600020600301604051602001610b2d9190612140565b60405160208183030381529060405280519060200120145b15610bce576000600182610b5991906124f9565b905060006005600083815260200190815260200160002060000154905080848681518110610bb0577f4e487b7100000000000000000000000000000000000000000000000000000000600052603260045260246000fd5b602002602001018181525050600185610bc991906124f9565b945050505b8080610bd9906126dc565b915050610a53565b5080945050505050919050565b610bf6611711565b73ffffffffffffffffffffffffffffffffffffffff16610c146111ad565b73ffffffffffffffffffffffffffffffffffffffff1614610c6a576040517f08c379a0000000000000000000000000000000000000000000000000000000008152600401610c61906122cd565b60405180910390fd5b610c746000611719565b565b60026000541415610cbc576040517f08c379a0000000000000000000000000000000000000000000000000000000008152600401610cb39061232d565b60405180910390fd5b60026000819055506004543414610d08576040517f08c379a0000000000000000000000000000000000000000000000000000000008152600401610cff906122ad565b60405180910390fd5b610d1260026116ed565b6000610d1e6002611703565b905060008390506040518061010001604052808381526020018681526020018281526020018781526020018473ffffffffffffffffffffffffffffffffffffffff1681526020013373ffffffffffffffffffffffffffffffffffffffff16815260200160001515815260200160011515815250600560008481526020019081526020016000206000820151816000015560208201518160010155604082015181600201556060820151816003019080519060200190610dde9291906118f0565b5060808201518160040160006101000a81548173ffffffffffffffffffffffffffffffffffffffff021916908373ffffffffffffffffffffffffffffffffffffffff16021790555060a08201518160050160006101000a81548173ffffffffffffffffffffffffffffffffffffffff021916908373ffffffffffffffffffffffffffffffffffffffff16021790555060c08201518160050160146101000a81548160ff02191690831515021790555060e08201518160050160156101000a81548160ff0219169083151502179055509050508273ffffffffffffffffffffffffffffffffffffffff166323b872dd3330886040518463ffffffff1660e01b8152600401610eed93929190612172565b600060405180830381600087803b158015610f0757600080fd5b505af1158015610f1b573d6000803e3d6000fd5b505050503373ffffffffffffffffffffffffffffffffffffffff168373ffffffffffffffffffffffffffffffffffffffff16837f35f37b604f3adfcf05dbb34225b7636fa7138d2c082ddcfc8e913915004c58b388858b60006001604051610f8795949392919061238a565b60405180910390a45050600160008190555050505050565b3373ffffffffffffffffffffffffffffffffffffffff166005600085815260200190815260200160002060050160009054906101000a900473ffffffffffffffffffffffffffffffffffffffff1673ffffffffffffffffffffffffffffffffffffffff1614611043576040517f08c379a000000000000000000000000000000000000000000000000000000000815260040161103a9061220d565b60405180910390fd5b6004543414611087576040517f08c379a000000000000000000000000000000000000000000000000000000000815260040161107e906122ed565b60405180910390fd5b60006005600085815260200190815260200160002060050160146101000a81548160ff02191690831515021790555060006005600085815260200190815260200160002060050160156101000a81548160ff02191690831515021790555081600560008581526020019081526020016000206002018190555060016005600085815260200190815260200160002060050160156101000a81548160ff02191690831515021790555061113960036117df565b8073ffffffffffffffffffffffffffffffffffffffff166323b872dd3330866040518463ffffffff1660e01b815260040161117693929190612172565b600060405180830381600087803b15801561119057600080fd5b505af11580156111a4573d6000803e3d6000fd5b50505050505050565b6000600160009054906101000a900473ffffffffffffffffffffffffffffffffffffffff16905090565b6111df611711565b73ffffffffffffffffffffffffffffffffffffffff166111fd6111ad565b73ffffffffffffffffffffffffffffffffffffffff1614611253576040517f08c379a000000000000000000000000000000000000000000000000000000000815260040161124a906122cd565b60405180910390fd5b8060048190555050565b6060600061126b6002611703565b905060006112796003611703565b6112836002611703565b61128d91906125a9565b90506000808267ffffffffffffffff8111156112d2577f4e487b7100000000000000000000000000000000000000000000000000000000600052604160045260246000fd5b60405190808252806020026020018201604052801561130b57816020015b6112f861183b565b8152602001906001900390816112f05790505b50905060005b848110156115c057600073ffffffffffffffffffffffffffffffffffffffff166005600060018461134291906124f9565b815260200190815260200160002060050160009054906101000a900473ffffffffffffffffffffffffffffffffffffffff1673ffffffffffffffffffffffffffffffffffffffff1614156115ad57600060018261139f91906124f9565b9050600060056000838152602001908152602001600020905080604051806101000160405290816000820154815260200160018201548152602001600282015481526020016003820180546113f390612679565b80601f016020809104026020016040519081016040528092919081815260200182805461141f90612679565b801561146c5780601f106114415761010080835404028352916020019161146c565b820191906000526020600020905b81548152906001019060200180831161144f57829003601f168201915b505050505081526020016004820160009054906101000a900473ffffffffffffffffffffffffffffffffffffffff1673ffffffffffffffffffffffffffffffffffffffff1673ffffffffffffffffffffffffffffffffffffffff1681526020016005820160009054906101000a900473ffffffffffffffffffffffffffffffffffffffff1673ffffffffffffffffffffffffffffffffffffffff1673ffffffffffffffffffffffffffffffffffffffff1681526020016005820160149054906101000a900460ff161515151581526020016005820160159054906101000a900460ff161515151581525050848681518110611590577f4e487b7100000000000000000000000000000000000000000000000000000000600052603260045260246000fd5b60200260200101819052506001856115a891906124f9565b945050505b80806115b8906126dc565b915050611311565b508094505050505090565b6000600454905090565b600060056000838152602001908152602001600020600201549050919050565b6115fd611711565b73ffffffffffffffffffffffffffffffffffffffff1661161b6111ad565b73ffffffffffffffffffffffffffffffffffffffff1614611671576040517f08c379a0000000000000000000000000000000000000000000000000000000008152600401611668906122cd565b60405180910390fd5b600073ffffffffffffffffffffffffffffffffffffffff168173ffffffffffffffffffffffffffffffffffffffff1614156116e1576040517f08c379a00000000000000000000000000000000000000000000000000000000081526004016116d89061224d565b60405180910390fd5b6116ea81611719565b50565b6001816000016000828254019250508190555050565b600081600001549050919050565b600033905090565b6000600160009054906101000a900473ffffffffffffffffffffffffffffffffffffffff16905081600160006101000a81548173ffffffffffffffffffffffffffffffffffffffff021916908373ffffffffffffffffffffffffffffffffffffffff1602179055508173ffffffffffffffffffffffffffffffffffffffff168173ffffffffffffffffffffffffffffffffffffffff167f8be0079c531659141344cd1fd0a4f28419497f9722a3daafe3b4186f6b6457e060405160405180910390a35050565b6000816000015490506000811161182b576040517f08c379a00000000000000000000000000000000000000000000000000000000081526004016118229061222d565b60405180910390fd5b6001810382600001819055505050565b60405180610100016040528060008152602001600081526020016000815260200160608152602001600073ffffffffffffffffffffffffffffffffffffffff168152602001600073ffffffffffffffffffffffffffffffffffffffff1681526020016000151581526020016000151581525090565b5080546118bc90612679565b6000825580601f106118ce57506118ed565b601f0160209004906000526020600020908101906118ec9190611976565b5b50565b8280546118fc90612679565b90600052602060002090601f01602090048101928261191e5760008555611965565b82601f1061193757805160ff1916838001178555611965565b82800160010185558215611965579182015b82811115611964578251825591602001919060010190611949565b5b5090506119729190611976565b5090565b5b8082111561198f576000816000905550600101611977565b5090565b60006119a66119a184612409565b6123e4565b9050828152602081018484840111156119be57600080fd5b6119c9848285612637565b509392505050565b6000813590506119e0816129d2565b92915050565b600082601f8301126119f757600080fd5b8135611a07848260208601611993565b91505092915050565b600081359050611a1f816129e9565b92915050565b600060208284031215611a3757600080fd5b6000611a45848285016119d1565b91505092915050565b60008060408385031215611a6157600080fd5b6000611a6f858286016119d1565b9250506020611a8085828601611a10565b9150509250929050565b600060208284031215611a9c57600080fd5b600082013567ffffffffffffffff811115611ab657600080fd5b611ac2848285016119e6565b91505092915050565b60008060008060808587031215611ae157600080fd5b600085013567ffffffffffffffff811115611afb57600080fd5b611b07878288016119e6565b9450506020611b1887828801611a10565b9350506040611b2987828801611a10565b9250506060611b3a878288016119d1565b91505092959194509250565b600060208284031215611b5857600080fd5b6000611b6684828501611a10565b91505092915050565b600080600060608486031215611b8457600080fd5b6000611b9286828701611a10565b9350506020611ba386828701611a10565b9250506040611bb4868287016119d1565b9150509250925092565b6000611bca8383611fab565b905092915050565b6000611bde838361210b565b60208301905092915050565b611bf3816125ef565b82525050565b611c02816125dd565b82525050565b611c11816125dd565b82525050565b6000611c228261246f565b611c2c81856124aa565b935083602082028501611c3e8561243a565b8060005b85811015611c7a5784840389528151611c5b8582611bbe565b9450611c6683612490565b925060208a01995050600181019050611c42565b50829750879550505050505092915050565b6000611c978261247a565b611ca181856124bb565b9350611cac8361244a565b8060005b83811015611cdd578151611cc48882611bd2565b9750611ccf8361249d565b925050600181019050611cb0565b5085935050505092915050565b611cf381612601565b82525050565b611d0281612601565b82525050565b6000611d1382612485565b611d1d81856124cc565b9350611d2d818560208601612646565b611d36816127b2565b840191505092915050565b6000611d4c82612485565b611d5681856124dd565b9350611d66818560208601612646565b611d6f816127b2565b840191505092915050565b6000611d8582612485565b611d8f81856124ee565b9350611d9f818560208601612646565b80840191505092915050565b60008154611db881612679565b611dc281866124ee565b94506001821660008114611ddd5760018114611dee57611e21565b60ff19831686528186019350611e21565b611df78561245a565b60005b83811015611e1957815481890152600182019150602081019050611dfa565b838801955050505b50505092915050565b6000611e376020836124dd565b9150611e42826127c3565b602082019050919050565b6000611e5a6015836124dd565b9150611e65826127ec565b602082019050919050565b6000611e7d601b836124dd565b9150611e8882612815565b602082019050919050565b6000611ea06026836124dd565b9150611eab8261283e565b604082019050919050565b6000611ec3601f836124dd565b9150611ece8261288d565b602082019050919050565b6000611ee66040836124dd565b9150611ef1826128b6565b604082019050919050565b6000611f096016836124dd565b9150611f1482612905565b602082019050919050565b6000611f2c6020836124dd565b9150611f378261292e565b602082019050919050565b6000611f4f601d836124dd565b9150611f5a82612957565b602082019050919050565b6000611f726009836124dd565b9150611f7d82612980565b602082019050919050565b6000611f95601f836124dd565b9150611fa0826129a9565b602082019050919050565b600061010083016000830151611fc4600086018261210b565b506020830151611fd7602086018261210b565b506040830151611fea604086018261210b565b50606083015184820360608601526120028282611d08565b91505060808301516120176080860182611bf9565b5060a083015161202a60a0860182611bea565b5060c083015161203d60c0860182611cea565b5060e083015161205060e0860182611cea565b508091505092915050565b600061010083016000830151612074600086018261210b565b506020830151612087602086018261210b565b50604083015161209a604086018261210b565b50606083015184820360608601526120b28282611d08565b91505060808301516120c76080860182611bf9565b5060a08301516120da60a0860182611bea565b5060c08301516120ed60c0860182611cea565b5060e083015161210060e0860182611cea565b508091505092915050565b6121148161262d565b82525050565b6121238161262d565b82525050565b60006121358284611d7a565b915081905092915050565b600061214c8284611dab565b915081905092915050565b600060208201905061216c6000830184611c08565b92915050565b60006060820190506121876000830186611c08565b6121946020830185611c08565b6121a1604083018461211a565b949350505050565b600060208201905081810360008301526121c38184611c17565b905092915050565b600060208201905081810360008301526121e58184611c8c565b905092915050565b6000602082019050818103600083015261220681611e2a565b9050919050565b6000602082019050818103600083015261222681611e4d565b9050919050565b6000602082019050818103600083015261224681611e70565b9050919050565b6000602082019050818103600083015261226681611e93565b9050919050565b6000602082019050818103600083015261228681611eb6565b9050919050565b600060208201905081810360008301526122a681611ed9565b9050919050565b600060208201905081810360008301526122c681611efc565b9050919050565b600060208201905081810360008301526122e681611f1f565b9050919050565b6000602082019050818103600083015261230681611f42565b9050919050565b6000602082019050818103600083015261232681611f65565b9050919050565b6000602082019050818103600083015261234681611f88565b9050919050565b60006020820190508181036000830152612367818461205b565b905092915050565b6000602082019050612384600083018461211a565b92915050565b600060a08201905061239f600083018861211a565b6123ac602083018761211a565b81810360408301526123be8186611d41565b90506123cd6060830185611cf9565b6123da6080830184611cf9565b9695505050505050565b60006123ee6123ff565b90506123fa82826126ab565b919050565b6000604051905090565b600067ffffffffffffffff82111561242457612423612783565b5b61242d826127b2565b9050602081019050919050565b6000819050602082019050919050565b6000819050602082019050919050565b60008190508160005260206000209050919050565b600081519050919050565b600081519050919050565b600081519050919050565b6000602082019050919050565b6000602082019050919050565b600082825260208201905092915050565b600082825260208201905092915050565b600082825260208201905092915050565b600082825260208201905092915050565b600081905092915050565b60006125048261262d565b915061250f8361262d565b9250827fffffffffffffffffffffffffffffffffffffffffffffffffffffffffffffffff0382111561254457612543612725565b5b828201905092915050565b600061255a8261262d565b91506125658361262d565b9250817fffffffffffffffffffffffffffffffffffffffffffffffffffffffffffffffff048311821515161561259e5761259d612725565b5b828202905092915050565b60006125b48261262d565b91506125bf8361262d565b9250828210156125d2576125d1612725565b5b828203905092915050565b60006125e88261260d565b9050919050565b60006125fa8261260d565b9050919050565b60008115159050919050565b600073ffffffffffffffffffffffffffffffffffffffff82169050919050565b6000819050919050565b82818337600083830152505050565b60005b83811015612664578082015181840152602081019050612649565b83811115612673576000848401525b50505050565b6000600282049050600182168061269157607f821691505b602082108114156126a5576126a4612754565b5b50919050565b6126b4826127b2565b810181811067ffffffffffffffff821117156126d3576126d2612783565b5b80604052505050565b60006126e78261262d565b91507fffffffffffffffffffffffffffffffffffffffffffffffffffffffffffffffff82141561271a57612719612725565b5b600182019050919050565b7f4e487b7100000000000000000000000000000000000000000000000000000000600052601160045260246000fd5b7f4e487b7100000000000000000000000000000000000000000000000000000000600052602260045260246000fd5b7f4e487b7100000000000000000000000000000000000000000000000000000000600052604160045260246000fd5b6000601f19601f8301169050919050565b7f54686973206c697374696e67206973206e6f206c6f6e67657220616374697665600082015250565b7f4f6e6c79206f776e65722063616e2072656c6973740000000000000000000000600082015250565b7f436f756e7465723a2064656372656d656e74206f766572666c6f770000000000600082015250565b7f4f776e61626c653a206e6577206f776e657220697320746865207a65726f206160008201527f6464726573730000000000000000000000000000000000000000000000000000602082015250565b7f54686973206974656d2068617320616c7265616479206265656e20736f6c6400600082015250565b7f506c65617365207375626d6974207468652061736b696e67207072696365206960008201527f6e206f7264657220746f20636f6d706c65746520746865207075726368617365602082015250565b7f506c6561736520706179206c697374696e672066656500000000000000000000600082015250565b7f4f776e61626c653a2063616c6c6572206973206e6f7420746865206f776e6572600082015250565b7f506c65617365207375626d6974206c697374696e672066656520283129000000600082015250565b7f4e6f74206f776e65720000000000000000000000000000000000000000000000600082015250565b7f5265656e7472616e637947756172643a207265656e7472616e742063616c6c00600082015250565b6129db816125dd565b81146129e657600080fd5b50565b6129f28161262d565b81146129fd57600080fd5b5056fea2646970667358221220e8886fc535c4dee491804baba3d54c1ef07b400dcde3c2a826e1214333ac833964736f6c63430008040033",
  "linkReferences": {},
  "deployedLinkReferences": {}
}