{
  "_format": "hh-sol-artifact-1",
  "contractName": "StoreMarketplace",
  "sourceName": "contracts/StoreMarketplace.sol",
  "abi": [
    {
      "inputs": [
        {
          "internalType": "string",
          "name": "newBaseURI",
          "type": "string"
        },
        {
          "internalType": "string",
          "name": "_name",
          "type": "string"
        },
        {
          "internalType": "string",
          "name": "_symbol",
          "type": "string"
        }
      ],
      "stateMutability": "nonpayable",
      "type": "constructor"
    },
    {
      "anonymous": false,
      "inputs": [
        {
          "indexed": true,
          "internalType": "address",
          "name": "owner",
          "type": "address"
        },
        {
          "indexed": true,
          "internalType": "address",
          "name": "approved",
          "type": "address"
        },
        {
          "indexed": true,
          "internalType": "uint256",
          "name": "tokenId",
          "type": "uint256"
        }
      ],
      "name": "Approval",
      "type": "event"
    },
    {
      "anonymous": false,
      "inputs": [
        {
          "indexed": true,
          "internalType": "address",
          "name": "owner",
          "type": "address"
        },
        {
          "indexed": true,
          "internalType": "address",
          "name": "operator",
          "type": "address"
        },
        {
          "indexed": false,
          "internalType": "bool",
          "name": "approved",
          "type": "bool"
        }
      ],
      "name": "ApprovalForAll",
      "type": "event"
    },
    {
      "anonymous": false,
      "inputs": [
        {
          "indexed": true,
          "internalType": "address",
          "name": "previousOwner",
          "type": "address"
        },
        {
          "indexed": true,
          "internalType": "address",
          "name": "newOwner",
          "type": "address"
        }
      ],
      "name": "OwnershipTransferred",
      "type": "event"
    },
    {
      "anonymous": false,
      "inputs": [
        {
          "indexed": true,
          "internalType": "uint256",
          "name": "storeId",
          "type": "uint256"
        },
        {
          "indexed": true,
          "internalType": "string",
          "name": "subdomain",
          "type": "string"
        },
        {
          "indexed": false,
          "internalType": "string",
          "name": "colourHex",
          "type": "string"
        },
        {
          "indexed": false,
          "internalType": "string",
          "name": "plan",
          "type": "string"
        },
        {
          "indexed": false,
          "internalType": "address",
          "name": "owner",
          "type": "address"
        },
        {
          "indexed": false,
          "internalType": "string",
          "name": "logoURI",
          "type": "string"
        }
      ],
      "name": "StoreCreated",
      "type": "event"
    },
    {
      "anonymous": false,
      "inputs": [
        {
          "indexed": true,
          "internalType": "address",
          "name": "from",
          "type": "address"
        },
        {
          "indexed": true,
          "internalType": "address",
          "name": "to",
          "type": "address"
        },
        {
          "indexed": true,
          "internalType": "uint256",
          "name": "tokenId",
          "type": "uint256"
        }
      ],
      "name": "Transfer",
      "type": "event"
    },
    {
      "inputs": [
        {
          "internalType": "address",
          "name": "to",
          "type": "address"
        },
        {
          "internalType": "uint256",
          "name": "tokenId",
          "type": "uint256"
        }
      ],
      "name": "approve",
      "outputs": [],
      "stateMutability": "nonpayable",
      "type": "function"
    },
    {
      "inputs": [
        {
          "internalType": "address",
          "name": "owner",
          "type": "address"
        }
      ],
      "name": "balanceOf",
      "outputs": [
        {
          "internalType": "uint256",
          "name": "",
          "type": "uint256"
        }
      ],
      "stateMutability": "view",
      "type": "function"
    },
    {
      "inputs": [],
      "name": "baseURI",
      "outputs": [
        {
          "internalType": "string",
          "name": "",
          "type": "string"
        }
      ],
      "stateMutability": "view",
      "type": "function"
    },
    {
      "inputs": [
        {
          "internalType": "string",
          "name": "subdomainIn",
          "type": "string"
        },
        {
          "internalType": "string",
          "name": "colourhex",
          "type": "string"
        },
        {
          "internalType": "string",
          "name": "plan",
          "type": "string"
        },
        {
          "internalType": "string",
          "name": "logoURI",
          "type": "string"
        }
      ],
      "name": "createStore",
      "outputs": [],
      "stateMutability": "payable",
      "type": "function"
    },
    {
      "inputs": [
        {
          "internalType": "string",
          "name": "subdomainIn",
          "type": "string"
        },
        {
          "internalType": "string",
          "name": "newHexColour",
          "type": "string"
        }
      ],
      "name": "editStoreColour",
      "outputs": [],
      "stateMutability": "payable",
      "type": "function"
    },
    {
      "inputs": [
        {
          "components": [
            {
              "internalType": "uint256",
              "name": "storeId",
              "type": "uint256"
            },
            {
              "internalType": "string",
              "name": "subdomain",
              "type": "string"
            },
            {
              "internalType": "string",
              "name": "colourHex",
              "type": "string"
            },
            {
              "internalType": "string",
              "name": "plan",
              "type": "string"
            },
            {
              "internalType": "address payable",
              "name": "owner",
              "type": "address"
            },
            {
              "internalType": "string",
              "name": "logoURI",
              "type": "string"
            }
          ],
          "internalType": "struct StoreMarketplace.Store",
          "name": "storeIn",
          "type": "tuple"
        },
        {
          "internalType": "string",
          "name": "newHexColour",
          "type": "string"
        }
      ],
      "name": "editStoreColour",
      "outputs": [],
      "stateMutability": "payable",
      "type": "function"
    },
    {
      "inputs": [
        {
          "internalType": "string",
          "name": "subdomainIn",
          "type": "string"
        },
        {
          "internalType": "string",
          "name": "newLogoURI",
          "type": "string"
        }
      ],
      "name": "editStoreLogo",
      "outputs": [],
      "stateMutability": "payable",
      "type": "function"
    },
    {
      "inputs": [
        {
          "internalType": "uint256",
          "name": "tokenId",
          "type": "uint256"
        }
      ],
      "name": "getApproved",
      "outputs": [
        {
          "internalType": "address",
          "name": "",
          "type": "address"
        }
      ],
      "stateMutability": "view",
      "type": "function"
    },
    {
      "inputs": [
        {
          "internalType": "uint256",
          "name": "id",
          "type": "uint256"
        }
      ],
      "name": "getStoreWithId",
      "outputs": [
        {
          "components": [
            {
              "internalType": "uint256",
              "name": "storeId",
              "type": "uint256"
            },
            {
              "internalType": "string",
              "name": "subdomain",
              "type": "string"
            },
            {
              "internalType": "string",
              "name": "colourHex",
              "type": "string"
            },
            {
              "internalType": "string",
              "name": "plan",
              "type": "string"
            },
            {
              "internalType": "address payable",
              "name": "owner",
              "type": "address"
            },
            {
              "internalType": "string",
              "name": "logoURI",
              "type": "string"
            }
          ],
          "internalType": "struct StoreMarketplace.Store",
          "name": "",
          "type": "tuple"
        }
      ],
      "stateMutability": "view",
      "type": "function"
    },
    {
      "inputs": [
        {
          "internalType": "string",
          "name": "subdomainIn",
          "type": "string"
        }
      ],
      "name": "getStoreWithSubdomain",
      "outputs": [
        {
          "components": [
            {
              "internalType": "uint256",
              "name": "storeId",
              "type": "uint256"
            },
            {
              "internalType": "string",
              "name": "subdomain",
              "type": "string"
            },
            {
              "internalType": "string",
              "name": "colourHex",
              "type": "string"
            },
            {
              "internalType": "string",
              "name": "plan",
              "type": "string"
            },
            {
              "internalType": "address payable",
              "name": "owner",
              "type": "address"
            },
            {
              "internalType": "string",
              "name": "logoURI",
              "type": "string"
            }
          ],
          "internalType": "struct StoreMarketplace.Store",
          "name": "",
          "type": "tuple"
        }
      ],
      "stateMutability": "view",
      "type": "function"
    },
    {
      "inputs": [
        {
          "internalType": "address",
          "name": "owner",
          "type": "address"
        },
        {
          "internalType": "address",
          "name": "operator",
          "type": "address"
        }
      ],
      "name": "isApprovedForAll",
      "outputs": [
        {
          "internalType": "bool",
          "name": "",
          "type": "bool"
        }
      ],
      "stateMutability": "view",
      "type": "function"
    },
    {
      "inputs": [],
      "name": "name",
      "outputs": [
        {
          "internalType": "string",
          "name": "",
          "type": "string"
        }
      ],
      "stateMutability": "view",
      "type": "function"
    },
    {
      "inputs": [],
      "name": "owner",
      "outputs": [
        {
          "internalType": "address",
          "name": "",
          "type": "address"
        }
      ],
      "stateMutability": "view",
      "type": "function"
    },
    {
      "inputs": [
        {
          "internalType": "uint256",
          "name": "tokenId",
          "type": "uint256"
        }
      ],
      "name": "ownerOf",
      "outputs": [
        {
          "internalType": "address",
          "name": "",
          "type": "address"
        }
      ],
      "stateMutability": "view",
      "type": "function"
    },
    {
      "inputs": [],
      "name": "renounceOwnership",
      "outputs": [],
      "stateMutability": "nonpayable",
      "type": "function"
    },
    {
      "inputs": [
        {
          "internalType": "address",
          "name": "from",
          "type": "address"
        },
        {
          "internalType": "address",
          "name": "to",
          "type": "address"
        },
        {
          "internalType": "uint256",
          "name": "tokenId",
          "type": "uint256"
        }
      ],
      "name": "safeTransferFrom",
      "outputs": [],
      "stateMutability": "nonpayable",
      "type": "function"
    },
    {
      "inputs": [
        {
          "internalType": "address",
          "name": "from",
          "type": "address"
        },
        {
          "internalType": "address",
          "name": "to",
          "type": "address"
        },
        {
          "internalType": "uint256",
          "name": "tokenId",
          "type": "uint256"
        },
        {
          "internalType": "bytes",
          "name": "_data",
          "type": "bytes"
        }
      ],
      "name": "safeTransferFrom",
      "outputs": [],
      "stateMutability": "nonpayable",
      "type": "function"
    },
    {
      "inputs": [
        {
          "internalType": "address",
          "name": "operator",
          "type": "address"
        },
        {
          "internalType": "bool",
          "name": "approved",
          "type": "bool"
        }
      ],
      "name": "setApprovalForAll",
      "outputs": [],
      "stateMutability": "nonpayable",
      "type": "function"
    },
    {
      "inputs": [
        {
          "internalType": "string",
          "name": "_newBaseURI",
          "type": "string"
        }
      ],
      "name": "setBaseURI",
      "outputs": [],
      "stateMutability": "nonpayable",
      "type": "function"
    },
    {
      "inputs": [
        {
          "internalType": "bytes4",
          "name": "interfaceId",
          "type": "bytes4"
        }
      ],
      "name": "supportsInterface",
      "outputs": [
        {
          "internalType": "bool",
          "name": "",
          "type": "bool"
        }
      ],
      "stateMutability": "view",
      "type": "function"
    },
    {
      "inputs": [],
      "name": "symbol",
      "outputs": [
        {
          "internalType": "string",
          "name": "",
          "type": "string"
        }
      ],
      "stateMutability": "view",
      "type": "function"
    },
    {
      "inputs": [
        {
          "internalType": "uint256",
          "name": "tokenId",
          "type": "uint256"
        }
      ],
      "name": "tokenURI",
      "outputs": [
        {
          "internalType": "string",
          "name": "",
          "type": "string"
        }
      ],
      "stateMutability": "view",
      "type": "function"
    },
    {
      "inputs": [
        {
          "internalType": "address",
          "name": "from",
          "type": "address"
        },
        {
          "internalType": "address",
          "name": "to",
          "type": "address"
        },
        {
          "internalType": "uint256",
          "name": "tokenId",
          "type": "uint256"
        }
      ],
      "name": "transferFrom",
      "outputs": [],
      "stateMutability": "nonpayable",
      "type": "function"
    },
    {
      "inputs": [
        {
          "internalType": "address",
          "name": "newOwner",
          "type": "address"
        }
      ],
      "name": "transferOwnership",
      "outputs": [],
      "stateMutability": "nonpayable",
      "type": "function"
    }
  ],
  "bytecode": "0x6080604052681b1ae4d6e2ef500000600955683635c9adc5dea00000600a55686c6b935b8bbd400000600b553480156200003857600080fd5b50604051620048ec380380620048ec83398181016040528101906200005e91906200039b565b818181600090805190602001906200007892919062000279565b5080600190805190602001906200009192919062000279565b5050506001600681905550620000bc620000b0620000d660201b60201c565b620000de60201b60201c565b620000cd83620001a460201b60201c565b5050506200062f565b600033905090565b6000600760009054906101000a900473ffffffffffffffffffffffffffffffffffffffff16905081600760006101000a81548173ffffffffffffffffffffffffffffffffffffffff021916908373ffffffffffffffffffffffffffffffffffffffff1602179055508173ffffffffffffffffffffffffffffffffffffffff168173ffffffffffffffffffffffffffffffffffffffff167f8be0079c531659141344cd1fd0a4f28419497f9722a3daafe3b4186f6b6457e060405160405180910390a35050565b620001b4620000d660201b60201c565b73ffffffffffffffffffffffffffffffffffffffff16620001da6200024f60201b60201c565b73ffffffffffffffffffffffffffffffffffffffff161462000233576040517f08c379a00000000000000000000000000000000000000000000000000000000081526004016200022a9062000463565b60405180910390fd5b80600c90805190602001906200024b92919062000279565b5050565b6000600760009054906101000a900473ffffffffffffffffffffffffffffffffffffffff16905090565b82805462000287906200052b565b90600052602060002090601f016020900481019282620002ab5760008555620002f7565b82601f10620002c657805160ff1916838001178555620002f7565b82800160010185558215620002f7579182015b82811115620002f6578251825591602001919060010190620002d9565b5b5090506200030691906200030a565b5090565b5b80821115620003255760008160009055506001016200030b565b5090565b6000620003406200033a84620004ae565b62000485565b9050828152602081018484840111156200035957600080fd5b62000366848285620004f5565b509392505050565b600082601f8301126200038057600080fd5b81516200039284826020860162000329565b91505092915050565b600080600060608486031215620003b157600080fd5b600084015167ffffffffffffffff811115620003cc57600080fd5b620003da868287016200036e565b935050602084015167ffffffffffffffff811115620003f857600080fd5b62000406868287016200036e565b925050604084015167ffffffffffffffff8111156200042457600080fd5b62000432868287016200036e565b9150509250925092565b60006200044b602083620004e4565b9150620004588262000606565b602082019050919050565b600060208201905081810360008301526200047e816200043c565b9050919050565b600062000491620004a4565b90506200049f828262000561565b919050565b6000604051905090565b600067ffffffffffffffff821115620004cc57620004cb620005c6565b5b620004d782620005f5565b9050602081019050919050565b600082825260208201905092915050565b60005b8381101562000515578082015181840152602081019050620004f8565b8381111562000525576000848401525b50505050565b600060028204905060018216806200054457607f821691505b602082108114156200055b576200055a62000597565b5b50919050565b6200056c82620005f5565b810181811067ffffffffffffffff821117156200058e576200058d620005c6565b5b80604052505050565b7f4e487b7100000000000000000000000000000000000000000000000000000000600052602260045260246000fd5b7f4e487b7100000000000000000000000000000000000000000000000000000000600052604160045260246000fd5b6000601f19601f8301169050919050565b7f4f776e61626c653a2063616c6c6572206973206e6f7420746865206f776e6572600082015250565b6142ad806200063f6000396000f3fe60806040526004361061014b5760003560e01c806370a08231116100b6578063a86b05931161006f578063a86b059314610465578063b88d4fde146104a2578063bdefa040146104cb578063c87b56dd146104e7578063e985e9c514610524578063f2fde38b146105615761014b565b806370a0823114610355578063715018a6146103925780638da5cb5b146103a957806395d89b41146103d457806398fa2fb8146103ff578063a22cb4651461043c5761014b565b8063508b019e11610108578063508b019e1461027057806351b51d021461028c57806355f804b3146102a85780636352211e146102d15780636366d9f91461030e5780636c0360eb1461032a5761014b565b806301ffc9a71461015057806306fdde031461018d578063081812fc146101b8578063095ea7b3146101f557806323b872dd1461021e57806342842e0e14610247575b600080fd5b34801561015c57600080fd5b5061017760048036038101906101729190612e5d565b61058a565b6040516101849190613688565b60405180910390f35b34801561019957600080fd5b506101a261066c565b6040516101af91906136a3565b60405180910390f35b3480156101c457600080fd5b506101df60048036038101906101da919061308b565b6106fe565b6040516101ec9190613621565b60405180910390f35b34801561020157600080fd5b5061021c60048036038101906102179190612e21565b610783565b005b34801561022a57600080fd5b5061024560048036038101906102409190612d1b565b61089b565b005b34801561025357600080fd5b5061026e60048036038101906102699190612d1b565b6108fb565b005b61028a60048036038101906102859190612f5c565b61091b565b005b6102a660048036038101906102a19190612ef0565b610c5b565b005b3480156102b457600080fd5b506102cf60048036038101906102ca9190612eaf565b610d98565b005b3480156102dd57600080fd5b506102f860048036038101906102f3919061308b565b610e2e565b6040516103059190613621565b60405180910390f35b61032860048036038101906103239190612ef0565b610ee0565b005b34801561033657600080fd5b5061033f61101d565b60405161034c91906136a3565b60405180910390f35b34801561036157600080fd5b5061037c60048036038101906103779190612cb6565b6110ab565b6040516103899190613961565b60405180910390f35b34801561039e57600080fd5b506103a7611163565b005b3480156103b557600080fd5b506103be6111eb565b6040516103cb9190613621565b60405180910390f35b3480156103e057600080fd5b506103e9611215565b6040516103f691906136a3565b60405180910390f35b34801561040b57600080fd5b5061042660048036038101906104219190612eaf565b6112a7565b604051610433919061393f565b60405180910390f35b34801561044857600080fd5b50610463600480360381019061045e9190612de5565b61164c565b005b34801561047157600080fd5b5061048c6004803603810190610487919061308b565b611662565b604051610499919061393f565b60405180910390f35b3480156104ae57600080fd5b506104c960048036038101906104c49190612d6a565b611937565b005b6104e560048036038101906104e0919061301f565b611999565b005b3480156104f357600080fd5b5061050e6004803603810190610509919061308b565b611ac2565b60405161051b91906136a3565b60405180910390f35b34801561053057600080fd5b5061054b60048036038101906105469190612cdf565b611b9e565b6040516105589190613688565b60405180910390f35b34801561056d57600080fd5b5061058860048036038101906105839190612cb6565b611c32565b005b60007f80ac58cd000000000000000000000000000000000000000000000000000000007bffffffffffffffffffffffffffffffffffffffffffffffffffffffff1916827bffffffffffffffffffffffffffffffffffffffffffffffffffffffff1916148061065557507f5b5e139f000000000000000000000000000000000000000000000000000000007bffffffffffffffffffffffffffffffffffffffffffffffffffffffff1916827bffffffffffffffffffffffffffffffffffffffffffffffffffffffff1916145b80610665575061066482611d2a565b5b9050919050565b60606000805461067b90613bbe565b80601f01602080910402602001604051908101604052809291908181526020018280546106a790613bbe565b80156106f45780601f106106c9576101008083540402835291602001916106f4565b820191906000526020600020905b8154815290600101906020018083116106d757829003601f168201915b5050505050905090565b600061070982611d94565b610748576040517f08c379a000000000000000000000000000000000000000000000000000000000815260040161073f9061387f565b60405180910390fd5b6004600083815260200190815260200160002060009054906101000a900473ffffffffffffffffffffffffffffffffffffffff169050919050565b600061078e82610e2e565b90508073ffffffffffffffffffffffffffffffffffffffff168373ffffffffffffffffffffffffffffffffffffffff1614156107ff576040517f08c379a00000000000000000000000000000000000000000000000000000000081526004016107f6906138df565b60405180910390fd5b8073ffffffffffffffffffffffffffffffffffffffff1661081e611e00565b73ffffffffffffffffffffffffffffffffffffffff16148061084d575061084c81610847611e00565b611b9e565b5b61088c576040517f08c379a0000000000000000000000000000000000000000000000000000000008152600401610883906137ff565b60405180910390fd5b6108968383611e08565b505050565b6108ac6108a6611e00565b82611ec1565b6108eb576040517f08c379a00000000000000000000000000000000000000000000000000000000081526004016108e2906138ff565b60405180910390fd5b6108f6838383611f9f565b505050565b61091683838360405180602001604052806000815250611937565b505050565b60026006541415610961576040517f08c379a00000000000000000000000000000000000000000000000000000000081526004016109589061391f565b60405180910390fd5b60026006819055506001151561097685612206565b15151461098257600080fd5b6040516020016109919061360c565b60405160208183030381529060405280519060200120826040516020016109b891906135b4565b6040516020818303038152906040528051906020012014156109e75760095434146109e257600080fd5b610ab8565b6040516020016109f6906135f7565b6040516020818303038152906040528051906020012082604051602001610a1d91906135b4565b604051602081830303815290604052805190602001201415610a4c57600a543414610a4757600080fd5b610ab7565b604051602001610a5b906135e2565b6040516020818303038152906040528051906020012082604051602001610a8291906135b4565b604051602081830303815290604052805190602001201415610ab157600b543414610aac57600080fd5b610ab6565b600080fd5b5b5b610ac260086122b3565b6000610ace60086122c9565b90506040518060c001604052808281526020018681526020018581526020018481526020013373ffffffffffffffffffffffffffffffffffffffff16815260200183815250600d6000838152602001908152602001600020600082015181600001556020820151816001019080519060200190610b4c92919061297d565b506040820151816002019080519060200190610b6992919061297d565b506060820151816003019080519060200190610b8692919061297d565b5060808201518160040160006101000a81548173ffffffffffffffffffffffffffffffffffffffff021916908373ffffffffffffffffffffffffffffffffffffffff16021790555060a0820151816005019080519060200190610bea92919061297d565b5090505084604051610bfc91906135b4565b6040518091039020817fb5eee2047d9b69a8439b7bbe0d8f455ac66ebbbfd2cbd20da90854701b29c16086863387604051610c3a94939291906136c5565b60405180910390a3610c4c33826122d7565b50600160068190555050505050565b6000610c66836112a7565b9050600081600001519050816080015173ffffffffffffffffffffffffffffffffffffffff163373ffffffffffffffffffffffffffffffffffffffff1614610cad57600080fd5b828260a0018190525081600d6000838152602001908152602001600020600082015181600001556020820151816001019080519060200190610cf092919061297d565b506040820151816002019080519060200190610d0d92919061297d565b506060820151816003019080519060200190610d2a92919061297d565b5060808201518160040160006101000a81548173ffffffffffffffffffffffffffffffffffffffff021916908373ffffffffffffffffffffffffffffffffffffffff16021790555060a0820151816005019080519060200190610d8e92919061297d565b5090505050505050565b610da0611e00565b73ffffffffffffffffffffffffffffffffffffffff16610dbe6111eb565b73ffffffffffffffffffffffffffffffffffffffff1614610e14576040517f08c379a0000000000000000000000000000000000000000000000000000000008152600401610e0b9061389f565b60405180910390fd5b80600c9080519060200190610e2a92919061297d565b5050565b6000806002600084815260200190815260200160002060009054906101000a900473ffffffffffffffffffffffffffffffffffffffff169050600073ffffffffffffffffffffffffffffffffffffffff168173ffffffffffffffffffffffffffffffffffffffff161415610ed7576040517f08c379a0000000000000000000000000000000000000000000000000000000008152600401610ece9061383f565b60405180910390fd5b80915050919050565b6000610eeb836112a7565b9050600081600001519050816080015173ffffffffffffffffffffffffffffffffffffffff163373ffffffffffffffffffffffffffffffffffffffff1614610f3257600080fd5b82826040018190525081600d6000838152602001908152602001600020600082015181600001556020820151816001019080519060200190610f7592919061297d565b506040820151816002019080519060200190610f9292919061297d565b506060820151816003019080519060200190610faf92919061297d565b5060808201518160040160006101000a81548173ffffffffffffffffffffffffffffffffffffffff021916908373ffffffffffffffffffffffffffffffffffffffff16021790555060a082015181600501908051906020019061101392919061297d565b5090505050505050565b600c805461102a90613bbe565b80601f016020809104026020016040519081016040528092919081815260200182805461105690613bbe565b80156110a35780601f10611078576101008083540402835291602001916110a3565b820191906000526020600020905b81548152906001019060200180831161108657829003601f168201915b505050505081565b60008073ffffffffffffffffffffffffffffffffffffffff168273ffffffffffffffffffffffffffffffffffffffff16141561111c576040517f08c379a00000000000000000000000000000000000000000000000000000000081526004016111139061381f565b60405180910390fd5b600360008373ffffffffffffffffffffffffffffffffffffffff1673ffffffffffffffffffffffffffffffffffffffff168152602001908152602001600020549050919050565b61116b611e00565b73ffffffffffffffffffffffffffffffffffffffff166111896111eb565b73ffffffffffffffffffffffffffffffffffffffff16146111df576040517f08c379a00000000000000000000000000000000000000000000000000000000081526004016111d69061389f565b60405180910390fd5b6111e960006122f5565b565b6000600760009054906101000a900473ffffffffffffffffffffffffffffffffffffffff16905090565b60606001805461122490613bbe565b80601f016020809104026020016040519081016040528092919081815260200182805461125090613bbe565b801561129d5780601f106112725761010080835404028352916020019161129d565b820191906000526020600020905b81548152906001019060200180831161128057829003601f168201915b5050505050905090565b6112af612a03565b600015156112bc83612206565b1515146112c857600080fd5b60006112d460086122c9565b905060005b8181101561164457836040516020016112f291906135b4565b60405160208183030381529060405280519060200120600d60006001846113199190613a6c565b815260200190815260200160002060010160405160200161133a91906135cb565b60405160208183030381529060405280519060200120141561163157600d60006001836113679190613a6c565b81526020019081526020016000206040518060c00160405290816000820154815260200160018201805461139a90613bbe565b80601f01602080910402602001604051908101604052809291908181526020018280546113c690613bbe565b80156114135780601f106113e857610100808354040283529160200191611413565b820191906000526020600020905b8154815290600101906020018083116113f657829003601f168201915b5050505050815260200160028201805461142c90613bbe565b80601f016020809104026020016040519081016040528092919081815260200182805461145890613bbe565b80156114a55780601f1061147a576101008083540402835291602001916114a5565b820191906000526020600020905b81548152906001019060200180831161148857829003601f168201915b505050505081526020016003820180546114be90613bbe565b80601f01602080910402602001604051908101604052809291908181526020018280546114ea90613bbe565b80156115375780601f1061150c57610100808354040283529160200191611537565b820191906000526020600020905b81548152906001019060200180831161151a57829003601f168201915b505050505081526020016004820160009054906101000a900473ffffffffffffffffffffffffffffffffffffffff1673ffffffffffffffffffffffffffffffffffffffff1673ffffffffffffffffffffffffffffffffffffffff1681526020016005820180546115a690613bbe565b80601f01602080910402602001604051908101604052809291908181526020018280546115d290613bbe565b801561161f5780601f106115f45761010080835404028352916020019161161f565b820191906000526020600020905b81548152906001019060200180831161160257829003601f168201915b50505050508152505092505050611647565b808061163c90613c21565b9150506112d9565b50505b919050565b61165e611657611e00565b83836123bb565b5050565b61166a612a03565b600d60008381526020019081526020016000206040518060c0016040529081600082015481526020016001820180546116a290613bbe565b80601f01602080910402602001604051908101604052809291908181526020018280546116ce90613bbe565b801561171b5780601f106116f05761010080835404028352916020019161171b565b820191906000526020600020905b8154815290600101906020018083116116fe57829003601f168201915b5050505050815260200160028201805461173490613bbe565b80601f016020809104026020016040519081016040528092919081815260200182805461176090613bbe565b80156117ad5780601f10611782576101008083540402835291602001916117ad565b820191906000526020600020905b81548152906001019060200180831161179057829003601f168201915b505050505081526020016003820180546117c690613bbe565b80601f01602080910402602001604051908101604052809291908181526020018280546117f290613bbe565b801561183f5780601f106118145761010080835404028352916020019161183f565b820191906000526020600020905b81548152906001019060200180831161182257829003601f168201915b505050505081526020016004820160009054906101000a900473ffffffffffffffffffffffffffffffffffffffff1673ffffffffffffffffffffffffffffffffffffffff1673ffffffffffffffffffffffffffffffffffffffff1681526020016005820180546118ae90613bbe565b80601f01602080910402602001604051908101604052809291908181526020018280546118da90613bbe565b80156119275780601f106118fc57610100808354040283529160200191611927565b820191906000526020600020905b81548152906001019060200180831161190a57829003601f168201915b5050505050815250509050919050565b611948611942611e00565b83611ec1565b611987576040517f08c379a000000000000000000000000000000000000000000000000000000000815260040161197e906138ff565b60405180910390fd5b61199384848484612528565b50505050565b816080015173ffffffffffffffffffffffffffffffffffffffff163373ffffffffffffffffffffffffffffffffffffffff16146119d557600080fd5b80826040018190525081600d600084600001518152602001908152602001600020600082015181600001556020820151816001019080519060200190611a1c92919061297d565b506040820151816002019080519060200190611a3992919061297d565b506060820151816003019080519060200190611a5692919061297d565b5060808201518160040160006101000a81548173ffffffffffffffffffffffffffffffffffffffff021916908373ffffffffffffffffffffffffffffffffffffffff16021790555060a0820151816005019080519060200190611aba92919061297d565b509050505050565b6060611acd82611d94565b611b0c576040517f08c379a0000000000000000000000000000000000000000000000000000000008152600401611b03906138bf565b60405180910390fd5b600c8054611b1990613bbe565b80601f0160208091040260200160405190810160405280929190818152602001828054611b4590613bbe565b8015611b925780601f10611b6757610100808354040283529160200191611b92565b820191906000526020600020905b815481529060010190602001808311611b7557829003601f168201915b50505050509050919050565b6000600560008473ffffffffffffffffffffffffffffffffffffffff1673ffffffffffffffffffffffffffffffffffffffff16815260200190815260200160002060008373ffffffffffffffffffffffffffffffffffffffff1673ffffffffffffffffffffffffffffffffffffffff16815260200190815260200160002060009054906101000a900460ff16905092915050565b611c3a611e00565b73ffffffffffffffffffffffffffffffffffffffff16611c586111eb565b73ffffffffffffffffffffffffffffffffffffffff1614611cae576040517f08c379a0000000000000000000000000000000000000000000000000000000008152600401611ca59061389f565b60405180910390fd5b600073ffffffffffffffffffffffffffffffffffffffff168173ffffffffffffffffffffffffffffffffffffffff161415611d1e576040517f08c379a0000000000000000000000000000000000000000000000000000000008152600401611d159061373f565b60405180910390fd5b611d27816122f5565b50565b60007f01ffc9a7000000000000000000000000000000000000000000000000000000007bffffffffffffffffffffffffffffffffffffffffffffffffffffffff1916827bffffffffffffffffffffffffffffffffffffffffffffffffffffffff1916149050919050565b60008073ffffffffffffffffffffffffffffffffffffffff166002600084815260200190815260200160002060009054906101000a900473ffffffffffffffffffffffffffffffffffffffff1673ffffffffffffffffffffffffffffffffffffffff1614159050919050565b600033905090565b816004600083815260200190815260200160002060006101000a81548173ffffffffffffffffffffffffffffffffffffffff021916908373ffffffffffffffffffffffffffffffffffffffff160217905550808273ffffffffffffffffffffffffffffffffffffffff16611e7b83610e2e565b73ffffffffffffffffffffffffffffffffffffffff167f8c5be1e5ebec7d5bd14f71427d1e84f3dd0314c0f7b2291e5b200ac8c7c3b92560405160405180910390a45050565b6000611ecc82611d94565b611f0b576040517f08c379a0000000000000000000000000000000000000000000000000000000008152600401611f02906137df565b60405180910390fd5b6000611f1683610e2e565b90508073ffffffffffffffffffffffffffffffffffffffff168473ffffffffffffffffffffffffffffffffffffffff161480611f8557508373ffffffffffffffffffffffffffffffffffffffff16611f6d846106fe565b73ffffffffffffffffffffffffffffffffffffffff16145b80611f965750611f958185611b9e565b5b91505092915050565b8273ffffffffffffffffffffffffffffffffffffffff16611fbf82610e2e565b73ffffffffffffffffffffffffffffffffffffffff1614612015576040517f08c379a000000000000000000000000000000000000000000000000000000000815260040161200c9061375f565b60405180910390fd5b600073ffffffffffffffffffffffffffffffffffffffff168273ffffffffffffffffffffffffffffffffffffffff161415612085576040517f08c379a000000000000000000000000000000000000000000000000000000000815260040161207c9061379f565b60405180910390fd5b612090838383612584565b61209b600082611e08565b6001600360008573ffffffffffffffffffffffffffffffffffffffff1673ffffffffffffffffffffffffffffffffffffffff16815260200190815260200160002060008282546120eb9190613ac2565b925050819055506001600360008473ffffffffffffffffffffffffffffffffffffffff1673ffffffffffffffffffffffffffffffffffffffff16815260200190815260200160002060008282546121429190613a6c565b92505081905550816002600083815260200190815260200160002060006101000a81548173ffffffffffffffffffffffffffffffffffffffff021916908373ffffffffffffffffffffffffffffffffffffffff160217905550808273ffffffffffffffffffffffffffffffffffffffff168473ffffffffffffffffffffffffffffffffffffffff167fddf252ad1be2c89b69c2b068fc378daa952ba7f163c4a11628f55a4df523b3ef60405160405180910390a4612201838383612589565b505050565b60008061221360086122c9565b905060005b818110156122a7578360405160200161223191906135b4565b60405160208183030381529060405280519060200120600d600083815260200190815260200160002060010160405160200161226d91906135cb565b604051602081830303815290604052805190602001201415612294576000925050506122ae565b808061229f90613c21565b915050612218565b5060019150505b919050565b6001816000016000828254019250508190555050565b600081600001549050919050565b6122f182826040518060200160405280600081525061258e565b5050565b6000600760009054906101000a900473ffffffffffffffffffffffffffffffffffffffff16905081600760006101000a81548173ffffffffffffffffffffffffffffffffffffffff021916908373ffffffffffffffffffffffffffffffffffffffff1602179055508173ffffffffffffffffffffffffffffffffffffffff168173ffffffffffffffffffffffffffffffffffffffff167f8be0079c531659141344cd1fd0a4f28419497f9722a3daafe3b4186f6b6457e060405160405180910390a35050565b8173ffffffffffffffffffffffffffffffffffffffff168373ffffffffffffffffffffffffffffffffffffffff16141561242a576040517f08c379a0000000000000000000000000000000000000000000000000000000008152600401612421906137bf565b60405180910390fd5b80600560008573ffffffffffffffffffffffffffffffffffffffff1673ffffffffffffffffffffffffffffffffffffffff16815260200190815260200160002060008473ffffffffffffffffffffffffffffffffffffffff1673ffffffffffffffffffffffffffffffffffffffff16815260200190815260200160002060006101000a81548160ff0219169083151502179055508173ffffffffffffffffffffffffffffffffffffffff168373ffffffffffffffffffffffffffffffffffffffff167f17307eab39ab6107e8899845ad3d59bd9653f200f220920489ca2b5937696c318360405161251b9190613688565b60405180910390a3505050565b612533848484611f9f565b61253f848484846125e9565b61257e576040517f08c379a00000000000000000000000000000000000000000000000000000000081526004016125759061371f565b60405180910390fd5b50505050565b505050565b505050565b6125988383612780565b6125a560008484846125e9565b6125e4576040517f08c379a00000000000000000000000000000000000000000000000000000000081526004016125db9061371f565b60405180910390fd5b505050565b600061260a8473ffffffffffffffffffffffffffffffffffffffff1661295a565b15612773578373ffffffffffffffffffffffffffffffffffffffff1663150b7a02612633611e00565b8786866040518563ffffffff1660e01b8152600401612655949392919061363c565b602060405180830381600087803b15801561266f57600080fd5b505af19250505080156126a057506040513d601f19601f8201168201806040525081019061269d9190612e86565b60015b612723573d80600081146126d0576040519150601f19603f3d011682016040523d82523d6000602084013e6126d5565b606091505b5060008151141561271b576040517f08c379a00000000000000000000000000000000000000000000000000000000081526004016127129061371f565b60405180910390fd5b805181602001fd5b63150b7a0260e01b7bffffffffffffffffffffffffffffffffffffffffffffffffffffffff1916817bffffffffffffffffffffffffffffffffffffffffffffffffffffffff191614915050612778565b600190505b949350505050565b600073ffffffffffffffffffffffffffffffffffffffff168273ffffffffffffffffffffffffffffffffffffffff1614156127f0576040517f08c379a00000000000000000000000000000000000000000000000000000000081526004016127e79061385f565b60405180910390fd5b6127f981611d94565b15612839576040517f08c379a00000000000000000000000000000000000000000000000000000000081526004016128309061377f565b60405180910390fd5b61284560008383612584565b6001600360008473ffffffffffffffffffffffffffffffffffffffff1673ffffffffffffffffffffffffffffffffffffffff16815260200190815260200160002060008282546128959190613a6c565b92505081905550816002600083815260200190815260200160002060006101000a81548173ffffffffffffffffffffffffffffffffffffffff021916908373ffffffffffffffffffffffffffffffffffffffff160217905550808273ffffffffffffffffffffffffffffffffffffffff16600073ffffffffffffffffffffffffffffffffffffffff167fddf252ad1be2c89b69c2b068fc378daa952ba7f163c4a11628f55a4df523b3ef60405160405180910390a461295660008383612589565b5050565b6000808273ffffffffffffffffffffffffffffffffffffffff163b119050919050565b82805461298990613bbe565b90600052602060002090601f0160209004810192826129ab57600085556129f2565b82601f106129c457805160ff19168380011785556129f2565b828001600101855582156129f2579182015b828111156129f15782518255916020019190600101906129d6565b5b5090506129ff9190612a4f565b5090565b6040518060c0016040528060008152602001606081526020016060815260200160608152602001600073ffffffffffffffffffffffffffffffffffffffff168152602001606081525090565b5b80821115612a68576000816000905550600101612a50565b5090565b6000612a7f612a7a846139a1565b61397c565b905082815260208101848484011115612a9757600080fd5b612aa2848285613b7c565b509392505050565b6000612abd612ab8846139d2565b61397c565b905082815260208101848484011115612ad557600080fd5b612ae0848285613b7c565b509392505050565b600081359050612af781614204565b92915050565b600081359050612b0c8161421b565b92915050565b600081359050612b2181614232565b92915050565b600081359050612b3681614249565b92915050565b600081519050612b4b81614249565b92915050565b600082601f830112612b6257600080fd5b8135612b72848260208601612a6c565b91505092915050565b600082601f830112612b8c57600080fd5b8135612b9c848260208601612aaa565b91505092915050565b600060c08284031215612bb757600080fd5b612bc160c061397c565b90506000612bd184828501612ca1565b600083015250602082013567ffffffffffffffff811115612bf157600080fd5b612bfd84828501612b7b565b602083015250604082013567ffffffffffffffff811115612c1d57600080fd5b612c2984828501612b7b565b604083015250606082013567ffffffffffffffff811115612c4957600080fd5b612c5584828501612b7b565b6060830152506080612c6984828501612afd565b60808301525060a082013567ffffffffffffffff811115612c8957600080fd5b612c9584828501612b7b565b60a08301525092915050565b600081359050612cb081614260565b92915050565b600060208284031215612cc857600080fd5b6000612cd684828501612ae8565b91505092915050565b60008060408385031215612cf257600080fd5b6000612d0085828601612ae8565b9250506020612d1185828601612ae8565b9150509250929050565b600080600060608486031215612d3057600080fd5b6000612d3e86828701612ae8565b9350506020612d4f86828701612ae8565b9250506040612d6086828701612ca1565b9150509250925092565b60008060008060808587031215612d8057600080fd5b6000612d8e87828801612ae8565b9450506020612d9f87828801612ae8565b9350506040612db087828801612ca1565b925050606085013567ffffffffffffffff811115612dcd57600080fd5b612dd987828801612b51565b91505092959194509250565b60008060408385031215612df857600080fd5b6000612e0685828601612ae8565b9250506020612e1785828601612b12565b9150509250929050565b60008060408385031215612e3457600080fd5b6000612e4285828601612ae8565b9250506020612e5385828601612ca1565b9150509250929050565b600060208284031215612e6f57600080fd5b6000612e7d84828501612b27565b91505092915050565b600060208284031215612e9857600080fd5b6000612ea684828501612b3c565b91505092915050565b600060208284031215612ec157600080fd5b600082013567ffffffffffffffff811115612edb57600080fd5b612ee784828501612b7b565b91505092915050565b60008060408385031215612f0357600080fd5b600083013567ffffffffffffffff811115612f1d57600080fd5b612f2985828601612b7b565b925050602083013567ffffffffffffffff811115612f4657600080fd5b612f5285828601612b7b565b9150509250929050565b60008060008060808587031215612f7257600080fd5b600085013567ffffffffffffffff811115612f8c57600080fd5b612f9887828801612b7b565b945050602085013567ffffffffffffffff811115612fb557600080fd5b612fc187828801612b7b565b935050604085013567ffffffffffffffff811115612fde57600080fd5b612fea87828801612b7b565b925050606085013567ffffffffffffffff81111561300757600080fd5b61301387828801612b7b565b91505092959194509250565b6000806040838503121561303257600080fd5b600083013567ffffffffffffffff81111561304c57600080fd5b61305885828601612ba5565b925050602083013567ffffffffffffffff81111561307557600080fd5b61308185828601612b7b565b9150509250929050565b60006020828403121561309d57600080fd5b60006130ab84828501612ca1565b91505092915050565b6130bd81613b08565b82525050565b6130cc81613af6565b82525050565b6130db81613b1a565b82525050565b60006130ec82613a18565b6130f68185613a2e565b9350613106818560208601613b8b565b61310f81613cf7565b840191505092915050565b600061312582613a23565b61312f8185613a3f565b935061313f818560208601613b8b565b61314881613cf7565b840191505092915050565b600061315e82613a23565b6131688185613a50565b9350613178818560208601613b8b565b61318181613cf7565b840191505092915050565b600061319782613a23565b6131a18185613a61565b93506131b1818560208601613b8b565b80840191505092915050565b600081546131ca81613bbe565b6131d48186613a61565b945060018216600081146131ef576001811461320057613233565b60ff19831686528186019350613233565b61320985613a03565b60005b8381101561322b5781548189015260018201915060208101905061320c565b838801955050505b50505092915050565b6000613249603283613a50565b915061325482613d08565b604082019050919050565b600061326c602683613a50565b915061327782613d57565b604082019050919050565b600061328f602583613a50565b915061329a82613da6565b604082019050919050565b60006132b2601c83613a50565b91506132bd82613df5565b602082019050919050565b60006132d5600983613a61565b91506132e082613e1e565b600982019050919050565b60006132f8600383613a61565b915061330382613e47565b600382019050919050565b600061331b602483613a50565b915061332682613e70565b604082019050919050565b600061333e601983613a50565b915061334982613ebf565b602082019050919050565b6000613361602c83613a50565b915061336c82613ee8565b604082019050919050565b6000613384603883613a50565b915061338f82613f37565b604082019050919050565b60006133a7602a83613a50565b91506133b282613f86565b604082019050919050565b60006133ca602983613a50565b91506133d582613fd5565b604082019050919050565b60006133ed602083613a50565b91506133f882614024565b602082019050919050565b6000613410602c83613a50565b915061341b8261404d565b604082019050919050565b6000613433602083613a50565b915061343e8261409c565b602082019050919050565b6000613456602f83613a50565b9150613461826140c5565b604082019050919050565b6000613479600583613a61565b915061348482614114565b600582019050919050565b600061349c602183613a50565b91506134a78261413d565b604082019050919050565b60006134bf603183613a50565b91506134ca8261418c565b604082019050919050565b60006134e2601f83613a50565b91506134ed826141db565b602082019050919050565b600060c0830160008301516135106000860182613596565b5060208301518482036020860152613528828261311a565b91505060408301518482036040860152613542828261311a565b9150506060830151848203606086015261355c828261311a565b915050608083015161357160808601826130b4565b5060a083015184820360a0860152613589828261311a565b9150508091505092915050565b61359f81613b72565b82525050565b6135ae81613b72565b82525050565b60006135c0828461318c565b915081905092915050565b60006135d782846131bd565b915081905092915050565b60006135ed826132c8565b9150819050919050565b6000613602826132eb565b9150819050919050565b60006136178261346c565b9150819050919050565b600060208201905061363660008301846130c3565b92915050565b600060808201905061365160008301876130c3565b61365e60208301866130c3565b61366b60408301856135a5565b818103606083015261367d81846130e1565b905095945050505050565b600060208201905061369d60008301846130d2565b92915050565b600060208201905081810360008301526136bd8184613153565b905092915050565b600060808201905081810360008301526136df8187613153565b905081810360208301526136f38186613153565b905061370260408301856130c3565b81810360608301526137148184613153565b905095945050505050565b600060208201905081810360008301526137388161323c565b9050919050565b600060208201905081810360008301526137588161325f565b9050919050565b6000602082019050818103600083015261377881613282565b9050919050565b60006020820190508181036000830152613798816132a5565b9050919050565b600060208201905081810360008301526137b88161330e565b9050919050565b600060208201905081810360008301526137d881613331565b9050919050565b600060208201905081810360008301526137f881613354565b9050919050565b6000602082019050818103600083015261381881613377565b9050919050565b600060208201905081810360008301526138388161339a565b9050919050565b60006020820190508181036000830152613858816133bd565b9050919050565b60006020820190508181036000830152613878816133e0565b9050919050565b6000602082019050818103600083015261389881613403565b9050919050565b600060208201905081810360008301526138b881613426565b9050919050565b600060208201905081810360008301526138d881613449565b9050919050565b600060208201905081810360008301526138f88161348f565b9050919050565b60006020820190508181036000830152613918816134b2565b9050919050565b60006020820190508181036000830152613938816134d5565b9050919050565b6000602082019050818103600083015261395981846134f8565b905092915050565b600060208201905061397660008301846135a5565b92915050565b6000613986613997565b90506139928282613bf0565b919050565b6000604051905090565b600067ffffffffffffffff8211156139bc576139bb613cc8565b5b6139c582613cf7565b9050602081019050919050565b600067ffffffffffffffff8211156139ed576139ec613cc8565b5b6139f682613cf7565b9050602081019050919050565b60008190508160005260206000209050919050565b600081519050919050565b600081519050919050565b600082825260208201905092915050565b600082825260208201905092915050565b600082825260208201905092915050565b600081905092915050565b6000613a7782613b72565b9150613a8283613b72565b9250827fffffffffffffffffffffffffffffffffffffffffffffffffffffffffffffffff03821115613ab757613ab6613c6a565b5b828201905092915050565b6000613acd82613b72565b9150613ad883613b72565b925082821015613aeb57613aea613c6a565b5b828203905092915050565b6000613b0182613b52565b9050919050565b6000613b1382613b52565b9050919050565b60008115159050919050565b60007fffffffff0000000000000000000000000000000000000000000000000000000082169050919050565b600073ffffffffffffffffffffffffffffffffffffffff82169050919050565b6000819050919050565b82818337600083830152505050565b60005b83811015613ba9578082015181840152602081019050613b8e565b83811115613bb8576000848401525b50505050565b60006002820490506001821680613bd657607f821691505b60208210811415613bea57613be9613c99565b5b50919050565b613bf982613cf7565b810181811067ffffffffffffffff82111715613c1857613c17613cc8565b5b80604052505050565b6000613c2c82613b72565b91507fffffffffffffffffffffffffffffffffffffffffffffffffffffffffffffffff821415613c5f57613c5e613c6a565b5b600182019050919050565b7f4e487b7100000000000000000000000000000000000000000000000000000000600052601160045260246000fd5b7f4e487b7100000000000000000000000000000000000000000000000000000000600052602260045260246000fd5b7f4e487b7100000000000000000000000000000000000000000000000000000000600052604160045260246000fd5b6000601f19601f8301169050919050565b7f4552433732313a207472616e7366657220746f206e6f6e20455243373231526560008201527f63656976657220696d706c656d656e7465720000000000000000000000000000602082015250565b7f4f776e61626c653a206e6577206f776e657220697320746865207a65726f206160008201527f6464726573730000000000000000000000000000000000000000000000000000602082015250565b7f4552433732313a207472616e736665722066726f6d20696e636f72726563742060008201527f6f776e6572000000000000000000000000000000000000000000000000000000602082015250565b7f4552433732313a20746f6b656e20616c7265616479206d696e74656400000000600082015250565b7f756e6c696d697465640000000000000000000000000000000000000000000000600082015250565b7f70726f0000000000000000000000000000000000000000000000000000000000600082015250565b7f4552433732313a207472616e7366657220746f20746865207a65726f2061646460008201527f7265737300000000000000000000000000000000000000000000000000000000602082015250565b7f4552433732313a20617070726f766520746f2063616c6c657200000000000000600082015250565b7f4552433732313a206f70657261746f7220717565727920666f72206e6f6e657860008201527f697374656e7420746f6b656e0000000000000000000000000000000000000000602082015250565b7f4552433732313a20617070726f76652063616c6c6572206973206e6f74206f7760008201527f6e6572206e6f7220617070726f76656420666f7220616c6c0000000000000000602082015250565b7f4552433732313a2062616c616e636520717565727920666f7220746865207a6560008201527f726f206164647265737300000000000000000000000000000000000000000000602082015250565b7f4552433732313a206f776e657220717565727920666f72206e6f6e657869737460008201527f656e7420746f6b656e0000000000000000000000000000000000000000000000602082015250565b7f4552433732313a206d696e7420746f20746865207a65726f2061646472657373600082015250565b7f4552433732313a20617070726f76656420717565727920666f72206e6f6e657860008201527f697374656e7420746f6b656e0000000000000000000000000000000000000000602082015250565b7f4f776e61626c653a2063616c6c6572206973206e6f7420746865206f776e6572600082015250565b7f4552433732314d657461646174613a2055524920717565727920666f72206e6f60008201527f6e6578697374656e7420746f6b656e0000000000000000000000000000000000602082015250565b7f6261736963000000000000000000000000000000000000000000000000000000600082015250565b7f4552433732313a20617070726f76616c20746f2063757272656e74206f776e6560008201527f7200000000000000000000000000000000000000000000000000000000000000602082015250565b7f4552433732313a207472616e736665722063616c6c6572206973206e6f74206f60008201527f776e6572206e6f7220617070726f766564000000000000000000000000000000602082015250565b7f5265656e7472616e637947756172643a207265656e7472616e742063616c6c00600082015250565b61420d81613af6565b811461421857600080fd5b50565b61422481613b08565b811461422f57600080fd5b50565b61423b81613b1a565b811461424657600080fd5b50565b61425281613b26565b811461425d57600080fd5b50565b61426981613b72565b811461427457600080fd5b5056fea26469706673582212207c18c89acfba889d639acc10348128b6796c7c16977557095b760f03a6a0efa064736f6c63430008040033",
  "linkReferences": {},
  "deployedLinkReferences": {}
}