{
  "_format": "hh-sol-artifact-1",
  "contractName": "Marketplace",
  "sourceName": "contracts/Marketplace.sol",
  "abi": [
    {
      "inputs": [],
      "stateMutability": "nonpayable",
      "type": "constructor"
    },
    {
      "anonymous": false,
      "inputs": [
        {
          "indexed": true,
          "internalType": "uint256",
          "name": "itemId",
          "type": "uint256"
        },
        {
          "indexed": false,
          "internalType": "uint256",
          "name": "tokenId",
          "type": "uint256"
        },
        {
          "indexed": false,
          "internalType": "uint256",
          "name": "price",
          "type": "uint256"
        },
        {
          "indexed": true,
          "internalType": "address",
          "name": "nftContract",
          "type": "address"
        },
        {
          "indexed": true,
          "internalType": "address",
          "name": "owner",
          "type": "address"
        },
        {
          "indexed": false,
          "internalType": "bool",
          "name": "sold",
          "type": "bool"
        },
        {
          "indexed": false,
          "internalType": "bool",
          "name": "active",
          "type": "bool"
        }
      ],
      "name": "ListingCreated",
      "type": "event"
    },
    {
      "anonymous": false,
      "inputs": [
        {
          "indexed": true,
          "internalType": "address",
          "name": "previousOwner",
          "type": "address"
        },
        {
          "indexed": true,
          "internalType": "address",
          "name": "newOwner",
          "type": "address"
        }
      ],
      "name": "OwnershipTransferred",
      "type": "event"
    },
    {
      "inputs": [
        {
          "internalType": "address",
          "name": "nftContract",
          "type": "address"
        },
        {
          "internalType": "uint256",
          "name": "itemId",
          "type": "uint256"
        }
      ],
      "name": "buyNow",
      "outputs": [],
      "stateMutability": "payable",
      "type": "function"
    },
    {
      "inputs": [
        {
          "internalType": "uint256",
          "name": "itemId",
          "type": "uint256"
        }
      ],
      "name": "cancelListing",
      "outputs": [],
      "stateMutability": "payable",
      "type": "function"
    },
    {
      "inputs": [
        {
          "internalType": "uint256",
          "name": "tokenId",
          "type": "uint256"
        },
        {
          "internalType": "uint256",
          "name": "price",
          "type": "uint256"
        },
        {
          "internalType": "address",
          "name": "nftContract",
          "type": "address"
        }
      ],
      "name": "createListing",
      "outputs": [],
      "stateMutability": "payable",
      "type": "function"
    },
    {
      "inputs": [
        {
          "internalType": "uint256",
          "name": "id",
          "type": "uint256"
        }
      ],
      "name": "getListingPrice",
      "outputs": [
        {
          "internalType": "uint256",
          "name": "",
          "type": "uint256"
        }
      ],
      "stateMutability": "view",
      "type": "function"
    },
    {
      "inputs": [],
      "name": "owner",
      "outputs": [
        {
          "internalType": "address",
          "name": "",
          "type": "address"
        }
      ],
      "stateMutability": "view",
      "type": "function"
    },
    {
      "inputs": [],
      "name": "renounceOwnership",
      "outputs": [],
      "stateMutability": "nonpayable",
      "type": "function"
    },
    {
      "inputs": [
        {
          "internalType": "address",
          "name": "newOwner",
          "type": "address"
        }
      ],
      "name": "transferOwnership",
      "outputs": [],
      "stateMutability": "nonpayable",
      "type": "function"
    }
  ],
  "bytecode": "0x6080604052670de0b6b3a764000060045534801561001c57600080fd5b50600160008190555061004161003661004660201b60201c565b61004e60201b60201c565b610114565b600033905090565b6000600160009054906101000a900473ffffffffffffffffffffffffffffffffffffffff16905081600160006101000a81548173ffffffffffffffffffffffffffffffffffffffff021916908373ffffffffffffffffffffffffffffffffffffffff1602179055508173ffffffffffffffffffffffffffffffffffffffff168173ffffffffffffffffffffffffffffffffffffffff167f8be0079c531659141344cd1fd0a4f28419497f9722a3daafe3b4186f6b6457e060405160405180910390a35050565b61126a806101236000396000f3fe6080604052600436106100705760003560e01c8063715018a61161004e578063715018a6146100c95780638da5cb5b146100e0578063d6077fbf1461010b578063f2fde38b1461014857610070565b80630e4bdc901461007557806317e96ec614610091578063305a67a8146100ad575b600080fd5b61008f600480360381019061008a9190610c6e565b610171565b005b6100ab60048036038101906100a69190610cd3565b6104c2565b005b6100c760048036038101906100c29190610caa565b6107be565b005b3480156100d557600080fd5b506100de61095f565b005b3480156100ec57600080fd5b506100f56109e7565b6040516101029190610e67565b60405180910390f35b34801561011757600080fd5b50610132600480360381019061012d9190610caa565b610a11565b60405161013f9190610fb9565b60405180910390f35b34801561015457600080fd5b5061016f600480360381019061016a9190610c45565b610a31565b005b600260005414156101b7576040517f08c379a00000000000000000000000000000000000000000000000000000000081526004016101ae90610f99565b60405180910390fd5b6002600081905550600060056000838152602001908152602001600020600201549050600060056000848152602001908152602001600020600101549050813414610237576040517f08c379a000000000000000000000000000000000000000000000000000000000815260040161022e90610f19565b60405180910390fd5b600015156005600085815260200190815260200160002060040160149054906101000a900460ff161515146102a1576040517f08c379a000000000000000000000000000000000000000000000000000000000815260040161029890610ef9565b60405180910390fd5b600015156005600085815260200190815260200160002060040160159054906101000a900460ff1615151461030b576040517f08c379a000000000000000000000000000000000000000000000000000000000815260040161030290610eb9565b60405180910390fd5b60016005600085815260200190815260200160002060040160146101000a81548160ff0219169083151502179055506103446003610b29565b6005600084815260200190815260200160002060040160009054906101000a900473ffffffffffffffffffffffffffffffffffffffff1673ffffffffffffffffffffffffffffffffffffffff166108fc349081150290604051600060405180830381858888f193505050501580156103c0573d6000803e3d6000fd5b508373ffffffffffffffffffffffffffffffffffffffff166323b872dd3033846040518463ffffffff1660e01b81526004016103fe93929190610e82565b600060405180830381600087803b15801561041857600080fd5b505af115801561042c573d6000803e3d6000fd5b50505050336005600085815260200190815260200160002060040160006101000a81548173ffffffffffffffffffffffffffffffffffffffff021916908373ffffffffffffffffffffffffffffffffffffffff16021790555060006005600085815260200190815260200160002060040160156101000a81548160ff021916908315150217905550505060016000819055505050565b60026000541415610508576040517f08c379a00000000000000000000000000000000000000000000000000000000081526004016104ff90610f99565b60405180910390fd5b60026000819055506004543414610554576040517f08c379a000000000000000000000000000000000000000000000000000000000815260040161054b90610f39565b60405180910390fd5b61055e6002610b29565b600061056a6002610b3f565b90506040518060e001604052808281526020018581526020018481526020018373ffffffffffffffffffffffffffffffffffffffff1681526020013373ffffffffffffffffffffffffffffffffffffffff168152602001600015158152602001600115158152506005600083815260200190815260200160002060008201518160000155602082015181600101556040820151816002015560608201518160030160006101000a81548173ffffffffffffffffffffffffffffffffffffffff021916908373ffffffffffffffffffffffffffffffffffffffff16021790555060808201518160040160006101000a81548173ffffffffffffffffffffffffffffffffffffffff021916908373ffffffffffffffffffffffffffffffffffffffff16021790555060a08201518160040160146101000a81548160ff02191690831515021790555060c08201518160040160156101000a81548160ff0219169083151502179055509050508173ffffffffffffffffffffffffffffffffffffffff166323b872dd3330876040518463ffffffff1660e01b815260040161071093929190610e82565b600060405180830381600087803b15801561072a57600080fd5b505af115801561073e573d6000803e3d6000fd5b505050503373ffffffffffffffffffffffffffffffffffffffff168273ffffffffffffffffffffffffffffffffffffffff16827fd1151e953cc0d059e84b7988c7eb30dabce97ea30e483d6a7f037967a49fb0768787600060016040516107a89493929190610fd4565b60405180910390a4506001600081905550505050565b60026000541415610804576040517f08c379a00000000000000000000000000000000000000000000000000000000081526004016107fb90610f99565b60405180910390fd5b60026000819055506005600082815260200190815260200160002060040160009054906101000a900473ffffffffffffffffffffffffffffffffffffffff1673ffffffffffffffffffffffffffffffffffffffff163373ffffffffffffffffffffffffffffffffffffffff16146108b0576040517f08c379a00000000000000000000000000000000000000000000000000000000081526004016108a790610f79565b60405180910390fd5b60056000828152602001908152602001600020600080820160009055600182016000905560028201600090556003820160006101000a81549073ffffffffffffffffffffffffffffffffffffffff02191690556004820160006101000a81549073ffffffffffffffffffffffffffffffffffffffff02191690556004820160146101000a81549060ff02191690556004820160156101000a81549060ff02191690555050600160008190555050565b610967610b4d565b73ffffffffffffffffffffffffffffffffffffffff166109856109e7565b73ffffffffffffffffffffffffffffffffffffffff16146109db576040517f08c379a00000000000000000000000000000000000000000000000000000000081526004016109d290610f59565b60405180910390fd5b6109e56000610b55565b565b6000600160009054906101000a900473ffffffffffffffffffffffffffffffffffffffff16905090565b600060056000838152602001908152602001600020600201549050919050565b610a39610b4d565b73ffffffffffffffffffffffffffffffffffffffff16610a576109e7565b73ffffffffffffffffffffffffffffffffffffffff1614610aad576040517f08c379a0000000000000000000000000000000000000000000000000000000008152600401610aa490610f59565b60405180910390fd5b600073ffffffffffffffffffffffffffffffffffffffff168173ffffffffffffffffffffffffffffffffffffffff161415610b1d576040517f08c379a0000000000000000000000000000000000000000000000000000000008152600401610b1490610ed9565b60405180910390fd5b610b2681610b55565b50565b6001816000016000828254019250508190555050565b600081600001549050919050565b600033905090565b6000600160009054906101000a900473ffffffffffffffffffffffffffffffffffffffff16905081600160006101000a81548173ffffffffffffffffffffffffffffffffffffffff021916908373ffffffffffffffffffffffffffffffffffffffff1602179055508173ffffffffffffffffffffffffffffffffffffffff168173ffffffffffffffffffffffffffffffffffffffff167f8be0079c531659141344cd1fd0a4f28419497f9722a3daafe3b4186f6b6457e060405160405180910390a35050565b600081359050610c2a81611206565b92915050565b600081359050610c3f8161121d565b92915050565b600060208284031215610c5757600080fd5b6000610c6584828501610c1b565b91505092915050565b60008060408385031215610c8157600080fd5b6000610c8f85828601610c1b565b9250506020610ca085828601610c30565b9150509250929050565b600060208284031215610cbc57600080fd5b6000610cca84828501610c30565b91505092915050565b600080600060608486031215610ce857600080fd5b6000610cf686828701610c30565b9350506020610d0786828701610c30565b9250506040610d1886828701610c1b565b9150509250925092565b610d2b8161102a565b82525050565b610d3a8161103c565b82525050565b6000610d4d602083611019565b9150610d5882611072565b602082019050919050565b6000610d70602683611019565b9150610d7b8261109b565b604082019050919050565b6000610d93601f83611019565b9150610d9e826110ea565b602082019050919050565b6000610db6604083611019565b9150610dc182611113565b604082019050919050565b6000610dd9601683611019565b9150610de482611162565b602082019050919050565b6000610dfc602083611019565b9150610e078261118b565b602082019050919050565b6000610e1f600983611019565b9150610e2a826111b4565b602082019050919050565b6000610e42601f83611019565b9150610e4d826111dd565b602082019050919050565b610e6181611068565b82525050565b6000602082019050610e7c6000830184610d22565b92915050565b6000606082019050610e976000830186610d22565b610ea46020830185610d22565b610eb16040830184610e58565b949350505050565b60006020820190508181036000830152610ed281610d40565b9050919050565b60006020820190508181036000830152610ef281610d63565b9050919050565b60006020820190508181036000830152610f1281610d86565b9050919050565b60006020820190508181036000830152610f3281610da9565b9050919050565b60006020820190508181036000830152610f5281610dcc565b9050919050565b60006020820190508181036000830152610f7281610def565b9050919050565b60006020820190508181036000830152610f9281610e12565b9050919050565b60006020820190508181036000830152610fb281610e35565b9050919050565b6000602082019050610fce6000830184610e58565b92915050565b6000608082019050610fe96000830187610e58565b610ff66020830186610e58565b6110036040830185610d31565b6110106060830184610d31565b95945050505050565b600082825260208201905092915050565b600061103582611048565b9050919050565b60008115159050919050565b600073ffffffffffffffffffffffffffffffffffffffff82169050919050565b6000819050919050565b7f54686973206c697374696e67206973206e6f206c6f6e67657220616374697665600082015250565b7f4f776e61626c653a206e6577206f776e657220697320746865207a65726f206160008201527f6464726573730000000000000000000000000000000000000000000000000000602082015250565b7f54686973206974656d2068617320616c7265616479206265656e20736f6c6400600082015250565b7f506c65617365207375626d6974207468652061736b696e67207072696365206960008201527f6e206f7264657220746f20636f6d706c65746520746865207075726368617365602082015250565b7f506c6561736520706179206c697374696e672066656500000000000000000000600082015250565b7f4f776e61626c653a2063616c6c6572206973206e6f7420746865206f776e6572600082015250565b7f4e6f74206f776e65720000000000000000000000000000000000000000000000600082015250565b7f5265656e7472616e637947756172643a207265656e7472616e742063616c6c00600082015250565b61120f8161102a565b811461121a57600080fd5b50565b61122681611068565b811461123157600080fd5b5056fea264697066735822122052dd70c54d3a9ee1225171e63eac5a9890b0a399e26397fcce49802fce7a0f2f64736f6c63430008040033",
  "linkReferences": {},
  "deployedLinkReferences": {}
}