{
  "_format": "hh-sol-artifact-1",
  "contractName": "Marketplace",
  "sourceName": "contracts/Marketplace.sol",
  "abi": [
    {
      "inputs": [],
      "stateMutability": "nonpayable",
      "type": "constructor"
    },
    {
      "anonymous": false,
      "inputs": [
        {
          "indexed": true,
          "internalType": "uint256",
          "name": "itemId",
          "type": "uint256"
        },
        {
          "indexed": false,
          "internalType": "uint256",
          "name": "tokenId",
          "type": "uint256"
        },
        {
          "indexed": false,
          "internalType": "uint256",
          "name": "price",
          "type": "uint256"
        },
        {
          "indexed": true,
          "internalType": "address",
          "name": "nftContract",
          "type": "address"
        },
        {
          "indexed": true,
          "internalType": "address",
          "name": "owner",
          "type": "address"
        },
        {
          "indexed": false,
          "internalType": "bool",
          "name": "sold",
          "type": "bool"
        },
        {
          "indexed": false,
          "internalType": "bool",
          "name": "active",
          "type": "bool"
        }
      ],
      "name": "ListingCreated",
      "type": "event"
    },
    {
      "anonymous": false,
      "inputs": [
        {
          "indexed": true,
          "internalType": "address",
          "name": "previousOwner",
          "type": "address"
        },
        {
          "indexed": true,
          "internalType": "address",
          "name": "newOwner",
          "type": "address"
        }
      ],
      "name": "OwnershipTransferred",
      "type": "event"
    },
    {
      "inputs": [
        {
          "internalType": "address",
          "name": "nftContract",
          "type": "address"
        },
        {
          "internalType": "uint256",
          "name": "itemId",
          "type": "uint256"
        }
      ],
      "name": "buyNow",
      "outputs": [],
      "stateMutability": "payable",
      "type": "function"
    },
    {
      "inputs": [
        {
          "internalType": "uint256",
          "name": "itemId",
          "type": "uint256"
        }
      ],
      "name": "cancelListing",
      "outputs": [],
      "stateMutability": "payable",
      "type": "function"
    },
    {
      "inputs": [
        {
          "internalType": "uint256",
          "name": "tokenId",
          "type": "uint256"
        },
        {
          "internalType": "uint256",
          "name": "priceIn",
          "type": "uint256"
        },
        {
          "internalType": "address",
          "name": "nftContract",
          "type": "address"
        }
      ],
      "name": "createListing",
      "outputs": [],
      "stateMutability": "payable",
      "type": "function"
    },
    {
      "inputs": [],
      "name": "fetchListings",
      "outputs": [
        {
          "components": [
            {
              "internalType": "uint256",
              "name": "listingId",
              "type": "uint256"
            },
            {
              "internalType": "uint256",
              "name": "tokenId",
              "type": "uint256"
            },
            {
              "internalType": "uint256",
              "name": "price",
              "type": "uint256"
            },
            {
              "internalType": "address",
              "name": "nftContract",
              "type": "address"
            },
            {
              "internalType": "address payable",
              "name": "owner",
              "type": "address"
            },
            {
              "internalType": "bool",
              "name": "sold",
              "type": "bool"
            },
            {
              "internalType": "bool",
              "name": "active",
              "type": "bool"
            }
          ],
          "internalType": "struct Marketplace.Listing[]",
          "name": "",
          "type": "tuple[]"
        }
      ],
      "stateMutability": "view",
      "type": "function"
    },
    {
      "inputs": [],
      "name": "getFee",
      "outputs": [
        {
          "internalType": "uint256",
          "name": "",
          "type": "uint256"
        }
      ],
      "stateMutability": "view",
      "type": "function"
    },
    {
      "inputs": [
        {
          "internalType": "uint256",
          "name": "id",
          "type": "uint256"
        }
      ],
      "name": "getListingPrice",
      "outputs": [
        {
          "internalType": "uint256",
          "name": "",
          "type": "uint256"
        }
      ],
      "stateMutability": "view",
      "type": "function"
    },
    {
      "inputs": [],
      "name": "owner",
      "outputs": [
        {
          "internalType": "address",
          "name": "",
          "type": "address"
        }
      ],
      "stateMutability": "view",
      "type": "function"
    },
    {
      "inputs": [],
      "name": "renounceOwnership",
      "outputs": [],
      "stateMutability": "nonpayable",
      "type": "function"
    },
    {
      "inputs": [
        {
          "internalType": "address",
          "name": "newOwner",
          "type": "address"
        }
      ],
      "name": "transferOwnership",
      "outputs": [],
      "stateMutability": "nonpayable",
      "type": "function"
    }
  ],
  "bytecode": "0x6080604052670de0b6b3a764000060045534801561001c57600080fd5b50600160008190555061004161003661004660201b60201c565b61004e60201b60201c565b610114565b600033905090565b6000600160009054906101000a900473ffffffffffffffffffffffffffffffffffffffff16905081600160006101000a81548173ffffffffffffffffffffffffffffffffffffffff021916908373ffffffffffffffffffffffffffffffffffffffff1602179055508173ffffffffffffffffffffffffffffffffffffffff168173ffffffffffffffffffffffffffffffffffffffff167f8be0079c531659141344cd1fd0a4f28419497f9722a3daafe3b4186f6b6457e060405160405180910390a35050565b611954806101236000396000f3fe6080604052600436106100865760003560e01c80638da5cb5b116100595780638da5cb5b146100f6578063a80f99ec14610121578063ced72f871461014c578063d6077fbf14610177578063f2fde38b146101b457610086565b80630e4bdc901461008b57806317e96ec6146100a7578063305a67a8146100c3578063715018a6146100df575b600080fd5b6100a560048036038101906100a0919061104f565b6101dd565b005b6100c160048036038101906100bc91906110b4565b61054b565b005b6100dd60048036038101906100d8919061108b565b61084d565b005b3480156100eb57600080fd5b506100f46109ee565b005b34801561010257600080fd5b5061010b610a76565b6040516101189190611388565b60405180910390f35b34801561012d57600080fd5b50610136610aa0565b60405161014391906113da565b60405180910390f35b34801561015857600080fd5b50610161610d7b565b60405161016e91906114fc565b60405180910390f35b34801561018357600080fd5b5061019e6004803603810190610199919061108b565b610d85565b6040516101ab91906114fc565b60405180910390f35b3480156101c057600080fd5b506101db60048036038101906101d69190611026565b610da5565b005b60026000541415610223576040517f08c379a000000000000000000000000000000000000000000000000000000000815260040161021a906114dc565b60405180910390fd5b600260008190555060006005600083815260200190815260200160002060020154670de0b6b3a764000061025791906115fc565b90506000600560008481526020019081526020016000206001015490508134146102b6576040517f08c379a00000000000000000000000000000000000000000000000000000000081526004016102ad9061145c565b60405180910390fd5b600015156005600085815260200190815260200160002060040160149054906101000a900460ff16151514610320576040517f08c379a00000000000000000000000000000000000000000000000000000000081526004016103179061143c565b60405180910390fd5b600115156005600085815260200190815260200160002060040160159054906101000a900460ff1615151461038a576040517f08c379a0000000000000000000000000000000000000000000000000000000008152600401610381906113fc565b60405180910390fd5b60016005600085815260200190815260200160002060040160146101000a81548160ff0219169083151502179055506103c36003610e9d565b6005600084815260200190815260200160002060040160009054906101000a900473ffffffffffffffffffffffffffffffffffffffff1673ffffffffffffffffffffffffffffffffffffffff166108fc349081150290604051600060405180830381858888f1935050505015801561043f573d6000803e3d6000fd5b508373ffffffffffffffffffffffffffffffffffffffff166323b872dd3033846040518463ffffffff1660e01b815260040161047d939291906113a3565b600060405180830381600087803b15801561049757600080fd5b505af11580156104ab573d6000803e3d6000fd5b50505050336005600085815260200190815260200160002060040160006101000a81548173ffffffffffffffffffffffffffffffffffffffff021916908373ffffffffffffffffffffffffffffffffffffffff16021790555060006005600085815260200190815260200160002060040160156101000a81548160ff02191690831515021790555061053d6003610e9d565b505060016000819055505050565b60026000541415610591576040517f08c379a0000000000000000000000000000000000000000000000000000000008152600401610588906114dc565b60405180910390fd5b600260008190555060045434146105dd576040517f08c379a00000000000000000000000000000000000000000000000000000000081526004016105d49061147c565b60405180910390fd5b6105e76002610e9d565b60006105f36002610eb3565b905060008390506040518060e001604052808381526020018681526020018281526020018473ffffffffffffffffffffffffffffffffffffffff1681526020013373ffffffffffffffffffffffffffffffffffffffff168152602001600015158152602001600115158152506005600084815260200190815260200160002060008201518160000155602082015181600101556040820151816002015560608201518160030160006101000a81548173ffffffffffffffffffffffffffffffffffffffff021916908373ffffffffffffffffffffffffffffffffffffffff16021790555060808201518160040160006101000a81548173ffffffffffffffffffffffffffffffffffffffff021916908373ffffffffffffffffffffffffffffffffffffffff16021790555060a08201518160040160146101000a81548160ff02191690831515021790555060c08201518160040160156101000a81548160ff0219169083151502179055509050508273ffffffffffffffffffffffffffffffffffffffff166323b872dd3330886040518463ffffffff1660e01b815260040161079e939291906113a3565b600060405180830381600087803b1580156107b857600080fd5b505af11580156107cc573d6000803e3d6000fd5b505050503373ffffffffffffffffffffffffffffffffffffffff168373ffffffffffffffffffffffffffffffffffffffff16837fd1151e953cc0d059e84b7988c7eb30dabce97ea30e483d6a7f037967a49fb0768885600060016040516108369493929190611517565b60405180910390a450506001600081905550505050565b60026000541415610893576040517f08c379a000000000000000000000000000000000000000000000000000000000815260040161088a906114dc565b60405180910390fd5b60026000819055506005600082815260200190815260200160002060040160009054906101000a900473ffffffffffffffffffffffffffffffffffffffff1673ffffffffffffffffffffffffffffffffffffffff163373ffffffffffffffffffffffffffffffffffffffff161461093f576040517f08c379a0000000000000000000000000000000000000000000000000000000008152600401610936906114bc565b60405180910390fd5b60056000828152602001908152602001600020600080820160009055600182016000905560028201600090556003820160006101000a81549073ffffffffffffffffffffffffffffffffffffffff02191690556004820160006101000a81549073ffffffffffffffffffffffffffffffffffffffff02191690556004820160146101000a81549060ff02191690556004820160156101000a81549060ff02191690555050600160008190555050565b6109f6610ec1565b73ffffffffffffffffffffffffffffffffffffffff16610a14610a76565b73ffffffffffffffffffffffffffffffffffffffff1614610a6a576040517f08c379a0000000000000000000000000000000000000000000000000000000008152600401610a619061149c565b60405180910390fd5b610a746000610ec9565b565b6000600160009054906101000a900473ffffffffffffffffffffffffffffffffffffffff16905090565b60606000610aae6002610eb3565b90506000610abc6003610eb3565b610ac66002610eb3565b610ad09190611656565b90506000808267ffffffffffffffff811115610b15577f4e487b7100000000000000000000000000000000000000000000000000000000600052604160045260246000fd5b604051908082528060200260200182016040528015610b4e57816020015b610b3b610f8f565b815260200190600190039081610b335790505b50905060005b84811015610d7057600073ffffffffffffffffffffffffffffffffffffffff1660056000600184610b8591906115a6565b815260200190815260200160002060040160009054906101000a900473ffffffffffffffffffffffffffffffffffffffff1673ffffffffffffffffffffffffffffffffffffffff161415610d5d576000600182610be291906115a6565b90506000600560008381526020019081526020016000209050806040518060e00160405290816000820154815260200160018201548152602001600282015481526020016003820160009054906101000a900473ffffffffffffffffffffffffffffffffffffffff1673ffffffffffffffffffffffffffffffffffffffff1673ffffffffffffffffffffffffffffffffffffffff1681526020016004820160009054906101000a900473ffffffffffffffffffffffffffffffffffffffff1673ffffffffffffffffffffffffffffffffffffffff1673ffffffffffffffffffffffffffffffffffffffff1681526020016004820160149054906101000a900460ff161515151581526020016004820160159054906101000a900460ff161515151581525050848681518110610d40577f4e487b7100000000000000000000000000000000000000000000000000000000600052603260045260246000fd5b6020026020010181905250600185610d5891906115a6565b945050505b8080610d68906116e4565b915050610b54565b508094505050505090565b6000600454905090565b600060056000838152602001908152602001600020600201549050919050565b610dad610ec1565b73ffffffffffffffffffffffffffffffffffffffff16610dcb610a76565b73ffffffffffffffffffffffffffffffffffffffff1614610e21576040517f08c379a0000000000000000000000000000000000000000000000000000000008152600401610e189061149c565b60405180910390fd5b600073ffffffffffffffffffffffffffffffffffffffff168173ffffffffffffffffffffffffffffffffffffffff161415610e91576040517f08c379a0000000000000000000000000000000000000000000000000000000008152600401610e889061141c565b60405180910390fd5b610e9a81610ec9565b50565b6001816000016000828254019250508190555050565b600081600001549050919050565b600033905090565b6000600160009054906101000a900473ffffffffffffffffffffffffffffffffffffffff16905081600160006101000a81548173ffffffffffffffffffffffffffffffffffffffff021916908373ffffffffffffffffffffffffffffffffffffffff1602179055508173ffffffffffffffffffffffffffffffffffffffff168173ffffffffffffffffffffffffffffffffffffffff167f8be0079c531659141344cd1fd0a4f28419497f9722a3daafe3b4186f6b6457e060405160405180910390a35050565b6040518060e00160405280600081526020016000815260200160008152602001600073ffffffffffffffffffffffffffffffffffffffff168152602001600073ffffffffffffffffffffffffffffffffffffffff1681526020016000151581526020016000151581525090565b60008135905061100b816118f0565b92915050565b60008135905061102081611907565b92915050565b60006020828403121561103857600080fd5b600061104684828501610ffc565b91505092915050565b6000806040838503121561106257600080fd5b600061107085828601610ffc565b925050602061108185828601611011565b9150509250929050565b60006020828403121561109d57600080fd5b60006110ab84828501611011565b91505092915050565b6000806000606084860312156110c957600080fd5b60006110d786828701611011565b93505060206110e886828701611011565b92505060406110f986828701610ffc565b9150509250925092565b600061110f83836112dc565b60e08301905092915050565b6111248161169c565b82525050565b6111338161168a565b82525050565b6111428161168a565b82525050565b60006111538261156c565b61115d8185611584565b93506111688361155c565b8060005b838110156111995781516111808882611103565b975061118b83611577565b92505060018101905061116c565b5085935050505092915050565b6111af816116ae565b82525050565b6111be816116ae565b82525050565b60006111d1602083611595565b91506111dc8261175c565b602082019050919050565b60006111f4602683611595565b91506111ff82611785565b604082019050919050565b6000611217601f83611595565b9150611222826117d4565b602082019050919050565b600061123a604083611595565b9150611245826117fd565b604082019050919050565b600061125d601683611595565b91506112688261184c565b602082019050919050565b6000611280602083611595565b915061128b82611875565b602082019050919050565b60006112a3600983611595565b91506112ae8261189e565b602082019050919050565b60006112c6601f83611595565b91506112d1826118c7565b602082019050919050565b60e0820160008201516112f2600085018261136a565b506020820151611305602085018261136a565b506040820151611318604085018261136a565b50606082015161132b606085018261112a565b50608082015161133e608085018261111b565b5060a082015161135160a08501826111a6565b5060c082015161136460c08501826111a6565b50505050565b611373816116da565b82525050565b611382816116da565b82525050565b600060208201905061139d6000830184611139565b92915050565b60006060820190506113b86000830186611139565b6113c56020830185611139565b6113d26040830184611379565b949350505050565b600060208201905081810360008301526113f48184611148565b905092915050565b60006020820190508181036000830152611415816111c4565b9050919050565b60006020820190508181036000830152611435816111e7565b9050919050565b600060208201905081810360008301526114558161120a565b9050919050565b600060208201905081810360008301526114758161122d565b9050919050565b6000602082019050818103600083015261149581611250565b9050919050565b600060208201905081810360008301526114b581611273565b9050919050565b600060208201905081810360008301526114d581611296565b9050919050565b600060208201905081810360008301526114f5816112b9565b9050919050565b60006020820190506115116000830184611379565b92915050565b600060808201905061152c6000830187611379565b6115396020830186611379565b61154660408301856111b5565b61155360608301846111b5565b95945050505050565b6000819050602082019050919050565b600081519050919050565b6000602082019050919050565b600082825260208201905092915050565b600082825260208201905092915050565b60006115b1826116da565b91506115bc836116da565b9250827fffffffffffffffffffffffffffffffffffffffffffffffffffffffffffffffff038211156115f1576115f061172d565b5b828201905092915050565b6000611607826116da565b9150611612836116da565b9250817fffffffffffffffffffffffffffffffffffffffffffffffffffffffffffffffff048311821515161561164b5761164a61172d565b5b828202905092915050565b6000611661826116da565b915061166c836116da565b92508282101561167f5761167e61172d565b5b828203905092915050565b6000611695826116ba565b9050919050565b60006116a7826116ba565b9050919050565b60008115159050919050565b600073ffffffffffffffffffffffffffffffffffffffff82169050919050565b6000819050919050565b60006116ef826116da565b91507fffffffffffffffffffffffffffffffffffffffffffffffffffffffffffffffff8214156117225761172161172d565b5b600182019050919050565b7f4e487b7100000000000000000000000000000000000000000000000000000000600052601160045260246000fd5b7f54686973206c697374696e67206973206e6f206c6f6e67657220616374697665600082015250565b7f4f776e61626c653a206e6577206f776e657220697320746865207a65726f206160008201527f6464726573730000000000000000000000000000000000000000000000000000602082015250565b7f54686973206974656d2068617320616c7265616479206265656e20736f6c6400600082015250565b7f506c65617365207375626d6974207468652061736b696e67207072696365206960008201527f6e206f7264657220746f20636f6d706c65746520746865207075726368617365602082015250565b7f506c6561736520706179206c697374696e672066656500000000000000000000600082015250565b7f4f776e61626c653a2063616c6c6572206973206e6f7420746865206f776e6572600082015250565b7f4e6f74206f776e65720000000000000000000000000000000000000000000000600082015250565b7f5265656e7472616e637947756172643a207265656e7472616e742063616c6c00600082015250565b6118f98161168a565b811461190457600080fd5b50565b611910816116da565b811461191b57600080fd5b5056fea26469706673582212204f84dd97ef22402350066d762da7f6cbb6f15aef2856b254c866f6db46f36b4564736f6c63430008040033",
  "linkReferences": {},
  "deployedLinkReferences": {}
}