{
  "_format": "hh-sol-artifact-1",
  "contractName": "Marketplace",
  "sourceName": "contracts/Marketplace.sol",
  "abi": [
    {
      "inputs": [],
      "stateMutability": "nonpayable",
      "type": "constructor"
    },
    {
      "anonymous": false,
      "inputs": [
        {
          "indexed": true,
          "internalType": "uint256",
          "name": "itemId",
          "type": "uint256"
        },
        {
          "indexed": false,
          "internalType": "uint256",
          "name": "tokenId",
          "type": "uint256"
        },
        {
          "indexed": false,
          "internalType": "uint256",
          "name": "price",
          "type": "uint256"
        },
        {
          "indexed": false,
          "internalType": "string",
          "name": "subdomain",
          "type": "string"
        },
        {
          "indexed": true,
          "internalType": "address",
          "name": "nftContract",
          "type": "address"
        },
        {
          "indexed": true,
          "internalType": "address",
          "name": "owner",
          "type": "address"
        },
        {
          "indexed": false,
          "internalType": "bool",
          "name": "sold",
          "type": "bool"
        },
        {
          "indexed": false,
          "internalType": "bool",
          "name": "active",
          "type": "bool"
        }
      ],
      "name": "ListingCreated",
      "type": "event"
    },
    {
      "anonymous": false,
      "inputs": [
        {
          "indexed": true,
          "internalType": "address",
          "name": "previousOwner",
          "type": "address"
        },
        {
          "indexed": true,
          "internalType": "address",
          "name": "newOwner",
          "type": "address"
        }
      ],
      "name": "OwnershipTransferred",
      "type": "event"
    },
    {
      "inputs": [
        {
          "internalType": "address",
          "name": "nftContract",
          "type": "address"
        },
        {
          "internalType": "uint256",
          "name": "itemId",
          "type": "uint256"
        }
      ],
      "name": "buyNow",
      "outputs": [],
      "stateMutability": "payable",
      "type": "function"
    },
    {
      "inputs": [
        {
          "internalType": "uint256",
          "name": "itemId",
          "type": "uint256"
        }
      ],
      "name": "cancelListing",
      "outputs": [],
      "stateMutability": "payable",
      "type": "function"
    },
    {
      "inputs": [
        {
          "internalType": "string",
          "name": "subdomain",
          "type": "string"
        },
        {
          "internalType": "uint256",
          "name": "tokenId",
          "type": "uint256"
        },
        {
          "internalType": "uint256",
          "name": "priceIn",
          "type": "uint256"
        },
        {
          "internalType": "address",
          "name": "nftContract",
          "type": "address"
        }
      ],
      "name": "createListing",
      "outputs": [],
      "stateMutability": "payable",
      "type": "function"
    },
    {
      "inputs": [],
      "name": "fetchListings",
      "outputs": [
        {
          "components": [
            {
              "internalType": "uint256",
              "name": "itemId",
              "type": "uint256"
            },
            {
              "internalType": "uint256",
              "name": "tokenId",
              "type": "uint256"
            },
            {
              "internalType": "uint256",
              "name": "price",
              "type": "uint256"
            },
            {
              "internalType": "string",
              "name": "subdomain",
              "type": "string"
            },
            {
              "internalType": "address",
              "name": "nftContract",
              "type": "address"
            },
            {
              "internalType": "address payable",
              "name": "owner",
              "type": "address"
            },
            {
              "internalType": "bool",
              "name": "sold",
              "type": "bool"
            },
            {
              "internalType": "bool",
              "name": "active",
              "type": "bool"
            }
          ],
          "internalType": "struct Marketplace.Listing[]",
          "name": "",
          "type": "tuple[]"
        }
      ],
      "stateMutability": "view",
      "type": "function"
    },
    {
      "inputs": [],
      "name": "getFee",
      "outputs": [
        {
          "internalType": "uint256",
          "name": "",
          "type": "uint256"
        }
      ],
      "stateMutability": "view",
      "type": "function"
    },
    {
      "inputs": [
        {
          "internalType": "uint256",
          "name": "id",
          "type": "uint256"
        }
      ],
      "name": "getListing",
      "outputs": [
        {
          "components": [
            {
              "internalType": "uint256",
              "name": "itemId",
              "type": "uint256"
            },
            {
              "internalType": "uint256",
              "name": "tokenId",
              "type": "uint256"
            },
            {
              "internalType": "uint256",
              "name": "price",
              "type": "uint256"
            },
            {
              "internalType": "string",
              "name": "subdomain",
              "type": "string"
            },
            {
              "internalType": "address",
              "name": "nftContract",
              "type": "address"
            },
            {
              "internalType": "address payable",
              "name": "owner",
              "type": "address"
            },
            {
              "internalType": "bool",
              "name": "sold",
              "type": "bool"
            },
            {
              "internalType": "bool",
              "name": "active",
              "type": "bool"
            }
          ],
          "internalType": "struct Marketplace.Listing",
          "name": "",
          "type": "tuple"
        }
      ],
      "stateMutability": "view",
      "type": "function"
    },
    {
      "inputs": [
        {
          "internalType": "string",
          "name": "subdomainIn",
          "type": "string"
        }
      ],
      "name": "getListingIdsBySubDomain",
      "outputs": [
        {
          "internalType": "uint256[]",
          "name": "",
          "type": "uint256[]"
        }
      ],
      "stateMutability": "view",
      "type": "function"
    },
    {
      "inputs": [
        {
          "internalType": "uint256",
          "name": "id",
          "type": "uint256"
        }
      ],
      "name": "getListingPrice",
      "outputs": [
        {
          "internalType": "uint256",
          "name": "",
          "type": "uint256"
        }
      ],
      "stateMutability": "view",
      "type": "function"
    },
    {
      "inputs": [],
      "name": "owner",
      "outputs": [
        {
          "internalType": "address",
          "name": "",
          "type": "address"
        }
      ],
      "stateMutability": "view",
      "type": "function"
    },
    {
      "inputs": [],
      "name": "renounceOwnership",
      "outputs": [],
      "stateMutability": "nonpayable",
      "type": "function"
    },
    {
      "inputs": [
        {
          "internalType": "address",
          "name": "newOwner",
          "type": "address"
        }
      ],
      "name": "transferOwnership",
      "outputs": [],
      "stateMutability": "nonpayable",
      "type": "function"
    }
  ],
  "bytecode": "0x6080604052670de0b6b3a76400006004553480156200001d57600080fd5b506001600081905550620000466200003a6200004c60201b60201c565b6200005460201b60201c565b6200011a565b600033905090565b6000600160009054906101000a900473ffffffffffffffffffffffffffffffffffffffff16905081600160006101000a81548173ffffffffffffffffffffffffffffffffffffffff021916908373ffffffffffffffffffffffffffffffffffffffff1602179055508173ffffffffffffffffffffffffffffffffffffffff168173ffffffffffffffffffffffffffffffffffffffff167f8be0079c531659141344cd1fd0a4f28419497f9722a3daafe3b4186f6b6457e060405160405180910390a35050565b612555806200012a6000396000f3fe60806040526004361061009c5760003560e01c80637834a0bf116100645780637834a0bf1461016a5780638da5cb5b14610186578063a80f99ec146101b1578063ced72f87146101dc578063d6077fbf14610207578063f2fde38b146102445761009c565b80630e4bdc90146100a1578063107a274a146100bd578063305a67a8146100fa5780635234139714610116578063715018a614610153575b600080fd5b6100bb60048036038101906100b69190611700565b61026d565b005b3480156100c957600080fd5b506100e460048036038101906100df91906117f8565b6105db565b6040516100f19190611ee7565b60405180910390f35b610114600480360381019061010f91906117f8565b61079b565b005b34801561012257600080fd5b5061013d6004803603810190610138919061173c565b61094c565b60405161014a9190611dc5565b60405180910390f35b34801561015f57600080fd5b50610168610b90565b005b610184600480360381019061017f919061177d565b610c18565b005b34801561019257600080fd5b5061019b610f41565b6040516101a89190611d51565b60405180910390f35b3480156101bd57600080fd5b506101c6610f6b565b6040516101d39190611da3565b60405180910390f35b3480156101e857600080fd5b506101f16112d9565b6040516101fe9190611f09565b60405180910390f35b34801561021357600080fd5b5061022e600480360381019061022991906117f8565b6112e3565b60405161023b9190611f09565b60405180910390f35b34801561025057600080fd5b5061026b600480360381019061026691906116d7565b611303565b005b600260005414156102b3576040517f08c379a00000000000000000000000000000000000000000000000000000000081526004016102aa90611ec7565b60405180910390fd5b600260008190555060006005600083815260200190815260200160002060020154670de0b6b3a76400006102e791906120e9565b9050600060056000848152602001908152602001600020600101549050813414610346576040517f08c379a000000000000000000000000000000000000000000000000000000000815260040161033d90611e47565b60405180910390fd5b600015156005600085815260200190815260200160002060050160149054906101000a900460ff161515146103b0576040517f08c379a00000000000000000000000000000000000000000000000000000000081526004016103a790611e27565b60405180910390fd5b600115156005600085815260200190815260200160002060050160159054906101000a900460ff1615151461041a576040517f08c379a000000000000000000000000000000000000000000000000000000000815260040161041190611de7565b60405180910390fd5b60016005600085815260200190815260200160002060050160146101000a81548160ff02191690831515021790555061045360036113fb565b6005600084815260200190815260200160002060050160009054906101000a900473ffffffffffffffffffffffffffffffffffffffff1673ffffffffffffffffffffffffffffffffffffffff166108fc349081150290604051600060405180830381858888f193505050501580156104cf573d6000803e3d6000fd5b508373ffffffffffffffffffffffffffffffffffffffff166323b872dd3033846040518463ffffffff1660e01b815260040161050d93929190611d6c565b600060405180830381600087803b15801561052757600080fd5b505af115801561053b573d6000803e3d6000fd5b50505050336005600085815260200190815260200160002060050160006101000a81548173ffffffffffffffffffffffffffffffffffffffff021916908373ffffffffffffffffffffffffffffffffffffffff16021790555060006005600085815260200190815260200160002060050160156101000a81548160ff0219169083151502179055506105cd60036113fb565b505060016000819055505050565b6105e36114ed565b600560008381526020019081526020016000206040518061010001604052908160008201548152602001600182015481526020016002820154815260200160038201805461063090612213565b80601f016020809104026020016040519081016040528092919081815260200182805461065c90612213565b80156106a95780601f1061067e576101008083540402835291602001916106a9565b820191906000526020600020905b81548152906001019060200180831161068c57829003601f168201915b505050505081526020016004820160009054906101000a900473ffffffffffffffffffffffffffffffffffffffff1673ffffffffffffffffffffffffffffffffffffffff1673ffffffffffffffffffffffffffffffffffffffff1681526020016005820160009054906101000a900473ffffffffffffffffffffffffffffffffffffffff1673ffffffffffffffffffffffffffffffffffffffff1673ffffffffffffffffffffffffffffffffffffffff1681526020016005820160149054906101000a900460ff161515151581526020016005820160159054906101000a900460ff1615151515815250509050919050565b600260005414156107e1576040517f08c379a00000000000000000000000000000000000000000000000000000000081526004016107d890611ec7565b60405180910390fd5b60026000819055506005600082815260200190815260200160002060050160009054906101000a900473ffffffffffffffffffffffffffffffffffffffff1673ffffffffffffffffffffffffffffffffffffffff163373ffffffffffffffffffffffffffffffffffffffff161461088d576040517f08c379a000000000000000000000000000000000000000000000000000000000815260040161088490611ea7565b60405180910390fd5b60056000828152602001908152602001600020600080820160009055600182016000905560028201600090556003820160006108c99190611562565b6004820160006101000a81549073ffffffffffffffffffffffffffffffffffffffff02191690556005820160006101000a81549073ffffffffffffffffffffffffffffffffffffffff02191690556005820160146101000a81549060ff02191690556005820160156101000a81549060ff02191690555050600160008190555050565b6060600061095a6002611411565b905060006109686003611411565b6109726002611411565b61097c9190612143565b90506000808267ffffffffffffffff8111156109c1577f4e487b7100000000000000000000000000000000000000000000000000000000600052604160045260246000fd5b6040519080825280602002602001820160405280156109ef5781602001602082028036833780820191505090505b50905060005b84811015610b8357600073ffffffffffffffffffffffffffffffffffffffff1660056000600184610a269190612093565b815260200190815260200160002060050160009054906101000a900473ffffffffffffffffffffffffffffffffffffffff1673ffffffffffffffffffffffffffffffffffffffff16148015610ae7575086604051602001610a879190611d23565b6040516020818303038152906040528051906020012060056000600184610aae9190612093565b8152602001908152602001600020600301604051602001610acf9190611d3a565b60405160208183030381529060405280519060200120145b15610b70576000600182610afb9190612093565b905060006005600083815260200190815260200160002060000154905080848681518110610b52577f4e487b7100000000000000000000000000000000000000000000000000000000600052603260045260246000fd5b602002602001018181525050600185610b6b9190612093565b945050505b8080610b7b90612276565b9150506109f5565b5080945050505050919050565b610b9861141f565b73ffffffffffffffffffffffffffffffffffffffff16610bb6610f41565b73ffffffffffffffffffffffffffffffffffffffff1614610c0c576040517f08c379a0000000000000000000000000000000000000000000000000000000008152600401610c0390611e87565b60405180910390fd5b610c166000611427565b565b60026000541415610c5e576040517f08c379a0000000000000000000000000000000000000000000000000000000008152600401610c5590611ec7565b60405180910390fd5b60026000819055506004543414610caa576040517f08c379a0000000000000000000000000000000000000000000000000000000008152600401610ca190611e67565b60405180910390fd5b610cb460026113fb565b6000610cc06002611411565b905060008390506040518061010001604052808381526020018681526020018281526020018781526020018473ffffffffffffffffffffffffffffffffffffffff1681526020013373ffffffffffffffffffffffffffffffffffffffff16815260200160001515815260200160011515815250600560008481526020019081526020016000206000820151816000015560208201518160010155604082015181600201556060820151816003019080519060200190610d809291906115a2565b5060808201518160040160006101000a81548173ffffffffffffffffffffffffffffffffffffffff021916908373ffffffffffffffffffffffffffffffffffffffff16021790555060a08201518160050160006101000a81548173ffffffffffffffffffffffffffffffffffffffff021916908373ffffffffffffffffffffffffffffffffffffffff16021790555060c08201518160050160146101000a81548160ff02191690831515021790555060e08201518160050160156101000a81548160ff0219169083151502179055509050508273ffffffffffffffffffffffffffffffffffffffff166323b872dd3330886040518463ffffffff1660e01b8152600401610e8f93929190611d6c565b600060405180830381600087803b158015610ea957600080fd5b505af1158015610ebd573d6000803e3d6000fd5b505050503373ffffffffffffffffffffffffffffffffffffffff168373ffffffffffffffffffffffffffffffffffffffff16837f35f37b604f3adfcf05dbb34225b7636fa7138d2c082ddcfc8e913915004c58b388858b60006001604051610f29959493929190611f24565b60405180910390a45050600160008190555050505050565b6000600160009054906101000a900473ffffffffffffffffffffffffffffffffffffffff16905090565b60606000610f796002611411565b90506000610f876003611411565b610f916002611411565b610f9b9190612143565b90506000808267ffffffffffffffff811115610fe0577f4e487b7100000000000000000000000000000000000000000000000000000000600052604160045260246000fd5b60405190808252806020026020018201604052801561101957816020015b6110066114ed565b815260200190600190039081610ffe5790505b50905060005b848110156112ce57600073ffffffffffffffffffffffffffffffffffffffff16600560006001846110509190612093565b815260200190815260200160002060050160009054906101000a900473ffffffffffffffffffffffffffffffffffffffff1673ffffffffffffffffffffffffffffffffffffffff1614156112bb5760006001826110ad9190612093565b90506000600560008381526020019081526020016000209050806040518061010001604052908160008201548152602001600182015481526020016002820154815260200160038201805461110190612213565b80601f016020809104026020016040519081016040528092919081815260200182805461112d90612213565b801561117a5780601f1061114f5761010080835404028352916020019161117a565b820191906000526020600020905b81548152906001019060200180831161115d57829003601f168201915b505050505081526020016004820160009054906101000a900473ffffffffffffffffffffffffffffffffffffffff1673ffffffffffffffffffffffffffffffffffffffff1673ffffffffffffffffffffffffffffffffffffffff1681526020016005820160009054906101000a900473ffffffffffffffffffffffffffffffffffffffff1673ffffffffffffffffffffffffffffffffffffffff1673ffffffffffffffffffffffffffffffffffffffff1681526020016005820160149054906101000a900460ff161515151581526020016005820160159054906101000a900460ff16151515158152505084868151811061129e577f4e487b7100000000000000000000000000000000000000000000000000000000600052603260045260246000fd5b60200260200101819052506001856112b69190612093565b945050505b80806112c690612276565b91505061101f565b508094505050505090565b6000600454905090565b600060056000838152602001908152602001600020600201549050919050565b61130b61141f565b73ffffffffffffffffffffffffffffffffffffffff16611329610f41565b73ffffffffffffffffffffffffffffffffffffffff161461137f576040517f08c379a000000000000000000000000000000000000000000000000000000000815260040161137690611e87565b60405180910390fd5b600073ffffffffffffffffffffffffffffffffffffffff168173ffffffffffffffffffffffffffffffffffffffff1614156113ef576040517f08c379a00000000000000000000000000000000000000000000000000000000081526004016113e690611e07565b60405180910390fd5b6113f881611427565b50565b6001816000016000828254019250508190555050565b600081600001549050919050565b600033905090565b6000600160009054906101000a900473ffffffffffffffffffffffffffffffffffffffff16905081600160006101000a81548173ffffffffffffffffffffffffffffffffffffffff021916908373ffffffffffffffffffffffffffffffffffffffff1602179055508173ffffffffffffffffffffffffffffffffffffffff168173ffffffffffffffffffffffffffffffffffffffff167f8be0079c531659141344cd1fd0a4f28419497f9722a3daafe3b4186f6b6457e060405160405180910390a35050565b60405180610100016040528060008152602001600081526020016000815260200160608152602001600073ffffffffffffffffffffffffffffffffffffffff168152602001600073ffffffffffffffffffffffffffffffffffffffff1681526020016000151581526020016000151581525090565b50805461156e90612213565b6000825580601f10611580575061159f565b601f01602090049060005260206000209081019061159e9190611628565b5b50565b8280546115ae90612213565b90600052602060002090601f0160209004810192826115d05760008555611617565b82601f106115e957805160ff1916838001178555611617565b82800160010185558215611617579182015b828111156116165782518255916020019190600101906115fb565b5b5090506116249190611628565b5090565b5b80821115611641576000816000905550600101611629565b5090565b600061165861165384611fa3565b611f7e565b90508281526020810184848401111561167057600080fd5b61167b8482856121d1565b509392505050565b600081359050611692816124f1565b92915050565b600082601f8301126116a957600080fd5b81356116b9848260208601611645565b91505092915050565b6000813590506116d181612508565b92915050565b6000602082840312156116e957600080fd5b60006116f784828501611683565b91505092915050565b6000806040838503121561171357600080fd5b600061172185828601611683565b9250506020611732858286016116c2565b9150509250929050565b60006020828403121561174e57600080fd5b600082013567ffffffffffffffff81111561176857600080fd5b61177484828501611698565b91505092915050565b6000806000806080858703121561179357600080fd5b600085013567ffffffffffffffff8111156117ad57600080fd5b6117b987828801611698565b94505060206117ca878288016116c2565b93505060406117db878288016116c2565b92505060606117ec87828801611683565b91505092959194509250565b60006020828403121561180a57600080fd5b6000611818848285016116c2565b91505092915050565b600061182d8383611ba5565b905092915050565b60006118418383611d05565b60208301905092915050565b61185681612189565b82525050565b61186581612177565b82525050565b61187481612177565b82525050565b600061188582612009565b61188f8185612044565b9350836020820285016118a185611fd4565b8060005b858110156118dd57848403895281516118be8582611821565b94506118c98361202a565b925060208a019950506001810190506118a5565b50829750879550505050505092915050565b60006118fa82612014565b6119048185612055565b935061190f83611fe4565b8060005b838110156119405781516119278882611835565b975061193283612037565b925050600181019050611913565b5085935050505092915050565b6119568161219b565b82525050565b6119658161219b565b82525050565b60006119768261201f565b6119808185612066565b93506119908185602086016121e0565b6119998161234c565b840191505092915050565b60006119af8261201f565b6119b98185612077565b93506119c98185602086016121e0565b6119d28161234c565b840191505092915050565b60006119e88261201f565b6119f28185612088565b9350611a028185602086016121e0565b80840191505092915050565b60008154611a1b81612213565b611a258186612088565b94506001821660008114611a405760018114611a5157611a84565b60ff19831686528186019350611a84565b611a5a85611ff4565b60005b83811015611a7c57815481890152600182019150602081019050611a5d565b838801955050505b50505092915050565b6000611a9a602083612077565b9150611aa58261235d565b602082019050919050565b6000611abd602683612077565b9150611ac882612386565b604082019050919050565b6000611ae0601f83612077565b9150611aeb826123d5565b602082019050919050565b6000611b03604083612077565b9150611b0e826123fe565b604082019050919050565b6000611b26601683612077565b9150611b318261244d565b602082019050919050565b6000611b49602083612077565b9150611b5482612476565b602082019050919050565b6000611b6c600983612077565b9150611b778261249f565b602082019050919050565b6000611b8f601f83612077565b9150611b9a826124c8565b602082019050919050565b600061010083016000830151611bbe6000860182611d05565b506020830151611bd16020860182611d05565b506040830151611be46040860182611d05565b5060608301518482036060860152611bfc828261196b565b9150506080830151611c11608086018261185c565b5060a0830151611c2460a086018261184d565b5060c0830151611c3760c086018261194d565b5060e0830151611c4a60e086018261194d565b508091505092915050565b600061010083016000830151611c6e6000860182611d05565b506020830151611c816020860182611d05565b506040830151611c946040860182611d05565b5060608301518482036060860152611cac828261196b565b9150506080830151611cc1608086018261185c565b5060a0830151611cd460a086018261184d565b5060c0830151611ce760c086018261194d565b5060e0830151611cfa60e086018261194d565b508091505092915050565b611d0e816121c7565b82525050565b611d1d816121c7565b82525050565b6000611d2f82846119dd565b915081905092915050565b6000611d468284611a0e565b915081905092915050565b6000602082019050611d66600083018461186b565b92915050565b6000606082019050611d81600083018661186b565b611d8e602083018561186b565b611d9b6040830184611d14565b949350505050565b60006020820190508181036000830152611dbd818461187a565b905092915050565b60006020820190508181036000830152611ddf81846118ef565b905092915050565b60006020820190508181036000830152611e0081611a8d565b9050919050565b60006020820190508181036000830152611e2081611ab0565b9050919050565b60006020820190508181036000830152611e4081611ad3565b9050919050565b60006020820190508181036000830152611e6081611af6565b9050919050565b60006020820190508181036000830152611e8081611b19565b9050919050565b60006020820190508181036000830152611ea081611b3c565b9050919050565b60006020820190508181036000830152611ec081611b5f565b9050919050565b60006020820190508181036000830152611ee081611b82565b9050919050565b60006020820190508181036000830152611f018184611c55565b905092915050565b6000602082019050611f1e6000830184611d14565b92915050565b600060a082019050611f396000830188611d14565b611f466020830187611d14565b8181036040830152611f5881866119a4565b9050611f67606083018561195c565b611f74608083018461195c565b9695505050505050565b6000611f88611f99565b9050611f948282612245565b919050565b6000604051905090565b600067ffffffffffffffff821115611fbe57611fbd61231d565b5b611fc78261234c565b9050602081019050919050565b6000819050602082019050919050565b6000819050602082019050919050565b60008190508160005260206000209050919050565b600081519050919050565b600081519050919050565b600081519050919050565b6000602082019050919050565b6000602082019050919050565b600082825260208201905092915050565b600082825260208201905092915050565b600082825260208201905092915050565b600082825260208201905092915050565b600081905092915050565b600061209e826121c7565b91506120a9836121c7565b9250827fffffffffffffffffffffffffffffffffffffffffffffffffffffffffffffffff038211156120de576120dd6122bf565b5b828201905092915050565b60006120f4826121c7565b91506120ff836121c7565b9250817fffffffffffffffffffffffffffffffffffffffffffffffffffffffffffffffff0483118215151615612138576121376122bf565b5b828202905092915050565b600061214e826121c7565b9150612159836121c7565b92508282101561216c5761216b6122bf565b5b828203905092915050565b6000612182826121a7565b9050919050565b6000612194826121a7565b9050919050565b60008115159050919050565b600073ffffffffffffffffffffffffffffffffffffffff82169050919050565b6000819050919050565b82818337600083830152505050565b60005b838110156121fe5780820151818401526020810190506121e3565b8381111561220d576000848401525b50505050565b6000600282049050600182168061222b57607f821691505b6020821081141561223f5761223e6122ee565b5b50919050565b61224e8261234c565b810181811067ffffffffffffffff8211171561226d5761226c61231d565b5b80604052505050565b6000612281826121c7565b91507fffffffffffffffffffffffffffffffffffffffffffffffffffffffffffffffff8214156122b4576122b36122bf565b5b600182019050919050565b7f4e487b7100000000000000000000000000000000000000000000000000000000600052601160045260246000fd5b7f4e487b7100000000000000000000000000000000000000000000000000000000600052602260045260246000fd5b7f4e487b7100000000000000000000000000000000000000000000000000000000600052604160045260246000fd5b6000601f19601f8301169050919050565b7f54686973206c697374696e67206973206e6f206c6f6e67657220616374697665600082015250565b7f4f776e61626c653a206e6577206f776e657220697320746865207a65726f206160008201527f6464726573730000000000000000000000000000000000000000000000000000602082015250565b7f54686973206974656d2068617320616c7265616479206265656e20736f6c6400600082015250565b7f506c65617365207375626d6974207468652061736b696e67207072696365206960008201527f6e206f7264657220746f20636f6d706c65746520746865207075726368617365602082015250565b7f506c6561736520706179206c697374696e672066656500000000000000000000600082015250565b7f4f776e61626c653a2063616c6c6572206973206e6f7420746865206f776e6572600082015250565b7f4e6f74206f776e65720000000000000000000000000000000000000000000000600082015250565b7f5265656e7472616e637947756172643a207265656e7472616e742063616c6c00600082015250565b6124fa81612177565b811461250557600080fd5b50565b612511816121c7565b811461251c57600080fd5b5056fea2646970667358221220232e2d08480cdbd3deb785ba408eaffc9196e91c7d9843504f9d88d1a4ea169d64736f6c63430008040033",
  "linkReferences": {},
  "deployedLinkReferences": {}
}