{
  "_format": "hh-sol-artifact-1",
  "contractName": "Marketplace",
  "sourceName": "contracts/Marketplace.sol",
  "abi": [
    {
      "inputs": [],
      "stateMutability": "nonpayable",
      "type": "constructor"
    },
    {
      "anonymous": false,
      "inputs": [
        {
          "indexed": true,
          "internalType": "uint256",
          "name": "itemId",
          "type": "uint256"
        },
        {
          "indexed": false,
          "internalType": "uint256",
          "name": "tokenId",
          "type": "uint256"
        },
        {
          "indexed": false,
          "internalType": "uint256",
          "name": "price",
          "type": "uint256"
        },
        {
          "indexed": true,
          "internalType": "address",
          "name": "nftContract",
          "type": "address"
        },
        {
          "indexed": true,
          "internalType": "address",
          "name": "owner",
          "type": "address"
        },
        {
          "indexed": false,
          "internalType": "bool",
          "name": "sold",
          "type": "bool"
        },
        {
          "indexed": false,
          "internalType": "bool",
          "name": "active",
          "type": "bool"
        }
      ],
      "name": "ListingCreated",
      "type": "event"
    },
    {
      "anonymous": false,
      "inputs": [
        {
          "indexed": true,
          "internalType": "address",
          "name": "previousOwner",
          "type": "address"
        },
        {
          "indexed": true,
          "internalType": "address",
          "name": "newOwner",
          "type": "address"
        }
      ],
      "name": "OwnershipTransferred",
      "type": "event"
    },
    {
      "inputs": [
        {
          "internalType": "address",
          "name": "nftContract",
          "type": "address"
        },
        {
          "internalType": "uint256",
          "name": "itemId",
          "type": "uint256"
        }
      ],
      "name": "buyNow",
      "outputs": [],
      "stateMutability": "payable",
      "type": "function"
    },
    {
      "inputs": [
        {
          "internalType": "uint256",
          "name": "itemId",
          "type": "uint256"
        }
      ],
      "name": "cancelListing",
      "outputs": [],
      "stateMutability": "payable",
      "type": "function"
    },
    {
      "inputs": [
        {
          "internalType": "uint256",
          "name": "tokenId",
          "type": "uint256"
        },
        {
          "internalType": "uint256",
          "name": "priceIn",
          "type": "uint256"
        },
        {
          "internalType": "address",
          "name": "nftContract",
          "type": "address"
        }
      ],
      "name": "createListing",
      "outputs": [],
      "stateMutability": "payable",
      "type": "function"
    },
    {
      "inputs": [],
      "name": "getFee",
      "outputs": [
        {
          "internalType": "uint256",
          "name": "",
          "type": "uint256"
        }
      ],
      "stateMutability": "view",
      "type": "function"
    },
    {
      "inputs": [
        {
          "internalType": "uint256",
          "name": "id",
          "type": "uint256"
        }
      ],
      "name": "getListingPrice",
      "outputs": [
        {
          "internalType": "uint256",
          "name": "",
          "type": "uint256"
        }
      ],
      "stateMutability": "view",
      "type": "function"
    },
    {
      "inputs": [],
      "name": "owner",
      "outputs": [
        {
          "internalType": "address",
          "name": "",
          "type": "address"
        }
      ],
      "stateMutability": "view",
      "type": "function"
    },
    {
      "inputs": [],
      "name": "renounceOwnership",
      "outputs": [],
      "stateMutability": "nonpayable",
      "type": "function"
    },
    {
      "inputs": [
        {
          "internalType": "address",
          "name": "newOwner",
          "type": "address"
        }
      ],
      "name": "transferOwnership",
      "outputs": [],
      "stateMutability": "nonpayable",
      "type": "function"
    }
  ],
  "bytecode": "0x6080604052670de0b6b3a764000060045534801561001c57600080fd5b50600160008190555061004161003661004660201b60201c565b61004e60201b60201c565b610114565b600033905090565b6000600160009054906101000a900473ffffffffffffffffffffffffffffffffffffffff16905081600160006101000a81548173ffffffffffffffffffffffffffffffffffffffff021916908373ffffffffffffffffffffffffffffffffffffffff1602179055508173ffffffffffffffffffffffffffffffffffffffff168173ffffffffffffffffffffffffffffffffffffffff167f8be0079c531659141344cd1fd0a4f28419497f9722a3daafe3b4186f6b6457e060405160405180910390a35050565b61134c806101236000396000f3fe60806040526004361061007b5760003560e01c80638da5cb5b1161004e5780638da5cb5b146100eb578063ced72f8714610116578063d6077fbf14610141578063f2fde38b1461017e5761007b565b80630e4bdc901461008057806317e96ec61461009c578063305a67a8146100b8578063715018a6146100d4575b600080fd5b61009a60048036038101906100959190610cc7565b6101a7565b005b6100b660048036038101906100b19190610d2c565b61050b565b005b6100d260048036038101906100cd9190610d03565b61080d565b005b3480156100e057600080fd5b506100e96109ae565b005b3480156100f757600080fd5b50610100610a36565b60405161010d9190610ec0565b60405180910390f35b34801561012257600080fd5b5061012b610a60565b6040516101389190611012565b60405180910390f35b34801561014d57600080fd5b5061016860048036038101906101639190610d03565b610a6a565b6040516101759190611012565b60405180910390f35b34801561018a57600080fd5b506101a560048036038101906101a09190610c9e565b610a8a565b005b600260005414156101ed576040517f08c379a00000000000000000000000000000000000000000000000000000000081526004016101e490610ff2565b60405180910390fd5b600260008190555060006005600083815260200190815260200160002060020154670de0b6b3a76400006102219190611083565b9050600060056000848152602001908152602001600020600101549050813414610280576040517f08c379a000000000000000000000000000000000000000000000000000000000815260040161027790610f72565b60405180910390fd5b600015156005600085815260200190815260200160002060040160149054906101000a900460ff161515146102ea576040517f08c379a00000000000000000000000000000000000000000000000000000000081526004016102e190610f52565b60405180910390fd5b600115156005600085815260200190815260200160002060040160159054906101000a900460ff16151514610354576040517f08c379a000000000000000000000000000000000000000000000000000000000815260040161034b90610f12565b60405180910390fd5b60016005600085815260200190815260200160002060040160146101000a81548160ff02191690831515021790555061038d6003610b82565b6005600084815260200190815260200160002060040160009054906101000a900473ffffffffffffffffffffffffffffffffffffffff1673ffffffffffffffffffffffffffffffffffffffff166108fc349081150290604051600060405180830381858888f19350505050158015610409573d6000803e3d6000fd5b508373ffffffffffffffffffffffffffffffffffffffff166323b872dd3033846040518463ffffffff1660e01b815260040161044793929190610edb565b600060405180830381600087803b15801561046157600080fd5b505af1158015610475573d6000803e3d6000fd5b50505050336005600085815260200190815260200160002060040160006101000a81548173ffffffffffffffffffffffffffffffffffffffff021916908373ffffffffffffffffffffffffffffffffffffffff16021790555060006005600085815260200190815260200160002060040160156101000a81548160ff021916908315150217905550505060016000819055505050565b60026000541415610551576040517f08c379a000000000000000000000000000000000000000000000000000000000815260040161054890610ff2565b60405180910390fd5b6002600081905550600454341461059d576040517f08c379a000000000000000000000000000000000000000000000000000000000815260040161059490610f92565b60405180910390fd5b6105a76002610b82565b60006105b36002610b98565b905060008390506040518060e001604052808381526020018681526020018281526020018473ffffffffffffffffffffffffffffffffffffffff1681526020013373ffffffffffffffffffffffffffffffffffffffff168152602001600015158152602001600115158152506005600084815260200190815260200160002060008201518160000155602082015181600101556040820151816002015560608201518160030160006101000a81548173ffffffffffffffffffffffffffffffffffffffff021916908373ffffffffffffffffffffffffffffffffffffffff16021790555060808201518160040160006101000a81548173ffffffffffffffffffffffffffffffffffffffff021916908373ffffffffffffffffffffffffffffffffffffffff16021790555060a08201518160040160146101000a81548160ff02191690831515021790555060c08201518160040160156101000a81548160ff0219169083151502179055509050508273ffffffffffffffffffffffffffffffffffffffff166323b872dd3330886040518463ffffffff1660e01b815260040161075e93929190610edb565b600060405180830381600087803b15801561077857600080fd5b505af115801561078c573d6000803e3d6000fd5b505050503373ffffffffffffffffffffffffffffffffffffffff168373ffffffffffffffffffffffffffffffffffffffff16837fd1151e953cc0d059e84b7988c7eb30dabce97ea30e483d6a7f037967a49fb0768885600060016040516107f6949392919061102d565b60405180910390a450506001600081905550505050565b60026000541415610853576040517f08c379a000000000000000000000000000000000000000000000000000000000815260040161084a90610ff2565b60405180910390fd5b60026000819055506005600082815260200190815260200160002060040160009054906101000a900473ffffffffffffffffffffffffffffffffffffffff1673ffffffffffffffffffffffffffffffffffffffff163373ffffffffffffffffffffffffffffffffffffffff16146108ff576040517f08c379a00000000000000000000000000000000000000000000000000000000081526004016108f690610fd2565b60405180910390fd5b60056000828152602001908152602001600020600080820160009055600182016000905560028201600090556003820160006101000a81549073ffffffffffffffffffffffffffffffffffffffff02191690556004820160006101000a81549073ffffffffffffffffffffffffffffffffffffffff02191690556004820160146101000a81549060ff02191690556004820160156101000a81549060ff02191690555050600160008190555050565b6109b6610ba6565b73ffffffffffffffffffffffffffffffffffffffff166109d4610a36565b73ffffffffffffffffffffffffffffffffffffffff1614610a2a576040517f08c379a0000000000000000000000000000000000000000000000000000000008152600401610a2190610fb2565b60405180910390fd5b610a346000610bae565b565b6000600160009054906101000a900473ffffffffffffffffffffffffffffffffffffffff16905090565b6000600454905090565b600060056000838152602001908152602001600020600201549050919050565b610a92610ba6565b73ffffffffffffffffffffffffffffffffffffffff16610ab0610a36565b73ffffffffffffffffffffffffffffffffffffffff1614610b06576040517f08c379a0000000000000000000000000000000000000000000000000000000008152600401610afd90610fb2565b60405180910390fd5b600073ffffffffffffffffffffffffffffffffffffffff168173ffffffffffffffffffffffffffffffffffffffff161415610b76576040517f08c379a0000000000000000000000000000000000000000000000000000000008152600401610b6d90610f32565b60405180910390fd5b610b7f81610bae565b50565b6001816000016000828254019250508190555050565b600081600001549050919050565b600033905090565b6000600160009054906101000a900473ffffffffffffffffffffffffffffffffffffffff16905081600160006101000a81548173ffffffffffffffffffffffffffffffffffffffff021916908373ffffffffffffffffffffffffffffffffffffffff1602179055508173ffffffffffffffffffffffffffffffffffffffff168173ffffffffffffffffffffffffffffffffffffffff167f8be0079c531659141344cd1fd0a4f28419497f9722a3daafe3b4186f6b6457e060405160405180910390a35050565b600081359050610c83816112e8565b92915050565b600081359050610c98816112ff565b92915050565b600060208284031215610cb057600080fd5b6000610cbe84828501610c74565b91505092915050565b60008060408385031215610cda57600080fd5b6000610ce885828601610c74565b9250506020610cf985828601610c89565b9150509250929050565b600060208284031215610d1557600080fd5b6000610d2384828501610c89565b91505092915050565b600080600060608486031215610d4157600080fd5b6000610d4f86828701610c89565b9350506020610d6086828701610c89565b9250506040610d7186828701610c74565b9150509250925092565b610d84816110dd565b82525050565b610d93816110ef565b82525050565b6000610da6602083611072565b9150610db182611154565b602082019050919050565b6000610dc9602683611072565b9150610dd48261117d565b604082019050919050565b6000610dec601f83611072565b9150610df7826111cc565b602082019050919050565b6000610e0f604083611072565b9150610e1a826111f5565b604082019050919050565b6000610e32601683611072565b9150610e3d82611244565b602082019050919050565b6000610e55602083611072565b9150610e608261126d565b602082019050919050565b6000610e78600983611072565b9150610e8382611296565b602082019050919050565b6000610e9b601f83611072565b9150610ea6826112bf565b602082019050919050565b610eba8161111b565b82525050565b6000602082019050610ed56000830184610d7b565b92915050565b6000606082019050610ef06000830186610d7b565b610efd6020830185610d7b565b610f0a6040830184610eb1565b949350505050565b60006020820190508181036000830152610f2b81610d99565b9050919050565b60006020820190508181036000830152610f4b81610dbc565b9050919050565b60006020820190508181036000830152610f6b81610ddf565b9050919050565b60006020820190508181036000830152610f8b81610e02565b9050919050565b60006020820190508181036000830152610fab81610e25565b9050919050565b60006020820190508181036000830152610fcb81610e48565b9050919050565b60006020820190508181036000830152610feb81610e6b565b9050919050565b6000602082019050818103600083015261100b81610e8e565b9050919050565b60006020820190506110276000830184610eb1565b92915050565b60006080820190506110426000830187610eb1565b61104f6020830186610eb1565b61105c6040830185610d8a565b6110696060830184610d8a565b95945050505050565b600082825260208201905092915050565b600061108e8261111b565b91506110998361111b565b9250817fffffffffffffffffffffffffffffffffffffffffffffffffffffffffffffffff04831182151516156110d2576110d1611125565b5b828202905092915050565b60006110e8826110fb565b9050919050565b60008115159050919050565b600073ffffffffffffffffffffffffffffffffffffffff82169050919050565b6000819050919050565b7f4e487b7100000000000000000000000000000000000000000000000000000000600052601160045260246000fd5b7f54686973206c697374696e67206973206e6f206c6f6e67657220616374697665600082015250565b7f4f776e61626c653a206e6577206f776e657220697320746865207a65726f206160008201527f6464726573730000000000000000000000000000000000000000000000000000602082015250565b7f54686973206974656d2068617320616c7265616479206265656e20736f6c6400600082015250565b7f506c65617365207375626d6974207468652061736b696e67207072696365206960008201527f6e206f7264657220746f20636f6d706c65746520746865207075726368617365602082015250565b7f506c6561736520706179206c697374696e672066656500000000000000000000600082015250565b7f4f776e61626c653a2063616c6c6572206973206e6f7420746865206f776e6572600082015250565b7f4e6f74206f776e65720000000000000000000000000000000000000000000000600082015250565b7f5265656e7472616e637947756172643a207265656e7472616e742063616c6c00600082015250565b6112f1816110dd565b81146112fc57600080fd5b50565b6113088161111b565b811461131357600080fd5b5056fea2646970667358221220685d6885ae874dc49eb213f0d35a6b160f790f082bf6f18a738a5a514327742c64736f6c63430008040033",
  "linkReferences": {},
  "deployedLinkReferences": {}
}