{
  "_format": "hh-sol-artifact-1",
  "contractName": "RevisedMarketplace",
  "sourceName": "contracts/RevisedMarketplace.sol",
  "abi": [
    {
      "inputs": [],
      "stateMutability": "nonpayable",
      "type": "constructor"
    },
    {
      "anonymous": false,
      "inputs": [
        {
          "indexed": true,
          "internalType": "uint256",
          "name": "itemId",
          "type": "uint256"
        },
        {
          "indexed": false,
          "internalType": "uint256",
          "name": "tokenId",
          "type": "uint256"
        },
        {
          "indexed": false,
          "internalType": "uint256",
          "name": "price",
          "type": "uint256"
        },
        {
          "indexed": false,
          "internalType": "string",
          "name": "subdomain",
          "type": "string"
        },
        {
          "indexed": true,
          "internalType": "address",
          "name": "nftContract",
          "type": "address"
        },
        {
          "indexed": true,
          "internalType": "address",
          "name": "owner",
          "type": "address"
        },
        {
          "indexed": false,
          "internalType": "bool",
          "name": "sold",
          "type": "bool"
        },
        {
          "indexed": false,
          "internalType": "bool",
          "name": "active",
          "type": "bool"
        }
      ],
      "name": "ListingCreated",
      "type": "event"
    },
    {
      "anonymous": false,
      "inputs": [
        {
          "indexed": true,
          "internalType": "address",
          "name": "previousOwner",
          "type": "address"
        },
        {
          "indexed": true,
          "internalType": "address",
          "name": "newOwner",
          "type": "address"
        }
      ],
      "name": "OwnershipTransferred",
      "type": "event"
    },
    {
      "inputs": [
        {
          "internalType": "address",
          "name": "nftContract",
          "type": "address"
        },
        {
          "internalType": "uint256",
          "name": "itemId",
          "type": "uint256"
        }
      ],
      "name": "buyNow",
      "outputs": [],
      "stateMutability": "payable",
      "type": "function"
    },
    {
      "inputs": [
        {
          "internalType": "uint256",
          "name": "itemId",
          "type": "uint256"
        }
      ],
      "name": "cancelListing",
      "outputs": [],
      "stateMutability": "payable",
      "type": "function"
    },
    {
      "inputs": [
        {
          "internalType": "string",
          "name": "subdomain",
          "type": "string"
        },
        {
          "internalType": "uint256",
          "name": "tokenId",
          "type": "uint256"
        },
        {
          "internalType": "uint256",
          "name": "priceIn",
          "type": "uint256"
        },
        {
          "internalType": "address",
          "name": "nftContract",
          "type": "address"
        }
      ],
      "name": "createListing",
      "outputs": [],
      "stateMutability": "payable",
      "type": "function"
    },
    {
      "inputs": [],
      "name": "fetchListings",
      "outputs": [
        {
          "components": [
            {
              "internalType": "uint256",
              "name": "itemId",
              "type": "uint256"
            },
            {
              "internalType": "uint256",
              "name": "tokenId",
              "type": "uint256"
            },
            {
              "internalType": "uint256",
              "name": "price",
              "type": "uint256"
            },
            {
              "internalType": "string",
              "name": "subdomain",
              "type": "string"
            },
            {
              "internalType": "address",
              "name": "nftContract",
              "type": "address"
            },
            {
              "internalType": "address payable",
              "name": "owner",
              "type": "address"
            },
            {
              "internalType": "bool",
              "name": "sold",
              "type": "bool"
            },
            {
              "internalType": "bool",
              "name": "active",
              "type": "bool"
            }
          ],
          "internalType": "struct RevisedMarketplace.Listing[]",
          "name": "",
          "type": "tuple[]"
        }
      ],
      "stateMutability": "view",
      "type": "function"
    },
    {
      "inputs": [
        {
          "internalType": "uint256",
          "name": "id",
          "type": "uint256"
        }
      ],
      "name": "getListing",
      "outputs": [
        {
          "components": [
            {
              "internalType": "uint256",
              "name": "itemId",
              "type": "uint256"
            },
            {
              "internalType": "uint256",
              "name": "tokenId",
              "type": "uint256"
            },
            {
              "internalType": "uint256",
              "name": "price",
              "type": "uint256"
            },
            {
              "internalType": "string",
              "name": "subdomain",
              "type": "string"
            },
            {
              "internalType": "address",
              "name": "nftContract",
              "type": "address"
            },
            {
              "internalType": "address payable",
              "name": "owner",
              "type": "address"
            },
            {
              "internalType": "bool",
              "name": "sold",
              "type": "bool"
            },
            {
              "internalType": "bool",
              "name": "active",
              "type": "bool"
            }
          ],
          "internalType": "struct RevisedMarketplace.Listing",
          "name": "",
          "type": "tuple"
        }
      ],
      "stateMutability": "view",
      "type": "function"
    },
    {
      "inputs": [
        {
          "internalType": "string",
          "name": "subdomainIn",
          "type": "string"
        }
      ],
      "name": "getListingIdsBySubdomain",
      "outputs": [
        {
          "internalType": "uint256[]",
          "name": "",
          "type": "uint256[]"
        }
      ],
      "stateMutability": "view",
      "type": "function"
    },
    {
      "inputs": [
        {
          "internalType": "uint256",
          "name": "id",
          "type": "uint256"
        }
      ],
      "name": "getListingPrice",
      "outputs": [
        {
          "internalType": "uint256",
          "name": "",
          "type": "uint256"
        }
      ],
      "stateMutability": "view",
      "type": "function"
    },
    {
      "inputs": [],
      "name": "migrateListings",
      "outputs": [
        {
          "components": [
            {
              "internalType": "uint256",
              "name": "itemId",
              "type": "uint256"
            },
            {
              "internalType": "uint256",
              "name": "tokenId",
              "type": "uint256"
            },
            {
              "internalType": "uint256",
              "name": "price",
              "type": "uint256"
            },
            {
              "internalType": "string",
              "name": "subdomain",
              "type": "string"
            },
            {
              "internalType": "address",
              "name": "nftContract",
              "type": "address"
            },
            {
              "internalType": "address payable",
              "name": "owner",
              "type": "address"
            },
            {
              "internalType": "bool",
              "name": "sold",
              "type": "bool"
            },
            {
              "internalType": "bool",
              "name": "active",
              "type": "bool"
            }
          ],
          "internalType": "struct RevisedMarketplace.Listing[]",
          "name": "",
          "type": "tuple[]"
        }
      ],
      "stateMutability": "view",
      "type": "function"
    },
    {
      "inputs": [],
      "name": "owner",
      "outputs": [
        {
          "internalType": "address",
          "name": "",
          "type": "address"
        }
      ],
      "stateMutability": "view",
      "type": "function"
    },
    {
      "inputs": [
        {
          "internalType": "uint256",
          "name": "tokenId",
          "type": "uint256"
        },
        {
          "internalType": "uint256",
          "name": "price",
          "type": "uint256"
        },
        {
          "internalType": "address",
          "name": "nftContract",
          "type": "address"
        }
      ],
      "name": "relistToken",
      "outputs": [],
      "stateMutability": "payable",
      "type": "function"
    },
    {
      "inputs": [],
      "name": "renounceOwnership",
      "outputs": [],
      "stateMutability": "nonpayable",
      "type": "function"
    },
    {
      "inputs": [
        {
          "internalType": "address",
          "name": "add",
          "type": "address"
        }
      ],
      "name": "setAddy",
      "outputs": [],
      "stateMutability": "nonpayable",
      "type": "function"
    },
    {
      "inputs": [
        {
          "internalType": "address payable",
          "name": "add",
          "type": "address"
        }
      ],
      "name": "setRoyaltyAddress",
      "outputs": [],
      "stateMutability": "nonpayable",
      "type": "function"
    },
    {
      "inputs": [
        {
          "internalType": "address",
          "name": "addy",
          "type": "address"
        },
        {
          "internalType": "uint256",
          "name": "itemId",
          "type": "uint256"
        }
      ],
      "name": "someAction",
      "outputs": [
        {
          "internalType": "string",
          "name": "",
          "type": "string"
        }
      ],
      "stateMutability": "view",
      "type": "function"
    },
    {
      "inputs": [
        {
          "internalType": "address",
          "name": "newOwner",
          "type": "address"
        }
      ],
      "name": "transferOwnership",
      "outputs": [],
      "stateMutability": "nonpayable",
      "type": "function"
    }
  ],
  "bytecode": "0x60806040523480156200001157600080fd5b5060016000819055506200003a6200002e6200004060201b60201c565b6200004860201b60201c565b6200010e565b600033905090565b6000600160009054906101000a900473ffffffffffffffffffffffffffffffffffffffff16905081600160006101000a81548173ffffffffffffffffffffffffffffffffffffffff021916908373ffffffffffffffffffffffffffffffffffffffff1602179055508173ffffffffffffffffffffffffffffffffffffffff168173ffffffffffffffffffffffffffffffffffffffff167f8be0079c531659141344cd1fd0a4f28419497f9722a3daafe3b4186f6b6457e060405160405180910390a35050565b613586806200011e6000396000f3fe6080604052600436106100e85760003560e01c8063715018a61161008a578063a80f99ec11610059578063a80f99ec146102aa578063cd989d2d146102d5578063d6077fbf146102fe578063f2fde38b1461033b576100e8565b8063715018a6146102305780637834a0bf146102475780637bc71f78146102635780638da5cb5b1461027f576100e8565b8063107a274a116100c6578063107a274a1461015d5780631f17600b1461019a578063305a67a8146101d7578063398f7223146101f3576100e8565b806303cf7c6d146100ed57806306d254da146101185780630e4bdc9014610141575b600080fd5b3480156100f957600080fd5b50610102610364565b60405161010f9190612c3e565b60405180910390f35b34801561012457600080fd5b5061013f600480360381019061013a919061242d565b6106a3565b005b61015b60048036038101906101569190612456565b610763565b005b34801561016957600080fd5b50610184600480360381019061017f919061258f565b610f76565b6040516101919190612de6565b60405180910390f35b3480156101a657600080fd5b506101c160048036038101906101bc9190612492565b611136565b6040516101ce9190612c60565b60405180910390f35b6101f160048036038101906101ec919061258f565b6111ac565b005b3480156101ff57600080fd5b5061021a60048036038101906102159190612456565b61135d565b6040516102279190612c82565b60405180910390f35b34801561023c57600080fd5b50610245611414565b005b610261600480360381019061025c91906124d3565b61149c565b005b61027d600480360381019061027891906125b8565b6117c6565b005b34801561028b57600080fd5b50610294611990565b6040516102a19190612bec565b60405180910390f35b3480156102b657600080fd5b506102bf6119ba565b6040516102cc9190612c3e565b60405180910390f35b3480156102e157600080fd5b506102fc60048036038101906102f79190612404565b611d28565b005b34801561030a57600080fd5b506103256004803603810190610320919061258f565b611de8565b6040516103329190612e08565b60405180910390f35b34801561034757600080fd5b50610362600480360381019061035d9190612404565b611e08565b005b606061036e611f00565b73ffffffffffffffffffffffffffffffffffffffff1661038c611990565b73ffffffffffffffffffffffffffffffffffffffff16146103e2576040517f08c379a00000000000000000000000000000000000000000000000000000000081526004016103d990612d86565b60405180910390fd5b60006103ee6003611f08565b6103f86002611f08565b6104029190613073565b905060008167ffffffffffffffff811115610446577f4e487b7100000000000000000000000000000000000000000000000000000000600052604160045260246000fd5b60405190808252806020026020018201604052801561047f57816020015b61046c61204e565b8152602001906001900390816104645790505b50905060005b82811161069a57600060066000838152602001908152602001600020604051806101000160405290816000820154815260200160018201548152602001600282015481526020016003820180546104db90613143565b80601f016020809104026020016040519081016040528092919081815260200182805461050790613143565b80156105545780601f1061052957610100808354040283529160200191610554565b820191906000526020600020905b81548152906001019060200180831161053757829003601f168201915b505050505081526020016004820160009054906101000a900473ffffffffffffffffffffffffffffffffffffffff1673ffffffffffffffffffffffffffffffffffffffff1673ffffffffffffffffffffffffffffffffffffffff1681526020016005820160009054906101000a900473ffffffffffffffffffffffffffffffffffffffff1673ffffffffffffffffffffffffffffffffffffffff1673ffffffffffffffffffffffffffffffffffffffff1681526020016005820160149054906101000a900460ff161515151581526020016005820160159054906101000a900460ff16151515158152505090508083838151811061067b577f4e487b7100000000000000000000000000000000000000000000000000000000600052603260045260246000fd5b6020026020010181905250508080610692906131a6565b915050610485565b50809250505090565b6106ab611f00565b73ffffffffffffffffffffffffffffffffffffffff166106c9611990565b73ffffffffffffffffffffffffffffffffffffffff161461071f576040517f08c379a000000000000000000000000000000000000000000000000000000000815260040161071690612d86565b60405180910390fd5b80600560006101000a81548173ffffffffffffffffffffffffffffffffffffffff021916908373ffffffffffffffffffffffffffffffffffffffff16021790555050565b600260005414156107a9576040517f08c379a00000000000000000000000000000000000000000000000000000000081526004016107a090612dc6565b60405180910390fd5b600260008190555060006006600083815260200190815260200160002060020154670de0b6b3a76400006107dd9190613019565b905060006006600084815260200190815260200160002060010154905081341461083c576040517f08c379a000000000000000000000000000000000000000000000000000000000815260040161083390612d66565b60405180910390fd5b600015156006600085815260200190815260200160002060050160149054906101000a900460ff161515146108a6576040517f08c379a000000000000000000000000000000000000000000000000000000000815260040161089d90612d46565b60405180910390fd5b600115156006600085815260200190815260200160002060050160159054906101000a900460ff16151514610910576040517f08c379a000000000000000000000000000000000000000000000000000000000815260040161090790612cc6565b60405180910390fd5b6000600460009054906101000a900473ffffffffffffffffffffffffffffffffffffffff16905060008173ffffffffffffffffffffffffffffffffffffffff166398fa2fb8600660008881526020019081526020016000206003016040518263ffffffff1660e01b81526004016109879190612ca4565b60006040518083038186803b15801561099f57600080fd5b505afa1580156109b3573d6000803e3d6000fd5b505050506040513d6000823e3d601f19601f820116820180604052508101906109dc919061254e565b6060015190506040516020016109f190612bd7565b6040516020818303038152906040528051906020012081604051602001610a189190612b96565b604051602081830303815290604052805190602001201415610b4f576006600086815260200190815260200160002060050160009054906101000a900473ffffffffffffffffffffffffffffffffffffffff1673ffffffffffffffffffffffffffffffffffffffff166108fc6064605f87610a939190613019565b610a9d9190612fe8565b9081150290604051600060405180830381858888f19350505050158015610ac8573d6000803e3d6000fd5b50600560009054906101000a900473ffffffffffffffffffffffffffffffffffffffff1673ffffffffffffffffffffffffffffffffffffffff166108fc6064600587610b149190613019565b610b1e9190612fe8565b9081150290604051600060405180830381858888f19350505050158015610b49573d6000803e3d6000fd5b50610e30565b604051602001610b5e90612bc2565b6040516020818303038152906040528051906020012081604051602001610b859190612b96565b604051602081830303815290604052805190602001201415610cbc576006600086815260200190815260200160002060050160009054906101000a900473ffffffffffffffffffffffffffffffffffffffff1673ffffffffffffffffffffffffffffffffffffffff166108fc6064606187610c009190613019565b610c0a9190612fe8565b9081150290604051600060405180830381858888f19350505050158015610c35573d6000803e3d6000fd5b50600560009054906101000a900473ffffffffffffffffffffffffffffffffffffffff1673ffffffffffffffffffffffffffffffffffffffff166108fc6064600387610c819190613019565b610c8b9190612fe8565b9081150290604051600060405180830381858888f19350505050158015610cb6573d6000803e3d6000fd5b50610e2f565b604051602001610ccb90612bad565b6040516020818303038152906040528051906020012081604051602001610cf29190612b96565b604051602081830303815290604052805190602001201415610e29576006600086815260200190815260200160002060050160009054906101000a900473ffffffffffffffffffffffffffffffffffffffff1673ffffffffffffffffffffffffffffffffffffffff166108fc6064606387610d6d9190613019565b610d779190612fe8565b9081150290604051600060405180830381858888f19350505050158015610da2573d6000803e3d6000fd5b50600560009054906101000a900473ffffffffffffffffffffffffffffffffffffffff1673ffffffffffffffffffffffffffffffffffffffff166108fc6064600187610dee9190613019565b610df89190612fe8565b9081150290604051600060405180830381858888f19350505050158015610e23573d6000803e3d6000fd5b50610e2e565b600080fd5b5b5b60016006600087815260200190815260200160002060050160146101000a81548160ff021916908315150217905550610e696003611f16565b8573ffffffffffffffffffffffffffffffffffffffff166323b872dd3033866040518463ffffffff1660e01b8152600401610ea693929190612c07565b600060405180830381600087803b158015610ec057600080fd5b505af1158015610ed4573d6000803e3d6000fd5b50505050336006600087815260200190815260200160002060050160006101000a81548173ffffffffffffffffffffffffffffffffffffffff021916908373ffffffffffffffffffffffffffffffffffffffff16021790555060006006600087815260200190815260200160002060050160156101000a81548160ff021916908315150217905550610f666003611f16565b5050505060016000819055505050565b610f7e61204e565b6006600083815260200190815260200160002060405180610100016040529081600082015481526020016001820154815260200160028201548152602001600382018054610fcb90613143565b80601f0160208091040260200160405190810160405280929190818152602001828054610ff790613143565b80156110445780601f1061101957610100808354040283529160200191611044565b820191906000526020600020905b81548152906001019060200180831161102757829003601f168201915b505050505081526020016004820160009054906101000a900473ffffffffffffffffffffffffffffffffffffffff1673ffffffffffffffffffffffffffffffffffffffff1673ffffffffffffffffffffffffffffffffffffffff1681526020016005820160009054906101000a900473ffffffffffffffffffffffffffffffffffffffff1673ffffffffffffffffffffffffffffffffffffffff1673ffffffffffffffffffffffffffffffffffffffff1681526020016005820160149054906101000a900460ff161515151581526020016005820160159054906101000a900460ff1615151515815250509050919050565b60606007826040516111489190612b96565b90815260200160405180910390208054806020026020016040519081016040528092919081815260200182805480156111a057602002820191906000526020600020905b81548152602001906001019080831161118c575b50505050509050919050565b600260005414156111f2576040517f08c379a00000000000000000000000000000000000000000000000000000000081526004016111e990612dc6565b60405180910390fd5b60026000819055506006600082815260200190815260200160002060050160009054906101000a900473ffffffffffffffffffffffffffffffffffffffff1673ffffffffffffffffffffffffffffffffffffffff163373ffffffffffffffffffffffffffffffffffffffff161461129e576040517f08c379a000000000000000000000000000000000000000000000000000000000815260040161129590612da6565b60405180910390fd5b60066000828152602001908152602001600020600080820160009055600182016000905560028201600090556003820160006112da91906120c3565b6004820160006101000a81549073ffffffffffffffffffffffffffffffffffffffff02191690556005820160006101000a81549073ffffffffffffffffffffffffffffffffffffffff02191690556005820160146101000a81549060ff02191690556005820160156101000a81549060ff02191690555050600160008190555050565b606060008390508073ffffffffffffffffffffffffffffffffffffffff166398fa2fb8600660008681526020019081526020016000206003016040518263ffffffff1660e01b81526004016113b29190612ca4565b60006040518083038186803b1580156113ca57600080fd5b505afa1580156113de573d6000803e3d6000fd5b505050506040513d6000823e3d601f19601f82011682018060405250810190611407919061254e565b6060015191505092915050565b61141c611f00565b73ffffffffffffffffffffffffffffffffffffffff1661143a611990565b73ffffffffffffffffffffffffffffffffffffffff1614611490576040517f08c379a000000000000000000000000000000000000000000000000000000000815260040161148790612d86565b60405180910390fd5b61149a6000611f2c565b565b600260005414156114e2576040517f08c379a00000000000000000000000000000000000000000000000000000000081526004016114d990612dc6565b60405180910390fd5b60026000819055506114f46002611f16565b60006115006002611f08565b905060008390506040518061010001604052808381526020018681526020018281526020018781526020018473ffffffffffffffffffffffffffffffffffffffff1681526020013373ffffffffffffffffffffffffffffffffffffffff168152602001600015158152602001600115158152506006600084815260200190815260200160002060008201518160000155602082015181600101556040820151816002015560608201518160030190805190602001906115c0929190612103565b5060808201518160040160006101000a81548173ffffffffffffffffffffffffffffffffffffffff021916908373ffffffffffffffffffffffffffffffffffffffff16021790555060a08201518160050160006101000a81548173ffffffffffffffffffffffffffffffffffffffff021916908373ffffffffffffffffffffffffffffffffffffffff16021790555060c08201518160050160146101000a81548160ff02191690831515021790555060e08201518160050160156101000a81548160ff0219169083151502179055509050508273ffffffffffffffffffffffffffffffffffffffff166323b872dd3330886040518463ffffffff1660e01b81526004016116cf93929190612c07565b600060405180830381600087803b1580156116e957600080fd5b505af11580156116fd573d6000803e3d6000fd5b505050506007866040516117119190612b96565b90815260200160405180910390208290806001815401808255809150506001900390600052602060002001600090919091909150553373ffffffffffffffffffffffffffffffffffffffff168373ffffffffffffffffffffffffffffffffffffffff16837f35f37b604f3adfcf05dbb34225b7636fa7138d2c082ddcfc8e913915004c58b388858b600060016040516117ae959493929190612e23565b60405180910390a45050600160008190555050505050565b3373ffffffffffffffffffffffffffffffffffffffff166006600085815260200190815260200160002060050160009054906101000a900473ffffffffffffffffffffffffffffffffffffffff1673ffffffffffffffffffffffffffffffffffffffff161461186a576040517f08c379a000000000000000000000000000000000000000000000000000000000815260040161186190612ce6565b60405180910390fd5b60006006600085815260200190815260200160002060050160146101000a81548160ff02191690831515021790555060006006600085815260200190815260200160002060050160156101000a81548160ff02191690831515021790555081600660008581526020019081526020016000206002018190555060016006600085815260200190815260200160002060050160156101000a81548160ff02191690831515021790555061191c6003611ff2565b8073ffffffffffffffffffffffffffffffffffffffff166323b872dd3330866040518463ffffffff1660e01b815260040161195993929190612c07565b600060405180830381600087803b15801561197357600080fd5b505af1158015611987573d6000803e3d6000fd5b50505050505050565b6000600160009054906101000a900473ffffffffffffffffffffffffffffffffffffffff16905090565b606060006119c86002611f08565b905060006119d66003611f08565b6119e06002611f08565b6119ea9190613073565b90506000808267ffffffffffffffff811115611a2f577f4e487b7100000000000000000000000000000000000000000000000000000000600052604160045260246000fd5b604051908082528060200260200182016040528015611a6857816020015b611a5561204e565b815260200190600190039081611a4d5790505b50905060005b84811015611d1d57600073ffffffffffffffffffffffffffffffffffffffff1660066000600184611a9f9190612f92565b815260200190815260200160002060050160009054906101000a900473ffffffffffffffffffffffffffffffffffffffff1673ffffffffffffffffffffffffffffffffffffffff161415611d0a576000600182611afc9190612f92565b905060006006600083815260200190815260200160002090508060405180610100016040529081600082015481526020016001820154815260200160028201548152602001600382018054611b5090613143565b80601f0160208091040260200160405190810160405280929190818152602001828054611b7c90613143565b8015611bc95780601f10611b9e57610100808354040283529160200191611bc9565b820191906000526020600020905b815481529060010190602001808311611bac57829003601f168201915b505050505081526020016004820160009054906101000a900473ffffffffffffffffffffffffffffffffffffffff1673ffffffffffffffffffffffffffffffffffffffff1673ffffffffffffffffffffffffffffffffffffffff1681526020016005820160009054906101000a900473ffffffffffffffffffffffffffffffffffffffff1673ffffffffffffffffffffffffffffffffffffffff1673ffffffffffffffffffffffffffffffffffffffff1681526020016005820160149054906101000a900460ff161515151581526020016005820160159054906101000a900460ff161515151581525050848681518110611ced577f4e487b7100000000000000000000000000000000000000000000000000000000600052603260045260246000fd5b6020026020010181905250600185611d059190612f92565b945050505b8080611d15906131a6565b915050611a6e565b508094505050505090565b611d30611f00565b73ffffffffffffffffffffffffffffffffffffffff16611d4e611990565b73ffffffffffffffffffffffffffffffffffffffff1614611da4576040517f08c379a0000000000000000000000000000000000000000000000000000000008152600401611d9b90612d86565b60405180910390fd5b80600460006101000a81548173ffffffffffffffffffffffffffffffffffffffff021916908373ffffffffffffffffffffffffffffffffffffffff16021790555050565b600060066000838152602001908152602001600020600201549050919050565b611e10611f00565b73ffffffffffffffffffffffffffffffffffffffff16611e2e611990565b73ffffffffffffffffffffffffffffffffffffffff1614611e84576040517f08c379a0000000000000000000000000000000000000000000000000000000008152600401611e7b90612d86565b60405180910390fd5b600073ffffffffffffffffffffffffffffffffffffffff168173ffffffffffffffffffffffffffffffffffffffff161415611ef4576040517f08c379a0000000000000000000000000000000000000000000000000000000008152600401611eeb90612d26565b60405180910390fd5b611efd81611f2c565b50565b600033905090565b600081600001549050919050565b6001816000016000828254019250508190555050565b6000600160009054906101000a900473ffffffffffffffffffffffffffffffffffffffff16905081600160006101000a81548173ffffffffffffffffffffffffffffffffffffffff021916908373ffffffffffffffffffffffffffffffffffffffff1602179055508173ffffffffffffffffffffffffffffffffffffffff168173ffffffffffffffffffffffffffffffffffffffff167f8be0079c531659141344cd1fd0a4f28419497f9722a3daafe3b4186f6b6457e060405160405180910390a35050565b6000816000015490506000811161203e576040517f08c379a000000000000000000000000000000000000000000000000000000000815260040161203590612d06565b60405180910390fd5b6001810382600001819055505050565b60405180610100016040528060008152602001600081526020016000815260200160608152602001600073ffffffffffffffffffffffffffffffffffffffff168152602001600073ffffffffffffffffffffffffffffffffffffffff1681526020016000151581526020016000151581525090565b5080546120cf90613143565b6000825580601f106120e15750612100565b601f0160209004906000526020600020908101906120ff9190612189565b5b50565b82805461210f90613143565b90600052602060002090601f0160209004810192826121315760008555612178565b82601f1061214a57805160ff1916838001178555612178565b82800160010185558215612178579182015b8281111561217757825182559160200191906001019061215c565b5b5090506121859190612189565b5090565b5b808211156121a257600081600090555060010161218a565b5090565b60006121b96121b484612ea2565b612e7d565b9050828152602081018484840111156121d157600080fd5b6121dc848285613101565b509392505050565b60006121f76121f284612ea2565b612e7d565b90508281526020810184848401111561220f57600080fd5b61221a848285613110565b509392505050565b600081359050612231816134f4565b92915050565b6000813590506122468161350b565b92915050565b60008151905061225b8161350b565b92915050565b60008151905061227081613522565b92915050565b600082601f83011261228757600080fd5b81356122978482602086016121a6565b91505092915050565b600082601f8301126122b157600080fd5b81516122c18482602086016121e4565b91505092915050565b600060e082840312156122dc57600080fd5b6122e660e0612e7d565b905060006122f6848285016123ef565b600083015250602082015167ffffffffffffffff81111561231657600080fd5b612322848285016122a0565b602083015250604082015167ffffffffffffffff81111561234257600080fd5b61234e848285016122a0565b604083015250606082015167ffffffffffffffff81111561236e57600080fd5b61237a848285016122a0565b606083015250608061238e8482850161224c565b60808301525060a082015167ffffffffffffffff8111156123ae57600080fd5b6123ba848285016122a0565b60a08301525060c06123ce84828501612261565b60c08301525092915050565b6000813590506123e981613539565b92915050565b6000815190506123fe81613539565b92915050565b60006020828403121561241657600080fd5b600061242484828501612222565b91505092915050565b60006020828403121561243f57600080fd5b600061244d84828501612237565b91505092915050565b6000806040838503121561246957600080fd5b600061247785828601612222565b9250506020612488858286016123da565b9150509250929050565b6000602082840312156124a457600080fd5b600082013567ffffffffffffffff8111156124be57600080fd5b6124ca84828501612276565b91505092915050565b600080600080608085870312156124e957600080fd5b600085013567ffffffffffffffff81111561250357600080fd5b61250f87828801612276565b9450506020612520878288016123da565b9350506040612531878288016123da565b925050606061254287828801612222565b91505092959194509250565b60006020828403121561256057600080fd5b600082015167ffffffffffffffff81111561257a57600080fd5b612586848285016122ca565b91505092915050565b6000602082840312156125a157600080fd5b60006125af848285016123da565b91505092915050565b6000806000606084860312156125cd57600080fd5b60006125db868287016123da565b93505060206125ec868287016123da565b92505060406125fd86828701612222565b9150509250925092565b60006126138383612a18565b905092915050565b60006126278383612b78565b60208301905092915050565b61263c816130b9565b82525050565b61264b816130a7565b82525050565b61265a816130a7565b82525050565b600061266b82612f08565b6126758185612f43565b93508360208202850161268785612ed3565b8060005b858110156126c357848403895281516126a48582612607565b94506126af83612f29565b925060208a0199505060018101905061268b565b50829750879550505050505092915050565b60006126e082612f13565b6126ea8185612f54565b93506126f583612ee3565b8060005b8381101561272657815161270d888261261b565b975061271883612f36565b9250506001810190506126f9565b5085935050505092915050565b61273c816130cb565b82525050565b61274b816130cb565b82525050565b600061275c82612f1e565b6127668185612f65565b9350612776818560208601613110565b61277f816132ab565b840191505092915050565b600061279582612f1e565b61279f8185612f76565b93506127af818560208601613110565b6127b8816132ab565b840191505092915050565b60006127ce82612f1e565b6127d88185612f87565b93506127e8818560208601613110565b80840191505092915050565b6000815461280181613143565b61280b8186612f76565b9450600182166000811461282657600181146128385761286b565b60ff198316865260208601935061286b565b61284185612ef3565b60005b8381101561286357815481890152600182019150602081019050612844565b808801955050505b50505092915050565b6000612881602083612f76565b915061288c826132bc565b602082019050919050565b60006128a4601583612f76565b91506128af826132e5565b602082019050919050565b60006128c7601b83612f76565b91506128d28261330e565b602082019050919050565b60006128ea602683612f76565b91506128f582613337565b604082019050919050565b600061290d600983612f87565b915061291882613386565b600982019050919050565b6000612930601f83612f76565b915061293b826133af565b602082019050919050565b6000612953600383612f87565b915061295e826133d8565b600382019050919050565b6000612976604083612f76565b915061298182613401565b604082019050919050565b6000612999602083612f76565b91506129a482613450565b602082019050919050565b60006129bc600583612f87565b91506129c782613479565b600582019050919050565b60006129df600983612f76565b91506129ea826134a2565b602082019050919050565b6000612a02601f83612f76565b9150612a0d826134cb565b602082019050919050565b600061010083016000830151612a316000860182612b78565b506020830151612a446020860182612b78565b506040830151612a576040860182612b78565b5060608301518482036060860152612a6f8282612751565b9150506080830151612a846080860182612642565b5060a0830151612a9760a0860182612633565b5060c0830151612aaa60c0860182612733565b5060e0830151612abd60e0860182612733565b508091505092915050565b600061010083016000830151612ae16000860182612b78565b506020830151612af46020860182612b78565b506040830151612b076040860182612b78565b5060608301518482036060860152612b1f8282612751565b9150506080830151612b346080860182612642565b5060a0830151612b4760a0860182612633565b5060c0830151612b5a60c0860182612733565b5060e0830151612b6d60e0860182612733565b508091505092915050565b612b81816130f7565b82525050565b612b90816130f7565b82525050565b6000612ba282846127c3565b915081905092915050565b6000612bb882612900565b9150819050919050565b6000612bcd82612946565b9150819050919050565b6000612be2826129af565b9150819050919050565b6000602082019050612c016000830184612651565b92915050565b6000606082019050612c1c6000830186612651565b612c296020830185612651565b612c366040830184612b87565b949350505050565b60006020820190508181036000830152612c588184612660565b905092915050565b60006020820190508181036000830152612c7a81846126d5565b905092915050565b60006020820190508181036000830152612c9c818461278a565b905092915050565b60006020820190508181036000830152612cbe81846127f4565b905092915050565b60006020820190508181036000830152612cdf81612874565b9050919050565b60006020820190508181036000830152612cff81612897565b9050919050565b60006020820190508181036000830152612d1f816128ba565b9050919050565b60006020820190508181036000830152612d3f816128dd565b9050919050565b60006020820190508181036000830152612d5f81612923565b9050919050565b60006020820190508181036000830152612d7f81612969565b9050919050565b60006020820190508181036000830152612d9f8161298c565b9050919050565b60006020820190508181036000830152612dbf816129d2565b9050919050565b60006020820190508181036000830152612ddf816129f5565b9050919050565b60006020820190508181036000830152612e008184612ac8565b905092915050565b6000602082019050612e1d6000830184612b87565b92915050565b600060a082019050612e386000830188612b87565b612e456020830187612b87565b8181036040830152612e57818661278a565b9050612e666060830185612742565b612e736080830184612742565b9695505050505050565b6000612e87612e98565b9050612e938282613175565b919050565b6000604051905090565b600067ffffffffffffffff821115612ebd57612ebc61327c565b5b612ec6826132ab565b9050602081019050919050565b6000819050602082019050919050565b6000819050602082019050919050565b60008190508160005260206000209050919050565b600081519050919050565b600081519050919050565b600081519050919050565b6000602082019050919050565b6000602082019050919050565b600082825260208201905092915050565b600082825260208201905092915050565b600082825260208201905092915050565b600082825260208201905092915050565b600081905092915050565b6000612f9d826130f7565b9150612fa8836130f7565b9250827fffffffffffffffffffffffffffffffffffffffffffffffffffffffffffffffff03821115612fdd57612fdc6131ef565b5b828201905092915050565b6000612ff3826130f7565b9150612ffe836130f7565b92508261300e5761300d61321e565b5b828204905092915050565b6000613024826130f7565b915061302f836130f7565b9250817fffffffffffffffffffffffffffffffffffffffffffffffffffffffffffffffff0483118215151615613068576130676131ef565b5b828202905092915050565b600061307e826130f7565b9150613089836130f7565b92508282101561309c5761309b6131ef565b5b828203905092915050565b60006130b2826130d7565b9050919050565b60006130c4826130d7565b9050919050565b60008115159050919050565b600073ffffffffffffffffffffffffffffffffffffffff82169050919050565b6000819050919050565b82818337600083830152505050565b60005b8381101561312e578082015181840152602081019050613113565b8381111561313d576000848401525b50505050565b6000600282049050600182168061315b57607f821691505b6020821081141561316f5761316e61324d565b5b50919050565b61317e826132ab565b810181811067ffffffffffffffff8211171561319d5761319c61327c565b5b80604052505050565b60006131b1826130f7565b91507fffffffffffffffffffffffffffffffffffffffffffffffffffffffffffffffff8214156131e4576131e36131ef565b5b600182019050919050565b7f4e487b7100000000000000000000000000000000000000000000000000000000600052601160045260246000fd5b7f4e487b7100000000000000000000000000000000000000000000000000000000600052601260045260246000fd5b7f4e487b7100000000000000000000000000000000000000000000000000000000600052602260045260246000fd5b7f4e487b7100000000000000000000000000000000000000000000000000000000600052604160045260246000fd5b6000601f19601f8301169050919050565b7f54686973206c697374696e67206973206e6f206c6f6e67657220616374697665600082015250565b7f4f6e6c79206f776e65722063616e2072656c6973740000000000000000000000600082015250565b7f436f756e7465723a2064656372656d656e74206f766572666c6f770000000000600082015250565b7f4f776e61626c653a206e6577206f776e657220697320746865207a65726f206160008201527f6464726573730000000000000000000000000000000000000000000000000000602082015250565b7f756e6c696d697465640000000000000000000000000000000000000000000000600082015250565b7f54686973206974656d2068617320616c7265616479206265656e20736f6c6400600082015250565b7f70726f0000000000000000000000000000000000000000000000000000000000600082015250565b7f506c65617365207375626d6974207468652061736b696e67207072696365206960008201527f6e206f7264657220746f20636f6d706c65746520746865207075726368617365602082015250565b7f4f776e61626c653a2063616c6c6572206973206e6f7420746865206f776e6572600082015250565b7f6261736963000000000000000000000000000000000000000000000000000000600082015250565b7f4e6f74206f776e65720000000000000000000000000000000000000000000000600082015250565b7f5265656e7472616e637947756172643a207265656e7472616e742063616c6c00600082015250565b6134fd816130a7565b811461350857600080fd5b50565b613514816130b9565b811461351f57600080fd5b50565b61352b816130cb565b811461353657600080fd5b50565b613542816130f7565b811461354d57600080fd5b5056fea26469706673582212201334554ff105a27eb9fad3531923a4e56701b19ab72df806fe0cc192bc2bc8e664736f6c63430008040033",
  "linkReferences": {},
  "deployedLinkReferences": {}
}