{
  "_format": "hh-sol-artifact-1",
  "contractName": "RevisedMarketplace",
  "sourceName": "contracts/RevisedMarketplace.sol",
  "abi": [
    {
      "inputs": [],
      "stateMutability": "nonpayable",
      "type": "constructor"
    },
    {
      "anonymous": false,
      "inputs": [
        {
          "indexed": true,
          "internalType": "uint256",
          "name": "itemId",
          "type": "uint256"
        },
        {
          "indexed": false,
          "internalType": "uint256",
          "name": "tokenId",
          "type": "uint256"
        },
        {
          "indexed": false,
          "internalType": "uint256",
          "name": "price",
          "type": "uint256"
        },
        {
          "indexed": false,
          "internalType": "string",
          "name": "subdomain",
          "type": "string"
        },
        {
          "indexed": true,
          "internalType": "address",
          "name": "nftContract",
          "type": "address"
        },
        {
          "indexed": true,
          "internalType": "address",
          "name": "owner",
          "type": "address"
        },
        {
          "indexed": false,
          "internalType": "bool",
          "name": "sold",
          "type": "bool"
        },
        {
          "indexed": false,
          "internalType": "bool",
          "name": "active",
          "type": "bool"
        }
      ],
      "name": "ListingCreated",
      "type": "event"
    },
    {
      "anonymous": false,
      "inputs": [
        {
          "indexed": true,
          "internalType": "address",
          "name": "previousOwner",
          "type": "address"
        },
        {
          "indexed": true,
          "internalType": "address",
          "name": "newOwner",
          "type": "address"
        }
      ],
      "name": "OwnershipTransferred",
      "type": "event"
    },
    {
      "inputs": [
        {
          "internalType": "address",
          "name": "nftContract",
          "type": "address"
        },
        {
          "internalType": "uint256",
          "name": "itemId",
          "type": "uint256"
        }
      ],
      "name": "buyNow",
      "outputs": [],
      "stateMutability": "payable",
      "type": "function"
    },
    {
      "inputs": [
        {
          "internalType": "uint256",
          "name": "itemId",
          "type": "uint256"
        }
      ],
      "name": "cancelListing",
      "outputs": [],
      "stateMutability": "payable",
      "type": "function"
    },
    {
      "inputs": [
        {
          "internalType": "string",
          "name": "subdomain",
          "type": "string"
        },
        {
          "internalType": "uint256",
          "name": "tokenId",
          "type": "uint256"
        },
        {
          "internalType": "uint256",
          "name": "priceIn",
          "type": "uint256"
        },
        {
          "internalType": "address",
          "name": "nftContract",
          "type": "address"
        }
      ],
      "name": "createListing",
      "outputs": [],
      "stateMutability": "payable",
      "type": "function"
    },
    {
      "inputs": [],
      "name": "fetchListings",
      "outputs": [
        {
          "components": [
            {
              "internalType": "uint256",
              "name": "itemId",
              "type": "uint256"
            },
            {
              "internalType": "uint256",
              "name": "tokenId",
              "type": "uint256"
            },
            {
              "internalType": "uint256",
              "name": "price",
              "type": "uint256"
            },
            {
              "internalType": "string",
              "name": "subdomain",
              "type": "string"
            },
            {
              "internalType": "address",
              "name": "nftContract",
              "type": "address"
            },
            {
              "internalType": "address payable",
              "name": "owner",
              "type": "address"
            },
            {
              "internalType": "bool",
              "name": "sold",
              "type": "bool"
            },
            {
              "internalType": "bool",
              "name": "active",
              "type": "bool"
            }
          ],
          "internalType": "struct RevisedMarketplace.Listing[]",
          "name": "",
          "type": "tuple[]"
        }
      ],
      "stateMutability": "view",
      "type": "function"
    },
    {
      "inputs": [
        {
          "internalType": "uint256",
          "name": "id",
          "type": "uint256"
        }
      ],
      "name": "getListing",
      "outputs": [
        {
          "components": [
            {
              "internalType": "uint256",
              "name": "itemId",
              "type": "uint256"
            },
            {
              "internalType": "uint256",
              "name": "tokenId",
              "type": "uint256"
            },
            {
              "internalType": "uint256",
              "name": "price",
              "type": "uint256"
            },
            {
              "internalType": "string",
              "name": "subdomain",
              "type": "string"
            },
            {
              "internalType": "address",
              "name": "nftContract",
              "type": "address"
            },
            {
              "internalType": "address payable",
              "name": "owner",
              "type": "address"
            },
            {
              "internalType": "bool",
              "name": "sold",
              "type": "bool"
            },
            {
              "internalType": "bool",
              "name": "active",
              "type": "bool"
            }
          ],
          "internalType": "struct RevisedMarketplace.Listing",
          "name": "",
          "type": "tuple"
        }
      ],
      "stateMutability": "view",
      "type": "function"
    },
    {
      "inputs": [
        {
          "internalType": "string",
          "name": "subdomainIn",
          "type": "string"
        }
      ],
      "name": "getListingIdsBySubdomain",
      "outputs": [
        {
          "internalType": "uint256[]",
          "name": "",
          "type": "uint256[]"
        }
      ],
      "stateMutability": "view",
      "type": "function"
    },
    {
      "inputs": [
        {
          "internalType": "uint256",
          "name": "id",
          "type": "uint256"
        }
      ],
      "name": "getListingPrice",
      "outputs": [
        {
          "internalType": "uint256",
          "name": "",
          "type": "uint256"
        }
      ],
      "stateMutability": "view",
      "type": "function"
    },
    {
      "inputs": [],
      "name": "migrateListings",
      "outputs": [
        {
          "components": [
            {
              "internalType": "uint256",
              "name": "itemId",
              "type": "uint256"
            },
            {
              "internalType": "uint256",
              "name": "tokenId",
              "type": "uint256"
            },
            {
              "internalType": "uint256",
              "name": "price",
              "type": "uint256"
            },
            {
              "internalType": "string",
              "name": "subdomain",
              "type": "string"
            },
            {
              "internalType": "address",
              "name": "nftContract",
              "type": "address"
            },
            {
              "internalType": "address payable",
              "name": "owner",
              "type": "address"
            },
            {
              "internalType": "bool",
              "name": "sold",
              "type": "bool"
            },
            {
              "internalType": "bool",
              "name": "active",
              "type": "bool"
            }
          ],
          "internalType": "struct RevisedMarketplace.Listing[]",
          "name": "",
          "type": "tuple[]"
        }
      ],
      "stateMutability": "view",
      "type": "function"
    },
    {
      "inputs": [],
      "name": "owner",
      "outputs": [
        {
          "internalType": "address",
          "name": "",
          "type": "address"
        }
      ],
      "stateMutability": "view",
      "type": "function"
    },
    {
      "inputs": [
        {
          "internalType": "uint256",
          "name": "tokenId",
          "type": "uint256"
        },
        {
          "internalType": "uint256",
          "name": "price",
          "type": "uint256"
        },
        {
          "internalType": "address",
          "name": "nftContract",
          "type": "address"
        }
      ],
      "name": "relistToken",
      "outputs": [],
      "stateMutability": "payable",
      "type": "function"
    },
    {
      "inputs": [],
      "name": "renounceOwnership",
      "outputs": [],
      "stateMutability": "nonpayable",
      "type": "function"
    },
    {
      "inputs": [
        {
          "internalType": "address",
          "name": "add",
          "type": "address"
        }
      ],
      "name": "setAddy",
      "outputs": [],
      "stateMutability": "nonpayable",
      "type": "function"
    },
    {
      "inputs": [
        {
          "internalType": "address payable",
          "name": "add",
          "type": "address"
        }
      ],
      "name": "setRoyaltyAddress",
      "outputs": [],
      "stateMutability": "nonpayable",
      "type": "function"
    },
    {
      "inputs": [
        {
          "internalType": "address",
          "name": "newOwner",
          "type": "address"
        }
      ],
      "name": "transferOwnership",
      "outputs": [],
      "stateMutability": "nonpayable",
      "type": "function"
    }
  ],
  "bytecode": "0x60806040523480156200001157600080fd5b5060016000819055506200003a6200002e6200004060201b60201c565b6200004860201b60201c565b6200010e565b600033905090565b6000600160009054906101000a900473ffffffffffffffffffffffffffffffffffffffff16905081600160006101000a81548173ffffffffffffffffffffffffffffffffffffffff021916908373ffffffffffffffffffffffffffffffffffffffff1602179055508173ffffffffffffffffffffffffffffffffffffffff168173ffffffffffffffffffffffffffffffffffffffff167f8be0079c531659141344cd1fd0a4f28419497f9722a3daafe3b4186f6b6457e060405160405180910390a35050565b613691806200011e6000396000f3fe6080604052600436106100dd5760003560e01c80637834a0bf1161007f578063a80f99ec11610059578063a80f99ec14610262578063cd989d2d1461028d578063d6077fbf146102b6578063f2fde38b146102f3576100dd565b80637834a0bf146101ff5780637bc71f781461021b5780638da5cb5b14610237576100dd565b8063107a274a116100bb578063107a274a146101525780631f17600b1461018f578063305a67a8146101cc578063715018a6146101e8576100dd565b806303cf7c6d146100e257806306d254da1461010d5780630e4bdc9014610136575b600080fd5b3480156100ee57600080fd5b506100f761031c565b6040516101049190612d49565b60405180910390f35b34801561011957600080fd5b50610134600480360381019061012f9190612538565b61065b565b005b610150600480360381019061014b9190612561565b61071b565b005b34801561015e57600080fd5b506101796004803603810190610174919061269a565b610f2e565b6040516101869190612ef1565b60405180910390f35b34801561019b57600080fd5b506101b660048036038101906101b1919061259d565b6110ee565b6040516101c39190612d6b565b60405180910390f35b6101e660048036038101906101e1919061269a565b611164565b005b3480156101f457600080fd5b506101fd611315565b005b610219600480360381019061021491906125de565b61139d565b005b610235600480360381019061023091906126c3565b6118d1565b005b34801561024357600080fd5b5061024c611a9b565b6040516102599190612cf7565b60405180910390f35b34801561026e57600080fd5b50610277611ac5565b6040516102849190612d49565b60405180910390f35b34801561029957600080fd5b506102b460048036038101906102af919061250f565b611e33565b005b3480156102c257600080fd5b506102dd60048036038101906102d8919061269a565b611ef3565b6040516102ea9190612f13565b60405180910390f35b3480156102ff57600080fd5b5061031a6004803603810190610315919061250f565b611f13565b005b606061032661200b565b73ffffffffffffffffffffffffffffffffffffffff16610344611a9b565b73ffffffffffffffffffffffffffffffffffffffff161461039a576040517f08c379a000000000000000000000000000000000000000000000000000000000815260040161039190612e91565b60405180910390fd5b60006103a66003612013565b6103b06002612013565b6103ba919061317e565b905060008167ffffffffffffffff8111156103fe577f4e487b7100000000000000000000000000000000000000000000000000000000600052604160045260246000fd5b60405190808252806020026020018201604052801561043757816020015b610424612159565b81526020019060019003908161041c5790505b50905060005b82811161065257600060066000838152602001908152602001600020604051806101000160405290816000820154815260200160018201548152602001600282015481526020016003820180546104939061324e565b80601f01602080910402602001604051908101604052809291908181526020018280546104bf9061324e565b801561050c5780601f106104e15761010080835404028352916020019161050c565b820191906000526020600020905b8154815290600101906020018083116104ef57829003601f168201915b505050505081526020016004820160009054906101000a900473ffffffffffffffffffffffffffffffffffffffff1673ffffffffffffffffffffffffffffffffffffffff1673ffffffffffffffffffffffffffffffffffffffff1681526020016005820160009054906101000a900473ffffffffffffffffffffffffffffffffffffffff1673ffffffffffffffffffffffffffffffffffffffff1673ffffffffffffffffffffffffffffffffffffffff1681526020016005820160149054906101000a900460ff161515151581526020016005820160159054906101000a900460ff161515151581525050905080838381518110610633577f4e487b7100000000000000000000000000000000000000000000000000000000600052603260045260246000fd5b602002602001018190525050808061064a906132b1565b91505061043d565b50809250505090565b61066361200b565b73ffffffffffffffffffffffffffffffffffffffff16610681611a9b565b73ffffffffffffffffffffffffffffffffffffffff16146106d7576040517f08c379a00000000000000000000000000000000000000000000000000000000081526004016106ce90612e91565b60405180910390fd5b80600560006101000a81548173ffffffffffffffffffffffffffffffffffffffff021916908373ffffffffffffffffffffffffffffffffffffffff16021790555050565b60026000541415610761576040517f08c379a000000000000000000000000000000000000000000000000000000000815260040161075890612ed1565b60405180910390fd5b600260008190555060006006600083815260200190815260200160002060020154670de0b6b3a76400006107959190613124565b90506000600660008481526020019081526020016000206001015490508134146107f4576040517f08c379a00000000000000000000000000000000000000000000000000000000081526004016107eb90612e71565b60405180910390fd5b600015156006600085815260200190815260200160002060050160149054906101000a900460ff1615151461085e576040517f08c379a000000000000000000000000000000000000000000000000000000000815260040161085590612e51565b60405180910390fd5b600115156006600085815260200190815260200160002060050160159054906101000a900460ff161515146108c8576040517f08c379a00000000000000000000000000000000000000000000000000000000081526004016108bf90612dd1565b60405180910390fd5b6000600460009054906101000a900473ffffffffffffffffffffffffffffffffffffffff16905060008173ffffffffffffffffffffffffffffffffffffffff166398fa2fb8600660008881526020019081526020016000206003016040518263ffffffff1660e01b815260040161093f9190612daf565b60006040518083038186803b15801561095757600080fd5b505afa15801561096b573d6000803e3d6000fd5b505050506040513d6000823e3d601f19601f820116820180604052508101906109949190612659565b6060015190506040516020016109a990612ce2565b60405160208183030381529060405280519060200120816040516020016109d09190612ca1565b604051602081830303815290604052805190602001201415610b07576006600086815260200190815260200160002060050160009054906101000a900473ffffffffffffffffffffffffffffffffffffffff1673ffffffffffffffffffffffffffffffffffffffff166108fc6064605f87610a4b9190613124565b610a5591906130f3565b9081150290604051600060405180830381858888f19350505050158015610a80573d6000803e3d6000fd5b50600560009054906101000a900473ffffffffffffffffffffffffffffffffffffffff1673ffffffffffffffffffffffffffffffffffffffff166108fc6064600587610acc9190613124565b610ad691906130f3565b9081150290604051600060405180830381858888f19350505050158015610b01573d6000803e3d6000fd5b50610de8565b604051602001610b1690612ccd565b6040516020818303038152906040528051906020012081604051602001610b3d9190612ca1565b604051602081830303815290604052805190602001201415610c74576006600086815260200190815260200160002060050160009054906101000a900473ffffffffffffffffffffffffffffffffffffffff1673ffffffffffffffffffffffffffffffffffffffff166108fc6064606187610bb89190613124565b610bc291906130f3565b9081150290604051600060405180830381858888f19350505050158015610bed573d6000803e3d6000fd5b50600560009054906101000a900473ffffffffffffffffffffffffffffffffffffffff1673ffffffffffffffffffffffffffffffffffffffff166108fc6064600387610c399190613124565b610c4391906130f3565b9081150290604051600060405180830381858888f19350505050158015610c6e573d6000803e3d6000fd5b50610de7565b604051602001610c8390612cb8565b6040516020818303038152906040528051906020012081604051602001610caa9190612ca1565b604051602081830303815290604052805190602001201415610de1576006600086815260200190815260200160002060050160009054906101000a900473ffffffffffffffffffffffffffffffffffffffff1673ffffffffffffffffffffffffffffffffffffffff166108fc6064606387610d259190613124565b610d2f91906130f3565b9081150290604051600060405180830381858888f19350505050158015610d5a573d6000803e3d6000fd5b50600560009054906101000a900473ffffffffffffffffffffffffffffffffffffffff1673ffffffffffffffffffffffffffffffffffffffff166108fc6064600187610da69190613124565b610db091906130f3565b9081150290604051600060405180830381858888f19350505050158015610ddb573d6000803e3d6000fd5b50610de6565b600080fd5b5b5b60016006600087815260200190815260200160002060050160146101000a81548160ff021916908315150217905550610e216003612021565b8573ffffffffffffffffffffffffffffffffffffffff166323b872dd3033866040518463ffffffff1660e01b8152600401610e5e93929190612d12565b600060405180830381600087803b158015610e7857600080fd5b505af1158015610e8c573d6000803e3d6000fd5b50505050336006600087815260200190815260200160002060050160006101000a81548173ffffffffffffffffffffffffffffffffffffffff021916908373ffffffffffffffffffffffffffffffffffffffff16021790555060006006600087815260200190815260200160002060050160156101000a81548160ff021916908315150217905550610f1e6003612021565b5050505060016000819055505050565b610f36612159565b6006600083815260200190815260200160002060405180610100016040529081600082015481526020016001820154815260200160028201548152602001600382018054610f839061324e565b80601f0160208091040260200160405190810160405280929190818152602001828054610faf9061324e565b8015610ffc5780601f10610fd157610100808354040283529160200191610ffc565b820191906000526020600020905b815481529060010190602001808311610fdf57829003601f168201915b505050505081526020016004820160009054906101000a900473ffffffffffffffffffffffffffffffffffffffff1673ffffffffffffffffffffffffffffffffffffffff1673ffffffffffffffffffffffffffffffffffffffff1681526020016005820160009054906101000a900473ffffffffffffffffffffffffffffffffffffffff1673ffffffffffffffffffffffffffffffffffffffff1673ffffffffffffffffffffffffffffffffffffffff1681526020016005820160149054906101000a900460ff161515151581526020016005820160159054906101000a900460ff1615151515815250509050919050565b60606007826040516111009190612ca1565b908152602001604051809103902080548060200260200160405190810160405280929190818152602001828054801561115857602002820191906000526020600020905b815481526020019060010190808311611144575b50505050509050919050565b600260005414156111aa576040517f08c379a00000000000000000000000000000000000000000000000000000000081526004016111a190612ed1565b60405180910390fd5b60026000819055506006600082815260200190815260200160002060050160009054906101000a900473ffffffffffffffffffffffffffffffffffffffff1673ffffffffffffffffffffffffffffffffffffffff163373ffffffffffffffffffffffffffffffffffffffff1614611256576040517f08c379a000000000000000000000000000000000000000000000000000000000815260040161124d90612eb1565b60405180910390fd5b600660008281526020019081526020016000206000808201600090556001820160009055600282016000905560038201600061129291906121ce565b6004820160006101000a81549073ffffffffffffffffffffffffffffffffffffffff02191690556005820160006101000a81549073ffffffffffffffffffffffffffffffffffffffff02191690556005820160146101000a81549060ff02191690556005820160156101000a81549060ff02191690555050600160008190555050565b61131d61200b565b73ffffffffffffffffffffffffffffffffffffffff1661133b611a9b565b73ffffffffffffffffffffffffffffffffffffffff1614611391576040517f08c379a000000000000000000000000000000000000000000000000000000000815260040161138890612e91565b60405180910390fd5b61139b6000612037565b565b600260005414156113e3576040517f08c379a00000000000000000000000000000000000000000000000000000000081526004016113da90612ed1565b60405180910390fd5b6002600081905550600080600460009054906101000a900473ffffffffffffffffffffffffffffffffffffffff16905060008173ffffffffffffffffffffffffffffffffffffffff166398fa2fb8886040518263ffffffff1660e01b815260040161144e9190612d8d565b60006040518083038186803b15801561146657600080fd5b505afa15801561147a573d6000803e3d6000fd5b505050506040513d6000823e3d601f19601f820116820180604052508101906114a39190612659565b6060015190506040516020016114b890612ce2565b60405160208183030381529060405280519060200120816040516020016114df9190612ca1565b60405160208183030381529060405280519060200120141561150457600992506115c4565b60405160200161151390612ccd565b604051602081830303815290604052805190602001208160405160200161153a9190612ca1565b60405160208183030381529060405280519060200120141561155f57606392506115c3565b60405160200161156e90612cb8565b60405160208183030381529060405280519060200120816040516020016115959190612ca1565b6040516020818303038152906040528051906020012014156115bd57633b9aca0092506115c2565b600080fd5b5b5b826007886040516115d59190612ca1565b90815260200160405180910390208054905011156115f257600080fd5b6115fc6002612021565b60006116086002612013565b905060008690506040518061010001604052808381526020018981526020018281526020018a81526020018773ffffffffffffffffffffffffffffffffffffffff1681526020013373ffffffffffffffffffffffffffffffffffffffff168152602001600015158152602001600115158152506006600084815260200190815260200160002060008201518160000155602082015181600101556040820151816002015560608201518160030190805190602001906116c892919061220e565b5060808201518160040160006101000a81548173ffffffffffffffffffffffffffffffffffffffff021916908373ffffffffffffffffffffffffffffffffffffffff16021790555060a08201518160050160006101000a81548173ffffffffffffffffffffffffffffffffffffffff021916908373ffffffffffffffffffffffffffffffffffffffff16021790555060c08201518160050160146101000a81548160ff02191690831515021790555060e08201518160050160156101000a81548160ff0219169083151502179055509050508573ffffffffffffffffffffffffffffffffffffffff166323b872dd33308b6040518463ffffffff1660e01b81526004016117d793929190612d12565b600060405180830381600087803b1580156117f157600080fd5b505af1158015611805573d6000803e3d6000fd5b505050506007896040516118199190612ca1565b90815260200160405180910390208290806001815401808255809150506001900390600052602060002001600090919091909150553373ffffffffffffffffffffffffffffffffffffffff168673ffffffffffffffffffffffffffffffffffffffff16837f35f37b604f3adfcf05dbb34225b7636fa7138d2c082ddcfc8e913915004c58b38b858e600060016040516118b6959493929190612f2e565b60405180910390a45050505050600160008190555050505050565b3373ffffffffffffffffffffffffffffffffffffffff166006600085815260200190815260200160002060050160009054906101000a900473ffffffffffffffffffffffffffffffffffffffff1673ffffffffffffffffffffffffffffffffffffffff1614611975576040517f08c379a000000000000000000000000000000000000000000000000000000000815260040161196c90612df1565b60405180910390fd5b60006006600085815260200190815260200160002060050160146101000a81548160ff02191690831515021790555060006006600085815260200190815260200160002060050160156101000a81548160ff02191690831515021790555081600660008581526020019081526020016000206002018190555060016006600085815260200190815260200160002060050160156101000a81548160ff021916908315150217905550611a2760036120fd565b8073ffffffffffffffffffffffffffffffffffffffff166323b872dd3330866040518463ffffffff1660e01b8152600401611a6493929190612d12565b600060405180830381600087803b158015611a7e57600080fd5b505af1158015611a92573d6000803e3d6000fd5b50505050505050565b6000600160009054906101000a900473ffffffffffffffffffffffffffffffffffffffff16905090565b60606000611ad36002612013565b90506000611ae16003612013565b611aeb6002612013565b611af5919061317e565b90506000808267ffffffffffffffff811115611b3a577f4e487b7100000000000000000000000000000000000000000000000000000000600052604160045260246000fd5b604051908082528060200260200182016040528015611b7357816020015b611b60612159565b815260200190600190039081611b585790505b50905060005b84811015611e2857600073ffffffffffffffffffffffffffffffffffffffff1660066000600184611baa919061309d565b815260200190815260200160002060050160009054906101000a900473ffffffffffffffffffffffffffffffffffffffff1673ffffffffffffffffffffffffffffffffffffffff161415611e15576000600182611c07919061309d565b905060006006600083815260200190815260200160002090508060405180610100016040529081600082015481526020016001820154815260200160028201548152602001600382018054611c5b9061324e565b80601f0160208091040260200160405190810160405280929190818152602001828054611c879061324e565b8015611cd45780601f10611ca957610100808354040283529160200191611cd4565b820191906000526020600020905b815481529060010190602001808311611cb757829003601f168201915b505050505081526020016004820160009054906101000a900473ffffffffffffffffffffffffffffffffffffffff1673ffffffffffffffffffffffffffffffffffffffff1673ffffffffffffffffffffffffffffffffffffffff1681526020016005820160009054906101000a900473ffffffffffffffffffffffffffffffffffffffff1673ffffffffffffffffffffffffffffffffffffffff1673ffffffffffffffffffffffffffffffffffffffff1681526020016005820160149054906101000a900460ff161515151581526020016005820160159054906101000a900460ff161515151581525050848681518110611df8577f4e487b7100000000000000000000000000000000000000000000000000000000600052603260045260246000fd5b6020026020010181905250600185611e10919061309d565b945050505b8080611e20906132b1565b915050611b79565b508094505050505090565b611e3b61200b565b73ffffffffffffffffffffffffffffffffffffffff16611e59611a9b565b73ffffffffffffffffffffffffffffffffffffffff1614611eaf576040517f08c379a0000000000000000000000000000000000000000000000000000000008152600401611ea690612e91565b60405180910390fd5b80600460006101000a81548173ffffffffffffffffffffffffffffffffffffffff021916908373ffffffffffffffffffffffffffffffffffffffff16021790555050565b600060066000838152602001908152602001600020600201549050919050565b611f1b61200b565b73ffffffffffffffffffffffffffffffffffffffff16611f39611a9b565b73ffffffffffffffffffffffffffffffffffffffff1614611f8f576040517f08c379a0000000000000000000000000000000000000000000000000000000008152600401611f8690612e91565b60405180910390fd5b600073ffffffffffffffffffffffffffffffffffffffff168173ffffffffffffffffffffffffffffffffffffffff161415611fff576040517f08c379a0000000000000000000000000000000000000000000000000000000008152600401611ff690612e31565b60405180910390fd5b61200881612037565b50565b600033905090565b600081600001549050919050565b6001816000016000828254019250508190555050565b6000600160009054906101000a900473ffffffffffffffffffffffffffffffffffffffff16905081600160006101000a81548173ffffffffffffffffffffffffffffffffffffffff021916908373ffffffffffffffffffffffffffffffffffffffff1602179055508173ffffffffffffffffffffffffffffffffffffffff168173ffffffffffffffffffffffffffffffffffffffff167f8be0079c531659141344cd1fd0a4f28419497f9722a3daafe3b4186f6b6457e060405160405180910390a35050565b60008160000154905060008111612149576040517f08c379a000000000000000000000000000000000000000000000000000000000815260040161214090612e11565b60405180910390fd5b6001810382600001819055505050565b60405180610100016040528060008152602001600081526020016000815260200160608152602001600073ffffffffffffffffffffffffffffffffffffffff168152602001600073ffffffffffffffffffffffffffffffffffffffff1681526020016000151581526020016000151581525090565b5080546121da9061324e565b6000825580601f106121ec575061220b565b601f01602090049060005260206000209081019061220a9190612294565b5b50565b82805461221a9061324e565b90600052602060002090601f01602090048101928261223c5760008555612283565b82601f1061225557805160ff1916838001178555612283565b82800160010185558215612283579182015b82811115612282578251825591602001919060010190612267565b5b5090506122909190612294565b5090565b5b808211156122ad576000816000905550600101612295565b5090565b60006122c46122bf84612fad565b612f88565b9050828152602081018484840111156122dc57600080fd5b6122e784828561320c565b509392505050565b60006123026122fd84612fad565b612f88565b90508281526020810184848401111561231a57600080fd5b61232584828561321b565b509392505050565b60008135905061233c816135ff565b92915050565b60008135905061235181613616565b92915050565b60008151905061236681613616565b92915050565b60008151905061237b8161362d565b92915050565b600082601f83011261239257600080fd5b81356123a28482602086016122b1565b91505092915050565b600082601f8301126123bc57600080fd5b81516123cc8482602086016122ef565b91505092915050565b600060e082840312156123e757600080fd5b6123f160e0612f88565b90506000612401848285016124fa565b600083015250602082015167ffffffffffffffff81111561242157600080fd5b61242d848285016123ab565b602083015250604082015167ffffffffffffffff81111561244d57600080fd5b612459848285016123ab565b604083015250606082015167ffffffffffffffff81111561247957600080fd5b612485848285016123ab565b606083015250608061249984828501612357565b60808301525060a082015167ffffffffffffffff8111156124b957600080fd5b6124c5848285016123ab565b60a08301525060c06124d98482850161236c565b60c08301525092915050565b6000813590506124f481613644565b92915050565b60008151905061250981613644565b92915050565b60006020828403121561252157600080fd5b600061252f8482850161232d565b91505092915050565b60006020828403121561254a57600080fd5b600061255884828501612342565b91505092915050565b6000806040838503121561257457600080fd5b60006125828582860161232d565b9250506020612593858286016124e5565b9150509250929050565b6000602082840312156125af57600080fd5b600082013567ffffffffffffffff8111156125c957600080fd5b6125d584828501612381565b91505092915050565b600080600080608085870312156125f457600080fd5b600085013567ffffffffffffffff81111561260e57600080fd5b61261a87828801612381565b945050602061262b878288016124e5565b935050604061263c878288016124e5565b925050606061264d8782880161232d565b91505092959194509250565b60006020828403121561266b57600080fd5b600082015167ffffffffffffffff81111561268557600080fd5b612691848285016123d5565b91505092915050565b6000602082840312156126ac57600080fd5b60006126ba848285016124e5565b91505092915050565b6000806000606084860312156126d857600080fd5b60006126e6868287016124e5565b93505060206126f7868287016124e5565b92505060406127088682870161232d565b9150509250925092565b600061271e8383612b23565b905092915050565b60006127328383612c83565b60208301905092915050565b612747816131c4565b82525050565b612756816131b2565b82525050565b612765816131b2565b82525050565b600061277682613013565b612780818561304e565b93508360208202850161279285612fde565b8060005b858110156127ce57848403895281516127af8582612712565b94506127ba83613034565b925060208a01995050600181019050612796565b50829750879550505050505092915050565b60006127eb8261301e565b6127f5818561305f565b935061280083612fee565b8060005b838110156128315781516128188882612726565b975061282383613041565b925050600181019050612804565b5085935050505092915050565b612847816131d6565b82525050565b612856816131d6565b82525050565b600061286782613029565b6128718185613070565b935061288181856020860161321b565b61288a816133b6565b840191505092915050565b60006128a082613029565b6128aa8185613081565b93506128ba81856020860161321b565b6128c3816133b6565b840191505092915050565b60006128d982613029565b6128e38185613092565b93506128f381856020860161321b565b80840191505092915050565b6000815461290c8161324e565b6129168186613081565b94506001821660008114612931576001811461294357612976565b60ff1983168652602086019350612976565b61294c85612ffe565b60005b8381101561296e5781548189015260018201915060208101905061294f565b808801955050505b50505092915050565b600061298c602083613081565b9150612997826133c7565b602082019050919050565b60006129af601583613081565b91506129ba826133f0565b602082019050919050565b60006129d2601b83613081565b91506129dd82613419565b602082019050919050565b60006129f5602683613081565b9150612a0082613442565b604082019050919050565b6000612a18600983613092565b9150612a2382613491565b600982019050919050565b6000612a3b601f83613081565b9150612a46826134ba565b602082019050919050565b6000612a5e600383613092565b9150612a69826134e3565b600382019050919050565b6000612a81604083613081565b9150612a8c8261350c565b604082019050919050565b6000612aa4602083613081565b9150612aaf8261355b565b602082019050919050565b6000612ac7600583613092565b9150612ad282613584565b600582019050919050565b6000612aea600983613081565b9150612af5826135ad565b602082019050919050565b6000612b0d601f83613081565b9150612b18826135d6565b602082019050919050565b600061010083016000830151612b3c6000860182612c83565b506020830151612b4f6020860182612c83565b506040830151612b626040860182612c83565b5060608301518482036060860152612b7a828261285c565b9150506080830151612b8f608086018261274d565b5060a0830151612ba260a086018261273e565b5060c0830151612bb560c086018261283e565b5060e0830151612bc860e086018261283e565b508091505092915050565b600061010083016000830151612bec6000860182612c83565b506020830151612bff6020860182612c83565b506040830151612c126040860182612c83565b5060608301518482036060860152612c2a828261285c565b9150506080830151612c3f608086018261274d565b5060a0830151612c5260a086018261273e565b5060c0830151612c6560c086018261283e565b5060e0830151612c7860e086018261283e565b508091505092915050565b612c8c81613202565b82525050565b612c9b81613202565b82525050565b6000612cad82846128ce565b915081905092915050565b6000612cc382612a0b565b9150819050919050565b6000612cd882612a51565b9150819050919050565b6000612ced82612aba565b9150819050919050565b6000602082019050612d0c600083018461275c565b92915050565b6000606082019050612d27600083018661275c565b612d34602083018561275c565b612d416040830184612c92565b949350505050565b60006020820190508181036000830152612d63818461276b565b905092915050565b60006020820190508181036000830152612d8581846127e0565b905092915050565b60006020820190508181036000830152612da78184612895565b905092915050565b60006020820190508181036000830152612dc981846128ff565b905092915050565b60006020820190508181036000830152612dea8161297f565b9050919050565b60006020820190508181036000830152612e0a816129a2565b9050919050565b60006020820190508181036000830152612e2a816129c5565b9050919050565b60006020820190508181036000830152612e4a816129e8565b9050919050565b60006020820190508181036000830152612e6a81612a2e565b9050919050565b60006020820190508181036000830152612e8a81612a74565b9050919050565b60006020820190508181036000830152612eaa81612a97565b9050919050565b60006020820190508181036000830152612eca81612add565b9050919050565b60006020820190508181036000830152612eea81612b00565b9050919050565b60006020820190508181036000830152612f0b8184612bd3565b905092915050565b6000602082019050612f286000830184612c92565b92915050565b600060a082019050612f436000830188612c92565b612f506020830187612c92565b8181036040830152612f628186612895565b9050612f71606083018561284d565b612f7e608083018461284d565b9695505050505050565b6000612f92612fa3565b9050612f9e8282613280565b919050565b6000604051905090565b600067ffffffffffffffff821115612fc857612fc7613387565b5b612fd1826133b6565b9050602081019050919050565b6000819050602082019050919050565b6000819050602082019050919050565b60008190508160005260206000209050919050565b600081519050919050565b600081519050919050565b600081519050919050565b6000602082019050919050565b6000602082019050919050565b600082825260208201905092915050565b600082825260208201905092915050565b600082825260208201905092915050565b600082825260208201905092915050565b600081905092915050565b60006130a882613202565b91506130b383613202565b9250827fffffffffffffffffffffffffffffffffffffffffffffffffffffffffffffffff038211156130e8576130e76132fa565b5b828201905092915050565b60006130fe82613202565b915061310983613202565b92508261311957613118613329565b5b828204905092915050565b600061312f82613202565b915061313a83613202565b9250817fffffffffffffffffffffffffffffffffffffffffffffffffffffffffffffffff0483118215151615613173576131726132fa565b5b828202905092915050565b600061318982613202565b915061319483613202565b9250828210156131a7576131a66132fa565b5b828203905092915050565b60006131bd826131e2565b9050919050565b60006131cf826131e2565b9050919050565b60008115159050919050565b600073ffffffffffffffffffffffffffffffffffffffff82169050919050565b6000819050919050565b82818337600083830152505050565b60005b8381101561323957808201518184015260208101905061321e565b83811115613248576000848401525b50505050565b6000600282049050600182168061326657607f821691505b6020821081141561327a57613279613358565b5b50919050565b613289826133b6565b810181811067ffffffffffffffff821117156132a8576132a7613387565b5b80604052505050565b60006132bc82613202565b91507fffffffffffffffffffffffffffffffffffffffffffffffffffffffffffffffff8214156132ef576132ee6132fa565b5b600182019050919050565b7f4e487b7100000000000000000000000000000000000000000000000000000000600052601160045260246000fd5b7f4e487b7100000000000000000000000000000000000000000000000000000000600052601260045260246000fd5b7f4e487b7100000000000000000000000000000000000000000000000000000000600052602260045260246000fd5b7f4e487b7100000000000000000000000000000000000000000000000000000000600052604160045260246000fd5b6000601f19601f8301169050919050565b7f54686973206c697374696e67206973206e6f206c6f6e67657220616374697665600082015250565b7f4f6e6c79206f776e65722063616e2072656c6973740000000000000000000000600082015250565b7f436f756e7465723a2064656372656d656e74206f766572666c6f770000000000600082015250565b7f4f776e61626c653a206e6577206f776e657220697320746865207a65726f206160008201527f6464726573730000000000000000000000000000000000000000000000000000602082015250565b7f756e6c696d697465640000000000000000000000000000000000000000000000600082015250565b7f54686973206974656d2068617320616c7265616479206265656e20736f6c6400600082015250565b7f70726f0000000000000000000000000000000000000000000000000000000000600082015250565b7f506c65617365207375626d6974207468652061736b696e67207072696365206960008201527f6e206f7264657220746f20636f6d706c65746520746865207075726368617365602082015250565b7f4f776e61626c653a2063616c6c6572206973206e6f7420746865206f776e6572600082015250565b7f6261736963000000000000000000000000000000000000000000000000000000600082015250565b7f4e6f74206f776e65720000000000000000000000000000000000000000000000600082015250565b7f5265656e7472616e637947756172643a207265656e7472616e742063616c6c00600082015250565b613608816131b2565b811461361357600080fd5b50565b61361f816131c4565b811461362a57600080fd5b50565b613636816131d6565b811461364157600080fd5b50565b61364d81613202565b811461365857600080fd5b5056fea26469706673582212202af7580b06722c9916eaa3c56866dcaff3660b8ff770891fb431dabee219951164736f6c63430008040033",
  "linkReferences": {},
  "deployedLinkReferences": {}
}